{
  "contracts/Sapien.sol": {
    "Sapien": {
      "abi": [
        {
          "inputs": [],
          "stateMutability": "nonpayable",
          "type": "constructor"
        },
        {
          "anonymous": false,
          "inputs": [
            {
              "indexed": true,
              "internalType": "address",
              "name": "owner",
              "type": "address"
            },
            {
              "indexed": true,
              "internalType": "address",
              "name": "approved",
              "type": "address"
            },
            {
              "indexed": true,
              "internalType": "uint256",
              "name": "tokenId",
              "type": "uint256"
            }
          ],
          "name": "Approval",
          "type": "event"
        },
        {
          "anonymous": false,
          "inputs": [
            {
              "indexed": true,
              "internalType": "address",
              "name": "owner",
              "type": "address"
            },
            {
              "indexed": true,
              "internalType": "address",
              "name": "operator",
              "type": "address"
            },
            {
              "indexed": false,
              "internalType": "bool",
              "name": "approved",
              "type": "bool"
            }
          ],
          "name": "ApprovalForAll",
          "type": "event"
        },
        {
          "anonymous": false,
          "inputs": [
            {
              "indexed": true,
              "internalType": "address",
              "name": "previousOwner",
              "type": "address"
            },
            {
              "indexed": true,
              "internalType": "address",
              "name": "newOwner",
              "type": "address"
            }
          ],
          "name": "OwnershipTransferred",
          "type": "event"
        },
        {
          "anonymous": false,
          "inputs": [
            {
              "indexed": true,
              "internalType": "address",
              "name": "from",
              "type": "address"
            },
            {
              "indexed": true,
              "internalType": "address",
              "name": "to",
              "type": "address"
            },
            {
              "indexed": true,
              "internalType": "uint256",
              "name": "tokenId",
              "type": "uint256"
            }
          ],
          "name": "Transfer",
          "type": "event"
        },
        {
          "inputs": [],
          "name": "EXTENSION",
          "outputs": [
            {
              "internalType": "bytes32",
              "name": "",
              "type": "bytes32"
            }
          ],
          "stateMutability": "view",
          "type": "function"
        },
        {
          "inputs": [
            {
              "internalType": "address",
              "name": "to",
              "type": "address"
            },
            {
              "internalType": "uint256",
              "name": "tokenId",
              "type": "uint256"
            }
          ],
          "name": "approve",
          "outputs": [],
          "stateMutability": "nonpayable",
          "type": "function"
        },
        {
          "inputs": [
            {
              "internalType": "address",
              "name": "owner",
              "type": "address"
            }
          ],
          "name": "balanceOf",
          "outputs": [
            {
              "internalType": "uint256",
              "name": "",
              "type": "uint256"
            }
          ],
          "stateMutability": "view",
          "type": "function"
        },
        {
          "inputs": [],
          "name": "config",
          "outputs": [
            {
              "internalType": "bool",
              "name": "active",
              "type": "bool"
            },
            {
              "internalType": "bool",
              "name": "presale_active",
              "type": "bool"
            },
            {
              "internalType": "bool",
              "name": "paused",
              "type": "bool"
            },
            {
              "internalType": "bool",
              "name": "revealed",
              "type": "bool"
            },
            {
              "internalType": "uint16",
              "name": "starting_idx",
              "type": "uint16"
            },
            {
              "internalType": "uint16",
              "name": "_tokenIds",
              "type": "uint16"
            },
            {
              "internalType": "uint16",
              "name": "max_supply",
              "type": "uint16"
            },
            {
              "internalType": "uint16",
              "name": "max_mint",
              "type": "uint16"
            },
            {
              "internalType": "uint16",
              "name": "GIVEAWAYS",
              "type": "uint16"
            }
          ],
          "stateMutability": "view",
          "type": "function"
        },
        {
          "inputs": [],
          "name": "devMint",
          "outputs": [],
          "stateMutability": "nonpayable",
          "type": "function"
        },
        {
          "inputs": [
            {
              "internalType": "uint256",
              "name": "tokenId",
              "type": "uint256"
            }
          ],
          "name": "getApproved",
          "outputs": [
            {
              "internalType": "address",
              "name": "",
              "type": "address"
            }
          ],
          "stateMutability": "view",
          "type": "function"
        },
        {
          "inputs": [],
          "name": "getMaxMint",
          "outputs": [
            {
              "internalType": "uint16",
              "name": "",
              "type": "uint16"
            }
          ],
          "stateMutability": "view",
          "type": "function"
        },
        {
          "inputs": [],
          "name": "getMaxSupply",
          "outputs": [
            {
              "internalType": "uint16",
              "name": "",
              "type": "uint16"
            }
          ],
          "stateMutability": "view",
          "type": "function"
        },
        {
          "inputs": [
            {
              "internalType": "address",
              "name": "owner",
              "type": "address"
            },
            {
              "internalType": "address",
              "name": "operator",
              "type": "address"
            }
          ],
          "name": "isApprovedForAll",
          "outputs": [
            {
              "internalType": "bool",
              "name": "",
              "type": "bool"
            }
          ],
          "stateMutability": "view",
          "type": "function"
        },
        {
          "inputs": [
            {
              "internalType": "bytes",
              "name": "_signature",
              "type": "bytes"
            },
            {
              "internalType": "address",
              "name": "_user",
              "type": "address"
            }
          ],
          "name": "isWhitelisted",
          "outputs": [
            {
              "internalType": "bool",
              "name": "",
              "type": "bool"
            }
          ],
          "stateMutability": "view",
          "type": "function"
        },
        {
          "inputs": [
            {
              "internalType": "uint16",
              "name": "quantity",
              "type": "uint16"
            }
          ],
          "name": "mint",
          "outputs": [],
          "stateMutability": "payable",
          "type": "function"
        },
        {
          "inputs": [],
          "name": "name",
          "outputs": [
            {
              "internalType": "string",
              "name": "",
              "type": "string"
            }
          ],
          "stateMutability": "view",
          "type": "function"
        },
        {
          "inputs": [],
          "name": "owner",
          "outputs": [
            {
              "internalType": "address",
              "name": "",
              "type": "address"
            }
          ],
          "stateMutability": "view",
          "type": "function"
        },
        {
          "inputs": [
            {
              "internalType": "uint256",
              "name": "tokenId",
              "type": "uint256"
            }
          ],
          "name": "ownerOf",
          "outputs": [
            {
              "internalType": "address",
              "name": "",
              "type": "address"
            }
          ],
          "stateMutability": "view",
          "type": "function"
        },
        {
          "inputs": [],
          "name": "presaleActive",
          "outputs": [
            {
              "internalType": "bool",
              "name": "",
              "type": "bool"
            }
          ],
          "stateMutability": "view",
          "type": "function"
        },
        {
          "inputs": [],
          "name": "publicSaleActive",
          "outputs": [
            {
              "internalType": "bool",
              "name": "",
              "type": "bool"
            }
          ],
          "stateMutability": "view",
          "type": "function"
        },
        {
          "inputs": [],
          "name": "renounceOwnership",
          "outputs": [],
          "stateMutability": "nonpayable",
          "type": "function"
        },
        {
          "inputs": [
            {
              "internalType": "address",
              "name": "from",
              "type": "address"
            },
            {
              "internalType": "address",
              "name": "to",
              "type": "address"
            },
            {
              "internalType": "uint256",
              "name": "tokenId",
              "type": "uint256"
            }
          ],
          "name": "safeTransferFrom",
          "outputs": [],
          "stateMutability": "nonpayable",
          "type": "function"
        },
        {
          "inputs": [
            {
              "internalType": "address",
              "name": "from",
              "type": "address"
            },
            {
              "internalType": "address",
              "name": "to",
              "type": "address"
            },
            {
              "internalType": "uint256",
              "name": "tokenId",
              "type": "uint256"
            },
            {
              "internalType": "bytes",
              "name": "_data",
              "type": "bytes"
            }
          ],
          "name": "safeTransferFrom",
          "outputs": [],
          "stateMutability": "nonpayable",
          "type": "function"
        },
        {
          "inputs": [
            {
              "internalType": "address",
              "name": "operator",
              "type": "address"
            },
            {
              "internalType": "bool",
              "name": "approved",
              "type": "bool"
            }
          ],
          "name": "setApprovalForAll",
          "outputs": [],
          "stateMutability": "nonpayable",
          "type": "function"
        },
        {
          "inputs": [
            {
              "internalType": "string",
              "name": "_url",
              "type": "string"
            }
          ],
          "name": "setBaseURL",
          "outputs": [],
          "stateMutability": "nonpayable",
          "type": "function"
        },
        {
          "inputs": [],
          "name": "setPaused",
          "outputs": [],
          "stateMutability": "nonpayable",
          "type": "function"
        },
        {
          "inputs": [],
          "name": "setPresale",
          "outputs": [],
          "stateMutability": "nonpayable",
          "type": "function"
        },
        {
          "inputs": [
            {
              "internalType": "string",
              "name": "_provenance",
              "type": "string"
            }
          ],
          "name": "setProvenanceHash",
          "outputs": [],
          "stateMutability": "nonpayable",
          "type": "function"
        },
        {
          "inputs": [],
          "name": "setPublicSale",
          "outputs": [],
          "stateMutability": "nonpayable",
          "type": "function"
        },
        {
          "inputs": [],
          "name": "setStartingIdx",
          "outputs": [],
          "stateMutability": "nonpayable",
          "type": "function"
        },
        {
          "inputs": [
            {
              "internalType": "bytes4",
              "name": "interfaceId",
              "type": "bytes4"
            }
          ],
          "name": "supportsInterface",
          "outputs": [
            {
              "internalType": "bool",
              "name": "",
              "type": "bool"
            }
          ],
          "stateMutability": "view",
          "type": "function"
        },
        {
          "inputs": [],
          "name": "symbol",
          "outputs": [
            {
              "internalType": "string",
              "name": "",
              "type": "string"
            }
          ],
          "stateMutability": "view",
          "type": "function"
        },
        {
          "inputs": [
            {
              "internalType": "string",
              "name": "_url",
              "type": "string"
            }
          ],
          "name": "toggleReveal",
          "outputs": [],
          "stateMutability": "nonpayable",
          "type": "function"
        },
        {
          "inputs": [
            {
              "internalType": "uint256",
              "name": "_tokenId",
              "type": "uint256"
            }
          ],
          "name": "tokenURI",
          "outputs": [
            {
              "internalType": "string",
              "name": "",
              "type": "string"
            }
          ],
          "stateMutability": "view",
          "type": "function"
        },
        {
          "inputs": [],
          "name": "totalSupply",
          "outputs": [
            {
              "internalType": "uint16",
              "name": "",
              "type": "uint16"
            }
          ],
          "stateMutability": "view",
          "type": "function"
        },
        {
          "inputs": [
            {
              "internalType": "address",
              "name": "from",
              "type": "address"
            },
            {
              "internalType": "address",
              "name": "to",
              "type": "address"
            },
            {
              "internalType": "uint256",
              "name": "tokenId",
              "type": "uint256"
            }
          ],
          "name": "transferFrom",
          "outputs": [],
          "stateMutability": "nonpayable",
          "type": "function"
        },
        {
          "inputs": [
            {
              "internalType": "address",
              "name": "newOwner",
              "type": "address"
            }
          ],
          "name": "transferOwnership",
          "outputs": [],
          "stateMutability": "nonpayable",
          "type": "function"
        },
        {
          "inputs": [
            {
              "internalType": "bytes",
              "name": "_signature",
              "type": "bytes"
            },
            {
              "internalType": "uint16",
              "name": "quantity",
              "type": "uint16"
            }
          ],
          "name": "whitelistMint",
          "outputs": [],
          "stateMutability": "payable",
          "type": "function"
        },
        {
          "inputs": [],
          "name": "withdraw",
          "outputs": [],
          "stateMutability": "payable",
          "type": "function"
        }
      ],
      "evm": {
        "bytecode": {
          "linkReferences": {},
          "object": "60c060405267016345785d8a000060065564173539b7b760d91b600a55600d80546001600160a01b031990811673103ece5b498b9c425295f58148aa5bdac757570817909155600e8054821673ab8483f64d9c6d1ecf9b849ae677dd3315835cb2179055600f80548216734b20993bc481177ec7e8f571cecae8a9e22c02db1790556010805482167378731d3ca6b7e34ac0f824c42a7cc18a495cabab1790556011805490911673617f2e2fd72fd9d5503197092ac168c91465e7f2179055348015620000cb57600080fd5b50604080518082018252601081526f1193d353c814d05412515394c813919560821b60208083019182528351808501909452600684526529a0a824a2a760d11b90840152815191929161177091600591620001299160009162000202565b5082516200013f90600190602086019062000202565b5060809190915260a052506200016090506200015a620001ac565b620001b0565b600c805461ffff60401b191669177000000000000000001761ffff60501b19166a05000000000000000000001761ffff60601b19166c1e000000000000000000000000179055620002e5565b3390565b600580546001600160a01b038381166001600160a01b0319831681179093556040519116919082907f8be0079c531659141344cd1fd0a4f28419497f9722a3daafe3b4186f6b6457e090600090a35050565b8280546200021090620002a8565b90600052602060002090601f0160209004810192826200023457600085556200027f565b82601f106200024f57805160ff19168380011785556200027f565b828001600101855582156200027f579182015b828111156200027f57825182559160200191906001019062000262565b506200028d92915062000291565b5090565b5b808211156200028d576000815560010162000292565b600281046001821680620002bd57607f821691505b60208210811415620002df57634e487b7160e01b600052602260045260246000fd5b50919050565b60805160a0516136336200032e60003960008181610fc30152610ffe015260008181610f9a015281816118b70152818161196201528181611a060152611cc201526136336000f3fe6080604052600436106102045760003560e01c806353135ca01161011857806395d89b41116100a0578063bc8893b41161006f578063bc8893b41461055e578063c87b56dd14610573578063dcc4074414610593578063e985e9c5146105a8578063f2fde38b146105c857610204565b806395d89b41146104e9578063a22cb465146104fe578063a3540c101461051e578063b88d4fde1461053e57610204565b806370a08231116100e757806370a0823114610460578063715018a61461048057806379502c55146104955780637c69e207146104bf5780638da5cb5b146104d457610204565b806353135ca0146103f657806356f8f78c1461040b5780635d8c2efd146104205780636352211e1461044057610204565b806323b872dd1161019b5780633ccfd60b1161016a5780633ccfd60b1461037757806342842e0e1461037f57806346f136191461039f57806349f2553a146103c15780634c0f38c2146103e157610204565b806323b872dd1461031c57806323cf0a221461033c5780632c0b3d7c1461034f57806337a66d851461036257610204565b806310969523116101d757806310969523146102b057806318160ddd146102d057806318509269146102f25780631f46452f1461030757610204565b806301ffc9a71461020957806306fdde031461023f578063081812fc14610261578063095ea7b31461028e575b600080fd5b34801561021557600080fd5b506102296102243660046126e2565b6105e8565b60405161023691906129eb565b60405180910390f35b34801561024b57600080fd5b50610254610630565b6040516102369190612a6a565b34801561026d57600080fd5b5061028161027c366004612815565b6106c2565b604051610236919061297e565b34801561029a57600080fd5b506102ae6102a93660046126b9565b610715565b005b3480156102bc57600080fd5b506102ae6102cb3660046127b5565b6107b2565b3480156102dc57600080fd5b506102e561082c565b6040516102369190613385565b3480156102fe57600080fd5b506102ae61083d565b34801561031357600080fd5b506102e5610889565b34801561032857600080fd5b506102ae6103373660046125cb565b61089a565b6102ae61034a3660046127fb565b6108d2565b6102ae61035d36600461276c565b610a3a565b34801561036e57600080fd5b506102ae610bb6565b6102ae610c14565b34801561038b57600080fd5b506102ae61039a3660046125cb565b610e0e565b3480156103ab57600080fd5b506103b4610e2d565b6040516102369190612a43565b3480156103cd57600080fd5b506102ae6103dc3660046127b5565b610e33565b3480156103ed57600080fd5b506102e5610e89565b34801561040257600080fd5b50610229610e9a565b34801561041757600080fd5b506102ae610ea8565b34801561042c57600080fd5b506102ae61043b3660046127b5565b610efb565b34801561044c57600080fd5b5061028161045b366004612815565b610f70565b34801561046c57600080fd5b506103b461047b366004612578565b611103565b34801561048c57600080fd5b506102ae611150565b3480156104a157600080fd5b506104aa611199565b604051610236999897969594939291906129f6565b3480156104cb57600080fd5b506102ae6111f6565b3480156104e057600080fd5b506102816112dc565b3480156104f557600080fd5b506102546112eb565b34801561050a57600080fd5b506102ae61051936600461267f565b6112fa565b34801561052a57600080fd5b5061022961053936600461271a565b611335565b34801561054a57600080fd5b506102ae610559366004612606565b6113cd565b34801561056a57600080fd5b5061022961140c565b34801561057f57600080fd5b5061025461058e366004612815565b611415565b34801561059f57600080fd5b506102ae6114f0565b3480156105b457600080fd5b506102296105c3366004612599565b61154c565b3480156105d457600080fd5b506102ae6105e3366004612578565b61157a565b60006001600160e01b031982166380ac58cd60e01b148061061957506001600160e01b03198216635b5e139f60e01b145b806106285750610628826115eb565b90505b919050565b60606000805461063f906134f8565b80601f016020809104026020016040519081016040528092919081815260200182805461066b906134f8565b80156106b85780601f1061068d576101008083540402835291602001916106b8565b820191906000526020600020905b81548152906001019060200180831161069b57829003601f168201915b5050505050905090565b60006106cd82611604565b6106f25760405162461bcd60e51b81526004016106e990613085565b60405180910390fd5b5061ffff166000908152600260205260409020600101546001600160a01b031690565b60006107248261ffff16610f70565b9050806001600160a01b0316836001600160a01b031614156107585760405162461bcd60e51b81526004016106e990613115565b806001600160a01b031661076a6116ac565b6001600160a01b031614806107865750610786816105c36116ac565b6107a25760405162461bcd60e51b81526004016106e990612d25565b6107ad8383836116b0565b505050565b6107ba6116ac565b6001600160a01b03166107cb6112dc565b6001600160a01b0316146107f15760405162461bcd60e51b81526004016106e990612fe2565b600954156108115760405162461bcd60e51b81526004016106e990612ca8565b8051610824906008906020840190612406565b505043600955565b600c54600160301b900461ffff1690565b6108456116ac565b6001600160a01b03166108566112dc565b6001600160a01b03161461087c5760405162461bcd60e51b81526004016106e990612fe2565b610887600954611715565b565b600c54600160501b900461ffff1690565b6108ab6108a56116ac565b82611780565b6108c75760405162461bcd60e51b81526004016106e990612e0e565b6107ad83838361180d565b600c5461ffff600160301b8204169060ff166109005760405162461bcd60e51b81526004016106e990613017565b32331461091f5760405162461bcd60e51b81526004016106e990613344565b8161ffff166006546109319190613435565b341461094f5760405162461bcd60e51b81526004016106e990613157565b600c54600160401b900461ffff1661096783836133cb565b61ffff1611156109895760405162461bcd60e51b81526004016106e990612e6b565b600c5461ffff600160501b90910481169083166109a533611103565b6109af91906133e8565b11156109cd5760405162461bcd60e51b81526004016106e990612c4b565b600c5461ffff600160501b909104811690831611156109fe5760405162461bcd60e51b81526004016106e990612f00565b610a083383611b9e565b610a1282826133cb565b600c805461ffff92909216600160301b0267ffff000000000000199092169190911790555050565b600c54610100900460ff16610a615760405162461bcd60e51b81526004016106e9906131eb565b323314610a805760405162461bcd60e51b81526004016106e990613344565b610a8b838333611335565b610aa75760405162461bcd60e51b81526004016106e990612ba9565b8061ffff16600654610ab99190613435565b3414610ad75760405162461bcd60e51b81526004016106e990613157565b600c5461ffff600160501b90910481169082161115610b085760405162461bcd60e51b81526004016106e9906130d2565b600c54336000908152600b6020526040902054600160501b90910461ffff1611610b445760405162461bcd60e51b81526004016106e990612bee565b336000908152600b60205260408120805461ffff84169290610b679084906133e8565b90915550610b7790503382611b9e565b600c8054829190600690610b97908490600160301b900461ffff166133cb565b92506101000a81548161ffff021916908361ffff160217905550505050565b610bbe6116ac565b6001600160a01b0316610bcf6112dc565b6001600160a01b031614610bf55760405162461bcd60e51b81526004016106e990612fe2565b600c805462ff0000198116620100009182900460ff1615909102179055565b610c1c6116ac565b6001600160a01b0316610c2d6112dc565b6001600160a01b031614610c535760405162461bcd60e51b81526004016106e990612fe2565b600e546000906001600160a01b03166064610c6f476014613435565b610c799190613421565b604051610c859061297b565b60006040518083038185875af1925050503d8060008114610cc2576040519150601f19603f3d011682016040523d82523d6000602084013e610cc7565b606091505b5050905080610cd557600080fd5b60006064610ce4476021613435565b610cee9190613421565b600f546040519192506001600160a01b03169082156108fc029083906000818181858888f19350505050158015610d29573d6000803e3d6000fd5b506010546040516001600160a01b039091169082156108fc029083906000818181858888f19350505050158015610d64573d6000803e3d6000fd5b506011546040516001600160a01b039091169082156108fc029083906000818181858888f19350505050158015610d9f573d6000803e3d6000fd5b50600e546040516000916001600160a01b0316904790610dbe9061297b565b60006040518083038185875af1925050503d8060008114610dfb576040519150601f19603f3d011682016040523d82523d6000602084013e610e00565b606091505b50509050806107ad57600080fd5b6107ad83838361ffff16604051806020016040528060008152506113cd565b600a5481565b610e3b6116ac565b6001600160a01b0316610e4c6112dc565b6001600160a01b031614610e725760405162461bcd60e51b81526004016106e990612fe2565b8051610e85906007906020840190612406565b5050565b600c54600160401b900461ffff1690565b600c54610100900460ff1690565b610eb06116ac565b6001600160a01b0316610ec16112dc565b6001600160a01b031614610ee75760405162461bcd60e51b81526004016106e990612fe2565b600c805460ff19811660ff90911615179055565b610f036116ac565b6001600160a01b0316610f146112dc565b6001600160a01b031614610f3a5760405162461bcd60e51b81526004016106e990612fe2565b8051610f4d906007906020840190612406565b5050600c805463ff00000019811663010000009182900460ff1615909102179055565b6000610f7b82611604565b610f975760405162461bcd60e51b81526004016106e990612dc4565b817f0000000000000000000000000000000000000000000000000000000000000000600080610fe760017f000000000000000000000000000000000000000000000000000000000000000061347c565b61ffff168461ffff161190508015611035576110237f00000000000000000000000000000000000000000000000000000000000000008561347c565b61102e9060016133cb565b9150611055565b8361ffff166001146110475782611052565b61105260018461347c565b91505b60008161106b5761106685856133cb565b61106d565b845b90505b8261ffff168161ffff16106110ea5760008461ffff168261ffff161461109f5761109a8583613570565b6110a1565b845b61ffff81166000908152600260205260409020549091506001600160a01b031680156110d557965061062b95505050505050565b505080806110e2906134da565b915050611070565b5060405162461bcd60e51b81526004016106e990612f85565b60006001600160a01b03821661112b5760405162461bcd60e51b81526004016106e990612eb6565b506001600160a01b03166000908152600360205260409020546001600160801b031690565b6111586116ac565b6001600160a01b03166111696112dc565b6001600160a01b03161461118f5760405162461bcd60e51b81526004016106e990612fe2565b6108876000611d19565b600c5460ff808216916101008104821691620100008204811691630100000081049091169061ffff6401000000008204811691600160301b8104821691600160401b8204811691600160501b8104821691600160601b9091041689565b6111fe6116ac565b6001600160a01b031661120f6112dc565b6001600160a01b0316146112355760405162461bcd60e51b81526004016106e990612fe2565b600c546000906112599061ffff600160501b8204811691600160601b900416613400565b61ffff16905060005b8181101561129557600c54611283903390600160501b900461ffff16611b9e565b8061128d81613555565b915050611262565b50600c805461ffff600160601b8204811692916006916112bf918591600160301b909104166133cb565b92506101000a81548161ffff021916908361ffff16021790555050565b6005546001600160a01b031690565b60606001805461063f906134f8565b6001600160a01b0382163314156113235760405162461bcd60e51b81526004016106e99061304e565b610e8561132e6116ac565b8383611d6b565b600d54604080516020601f86018190048102820181019092528481526000926001600160a01b0316916113bb9190879087908190840183828082843760009201919091525050600c546040516113b593506113a192508891600160401b900461ffff16906020016129ce565b604051602081830303815290604052611e0e565b90611e49565b6001600160a01b031614949350505050565b6113de6113d86116ac565b83611780565b6113fa5760405162461bcd60e51b81526004016106e990612e0e565b61140684848484611e6d565b50505050565b600c5460ff1690565b600c546060906301000000900460ff161561145e57600761143583611ea4565b600a5460405160200161144a93929190612875565b604051602081830303815290604052610628565b6007805461146b906134f8565b80601f0160208091040260200160405190810160405280929190818152602001828054611497906134f8565b80156114e45780601f106114b9576101008083540402835291602001916114e4565b820191906000526020600020905b8154815290600101906020018083116114c757829003601f168201915b50505050509050919050565b6114f86116ac565b6001600160a01b03166115096112dc565b6001600160a01b03161461152f5760405162461bcd60e51b81526004016106e990612fe2565b600c805461ff001981166101009182900460ff1615909102179055565b6001600160a01b03918216600090815260046020908152604080832093909416825291909152205460ff1690565b6115826116ac565b6001600160a01b03166115936112dc565b6001600160a01b0316146115b95760405162461bcd60e51b81526004016106e990612fe2565b6001600160a01b0381166115df5760405162461bcd60e51b81526004016106e990612b22565b6115e881611d19565b50565b6001600160e01b031981166301ffc9a760e01b14919050565b600c5460009061ffff64010000000090910481169083161580159061163a5750600c5461ffff600160401b909104811690841611155b156116a3578061ffff168361ffff16101561168b57600c5461ffff600160301b8204811691839161167391600160401b900416866133cb565b61167d919061347c565b61ffff16111591505061062b565b600c54600160301b900461ffff1661167d828561347c565b50600092915050565b3390565b61ffff821660008181526002602052604080822060010180546001600160a01b0319166001600160a01b0388811691821790925591519192908516917f8c5be1e5ebec7d5bd14f71427d1e84f3dd0314c0f7b2291e5b200ac8c7c3b9259190a4505050565b600c54640100000000900461ffff16156117415760405162461bcd60e51b81526004016106e99061326f565b600c5461175a90600160401b900461ffff168240613591565b600c805461ffff929092166401000000000265ffff000000001990921691909117905550565b600061178b82611604565b6117a75760405162461bcd60e51b81526004016106e9906132f7565b60006117b68361ffff16610f70565b9050806001600160a01b0316846001600160a01b031614806117f55750836001600160a01b03166117ea8461ffff166106c2565b6001600160a01b0316145b806118055750611805818561154c565b949350505050565b600061181c8261ffff16610f70565b9050836001600160a01b0316816001600160a01b03161461184f5760405162461bcd60e51b81526004016106e990612cdf565b6001600160a01b0383166118755760405162461bcd60e51b81526004016106e9906132b2565b61187e82611604565b61189a5760405162461bcd60e51b81526004016106e990613222565b6118a78484846001611406565b6118b3600083836116b0565b60007f000000000000000000000000000000000000000000000000000000000000000061ffff168361ffff161461191657600260006118f38560016133cb565b61ffff1681526020810191909152604001600020546001600160a01b031661194c565b600160005260026020527fe90b7bceb6e7df5418fb78d8ee546e97c83a08bbccc01a0644d599ccd2a7c2e0546001600160a01b03165b90506001600160a01b03811615801561198c57507f000000000000000000000000000000000000000000000000000000000000000061ffff168361ffff16105b80156119a657506119a66119a18460016133cb565b611604565b156119f25784600260006119bb8660016133cb565b61ffff168152602081019190915260400160002080546001600160a01b0319166001600160a01b0392909216919091179055611a8b565b6001600160a01b038116158015611a3057507f000000000000000000000000000000000000000000000000000000000000000061ffff168361ffff16145b8015611a415750611a416001611604565b15611a8b57600160005260026020527fe90b7bceb6e7df5418fb78d8ee546e97c83a08bbccc01a0644d599ccd2a7c2e080546001600160a01b0319166001600160a01b0387161790555b6001600160a01b0385166000908152600360205260408120805460019290611abd9084906001600160801b0316613454565b82546101009290920a6001600160801b038181021990931691831602179091556001600160a01b03861660009081526003602052604081208054600194509092611b09918591166133a0565b82546001600160801b039182166101009390930a92830291909202199091161790555061ffff831660008181526002602052604080822080546001600160a01b03808a166001600160a01b0319909216821790925591519192908916917fddf252ad1be2c89b69c2b068fc378daa952ba7f163c4a11628f55a4df523b3ef9190a4611b978585856001611406565b5050505050565b6000611ba8611fd7565b90506001600160a01b038316611bd05760405162461bcd60e51b81526004016106e990612b68565b611be1600084838561ffff16611406565b6001600160a01b0383166000908152600360205260408120805461ffff85169290611c169084906001600160801b03166133a0565b82546101009290920a6001600160801b038181021990931691909216919091021790555061ffff8116600090815260026020526040812080546001600160a01b0319166001600160a01b0386161790555b8261ffff168161ffff161015611d075760405161ffff8316906001600160a01b038616906000907fddf252ad1be2c89b69c2b068fc378daa952ba7f163c4a11628f55a4df523b3ef908290a4611cbe6001836133cb565b91507f000000000000000000000000000000000000000000000000000000000000000061ffff168261ffff161115611cf557600191505b80611cff81613533565b915050611c67565b506107ad600084838561ffff16611406565b600580546001600160a01b038381166001600160a01b0319831681179093556040519116919082907f8be0079c531659141344cd1fd0a4f28419497f9722a3daafe3b4186f6b6457e090600090a35050565b816001600160a01b0316836001600160a01b03161415611d9d5760405162461bcd60e51b81526004016106e990612ab4565b6001600160a01b0383811660008181526004602090815260408083209487168084529490915290819020805460ff1916851515179055517f17307eab39ab6107e8899845ad3d59bd9653f200f220920489ca2b5937696c3190611e019085906129eb565b60405180910390a3505050565b6000611e1a8251611ea4565b82604051602001611e2c929190612920565b604051602081830303815290604052805190602001209050919050565b6000806000611e588585612020565b91509150611e6581612090565b509392505050565b611e7884848461180d565b611e8884848461ffff16846121bd565b6114065760405162461bcd60e51b81526004016106e99061318e565b606081611ec957506040805180820190915260018152600360fc1b602082015261062b565b8160005b8115611ef35780611edd81613555565b9150611eec9050600a83613421565b9150611ecd565b60008167ffffffffffffffff811115611f1c57634e487b7160e01b600052604160045260246000fd5b6040519080825280601f01601f191660200182016040528015611f46576020820181803683370190505b5090505b841561180557611f5b600183613497565b9150611f68600a86613591565b611f739060306133e8565b60f81b818381518110611f9657634e487b7160e01b600052603260045260246000fd5b60200101907effffffffffffffffffffffffffffffffffffffffffffffffffffffffffffff1916908160001a905350611fd0600a86613421565b9450611f4a565b600c5460009061ffff600160401b8204811691612006916401000000008204811691600160301b9004166133cb565b6120109190613570565b61201b9060016133cb565b905090565b6000808251604114156120575760208301516040840151606085015160001a61204b878285856122d8565b94509450505050612089565b82516040141561208157602083015160408401516120768683836123b8565b935093505050612089565b506000905060025b9250929050565b60008160048111156120b257634e487b7160e01b600052602160045260246000fd5b14156120bd576115e8565b60018160048111156120df57634e487b7160e01b600052602160045260246000fd5b14156120fd5760405162461bcd60e51b81526004016106e990612a7d565b600281600481111561211f57634e487b7160e01b600052602160045260246000fd5b141561213d5760405162461bcd60e51b81526004016106e990612aeb565b600381600481111561215f57634e487b7160e01b600052602160045260246000fd5b141561217d5760405162461bcd60e51b81526004016106e990612d82565b600481600481111561219f57634e487b7160e01b600052602160045260246000fd5b14156115e85760405162461bcd60e51b81526004016106e990612f43565b60006121d1846001600160a01b0316612400565b156122cd57836001600160a01b031663150b7a026121ed6116ac565b8786866040518563ffffffff1660e01b815260040161220f9493929190612992565b602060405180830381600087803b15801561222957600080fd5b505af1925050508015612259575060408051601f3d908101601f19168201909252612256918101906126fe565b60015b6122b3573d808015612287576040519150601f19603f3d011682016040523d82523d6000602084013e61228c565b606091505b5080516122ab5760405162461bcd60e51b81526004016106e99061318e565b805181602001fd5b6001600160e01b031916630a85bd0160e11b149050611805565b506001949350505050565b6000807f7fffffffffffffffffffffffffffffff5d576e7357a4501ddfe92f46681b20a083111561230f57506000905060036123af565b8460ff16601b1415801561232757508460ff16601c14155b1561233857506000905060046123af565b60006001878787876040516000815260200160405260405161235d9493929190612a4c565b6020604051602081039080840390855afa15801561237f573d6000803e3d6000fd5b5050604051601f1901519150506001600160a01b0381166123a8576000600192509250506123af565b9150600090505b94509492505050565b6000807f7fffffffffffffffffffffffffffffffffffffffffffffffffffffffffffffff831660ff84901c601b016123f2878288856122d8565b935093505050935093915050565b3b151590565b828054612412906134f8565b90600052602060002090601f016020900481019282612434576000855561247a565b82601f1061244d57805160ff191683800117855561247a565b8280016001018555821561247a579182015b8281111561247a57825182559160200191906001019061245f565b5061248692915061248a565b5090565b5b80821115612486576000815560010161248b565b600067ffffffffffffffff808411156124ba576124ba6135d1565b604051601f8501601f1916810160200182811182821017156124de576124de6135d1565b6040528481529150818385018610156124f657600080fd5b8484602083013760006020868301015250509392505050565b80356001600160a01b038116811461062b57600080fd5b60008083601f840112612537578182fd5b50813567ffffffffffffffff81111561254e578182fd5b60208301915083602082850101111561208957600080fd5b803561ffff8116811461062b57600080fd5b600060208284031215612589578081fd5b6125928261250f565b9392505050565b600080604083850312156125ab578081fd5b6125b48361250f565b91506125c26020840161250f565b90509250929050565b6000806000606084860312156125df578081fd5b6125e88461250f565b92506125f66020850161250f565b9150604084013590509250925092565b6000806000806080858703121561261b578081fd5b6126248561250f565b93506126326020860161250f565b925060408501359150606085013567ffffffffffffffff811115612654578182fd5b8501601f81018713612664578182fd5b6126738782356020840161249f565b91505092959194509250565b60008060408385031215612691578182fd5b61269a8361250f565b9150602083013580151581146126ae578182fd5b809150509250929050565b600080604083850312156126cb578182fd5b6126d48361250f565b946020939093013593505050565b6000602082840312156126f3578081fd5b8135612592816135e7565b60006020828403121561270f578081fd5b8151612592816135e7565b60008060006040848603121561272e578283fd5b833567ffffffffffffffff811115612744578384fd5b61275086828701612526565b909450925061276390506020850161250f565b90509250925092565b600080600060408486031215612780578283fd5b833567ffffffffffffffff811115612796578384fd5b6127a286828701612526565b9094509250612763905060208501612566565b6000602082840312156127c6578081fd5b813567ffffffffffffffff8111156127dc578182fd5b8201601f810184136127ec578182fd5b6118058482356020840161249f565b60006020828403121561280c578081fd5b61259282612566565b600060208284031215612826578081fd5b5035919050565b600081518084526128458160208601602086016134ae565b601f01601f19169290920160200192915050565b6000815161286b8185602086016134ae565b9290920192915050565b835460009081906002810460018083168061289157607f831692505b60208084108214156128b157634e487b7160e01b87526022600452602487fd5b8180156128c557600181146128d657612902565b60ff19861689528489019650612902565b6128df8c613394565b885b868110156128fa5781548b8201529085019083016128e1565b505084890196505b5061290d868b612859565b9889529097019998505050505050505050565b60007f19457468657265756d205369676e6564204d6573736167653a0a0000000000008252835161295881601a8501602088016134ae565b83519083019061296f81601a8401602088016134ae565b01601a01949350505050565b90565b6001600160a01b0391909116815260200190565b60006001600160a01b038087168352808616602084015250836040830152608060608301526129c4608083018461282d565b9695505050505050565b6001600160a01b0392909216825261ffff16602082015260400190565b901515815260200190565b981515895296151560208901529415156040880152921515606087015261ffff9182166080870152811660a086015290811660c085015290811660e0840152166101008201526101200190565b90815260200190565b93845260ff9290921660208401526040830152606082015260800190565b600060208252612592602083018461282d565b60208082526018908201527f45434453413a20696e76616c6964207369676e61747572650000000000000000604082015260600190565b6020808252601a908201527f455243373231533a20617070726f766520746f2063616c6c6572000000000000604082015260600190565b6020808252601f908201527f45434453413a20696e76616c6964207369676e6174757265206c656e67746800604082015260600190565b60208082526026908201527f4f776e61626c653a206e6577206f776e657220697320746865207a65726f206160408201526564647265737360d01b606082015260800190565b60208082526021908201527f455243373231533a206d696e7420746f20746865207a65726f206164647265736040820152607360f81b606082015260800190565b60208082526025908201527f4d757374206265206f6e2077686974656c69737420746f206d696e742061207360408201526430b834b2b760d91b606082015260800190565b60208082526037908201527f596f752063616e206f6e6c79206d696e7420757020746f20332053617069656e60408201527f732066726f6d207468652073616d652061646472657373000000000000000000606082015260800190565b60208082526039908201527f596f752063616e6e6f74206d696e74206d6f7265207468616e2033207361706960408201527f656e732066726f6d207468652073616d65206164647265737300000000000000606082015260800190565b6020808252601f908201527f50726f76656e616e63652068617320616c7265616479206265656e2073657400604082015260600190565b60208082526026908201527f455243373231533a207472616e736665722066726f6d20696e636f72726563746040820152651037bbb732b960d11b606082015260800190565b60208082526039908201527f455243373231533a20617070726f76652063616c6c6572206973206e6f74206f60408201527f776e6572206e6f7220617070726f76656420666f7220616c6c00000000000000606082015260800190565b60208082526022908201527f45434453413a20696e76616c6964207369676e6174757265202773272076616c604082015261756560f01b606082015260800190565b6020808252602a908201527f455243373231533a204f776e657220717565727920666f72206e6f6e657869736040820152693a32b73a103a37b5b2b760b11b606082015260800190565b60208082526032908201527f455243373231533a207472616e736665722063616c6c6572206973206e6f742060408201527f6f776e6572206e6f7220617070726f7665640000000000000000000000000000606082015260800190565b6020808252602b908201527f507572636861736520776f756c6420657863656564206d617820737570706c7960408201526a206f662073617069656e7360a81b606082015260800190565b6020808252602a908201527f4552433732313a2062616c616e636520717565727920666f7220746865207a65604082015269726f206164647265737360b01b606082015260800190565b60208082526023908201527f596f752063616e6e6f74206d696e74206d6f7265207468616e20332073617069604082015262656e7360e81b606082015260800190565b60208082526022908201527f45434453413a20696e76616c6964207369676e6174757265202776272076616c604082015261756560f01b606082015260800190565b6020808252602f908201527f455243373231533a20556e61626c6520746f2064657465726d696e652074686560408201527f206f776e6572206f6620746f6b656e0000000000000000000000000000000000606082015260800190565b6020808252818101527f4f776e61626c653a2063616c6c6572206973206e6f7420746865206f776e6572604082015260600190565b6020808252601a908201527f53616c652069732063757272656e746c7920696e616374697665000000000000604082015260600190565b6020808252601f908201527f455243373231533a206d75737420617070726f766520746f2063616c6c657200604082015260600190565b6020808252602d908201527f455243373231533a20617070726f76656420717565727920666f72206e6f6e6560408201526c3c34b9ba32b73a103a37b5b2b760991b606082015260800190565b60208082526023908201527f596f752063616e6e6f74206d696e74206d6f7265207468616e20332053617069604082015262656e7360e81b606082015260800190565b60208082526022908201527f455243373231533a20617070726f76616c20746f2063757272656e74206f776e60408201526132b960f11b606082015260800190565b60208082526019908201527f496e636f727265637420616d6f756e74206f6620657468657200000000000000604082015260600190565b60208082526033908201527f455243373231533a207472616e7366657220746f206e6f6e204552433732315260408201527f6563656976657220696d706c656d656e74657200000000000000000000000000606082015260800190565b6020808252601d908201527f50726573616c652069732063757272656e746c7920696e616374697665000000604082015260600190565b6020808252602d908201527f455243373231533a207472616e73666572206120746f6b656e2074686174206460408201526c1bd95cc81b9bdd08195e1a5cdd609a1b606082015260800190565b60208082526023908201527f5374617274696e6720696e6465782068617320616c7265616479206265656e206040820152621cd95d60ea1b606082015260800190565b60208082526025908201527f455243373231533a207472616e7366657220746f20746865207a65726f206164604082015264647265737360d81b606082015260800190565b6020808252602d908201527f455243373231533a206f70657261746f7220717565727920666f72206e6f6e6560408201526c3c34b9ba32b73a103a37b5b2b760991b606082015260800190565b60208082526021908201527f436f6e74726163747320617265206e6f7420616c6c6f77656420746f206d696e6040820152601d60fa1b606082015260800190565b61ffff91909116815260200190565b60009081526020902090565b60006001600160801b038083168185168083038211156133c2576133c26135a5565b01949350505050565b600061ffff8083168185168083038211156133c2576133c26135a5565b600082198211156133fb576133fb6135a5565b500190565b600061ffff80841680613415576134156135bb565b92169190910492915050565b600082613430576134306135bb565b500490565b600081600019048311821515161561344f5761344f6135a5565b500290565b60006001600160801b0383811690831681811015613474576134746135a5565b039392505050565b600061ffff83811690831681811015613474576134746135a5565b6000828210156134a9576134a96135a5565b500390565b60005b838110156134c95781810151838201526020016134b1565b838111156114065750506000910152565b600061ffff8216806134ee576134ee6135a5565b6000190192915050565b60028104600182168061350c57607f821691505b6020821081141561352d57634e487b7160e01b600052602260045260246000fd5b50919050565b600061ffff8083168181141561354b5761354b6135a5565b6001019392505050565b6000600019821415613569576135696135a5565b5060010190565b600061ffff80841680613585576135856135bb565b92169190910692915050565b6000826135a0576135a06135bb565b500690565b634e487b7160e01b600052601160045260246000fd5b634e487b7160e01b600052601260045260246000fd5b634e487b7160e01b600052604160045260246000fd5b6001600160e01b0319811681146115e857600080fdfea264697066735822122012b46b1ba012c91923f1ac0d8805236ef780200bdc8cb4585b09bb0cb1818ade64736f6c63430008000033",
          "opcodes": "PUSH1 0xC0 PUSH1 0x40 MSTORE PUSH8 0x16345785D8A0000 PUSH1 0x6 SSTORE PUSH5 0x173539B7B7 PUSH1 0xD9 SHL PUSH1 0xA SSTORE PUSH1 0xD DUP1 SLOAD PUSH1 0x1 PUSH1 0x1 PUSH1 0xA0 SHL SUB NOT SWAP1 DUP2 AND PUSH20 0x103ECE5B498B9C425295F58148AA5BDAC7575708 OR SWAP1 SWAP2 SSTORE PUSH1 0xE DUP1 SLOAD DUP3 AND PUSH20 0xAB8483F64D9C6D1ECF9B849AE677DD3315835CB2 OR SWAP1 SSTORE PUSH1 0xF DUP1 SLOAD DUP3 AND PUSH20 0x4B20993BC481177EC7E8F571CECAE8A9E22C02DB OR SWAP1 SSTORE PUSH1 0x10 DUP1 SLOAD DUP3 AND PUSH20 0x78731D3CA6B7E34AC0F824C42A7CC18A495CABAB OR SWAP1 SSTORE PUSH1 0x11 DUP1 SLOAD SWAP1 SWAP2 AND PUSH20 0x617F2E2FD72FD9D5503197092AC168C91465E7F2 OR SWAP1 SSTORE CALLVALUE DUP1 ISZERO PUSH3 0xCB JUMPI PUSH1 0x0 DUP1 REVERT JUMPDEST POP PUSH1 0x40 DUP1 MLOAD DUP1 DUP3 ADD DUP3 MSTORE PUSH1 0x10 DUP2 MSTORE PUSH16 0x1193D353C814D05412515394C8139195 PUSH1 0x82 SHL PUSH1 0x20 DUP1 DUP4 ADD SWAP2 DUP3 MSTORE DUP4 MLOAD DUP1 DUP6 ADD SWAP1 SWAP5 MSTORE PUSH1 0x6 DUP5 MSTORE PUSH6 0x29A0A824A2A7 PUSH1 0xD1 SHL SWAP1 DUP5 ADD MSTORE DUP2 MLOAD SWAP2 SWAP3 SWAP2 PUSH2 0x1770 SWAP2 PUSH1 0x5 SWAP2 PUSH3 0x129 SWAP2 PUSH1 0x0 SWAP2 PUSH3 0x202 JUMP JUMPDEST POP DUP3 MLOAD PUSH3 0x13F SWAP1 PUSH1 0x1 SWAP1 PUSH1 0x20 DUP7 ADD SWAP1 PUSH3 0x202 JUMP JUMPDEST POP PUSH1 0x80 SWAP2 SWAP1 SWAP2 MSTORE PUSH1 0xA0 MSTORE POP PUSH3 0x160 SWAP1 POP PUSH3 0x15A PUSH3 0x1AC JUMP JUMPDEST PUSH3 0x1B0 JUMP JUMPDEST PUSH1 0xC DUP1 SLOAD PUSH2 0xFFFF PUSH1 0x40 SHL NOT AND PUSH10 0x17700000000000000000 OR PUSH2 0xFFFF PUSH1 0x50 SHL NOT AND PUSH11 0x500000000000000000000 OR PUSH2 0xFFFF PUSH1 0x60 SHL NOT AND PUSH13 0x1E000000000000000000000000 OR SWAP1 SSTORE PUSH3 0x2E5 JUMP JUMPDEST CALLER SWAP1 JUMP JUMPDEST PUSH1 0x5 DUP1 SLOAD PUSH1 0x1 PUSH1 0x1 PUSH1 0xA0 SHL SUB DUP4 DUP2 AND PUSH1 0x1 PUSH1 0x1 PUSH1 0xA0 SHL SUB NOT DUP4 AND DUP2 OR SWAP1 SWAP4 SSTORE PUSH1 0x40 MLOAD SWAP2 AND SWAP2 SWAP1 DUP3 SWAP1 PUSH32 0x8BE0079C531659141344CD1FD0A4F28419497F9722A3DAAFE3B4186F6B6457E0 SWAP1 PUSH1 0x0 SWAP1 LOG3 POP POP JUMP JUMPDEST DUP3 DUP1 SLOAD PUSH3 0x210 SWAP1 PUSH3 0x2A8 JUMP JUMPDEST SWAP1 PUSH1 0x0 MSTORE PUSH1 0x20 PUSH1 0x0 KECCAK256 SWAP1 PUSH1 0x1F ADD PUSH1 0x20 SWAP1 DIV DUP2 ADD SWAP3 DUP3 PUSH3 0x234 JUMPI PUSH1 0x0 DUP6 SSTORE PUSH3 0x27F JUMP JUMPDEST DUP3 PUSH1 0x1F LT PUSH3 0x24F JUMPI DUP1 MLOAD PUSH1 0xFF NOT AND DUP4 DUP1 ADD OR DUP6 SSTORE PUSH3 0x27F JUMP JUMPDEST DUP3 DUP1 ADD PUSH1 0x1 ADD DUP6 SSTORE DUP3 ISZERO PUSH3 0x27F JUMPI SWAP2 DUP3 ADD JUMPDEST DUP3 DUP2 GT ISZERO PUSH3 0x27F JUMPI DUP3 MLOAD DUP3 SSTORE SWAP2 PUSH1 0x20 ADD SWAP2 SWAP1 PUSH1 0x1 ADD SWAP1 PUSH3 0x262 JUMP JUMPDEST POP PUSH3 0x28D SWAP3 SWAP2 POP PUSH3 0x291 JUMP JUMPDEST POP SWAP1 JUMP JUMPDEST JUMPDEST DUP1 DUP3 GT ISZERO PUSH3 0x28D JUMPI PUSH1 0x0 DUP2 SSTORE PUSH1 0x1 ADD PUSH3 0x292 JUMP JUMPDEST PUSH1 0x2 DUP2 DIV PUSH1 0x1 DUP3 AND DUP1 PUSH3 0x2BD JUMPI PUSH1 0x7F DUP3 AND SWAP2 POP JUMPDEST PUSH1 0x20 DUP3 LT DUP2 EQ ISZERO PUSH3 0x2DF JUMPI PUSH4 0x4E487B71 PUSH1 0xE0 SHL PUSH1 0x0 MSTORE PUSH1 0x22 PUSH1 0x4 MSTORE PUSH1 0x24 PUSH1 0x0 REVERT JUMPDEST POP SWAP2 SWAP1 POP JUMP JUMPDEST PUSH1 0x80 MLOAD PUSH1 0xA0 MLOAD PUSH2 0x3633 PUSH3 0x32E PUSH1 0x0 CODECOPY PUSH1 0x0 DUP2 DUP2 PUSH2 0xFC3 ADD MSTORE PUSH2 0xFFE ADD MSTORE PUSH1 0x0 DUP2 DUP2 PUSH2 0xF9A ADD MSTORE DUP2 DUP2 PUSH2 0x18B7 ADD MSTORE DUP2 DUP2 PUSH2 0x1962 ADD MSTORE DUP2 DUP2 PUSH2 0x1A06 ADD MSTORE PUSH2 0x1CC2 ADD MSTORE PUSH2 0x3633 PUSH1 0x0 RETURN INVALID PUSH1 0x80 PUSH1 0x40 MSTORE PUSH1 0x4 CALLDATASIZE LT PUSH2 0x204 JUMPI PUSH1 0x0 CALLDATALOAD PUSH1 0xE0 SHR DUP1 PUSH4 0x53135CA0 GT PUSH2 0x118 JUMPI DUP1 PUSH4 0x95D89B41 GT PUSH2 0xA0 JUMPI DUP1 PUSH4 0xBC8893B4 GT PUSH2 0x6F JUMPI DUP1 PUSH4 0xBC8893B4 EQ PUSH2 0x55E JUMPI DUP1 PUSH4 0xC87B56DD EQ PUSH2 0x573 JUMPI DUP1 PUSH4 0xDCC40744 EQ PUSH2 0x593 JUMPI DUP1 PUSH4 0xE985E9C5 EQ PUSH2 0x5A8 JUMPI DUP1 PUSH4 0xF2FDE38B EQ PUSH2 0x5C8 JUMPI PUSH2 0x204 JUMP JUMPDEST DUP1 PUSH4 0x95D89B41 EQ PUSH2 0x4E9 JUMPI DUP1 PUSH4 0xA22CB465 EQ PUSH2 0x4FE JUMPI DUP1 PUSH4 0xA3540C10 EQ PUSH2 0x51E JUMPI DUP1 PUSH4 0xB88D4FDE EQ PUSH2 0x53E JUMPI PUSH2 0x204 JUMP JUMPDEST DUP1 PUSH4 0x70A08231 GT PUSH2 0xE7 JUMPI DUP1 PUSH4 0x70A08231 EQ PUSH2 0x460 JUMPI DUP1 PUSH4 0x715018A6 EQ PUSH2 0x480 JUMPI DUP1 PUSH4 0x79502C55 EQ PUSH2 0x495 JUMPI DUP1 PUSH4 0x7C69E207 EQ PUSH2 0x4BF JUMPI DUP1 PUSH4 0x8DA5CB5B EQ PUSH2 0x4D4 JUMPI PUSH2 0x204 JUMP JUMPDEST DUP1 PUSH4 0x53135CA0 EQ PUSH2 0x3F6 JUMPI DUP1 PUSH4 0x56F8F78C EQ PUSH2 0x40B JUMPI DUP1 PUSH4 0x5D8C2EFD EQ PUSH2 0x420 JUMPI DUP1 PUSH4 0x6352211E EQ PUSH2 0x440 JUMPI PUSH2 0x204 JUMP JUMPDEST DUP1 PUSH4 0x23B872DD GT PUSH2 0x19B JUMPI DUP1 PUSH4 0x3CCFD60B GT PUSH2 0x16A JUMPI DUP1 PUSH4 0x3CCFD60B EQ PUSH2 0x377 JUMPI DUP1 PUSH4 0x42842E0E EQ PUSH2 0x37F JUMPI DUP1 PUSH4 0x46F13619 EQ PUSH2 0x39F JUMPI DUP1 PUSH4 0x49F2553A EQ PUSH2 0x3C1 JUMPI DUP1 PUSH4 0x4C0F38C2 EQ PUSH2 0x3E1 JUMPI PUSH2 0x204 JUMP JUMPDEST DUP1 PUSH4 0x23B872DD EQ PUSH2 0x31C JUMPI DUP1 PUSH4 0x23CF0A22 EQ PUSH2 0x33C JUMPI DUP1 PUSH4 0x2C0B3D7C EQ PUSH2 0x34F JUMPI DUP1 PUSH4 0x37A66D85 EQ PUSH2 0x362 JUMPI PUSH2 0x204 JUMP JUMPDEST DUP1 PUSH4 0x10969523 GT PUSH2 0x1D7 JUMPI DUP1 PUSH4 0x10969523 EQ PUSH2 0x2B0 JUMPI DUP1 PUSH4 0x18160DDD EQ PUSH2 0x2D0 JUMPI DUP1 PUSH4 0x18509269 EQ PUSH2 0x2F2 JUMPI DUP1 PUSH4 0x1F46452F EQ PUSH2 0x307 JUMPI PUSH2 0x204 JUMP JUMPDEST DUP1 PUSH4 0x1FFC9A7 EQ PUSH2 0x209 JUMPI DUP1 PUSH4 0x6FDDE03 EQ PUSH2 0x23F JUMPI DUP1 PUSH4 0x81812FC EQ PUSH2 0x261 JUMPI DUP1 PUSH4 0x95EA7B3 EQ PUSH2 0x28E JUMPI JUMPDEST PUSH1 0x0 DUP1 REVERT JUMPDEST CALLVALUE DUP1 ISZERO PUSH2 0x215 JUMPI PUSH1 0x0 DUP1 REVERT JUMPDEST POP PUSH2 0x229 PUSH2 0x224 CALLDATASIZE PUSH1 0x4 PUSH2 0x26E2 JUMP JUMPDEST PUSH2 0x5E8 JUMP JUMPDEST PUSH1 0x40 MLOAD PUSH2 0x236 SWAP2 SWAP1 PUSH2 0x29EB JUMP JUMPDEST PUSH1 0x40 MLOAD DUP1 SWAP2 SUB SWAP1 RETURN JUMPDEST CALLVALUE DUP1 ISZERO PUSH2 0x24B JUMPI PUSH1 0x0 DUP1 REVERT JUMPDEST POP PUSH2 0x254 PUSH2 0x630 JUMP JUMPDEST PUSH1 0x40 MLOAD PUSH2 0x236 SWAP2 SWAP1 PUSH2 0x2A6A JUMP JUMPDEST CALLVALUE DUP1 ISZERO PUSH2 0x26D JUMPI PUSH1 0x0 DUP1 REVERT JUMPDEST POP PUSH2 0x281 PUSH2 0x27C CALLDATASIZE PUSH1 0x4 PUSH2 0x2815 JUMP JUMPDEST PUSH2 0x6C2 JUMP JUMPDEST PUSH1 0x40 MLOAD PUSH2 0x236 SWAP2 SWAP1 PUSH2 0x297E JUMP JUMPDEST CALLVALUE DUP1 ISZERO PUSH2 0x29A JUMPI PUSH1 0x0 DUP1 REVERT JUMPDEST POP PUSH2 0x2AE PUSH2 0x2A9 CALLDATASIZE PUSH1 0x4 PUSH2 0x26B9 JUMP JUMPDEST PUSH2 0x715 JUMP JUMPDEST STOP JUMPDEST CALLVALUE DUP1 ISZERO PUSH2 0x2BC JUMPI PUSH1 0x0 DUP1 REVERT JUMPDEST POP PUSH2 0x2AE PUSH2 0x2CB CALLDATASIZE PUSH1 0x4 PUSH2 0x27B5 JUMP JUMPDEST PUSH2 0x7B2 JUMP JUMPDEST CALLVALUE DUP1 ISZERO PUSH2 0x2DC JUMPI PUSH1 0x0 DUP1 REVERT JUMPDEST POP PUSH2 0x2E5 PUSH2 0x82C JUMP JUMPDEST PUSH1 0x40 MLOAD PUSH2 0x236 SWAP2 SWAP1 PUSH2 0x3385 JUMP JUMPDEST CALLVALUE DUP1 ISZERO PUSH2 0x2FE JUMPI PUSH1 0x0 DUP1 REVERT JUMPDEST POP PUSH2 0x2AE PUSH2 0x83D JUMP JUMPDEST CALLVALUE DUP1 ISZERO PUSH2 0x313 JUMPI PUSH1 0x0 DUP1 REVERT JUMPDEST POP PUSH2 0x2E5 PUSH2 0x889 JUMP JUMPDEST CALLVALUE DUP1 ISZERO PUSH2 0x328 JUMPI PUSH1 0x0 DUP1 REVERT JUMPDEST POP PUSH2 0x2AE PUSH2 0x337 CALLDATASIZE PUSH1 0x4 PUSH2 0x25CB JUMP JUMPDEST PUSH2 0x89A JUMP JUMPDEST PUSH2 0x2AE PUSH2 0x34A CALLDATASIZE PUSH1 0x4 PUSH2 0x27FB JUMP JUMPDEST PUSH2 0x8D2 JUMP JUMPDEST PUSH2 0x2AE PUSH2 0x35D CALLDATASIZE PUSH1 0x4 PUSH2 0x276C JUMP JUMPDEST PUSH2 0xA3A JUMP JUMPDEST CALLVALUE DUP1 ISZERO PUSH2 0x36E JUMPI PUSH1 0x0 DUP1 REVERT JUMPDEST POP PUSH2 0x2AE PUSH2 0xBB6 JUMP JUMPDEST PUSH2 0x2AE PUSH2 0xC14 JUMP JUMPDEST CALLVALUE DUP1 ISZERO PUSH2 0x38B JUMPI PUSH1 0x0 DUP1 REVERT JUMPDEST POP PUSH2 0x2AE PUSH2 0x39A CALLDATASIZE PUSH1 0x4 PUSH2 0x25CB JUMP JUMPDEST PUSH2 0xE0E JUMP JUMPDEST CALLVALUE DUP1 ISZERO PUSH2 0x3AB JUMPI PUSH1 0x0 DUP1 REVERT JUMPDEST POP PUSH2 0x3B4 PUSH2 0xE2D JUMP JUMPDEST PUSH1 0x40 MLOAD PUSH2 0x236 SWAP2 SWAP1 PUSH2 0x2A43 JUMP JUMPDEST CALLVALUE DUP1 ISZERO PUSH2 0x3CD JUMPI PUSH1 0x0 DUP1 REVERT JUMPDEST POP PUSH2 0x2AE PUSH2 0x3DC CALLDATASIZE PUSH1 0x4 PUSH2 0x27B5 JUMP JUMPDEST PUSH2 0xE33 JUMP JUMPDEST CALLVALUE DUP1 ISZERO PUSH2 0x3ED JUMPI PUSH1 0x0 DUP1 REVERT JUMPDEST POP PUSH2 0x2E5 PUSH2 0xE89 JUMP JUMPDEST CALLVALUE DUP1 ISZERO PUSH2 0x402 JUMPI PUSH1 0x0 DUP1 REVERT JUMPDEST POP PUSH2 0x229 PUSH2 0xE9A JUMP JUMPDEST CALLVALUE DUP1 ISZERO PUSH2 0x417 JUMPI PUSH1 0x0 DUP1 REVERT JUMPDEST POP PUSH2 0x2AE PUSH2 0xEA8 JUMP JUMPDEST CALLVALUE DUP1 ISZERO PUSH2 0x42C JUMPI PUSH1 0x0 DUP1 REVERT JUMPDEST POP PUSH2 0x2AE PUSH2 0x43B CALLDATASIZE PUSH1 0x4 PUSH2 0x27B5 JUMP JUMPDEST PUSH2 0xEFB JUMP JUMPDEST CALLVALUE DUP1 ISZERO PUSH2 0x44C JUMPI PUSH1 0x0 DUP1 REVERT JUMPDEST POP PUSH2 0x281 PUSH2 0x45B CALLDATASIZE PUSH1 0x4 PUSH2 0x2815 JUMP JUMPDEST PUSH2 0xF70 JUMP JUMPDEST CALLVALUE DUP1 ISZERO PUSH2 0x46C JUMPI PUSH1 0x0 DUP1 REVERT JUMPDEST POP PUSH2 0x3B4 PUSH2 0x47B CALLDATASIZE PUSH1 0x4 PUSH2 0x2578 JUMP JUMPDEST PUSH2 0x1103 JUMP JUMPDEST CALLVALUE DUP1 ISZERO PUSH2 0x48C JUMPI PUSH1 0x0 DUP1 REVERT JUMPDEST POP PUSH2 0x2AE PUSH2 0x1150 JUMP JUMPDEST CALLVALUE DUP1 ISZERO PUSH2 0x4A1 JUMPI PUSH1 0x0 DUP1 REVERT JUMPDEST POP PUSH2 0x4AA PUSH2 0x1199 JUMP JUMPDEST PUSH1 0x40 MLOAD PUSH2 0x236 SWAP10 SWAP9 SWAP8 SWAP7 SWAP6 SWAP5 SWAP4 SWAP3 SWAP2 SWAP1 PUSH2 0x29F6 JUMP JUMPDEST CALLVALUE DUP1 ISZERO PUSH2 0x4CB JUMPI PUSH1 0x0 DUP1 REVERT JUMPDEST POP PUSH2 0x2AE PUSH2 0x11F6 JUMP JUMPDEST CALLVALUE DUP1 ISZERO PUSH2 0x4E0 JUMPI PUSH1 0x0 DUP1 REVERT JUMPDEST POP PUSH2 0x281 PUSH2 0x12DC JUMP JUMPDEST CALLVALUE DUP1 ISZERO PUSH2 0x4F5 JUMPI PUSH1 0x0 DUP1 REVERT JUMPDEST POP PUSH2 0x254 PUSH2 0x12EB JUMP JUMPDEST CALLVALUE DUP1 ISZERO PUSH2 0x50A JUMPI PUSH1 0x0 DUP1 REVERT JUMPDEST POP PUSH2 0x2AE PUSH2 0x519 CALLDATASIZE PUSH1 0x4 PUSH2 0x267F JUMP JUMPDEST PUSH2 0x12FA JUMP JUMPDEST CALLVALUE DUP1 ISZERO PUSH2 0x52A JUMPI PUSH1 0x0 DUP1 REVERT JUMPDEST POP PUSH2 0x229 PUSH2 0x539 CALLDATASIZE PUSH1 0x4 PUSH2 0x271A JUMP JUMPDEST PUSH2 0x1335 JUMP JUMPDEST CALLVALUE DUP1 ISZERO PUSH2 0x54A JUMPI PUSH1 0x0 DUP1 REVERT JUMPDEST POP PUSH2 0x2AE PUSH2 0x559 CALLDATASIZE PUSH1 0x4 PUSH2 0x2606 JUMP JUMPDEST PUSH2 0x13CD JUMP JUMPDEST CALLVALUE DUP1 ISZERO PUSH2 0x56A JUMPI PUSH1 0x0 DUP1 REVERT JUMPDEST POP PUSH2 0x229 PUSH2 0x140C JUMP JUMPDEST CALLVALUE DUP1 ISZERO PUSH2 0x57F JUMPI PUSH1 0x0 DUP1 REVERT JUMPDEST POP PUSH2 0x254 PUSH2 0x58E CALLDATASIZE PUSH1 0x4 PUSH2 0x2815 JUMP JUMPDEST PUSH2 0x1415 JUMP JUMPDEST CALLVALUE DUP1 ISZERO PUSH2 0x59F JUMPI PUSH1 0x0 DUP1 REVERT JUMPDEST POP PUSH2 0x2AE PUSH2 0x14F0 JUMP JUMPDEST CALLVALUE DUP1 ISZERO PUSH2 0x5B4 JUMPI PUSH1 0x0 DUP1 REVERT JUMPDEST POP PUSH2 0x229 PUSH2 0x5C3 CALLDATASIZE PUSH1 0x4 PUSH2 0x2599 JUMP JUMPDEST PUSH2 0x154C JUMP JUMPDEST CALLVALUE DUP1 ISZERO PUSH2 0x5D4 JUMPI PUSH1 0x0 DUP1 REVERT JUMPDEST POP PUSH2 0x2AE PUSH2 0x5E3 CALLDATASIZE PUSH1 0x4 PUSH2 0x2578 JUMP JUMPDEST PUSH2 0x157A JUMP JUMPDEST PUSH1 0x0 PUSH1 0x1 PUSH1 0x1 PUSH1 0xE0 SHL SUB NOT DUP3 AND PUSH4 0x80AC58CD PUSH1 0xE0 SHL EQ DUP1 PUSH2 0x619 JUMPI POP PUSH1 0x1 PUSH1 0x1 PUSH1 0xE0 SHL SUB NOT DUP3 AND PUSH4 0x5B5E139F PUSH1 0xE0 SHL EQ JUMPDEST DUP1 PUSH2 0x628 JUMPI POP PUSH2 0x628 DUP3 PUSH2 0x15EB JUMP JUMPDEST SWAP1 POP JUMPDEST SWAP2 SWAP1 POP JUMP JUMPDEST PUSH1 0x60 PUSH1 0x0 DUP1 SLOAD PUSH2 0x63F SWAP1 PUSH2 0x34F8 JUMP JUMPDEST DUP1 PUSH1 0x1F ADD PUSH1 0x20 DUP1 SWAP2 DIV MUL PUSH1 0x20 ADD PUSH1 0x40 MLOAD SWAP1 DUP2 ADD PUSH1 0x40 MSTORE DUP1 SWAP3 SWAP2 SWAP1 DUP2 DUP2 MSTORE PUSH1 0x20 ADD DUP3 DUP1 SLOAD PUSH2 0x66B SWAP1 PUSH2 0x34F8 JUMP JUMPDEST DUP1 ISZERO PUSH2 0x6B8 JUMPI DUP1 PUSH1 0x1F LT PUSH2 0x68D JUMPI PUSH2 0x100 DUP1 DUP4 SLOAD DIV MUL DUP4 MSTORE SWAP2 PUSH1 0x20 ADD SWAP2 PUSH2 0x6B8 JUMP JUMPDEST DUP3 ADD SWAP2 SWAP1 PUSH1 0x0 MSTORE PUSH1 0x20 PUSH1 0x0 KECCAK256 SWAP1 JUMPDEST DUP2 SLOAD DUP2 MSTORE SWAP1 PUSH1 0x1 ADD SWAP1 PUSH1 0x20 ADD DUP1 DUP4 GT PUSH2 0x69B JUMPI DUP3 SWAP1 SUB PUSH1 0x1F AND DUP3 ADD SWAP2 JUMPDEST POP POP POP POP POP SWAP1 POP SWAP1 JUMP JUMPDEST PUSH1 0x0 PUSH2 0x6CD DUP3 PUSH2 0x1604 JUMP JUMPDEST PUSH2 0x6F2 JUMPI PUSH1 0x40 MLOAD PUSH3 0x461BCD PUSH1 0xE5 SHL DUP2 MSTORE PUSH1 0x4 ADD PUSH2 0x6E9 SWAP1 PUSH2 0x3085 JUMP JUMPDEST PUSH1 0x40 MLOAD DUP1 SWAP2 SUB SWAP1 REVERT JUMPDEST POP PUSH2 0xFFFF AND PUSH1 0x0 SWAP1 DUP2 MSTORE PUSH1 0x2 PUSH1 0x20 MSTORE PUSH1 0x40 SWAP1 KECCAK256 PUSH1 0x1 ADD SLOAD PUSH1 0x1 PUSH1 0x1 PUSH1 0xA0 SHL SUB AND SWAP1 JUMP JUMPDEST PUSH1 0x0 PUSH2 0x724 DUP3 PUSH2 0xFFFF AND PUSH2 0xF70 JUMP JUMPDEST SWAP1 POP DUP1 PUSH1 0x1 PUSH1 0x1 PUSH1 0xA0 SHL SUB AND DUP4 PUSH1 0x1 PUSH1 0x1 PUSH1 0xA0 SHL SUB AND EQ ISZERO PUSH2 0x758 JUMPI PUSH1 0x40 MLOAD PUSH3 0x461BCD PUSH1 0xE5 SHL DUP2 MSTORE PUSH1 0x4 ADD PUSH2 0x6E9 SWAP1 PUSH2 0x3115 JUMP JUMPDEST DUP1 PUSH1 0x1 PUSH1 0x1 PUSH1 0xA0 SHL SUB AND PUSH2 0x76A PUSH2 0x16AC JUMP JUMPDEST PUSH1 0x1 PUSH1 0x1 PUSH1 0xA0 SHL SUB AND EQ DUP1 PUSH2 0x786 JUMPI POP PUSH2 0x786 DUP2 PUSH2 0x5C3 PUSH2 0x16AC JUMP JUMPDEST PUSH2 0x7A2 JUMPI PUSH1 0x40 MLOAD PUSH3 0x461BCD PUSH1 0xE5 SHL DUP2 MSTORE PUSH1 0x4 ADD PUSH2 0x6E9 SWAP1 PUSH2 0x2D25 JUMP JUMPDEST PUSH2 0x7AD DUP4 DUP4 DUP4 PUSH2 0x16B0 JUMP JUMPDEST POP POP POP JUMP JUMPDEST PUSH2 0x7BA PUSH2 0x16AC JUMP JUMPDEST PUSH1 0x1 PUSH1 0x1 PUSH1 0xA0 SHL SUB AND PUSH2 0x7CB PUSH2 0x12DC JUMP JUMPDEST PUSH1 0x1 PUSH1 0x1 PUSH1 0xA0 SHL SUB AND EQ PUSH2 0x7F1 JUMPI PUSH1 0x40 MLOAD PUSH3 0x461BCD PUSH1 0xE5 SHL DUP2 MSTORE PUSH1 0x4 ADD PUSH2 0x6E9 SWAP1 PUSH2 0x2FE2 JUMP JUMPDEST PUSH1 0x9 SLOAD ISZERO PUSH2 0x811 JUMPI PUSH1 0x40 MLOAD PUSH3 0x461BCD PUSH1 0xE5 SHL DUP2 MSTORE PUSH1 0x4 ADD PUSH2 0x6E9 SWAP1 PUSH2 0x2CA8 JUMP JUMPDEST DUP1 MLOAD PUSH2 0x824 SWAP1 PUSH1 0x8 SWAP1 PUSH1 0x20 DUP5 ADD SWAP1 PUSH2 0x2406 JUMP JUMPDEST POP POP NUMBER PUSH1 0x9 SSTORE JUMP JUMPDEST PUSH1 0xC SLOAD PUSH1 0x1 PUSH1 0x30 SHL SWAP1 DIV PUSH2 0xFFFF AND SWAP1 JUMP JUMPDEST PUSH2 0x845 PUSH2 0x16AC JUMP JUMPDEST PUSH1 0x1 PUSH1 0x1 PUSH1 0xA0 SHL SUB AND PUSH2 0x856 PUSH2 0x12DC JUMP JUMPDEST PUSH1 0x1 PUSH1 0x1 PUSH1 0xA0 SHL SUB AND EQ PUSH2 0x87C JUMPI PUSH1 0x40 MLOAD PUSH3 0x461BCD PUSH1 0xE5 SHL DUP2 MSTORE PUSH1 0x4 ADD PUSH2 0x6E9 SWAP1 PUSH2 0x2FE2 JUMP JUMPDEST PUSH2 0x887 PUSH1 0x9 SLOAD PUSH2 0x1715 JUMP JUMPDEST JUMP JUMPDEST PUSH1 0xC SLOAD PUSH1 0x1 PUSH1 0x50 SHL SWAP1 DIV PUSH2 0xFFFF AND SWAP1 JUMP JUMPDEST PUSH2 0x8AB PUSH2 0x8A5 PUSH2 0x16AC JUMP JUMPDEST DUP3 PUSH2 0x1780 JUMP JUMPDEST PUSH2 0x8C7 JUMPI PUSH1 0x40 MLOAD PUSH3 0x461BCD PUSH1 0xE5 SHL DUP2 MSTORE PUSH1 0x4 ADD PUSH2 0x6E9 SWAP1 PUSH2 0x2E0E JUMP JUMPDEST PUSH2 0x7AD DUP4 DUP4 DUP4 PUSH2 0x180D JUMP JUMPDEST PUSH1 0xC SLOAD PUSH2 0xFFFF PUSH1 0x1 PUSH1 0x30 SHL DUP3 DIV AND SWAP1 PUSH1 0xFF AND PUSH2 0x900 JUMPI PUSH1 0x40 MLOAD PUSH3 0x461BCD PUSH1 0xE5 SHL DUP2 MSTORE PUSH1 0x4 ADD PUSH2 0x6E9 SWAP1 PUSH2 0x3017 JUMP JUMPDEST ORIGIN CALLER EQ PUSH2 0x91F JUMPI PUSH1 0x40 MLOAD PUSH3 0x461BCD PUSH1 0xE5 SHL DUP2 MSTORE PUSH1 0x4 ADD PUSH2 0x6E9 SWAP1 PUSH2 0x3344 JUMP JUMPDEST DUP2 PUSH2 0xFFFF AND PUSH1 0x6 SLOAD PUSH2 0x931 SWAP2 SWAP1 PUSH2 0x3435 JUMP JUMPDEST CALLVALUE EQ PUSH2 0x94F JUMPI PUSH1 0x40 MLOAD PUSH3 0x461BCD PUSH1 0xE5 SHL DUP2 MSTORE PUSH1 0x4 ADD PUSH2 0x6E9 SWAP1 PUSH2 0x3157 JUMP JUMPDEST PUSH1 0xC SLOAD PUSH1 0x1 PUSH1 0x40 SHL SWAP1 DIV PUSH2 0xFFFF AND PUSH2 0x967 DUP4 DUP4 PUSH2 0x33CB JUMP JUMPDEST PUSH2 0xFFFF AND GT ISZERO PUSH2 0x989 JUMPI PUSH1 0x40 MLOAD PUSH3 0x461BCD PUSH1 0xE5 SHL DUP2 MSTORE PUSH1 0x4 ADD PUSH2 0x6E9 SWAP1 PUSH2 0x2E6B JUMP JUMPDEST PUSH1 0xC SLOAD PUSH2 0xFFFF PUSH1 0x1 PUSH1 0x50 SHL SWAP1 SWAP2 DIV DUP2 AND SWAP1 DUP4 AND PUSH2 0x9A5 CALLER PUSH2 0x1103 JUMP JUMPDEST PUSH2 0x9AF SWAP2 SWAP1 PUSH2 0x33E8 JUMP JUMPDEST GT ISZERO PUSH2 0x9CD JUMPI PUSH1 0x40 MLOAD PUSH3 0x461BCD PUSH1 0xE5 SHL DUP2 MSTORE PUSH1 0x4 ADD PUSH2 0x6E9 SWAP1 PUSH2 0x2C4B JUMP JUMPDEST PUSH1 0xC SLOAD PUSH2 0xFFFF PUSH1 0x1 PUSH1 0x50 SHL SWAP1 SWAP2 DIV DUP2 AND SWAP1 DUP4 AND GT ISZERO PUSH2 0x9FE JUMPI PUSH1 0x40 MLOAD PUSH3 0x461BCD PUSH1 0xE5 SHL DUP2 MSTORE PUSH1 0x4 ADD PUSH2 0x6E9 SWAP1 PUSH2 0x2F00 JUMP JUMPDEST PUSH2 0xA08 CALLER DUP4 PUSH2 0x1B9E JUMP JUMPDEST PUSH2 0xA12 DUP3 DUP3 PUSH2 0x33CB JUMP JUMPDEST PUSH1 0xC DUP1 SLOAD PUSH2 0xFFFF SWAP3 SWAP1 SWAP3 AND PUSH1 0x1 PUSH1 0x30 SHL MUL PUSH8 0xFFFF000000000000 NOT SWAP1 SWAP3 AND SWAP2 SWAP1 SWAP2 OR SWAP1 SSTORE POP POP JUMP JUMPDEST PUSH1 0xC SLOAD PUSH2 0x100 SWAP1 DIV PUSH1 0xFF AND PUSH2 0xA61 JUMPI PUSH1 0x40 MLOAD PUSH3 0x461BCD PUSH1 0xE5 SHL DUP2 MSTORE PUSH1 0x4 ADD PUSH2 0x6E9 SWAP1 PUSH2 0x31EB JUMP JUMPDEST ORIGIN CALLER EQ PUSH2 0xA80 JUMPI PUSH1 0x40 MLOAD PUSH3 0x461BCD PUSH1 0xE5 SHL DUP2 MSTORE PUSH1 0x4 ADD PUSH2 0x6E9 SWAP1 PUSH2 0x3344 JUMP JUMPDEST PUSH2 0xA8B DUP4 DUP4 CALLER PUSH2 0x1335 JUMP JUMPDEST PUSH2 0xAA7 JUMPI PUSH1 0x40 MLOAD PUSH3 0x461BCD PUSH1 0xE5 SHL DUP2 MSTORE PUSH1 0x4 ADD PUSH2 0x6E9 SWAP1 PUSH2 0x2BA9 JUMP JUMPDEST DUP1 PUSH2 0xFFFF AND PUSH1 0x6 SLOAD PUSH2 0xAB9 SWAP2 SWAP1 PUSH2 0x3435 JUMP JUMPDEST CALLVALUE EQ PUSH2 0xAD7 JUMPI PUSH1 0x40 MLOAD PUSH3 0x461BCD PUSH1 0xE5 SHL DUP2 MSTORE PUSH1 0x4 ADD PUSH2 0x6E9 SWAP1 PUSH2 0x3157 JUMP JUMPDEST PUSH1 0xC SLOAD PUSH2 0xFFFF PUSH1 0x1 PUSH1 0x50 SHL SWAP1 SWAP2 DIV DUP2 AND SWAP1 DUP3 AND GT ISZERO PUSH2 0xB08 JUMPI PUSH1 0x40 MLOAD PUSH3 0x461BCD PUSH1 0xE5 SHL DUP2 MSTORE PUSH1 0x4 ADD PUSH2 0x6E9 SWAP1 PUSH2 0x30D2 JUMP JUMPDEST PUSH1 0xC SLOAD CALLER PUSH1 0x0 SWAP1 DUP2 MSTORE PUSH1 0xB PUSH1 0x20 MSTORE PUSH1 0x40 SWAP1 KECCAK256 SLOAD PUSH1 0x1 PUSH1 0x50 SHL SWAP1 SWAP2 DIV PUSH2 0xFFFF AND GT PUSH2 0xB44 JUMPI PUSH1 0x40 MLOAD PUSH3 0x461BCD PUSH1 0xE5 SHL DUP2 MSTORE PUSH1 0x4 ADD PUSH2 0x6E9 SWAP1 PUSH2 0x2BEE JUMP JUMPDEST CALLER PUSH1 0x0 SWAP1 DUP2 MSTORE PUSH1 0xB PUSH1 0x20 MSTORE PUSH1 0x40 DUP2 KECCAK256 DUP1 SLOAD PUSH2 0xFFFF DUP5 AND SWAP3 SWAP1 PUSH2 0xB67 SWAP1 DUP5 SWAP1 PUSH2 0x33E8 JUMP JUMPDEST SWAP1 SWAP2 SSTORE POP PUSH2 0xB77 SWAP1 POP CALLER DUP3 PUSH2 0x1B9E JUMP JUMPDEST PUSH1 0xC DUP1 SLOAD DUP3 SWAP2 SWAP1 PUSH1 0x6 SWAP1 PUSH2 0xB97 SWAP1 DUP5 SWAP1 PUSH1 0x1 PUSH1 0x30 SHL SWAP1 DIV PUSH2 0xFFFF AND PUSH2 0x33CB JUMP JUMPDEST SWAP3 POP PUSH2 0x100 EXP DUP2 SLOAD DUP2 PUSH2 0xFFFF MUL NOT AND SWAP1 DUP4 PUSH2 0xFFFF AND MUL OR SWAP1 SSTORE POP POP POP POP JUMP JUMPDEST PUSH2 0xBBE PUSH2 0x16AC JUMP JUMPDEST PUSH1 0x1 PUSH1 0x1 PUSH1 0xA0 SHL SUB AND PUSH2 0xBCF PUSH2 0x12DC JUMP JUMPDEST PUSH1 0x1 PUSH1 0x1 PUSH1 0xA0 SHL SUB AND EQ PUSH2 0xBF5 JUMPI PUSH1 0x40 MLOAD PUSH3 0x461BCD PUSH1 0xE5 SHL DUP2 MSTORE PUSH1 0x4 ADD PUSH2 0x6E9 SWAP1 PUSH2 0x2FE2 JUMP JUMPDEST PUSH1 0xC DUP1 SLOAD PUSH3 0xFF0000 NOT DUP2 AND PUSH3 0x10000 SWAP2 DUP3 SWAP1 DIV PUSH1 0xFF AND ISZERO SWAP1 SWAP2 MUL OR SWAP1 SSTORE JUMP JUMPDEST PUSH2 0xC1C PUSH2 0x16AC JUMP JUMPDEST PUSH1 0x1 PUSH1 0x1 PUSH1 0xA0 SHL SUB AND PUSH2 0xC2D PUSH2 0x12DC JUMP JUMPDEST PUSH1 0x1 PUSH1 0x1 PUSH1 0xA0 SHL SUB AND EQ PUSH2 0xC53 JUMPI PUSH1 0x40 MLOAD PUSH3 0x461BCD PUSH1 0xE5 SHL DUP2 MSTORE PUSH1 0x4 ADD PUSH2 0x6E9 SWAP1 PUSH2 0x2FE2 JUMP JUMPDEST PUSH1 0xE SLOAD PUSH1 0x0 SWAP1 PUSH1 0x1 PUSH1 0x1 PUSH1 0xA0 SHL SUB AND PUSH1 0x64 PUSH2 0xC6F SELFBALANCE PUSH1 0x14 PUSH2 0x3435 JUMP JUMPDEST PUSH2 0xC79 SWAP2 SWAP1 PUSH2 0x3421 JUMP JUMPDEST PUSH1 0x40 MLOAD PUSH2 0xC85 SWAP1 PUSH2 0x297B JUMP JUMPDEST PUSH1 0x0 PUSH1 0x40 MLOAD DUP1 DUP4 SUB DUP2 DUP6 DUP8 GAS CALL SWAP3 POP POP POP RETURNDATASIZE DUP1 PUSH1 0x0 DUP2 EQ PUSH2 0xCC2 JUMPI PUSH1 0x40 MLOAD SWAP2 POP PUSH1 0x1F NOT PUSH1 0x3F RETURNDATASIZE ADD AND DUP3 ADD PUSH1 0x40 MSTORE RETURNDATASIZE DUP3 MSTORE RETURNDATASIZE PUSH1 0x0 PUSH1 0x20 DUP5 ADD RETURNDATACOPY PUSH2 0xCC7 JUMP JUMPDEST PUSH1 0x60 SWAP2 POP JUMPDEST POP POP SWAP1 POP DUP1 PUSH2 0xCD5 JUMPI PUSH1 0x0 DUP1 REVERT JUMPDEST PUSH1 0x0 PUSH1 0x64 PUSH2 0xCE4 SELFBALANCE PUSH1 0x21 PUSH2 0x3435 JUMP JUMPDEST PUSH2 0xCEE SWAP2 SWAP1 PUSH2 0x3421 JUMP JUMPDEST PUSH1 0xF SLOAD PUSH1 0x40 MLOAD SWAP2 SWAP3 POP PUSH1 0x1 PUSH1 0x1 PUSH1 0xA0 SHL SUB AND SWAP1 DUP3 ISZERO PUSH2 0x8FC MUL SWAP1 DUP4 SWAP1 PUSH1 0x0 DUP2 DUP2 DUP2 DUP6 DUP9 DUP9 CALL SWAP4 POP POP POP POP ISZERO DUP1 ISZERO PUSH2 0xD29 JUMPI RETURNDATASIZE PUSH1 0x0 DUP1 RETURNDATACOPY RETURNDATASIZE PUSH1 0x0 REVERT JUMPDEST POP PUSH1 0x10 SLOAD PUSH1 0x40 MLOAD PUSH1 0x1 PUSH1 0x1 PUSH1 0xA0 SHL SUB SWAP1 SWAP2 AND SWAP1 DUP3 ISZERO PUSH2 0x8FC MUL SWAP1 DUP4 SWAP1 PUSH1 0x0 DUP2 DUP2 DUP2 DUP6 DUP9 DUP9 CALL SWAP4 POP POP POP POP ISZERO DUP1 ISZERO PUSH2 0xD64 JUMPI RETURNDATASIZE PUSH1 0x0 DUP1 RETURNDATACOPY RETURNDATASIZE PUSH1 0x0 REVERT JUMPDEST POP PUSH1 0x11 SLOAD PUSH1 0x40 MLOAD PUSH1 0x1 PUSH1 0x1 PUSH1 0xA0 SHL SUB SWAP1 SWAP2 AND SWAP1 DUP3 ISZERO PUSH2 0x8FC MUL SWAP1 DUP4 SWAP1 PUSH1 0x0 DUP2 DUP2 DUP2 DUP6 DUP9 DUP9 CALL SWAP4 POP POP POP POP ISZERO DUP1 ISZERO PUSH2 0xD9F JUMPI RETURNDATASIZE PUSH1 0x0 DUP1 RETURNDATACOPY RETURNDATASIZE PUSH1 0x0 REVERT JUMPDEST POP PUSH1 0xE SLOAD PUSH1 0x40 MLOAD PUSH1 0x0 SWAP2 PUSH1 0x1 PUSH1 0x1 PUSH1 0xA0 SHL SUB AND SWAP1 SELFBALANCE SWAP1 PUSH2 0xDBE SWAP1 PUSH2 0x297B JUMP JUMPDEST PUSH1 0x0 PUSH1 0x40 MLOAD DUP1 DUP4 SUB DUP2 DUP6 DUP8 GAS CALL SWAP3 POP POP POP RETURNDATASIZE DUP1 PUSH1 0x0 DUP2 EQ PUSH2 0xDFB JUMPI PUSH1 0x40 MLOAD SWAP2 POP PUSH1 0x1F NOT PUSH1 0x3F RETURNDATASIZE ADD AND DUP3 ADD PUSH1 0x40 MSTORE RETURNDATASIZE DUP3 MSTORE RETURNDATASIZE PUSH1 0x0 PUSH1 0x20 DUP5 ADD RETURNDATACOPY PUSH2 0xE00 JUMP JUMPDEST PUSH1 0x60 SWAP2 POP JUMPDEST POP POP SWAP1 POP DUP1 PUSH2 0x7AD JUMPI PUSH1 0x0 DUP1 REVERT JUMPDEST PUSH2 0x7AD DUP4 DUP4 DUP4 PUSH2 0xFFFF AND PUSH1 0x40 MLOAD DUP1 PUSH1 0x20 ADD PUSH1 0x40 MSTORE DUP1 PUSH1 0x0 DUP2 MSTORE POP PUSH2 0x13CD JUMP JUMPDEST PUSH1 0xA SLOAD DUP2 JUMP JUMPDEST PUSH2 0xE3B PUSH2 0x16AC JUMP JUMPDEST PUSH1 0x1 PUSH1 0x1 PUSH1 0xA0 SHL SUB AND PUSH2 0xE4C PUSH2 0x12DC JUMP JUMPDEST PUSH1 0x1 PUSH1 0x1 PUSH1 0xA0 SHL SUB AND EQ PUSH2 0xE72 JUMPI PUSH1 0x40 MLOAD PUSH3 0x461BCD PUSH1 0xE5 SHL DUP2 MSTORE PUSH1 0x4 ADD PUSH2 0x6E9 SWAP1 PUSH2 0x2FE2 JUMP JUMPDEST DUP1 MLOAD PUSH2 0xE85 SWAP1 PUSH1 0x7 SWAP1 PUSH1 0x20 DUP5 ADD SWAP1 PUSH2 0x2406 JUMP JUMPDEST POP POP JUMP JUMPDEST PUSH1 0xC SLOAD PUSH1 0x1 PUSH1 0x40 SHL SWAP1 DIV PUSH2 0xFFFF AND SWAP1 JUMP JUMPDEST PUSH1 0xC SLOAD PUSH2 0x100 SWAP1 DIV PUSH1 0xFF AND SWAP1 JUMP JUMPDEST PUSH2 0xEB0 PUSH2 0x16AC JUMP JUMPDEST PUSH1 0x1 PUSH1 0x1 PUSH1 0xA0 SHL SUB AND PUSH2 0xEC1 PUSH2 0x12DC JUMP JUMPDEST PUSH1 0x1 PUSH1 0x1 PUSH1 0xA0 SHL SUB AND EQ PUSH2 0xEE7 JUMPI PUSH1 0x40 MLOAD PUSH3 0x461BCD PUSH1 0xE5 SHL DUP2 MSTORE PUSH1 0x4 ADD PUSH2 0x6E9 SWAP1 PUSH2 0x2FE2 JUMP JUMPDEST PUSH1 0xC DUP1 SLOAD PUSH1 0xFF NOT DUP2 AND PUSH1 0xFF SWAP1 SWAP2 AND ISZERO OR SWAP1 SSTORE JUMP JUMPDEST PUSH2 0xF03 PUSH2 0x16AC JUMP JUMPDEST PUSH1 0x1 PUSH1 0x1 PUSH1 0xA0 SHL SUB AND PUSH2 0xF14 PUSH2 0x12DC JUMP JUMPDEST PUSH1 0x1 PUSH1 0x1 PUSH1 0xA0 SHL SUB AND EQ PUSH2 0xF3A JUMPI PUSH1 0x40 MLOAD PUSH3 0x461BCD PUSH1 0xE5 SHL DUP2 MSTORE PUSH1 0x4 ADD PUSH2 0x6E9 SWAP1 PUSH2 0x2FE2 JUMP JUMPDEST DUP1 MLOAD PUSH2 0xF4D SWAP1 PUSH1 0x7 SWAP1 PUSH1 0x20 DUP5 ADD SWAP1 PUSH2 0x2406 JUMP JUMPDEST POP POP PUSH1 0xC DUP1 SLOAD PUSH4 0xFF000000 NOT DUP2 AND PUSH4 0x1000000 SWAP2 DUP3 SWAP1 DIV PUSH1 0xFF AND ISZERO SWAP1 SWAP2 MUL OR SWAP1 SSTORE JUMP JUMPDEST PUSH1 0x0 PUSH2 0xF7B DUP3 PUSH2 0x1604 JUMP JUMPDEST PUSH2 0xF97 JUMPI PUSH1 0x40 MLOAD PUSH3 0x461BCD PUSH1 0xE5 SHL DUP2 MSTORE PUSH1 0x4 ADD PUSH2 0x6E9 SWAP1 PUSH2 0x2DC4 JUMP JUMPDEST DUP2 PUSH32 0x0 PUSH1 0x0 DUP1 PUSH2 0xFE7 PUSH1 0x1 PUSH32 0x0 PUSH2 0x347C JUMP JUMPDEST PUSH2 0xFFFF AND DUP5 PUSH2 0xFFFF AND GT SWAP1 POP DUP1 ISZERO PUSH2 0x1035 JUMPI PUSH2 0x1023 PUSH32 0x0 DUP6 PUSH2 0x347C JUMP JUMPDEST PUSH2 0x102E SWAP1 PUSH1 0x1 PUSH2 0x33CB JUMP JUMPDEST SWAP2 POP PUSH2 0x1055 JUMP JUMPDEST DUP4 PUSH2 0xFFFF AND PUSH1 0x1 EQ PUSH2 0x1047 JUMPI DUP3 PUSH2 0x1052 JUMP JUMPDEST PUSH2 0x1052 PUSH1 0x1 DUP5 PUSH2 0x347C JUMP JUMPDEST SWAP2 POP JUMPDEST PUSH1 0x0 DUP2 PUSH2 0x106B JUMPI PUSH2 0x1066 DUP6 DUP6 PUSH2 0x33CB JUMP JUMPDEST PUSH2 0x106D JUMP JUMPDEST DUP5 JUMPDEST SWAP1 POP JUMPDEST DUP3 PUSH2 0xFFFF AND DUP2 PUSH2 0xFFFF AND LT PUSH2 0x10EA JUMPI PUSH1 0x0 DUP5 PUSH2 0xFFFF AND DUP3 PUSH2 0xFFFF AND EQ PUSH2 0x109F JUMPI PUSH2 0x109A DUP6 DUP4 PUSH2 0x3570 JUMP JUMPDEST PUSH2 0x10A1 JUMP JUMPDEST DUP5 JUMPDEST PUSH2 0xFFFF DUP2 AND PUSH1 0x0 SWAP1 DUP2 MSTORE PUSH1 0x2 PUSH1 0x20 MSTORE PUSH1 0x40 SWAP1 KECCAK256 SLOAD SWAP1 SWAP2 POP PUSH1 0x1 PUSH1 0x1 PUSH1 0xA0 SHL SUB AND DUP1 ISZERO PUSH2 0x10D5 JUMPI SWAP7 POP PUSH2 0x62B SWAP6 POP POP POP POP POP POP JUMP JUMPDEST POP POP DUP1 DUP1 PUSH2 0x10E2 SWAP1 PUSH2 0x34DA JUMP JUMPDEST SWAP2 POP POP PUSH2 0x1070 JUMP JUMPDEST POP PUSH1 0x40 MLOAD PUSH3 0x461BCD PUSH1 0xE5 SHL DUP2 MSTORE PUSH1 0x4 ADD PUSH2 0x6E9 SWAP1 PUSH2 0x2F85 JUMP JUMPDEST PUSH1 0x0 PUSH1 0x1 PUSH1 0x1 PUSH1 0xA0 SHL SUB DUP3 AND PUSH2 0x112B JUMPI PUSH1 0x40 MLOAD PUSH3 0x461BCD PUSH1 0xE5 SHL DUP2 MSTORE PUSH1 0x4 ADD PUSH2 0x6E9 SWAP1 PUSH2 0x2EB6 JUMP JUMPDEST POP PUSH1 0x1 PUSH1 0x1 PUSH1 0xA0 SHL SUB AND PUSH1 0x0 SWAP1 DUP2 MSTORE PUSH1 0x3 PUSH1 0x20 MSTORE PUSH1 0x40 SWAP1 KECCAK256 SLOAD PUSH1 0x1 PUSH1 0x1 PUSH1 0x80 SHL SUB AND SWAP1 JUMP JUMPDEST PUSH2 0x1158 PUSH2 0x16AC JUMP JUMPDEST PUSH1 0x1 PUSH1 0x1 PUSH1 0xA0 SHL SUB AND PUSH2 0x1169 PUSH2 0x12DC JUMP JUMPDEST PUSH1 0x1 PUSH1 0x1 PUSH1 0xA0 SHL SUB AND EQ PUSH2 0x118F JUMPI PUSH1 0x40 MLOAD PUSH3 0x461BCD PUSH1 0xE5 SHL DUP2 MSTORE PUSH1 0x4 ADD PUSH2 0x6E9 SWAP1 PUSH2 0x2FE2 JUMP JUMPDEST PUSH2 0x887 PUSH1 0x0 PUSH2 0x1D19 JUMP JUMPDEST PUSH1 0xC SLOAD PUSH1 0xFF DUP1 DUP3 AND SWAP2 PUSH2 0x100 DUP2 DIV DUP3 AND SWAP2 PUSH3 0x10000 DUP3 DIV DUP2 AND SWAP2 PUSH4 0x1000000 DUP2 DIV SWAP1 SWAP2 AND SWAP1 PUSH2 0xFFFF PUSH5 0x100000000 DUP3 DIV DUP2 AND SWAP2 PUSH1 0x1 PUSH1 0x30 SHL DUP2 DIV DUP3 AND SWAP2 PUSH1 0x1 PUSH1 0x40 SHL DUP3 DIV DUP2 AND SWAP2 PUSH1 0x1 PUSH1 0x50 SHL DUP2 DIV DUP3 AND SWAP2 PUSH1 0x1 PUSH1 0x60 SHL SWAP1 SWAP2 DIV AND DUP10 JUMP JUMPDEST PUSH2 0x11FE PUSH2 0x16AC JUMP JUMPDEST PUSH1 0x1 PUSH1 0x1 PUSH1 0xA0 SHL SUB AND PUSH2 0x120F PUSH2 0x12DC JUMP JUMPDEST PUSH1 0x1 PUSH1 0x1 PUSH1 0xA0 SHL SUB AND EQ PUSH2 0x1235 JUMPI PUSH1 0x40 MLOAD PUSH3 0x461BCD PUSH1 0xE5 SHL DUP2 MSTORE PUSH1 0x4 ADD PUSH2 0x6E9 SWAP1 PUSH2 0x2FE2 JUMP JUMPDEST PUSH1 0xC SLOAD PUSH1 0x0 SWAP1 PUSH2 0x1259 SWAP1 PUSH2 0xFFFF PUSH1 0x1 PUSH1 0x50 SHL DUP3 DIV DUP2 AND SWAP2 PUSH1 0x1 PUSH1 0x60 SHL SWAP1 DIV AND PUSH2 0x3400 JUMP JUMPDEST PUSH2 0xFFFF AND SWAP1 POP PUSH1 0x0 JUMPDEST DUP2 DUP2 LT ISZERO PUSH2 0x1295 JUMPI PUSH1 0xC SLOAD PUSH2 0x1283 SWAP1 CALLER SWAP1 PUSH1 0x1 PUSH1 0x50 SHL SWAP1 DIV PUSH2 0xFFFF AND PUSH2 0x1B9E JUMP JUMPDEST DUP1 PUSH2 0x128D DUP2 PUSH2 0x3555 JUMP JUMPDEST SWAP2 POP POP PUSH2 0x1262 JUMP JUMPDEST POP PUSH1 0xC DUP1 SLOAD PUSH2 0xFFFF PUSH1 0x1 PUSH1 0x60 SHL DUP3 DIV DUP2 AND SWAP3 SWAP2 PUSH1 0x6 SWAP2 PUSH2 0x12BF SWAP2 DUP6 SWAP2 PUSH1 0x1 PUSH1 0x30 SHL SWAP1 SWAP2 DIV AND PUSH2 0x33CB JUMP JUMPDEST SWAP3 POP PUSH2 0x100 EXP DUP2 SLOAD DUP2 PUSH2 0xFFFF MUL NOT AND SWAP1 DUP4 PUSH2 0xFFFF AND MUL OR SWAP1 SSTORE POP POP JUMP JUMPDEST PUSH1 0x5 SLOAD PUSH1 0x1 PUSH1 0x1 PUSH1 0xA0 SHL SUB AND SWAP1 JUMP JUMPDEST PUSH1 0x60 PUSH1 0x1 DUP1 SLOAD PUSH2 0x63F SWAP1 PUSH2 0x34F8 JUMP JUMPDEST PUSH1 0x1 PUSH1 0x1 PUSH1 0xA0 SHL SUB DUP3 AND CALLER EQ ISZERO PUSH2 0x1323 JUMPI PUSH1 0x40 MLOAD PUSH3 0x461BCD PUSH1 0xE5 SHL DUP2 MSTORE PUSH1 0x4 ADD PUSH2 0x6E9 SWAP1 PUSH2 0x304E JUMP JUMPDEST PUSH2 0xE85 PUSH2 0x132E PUSH2 0x16AC JUMP JUMPDEST DUP4 DUP4 PUSH2 0x1D6B JUMP JUMPDEST PUSH1 0xD SLOAD PUSH1 0x40 DUP1 MLOAD PUSH1 0x20 PUSH1 0x1F DUP7 ADD DUP2 SWAP1 DIV DUP2 MUL DUP3 ADD DUP2 ADD SWAP1 SWAP3 MSTORE DUP5 DUP2 MSTORE PUSH1 0x0 SWAP3 PUSH1 0x1 PUSH1 0x1 PUSH1 0xA0 SHL SUB AND SWAP2 PUSH2 0x13BB SWAP2 SWAP1 DUP8 SWAP1 DUP8 SWAP1 DUP2 SWAP1 DUP5 ADD DUP4 DUP3 DUP1 DUP3 DUP5 CALLDATACOPY PUSH1 0x0 SWAP3 ADD SWAP2 SWAP1 SWAP2 MSTORE POP POP PUSH1 0xC SLOAD PUSH1 0x40 MLOAD PUSH2 0x13B5 SWAP4 POP PUSH2 0x13A1 SWAP3 POP DUP9 SWAP2 PUSH1 0x1 PUSH1 0x40 SHL SWAP1 DIV PUSH2 0xFFFF AND SWAP1 PUSH1 0x20 ADD PUSH2 0x29CE JUMP JUMPDEST PUSH1 0x40 MLOAD PUSH1 0x20 DUP2 DUP4 SUB SUB DUP2 MSTORE SWAP1 PUSH1 0x40 MSTORE PUSH2 0x1E0E JUMP JUMPDEST SWAP1 PUSH2 0x1E49 JUMP JUMPDEST PUSH1 0x1 PUSH1 0x1 PUSH1 0xA0 SHL SUB AND EQ SWAP5 SWAP4 POP POP POP POP JUMP JUMPDEST PUSH2 0x13DE PUSH2 0x13D8 PUSH2 0x16AC JUMP JUMPDEST DUP4 PUSH2 0x1780 JUMP JUMPDEST PUSH2 0x13FA JUMPI PUSH1 0x40 MLOAD PUSH3 0x461BCD PUSH1 0xE5 SHL DUP2 MSTORE PUSH1 0x4 ADD PUSH2 0x6E9 SWAP1 PUSH2 0x2E0E JUMP JUMPDEST PUSH2 0x1406 DUP5 DUP5 DUP5 DUP5 PUSH2 0x1E6D JUMP JUMPDEST POP POP POP POP JUMP JUMPDEST PUSH1 0xC SLOAD PUSH1 0xFF AND SWAP1 JUMP JUMPDEST PUSH1 0xC SLOAD PUSH1 0x60 SWAP1 PUSH4 0x1000000 SWAP1 DIV PUSH1 0xFF AND ISZERO PUSH2 0x145E JUMPI PUSH1 0x7 PUSH2 0x1435 DUP4 PUSH2 0x1EA4 JUMP JUMPDEST PUSH1 0xA SLOAD PUSH1 0x40 MLOAD PUSH1 0x20 ADD PUSH2 0x144A SWAP4 SWAP3 SWAP2 SWAP1 PUSH2 0x2875 JUMP JUMPDEST PUSH1 0x40 MLOAD PUSH1 0x20 DUP2 DUP4 SUB SUB DUP2 MSTORE SWAP1 PUSH1 0x40 MSTORE PUSH2 0x628 JUMP JUMPDEST PUSH1 0x7 DUP1 SLOAD PUSH2 0x146B SWAP1 PUSH2 0x34F8 JUMP JUMPDEST DUP1 PUSH1 0x1F ADD PUSH1 0x20 DUP1 SWAP2 DIV MUL PUSH1 0x20 ADD PUSH1 0x40 MLOAD SWAP1 DUP2 ADD PUSH1 0x40 MSTORE DUP1 SWAP3 SWAP2 SWAP1 DUP2 DUP2 MSTORE PUSH1 0x20 ADD DUP3 DUP1 SLOAD PUSH2 0x1497 SWAP1 PUSH2 0x34F8 JUMP JUMPDEST DUP1 ISZERO PUSH2 0x14E4 JUMPI DUP1 PUSH1 0x1F LT PUSH2 0x14B9 JUMPI PUSH2 0x100 DUP1 DUP4 SLOAD DIV MUL DUP4 MSTORE SWAP2 PUSH1 0x20 ADD SWAP2 PUSH2 0x14E4 JUMP JUMPDEST DUP3 ADD SWAP2 SWAP1 PUSH1 0x0 MSTORE PUSH1 0x20 PUSH1 0x0 KECCAK256 SWAP1 JUMPDEST DUP2 SLOAD DUP2 MSTORE SWAP1 PUSH1 0x1 ADD SWAP1 PUSH1 0x20 ADD DUP1 DUP4 GT PUSH2 0x14C7 JUMPI DUP3 SWAP1 SUB PUSH1 0x1F AND DUP3 ADD SWAP2 JUMPDEST POP POP POP POP POP SWAP1 POP SWAP2 SWAP1 POP JUMP JUMPDEST PUSH2 0x14F8 PUSH2 0x16AC JUMP JUMPDEST PUSH1 0x1 PUSH1 0x1 PUSH1 0xA0 SHL SUB AND PUSH2 0x1509 PUSH2 0x12DC JUMP JUMPDEST PUSH1 0x1 PUSH1 0x1 PUSH1 0xA0 SHL SUB AND EQ PUSH2 0x152F JUMPI PUSH1 0x40 MLOAD PUSH3 0x461BCD PUSH1 0xE5 SHL DUP2 MSTORE PUSH1 0x4 ADD PUSH2 0x6E9 SWAP1 PUSH2 0x2FE2 JUMP JUMPDEST PUSH1 0xC DUP1 SLOAD PUSH2 0xFF00 NOT DUP2 AND PUSH2 0x100 SWAP2 DUP3 SWAP1 DIV PUSH1 0xFF AND ISZERO SWAP1 SWAP2 MUL OR SWAP1 SSTORE JUMP JUMPDEST PUSH1 0x1 PUSH1 0x1 PUSH1 0xA0 SHL SUB SWAP2 DUP3 AND PUSH1 0x0 SWAP1 DUP2 MSTORE PUSH1 0x4 PUSH1 0x20 SWAP1 DUP2 MSTORE PUSH1 0x40 DUP1 DUP4 KECCAK256 SWAP4 SWAP1 SWAP5 AND DUP3 MSTORE SWAP2 SWAP1 SWAP2 MSTORE KECCAK256 SLOAD PUSH1 0xFF AND SWAP1 JUMP JUMPDEST PUSH2 0x1582 PUSH2 0x16AC JUMP JUMPDEST PUSH1 0x1 PUSH1 0x1 PUSH1 0xA0 SHL SUB AND PUSH2 0x1593 PUSH2 0x12DC JUMP JUMPDEST PUSH1 0x1 PUSH1 0x1 PUSH1 0xA0 SHL SUB AND EQ PUSH2 0x15B9 JUMPI PUSH1 0x40 MLOAD PUSH3 0x461BCD PUSH1 0xE5 SHL DUP2 MSTORE PUSH1 0x4 ADD PUSH2 0x6E9 SWAP1 PUSH2 0x2FE2 JUMP JUMPDEST PUSH1 0x1 PUSH1 0x1 PUSH1 0xA0 SHL SUB DUP2 AND PUSH2 0x15DF JUMPI PUSH1 0x40 MLOAD PUSH3 0x461BCD PUSH1 0xE5 SHL DUP2 MSTORE PUSH1 0x4 ADD PUSH2 0x6E9 SWAP1 PUSH2 0x2B22 JUMP JUMPDEST PUSH2 0x15E8 DUP2 PUSH2 0x1D19 JUMP JUMPDEST POP JUMP JUMPDEST PUSH1 0x1 PUSH1 0x1 PUSH1 0xE0 SHL SUB NOT DUP2 AND PUSH4 0x1FFC9A7 PUSH1 0xE0 SHL EQ SWAP2 SWAP1 POP JUMP JUMPDEST PUSH1 0xC SLOAD PUSH1 0x0 SWAP1 PUSH2 0xFFFF PUSH5 0x100000000 SWAP1 SWAP2 DIV DUP2 AND SWAP1 DUP4 AND ISZERO DUP1 ISZERO SWAP1 PUSH2 0x163A JUMPI POP PUSH1 0xC SLOAD PUSH2 0xFFFF PUSH1 0x1 PUSH1 0x40 SHL SWAP1 SWAP2 DIV DUP2 AND SWAP1 DUP5 AND GT ISZERO JUMPDEST ISZERO PUSH2 0x16A3 JUMPI DUP1 PUSH2 0xFFFF AND DUP4 PUSH2 0xFFFF AND LT ISZERO PUSH2 0x168B JUMPI PUSH1 0xC SLOAD PUSH2 0xFFFF PUSH1 0x1 PUSH1 0x30 SHL DUP3 DIV DUP2 AND SWAP2 DUP4 SWAP2 PUSH2 0x1673 SWAP2 PUSH1 0x1 PUSH1 0x40 SHL SWAP1 DIV AND DUP7 PUSH2 0x33CB JUMP JUMPDEST PUSH2 0x167D SWAP2 SWAP1 PUSH2 0x347C JUMP JUMPDEST PUSH2 0xFFFF AND GT ISZERO SWAP2 POP POP PUSH2 0x62B JUMP JUMPDEST PUSH1 0xC SLOAD PUSH1 0x1 PUSH1 0x30 SHL SWAP1 DIV PUSH2 0xFFFF AND PUSH2 0x167D DUP3 DUP6 PUSH2 0x347C JUMP JUMPDEST POP PUSH1 0x0 SWAP3 SWAP2 POP POP JUMP JUMPDEST CALLER SWAP1 JUMP JUMPDEST PUSH2 0xFFFF DUP3 AND PUSH1 0x0 DUP2 DUP2 MSTORE PUSH1 0x2 PUSH1 0x20 MSTORE PUSH1 0x40 DUP1 DUP3 KECCAK256 PUSH1 0x1 ADD DUP1 SLOAD PUSH1 0x1 PUSH1 0x1 PUSH1 0xA0 SHL SUB NOT AND PUSH1 0x1 PUSH1 0x1 PUSH1 0xA0 SHL SUB DUP9 DUP2 AND SWAP2 DUP3 OR SWAP1 SWAP3 SSTORE SWAP2 MLOAD SWAP2 SWAP3 SWAP1 DUP6 AND SWAP2 PUSH32 0x8C5BE1E5EBEC7D5BD14F71427D1E84F3DD0314C0F7B2291E5B200AC8C7C3B925 SWAP2 SWAP1 LOG4 POP POP POP JUMP JUMPDEST PUSH1 0xC SLOAD PUSH5 0x100000000 SWAP1 DIV PUSH2 0xFFFF AND ISZERO PUSH2 0x1741 JUMPI PUSH1 0x40 MLOAD PUSH3 0x461BCD PUSH1 0xE5 SHL DUP2 MSTORE PUSH1 0x4 ADD PUSH2 0x6E9 SWAP1 PUSH2 0x326F JUMP JUMPDEST PUSH1 0xC SLOAD PUSH2 0x175A SWAP1 PUSH1 0x1 PUSH1 0x40 SHL SWAP1 DIV PUSH2 0xFFFF AND DUP3 BLOCKHASH PUSH2 0x3591 JUMP JUMPDEST PUSH1 0xC DUP1 SLOAD PUSH2 0xFFFF SWAP3 SWAP1 SWAP3 AND PUSH5 0x100000000 MUL PUSH6 0xFFFF00000000 NOT SWAP1 SWAP3 AND SWAP2 SWAP1 SWAP2 OR SWAP1 SSTORE POP JUMP JUMPDEST PUSH1 0x0 PUSH2 0x178B DUP3 PUSH2 0x1604 JUMP JUMPDEST PUSH2 0x17A7 JUMPI PUSH1 0x40 MLOAD PUSH3 0x461BCD PUSH1 0xE5 SHL DUP2 MSTORE PUSH1 0x4 ADD PUSH2 0x6E9 SWAP1 PUSH2 0x32F7 JUMP JUMPDEST PUSH1 0x0 PUSH2 0x17B6 DUP4 PUSH2 0xFFFF AND PUSH2 0xF70 JUMP JUMPDEST SWAP1 POP DUP1 PUSH1 0x1 PUSH1 0x1 PUSH1 0xA0 SHL SUB AND DUP5 PUSH1 0x1 PUSH1 0x1 PUSH1 0xA0 SHL SUB AND EQ DUP1 PUSH2 0x17F5 JUMPI POP DUP4 PUSH1 0x1 PUSH1 0x1 PUSH1 0xA0 SHL SUB AND PUSH2 0x17EA DUP5 PUSH2 0xFFFF AND PUSH2 0x6C2 JUMP JUMPDEST PUSH1 0x1 PUSH1 0x1 PUSH1 0xA0 SHL SUB AND EQ JUMPDEST DUP1 PUSH2 0x1805 JUMPI POP PUSH2 0x1805 DUP2 DUP6 PUSH2 0x154C JUMP JUMPDEST SWAP5 SWAP4 POP POP POP POP JUMP JUMPDEST PUSH1 0x0 PUSH2 0x181C DUP3 PUSH2 0xFFFF AND PUSH2 0xF70 JUMP JUMPDEST SWAP1 POP DUP4 PUSH1 0x1 PUSH1 0x1 PUSH1 0xA0 SHL SUB AND DUP2 PUSH1 0x1 PUSH1 0x1 PUSH1 0xA0 SHL SUB AND EQ PUSH2 0x184F JUMPI PUSH1 0x40 MLOAD PUSH3 0x461BCD PUSH1 0xE5 SHL DUP2 MSTORE PUSH1 0x4 ADD PUSH2 0x6E9 SWAP1 PUSH2 0x2CDF JUMP JUMPDEST PUSH1 0x1 PUSH1 0x1 PUSH1 0xA0 SHL SUB DUP4 AND PUSH2 0x1875 JUMPI PUSH1 0x40 MLOAD PUSH3 0x461BCD PUSH1 0xE5 SHL DUP2 MSTORE PUSH1 0x4 ADD PUSH2 0x6E9 SWAP1 PUSH2 0x32B2 JUMP JUMPDEST PUSH2 0x187E DUP3 PUSH2 0x1604 JUMP JUMPDEST PUSH2 0x189A JUMPI PUSH1 0x40 MLOAD PUSH3 0x461BCD PUSH1 0xE5 SHL DUP2 MSTORE PUSH1 0x4 ADD PUSH2 0x6E9 SWAP1 PUSH2 0x3222 JUMP JUMPDEST PUSH2 0x18A7 DUP5 DUP5 DUP5 PUSH1 0x1 PUSH2 0x1406 JUMP JUMPDEST PUSH2 0x18B3 PUSH1 0x0 DUP4 DUP4 PUSH2 0x16B0 JUMP JUMPDEST PUSH1 0x0 PUSH32 0x0 PUSH2 0xFFFF AND DUP4 PUSH2 0xFFFF AND EQ PUSH2 0x1916 JUMPI PUSH1 0x2 PUSH1 0x0 PUSH2 0x18F3 DUP6 PUSH1 0x1 PUSH2 0x33CB JUMP JUMPDEST PUSH2 0xFFFF AND DUP2 MSTORE PUSH1 0x20 DUP2 ADD SWAP2 SWAP1 SWAP2 MSTORE PUSH1 0x40 ADD PUSH1 0x0 KECCAK256 SLOAD PUSH1 0x1 PUSH1 0x1 PUSH1 0xA0 SHL SUB AND PUSH2 0x194C JUMP JUMPDEST PUSH1 0x1 PUSH1 0x0 MSTORE PUSH1 0x2 PUSH1 0x20 MSTORE PUSH32 0xE90B7BCEB6E7DF5418FB78D8EE546E97C83A08BBCCC01A0644D599CCD2A7C2E0 SLOAD PUSH1 0x1 PUSH1 0x1 PUSH1 0xA0 SHL SUB AND JUMPDEST SWAP1 POP PUSH1 0x1 PUSH1 0x1 PUSH1 0xA0 SHL SUB DUP2 AND ISZERO DUP1 ISZERO PUSH2 0x198C JUMPI POP PUSH32 0x0 PUSH2 0xFFFF AND DUP4 PUSH2 0xFFFF AND LT JUMPDEST DUP1 ISZERO PUSH2 0x19A6 JUMPI POP PUSH2 0x19A6 PUSH2 0x19A1 DUP5 PUSH1 0x1 PUSH2 0x33CB JUMP JUMPDEST PUSH2 0x1604 JUMP JUMPDEST ISZERO PUSH2 0x19F2 JUMPI DUP5 PUSH1 0x2 PUSH1 0x0 PUSH2 0x19BB DUP7 PUSH1 0x1 PUSH2 0x33CB JUMP JUMPDEST PUSH2 0xFFFF AND DUP2 MSTORE PUSH1 0x20 DUP2 ADD SWAP2 SWAP1 SWAP2 MSTORE PUSH1 0x40 ADD PUSH1 0x0 KECCAK256 DUP1 SLOAD PUSH1 0x1 PUSH1 0x1 PUSH1 0xA0 SHL SUB NOT AND PUSH1 0x1 PUSH1 0x1 PUSH1 0xA0 SHL SUB SWAP3 SWAP1 SWAP3 AND SWAP2 SWAP1 SWAP2 OR SWAP1 SSTORE PUSH2 0x1A8B JUMP JUMPDEST PUSH1 0x1 PUSH1 0x1 PUSH1 0xA0 SHL SUB DUP2 AND ISZERO DUP1 ISZERO PUSH2 0x1A30 JUMPI POP PUSH32 0x0 PUSH2 0xFFFF AND DUP4 PUSH2 0xFFFF AND EQ JUMPDEST DUP1 ISZERO PUSH2 0x1A41 JUMPI POP PUSH2 0x1A41 PUSH1 0x1 PUSH2 0x1604 JUMP JUMPDEST ISZERO PUSH2 0x1A8B JUMPI PUSH1 0x1 PUSH1 0x0 MSTORE PUSH1 0x2 PUSH1 0x20 MSTORE PUSH32 0xE90B7BCEB6E7DF5418FB78D8EE546E97C83A08BBCCC01A0644D599CCD2A7C2E0 DUP1 SLOAD PUSH1 0x1 PUSH1 0x1 PUSH1 0xA0 SHL SUB NOT AND PUSH1 0x1 PUSH1 0x1 PUSH1 0xA0 SHL SUB DUP8 AND OR SWAP1 SSTORE JUMPDEST PUSH1 0x1 PUSH1 0x1 PUSH1 0xA0 SHL SUB DUP6 AND PUSH1 0x0 SWAP1 DUP2 MSTORE PUSH1 0x3 PUSH1 0x20 MSTORE PUSH1 0x40 DUP2 KECCAK256 DUP1 SLOAD PUSH1 0x1 SWAP3 SWAP1 PUSH2 0x1ABD SWAP1 DUP5 SWAP1 PUSH1 0x1 PUSH1 0x1 PUSH1 0x80 SHL SUB AND PUSH2 0x3454 JUMP JUMPDEST DUP3 SLOAD PUSH2 0x100 SWAP3 SWAP1 SWAP3 EXP PUSH1 0x1 PUSH1 0x1 PUSH1 0x80 SHL SUB DUP2 DUP2 MUL NOT SWAP1 SWAP4 AND SWAP2 DUP4 AND MUL OR SWAP1 SWAP2 SSTORE PUSH1 0x1 PUSH1 0x1 PUSH1 0xA0 SHL SUB DUP7 AND PUSH1 0x0 SWAP1 DUP2 MSTORE PUSH1 0x3 PUSH1 0x20 MSTORE PUSH1 0x40 DUP2 KECCAK256 DUP1 SLOAD PUSH1 0x1 SWAP5 POP SWAP1 SWAP3 PUSH2 0x1B09 SWAP2 DUP6 SWAP2 AND PUSH2 0x33A0 JUMP JUMPDEST DUP3 SLOAD PUSH1 0x1 PUSH1 0x1 PUSH1 0x80 SHL SUB SWAP2 DUP3 AND PUSH2 0x100 SWAP4 SWAP1 SWAP4 EXP SWAP3 DUP4 MUL SWAP2 SWAP1 SWAP3 MUL NOT SWAP1 SWAP2 AND OR SWAP1 SSTORE POP PUSH2 0xFFFF DUP4 AND PUSH1 0x0 DUP2 DUP2 MSTORE PUSH1 0x2 PUSH1 0x20 MSTORE PUSH1 0x40 DUP1 DUP3 KECCAK256 DUP1 SLOAD PUSH1 0x1 PUSH1 0x1 PUSH1 0xA0 SHL SUB DUP1 DUP11 AND PUSH1 0x1 PUSH1 0x1 PUSH1 0xA0 SHL SUB NOT SWAP1 SWAP3 AND DUP3 OR SWAP1 SWAP3 SSTORE SWAP2 MLOAD SWAP2 SWAP3 SWAP1 DUP10 AND SWAP2 PUSH32 0xDDF252AD1BE2C89B69C2B068FC378DAA952BA7F163C4A11628F55A4DF523B3EF SWAP2 SWAP1 LOG4 PUSH2 0x1B97 DUP6 DUP6 DUP6 PUSH1 0x1 PUSH2 0x1406 JUMP JUMPDEST POP POP POP POP POP JUMP JUMPDEST PUSH1 0x0 PUSH2 0x1BA8 PUSH2 0x1FD7 JUMP JUMPDEST SWAP1 POP PUSH1 0x1 PUSH1 0x1 PUSH1 0xA0 SHL SUB DUP4 AND PUSH2 0x1BD0 JUMPI PUSH1 0x40 MLOAD PUSH3 0x461BCD PUSH1 0xE5 SHL DUP2 MSTORE PUSH1 0x4 ADD PUSH2 0x6E9 SWAP1 PUSH2 0x2B68 JUMP JUMPDEST PUSH2 0x1BE1 PUSH1 0x0 DUP5 DUP4 DUP6 PUSH2 0xFFFF AND PUSH2 0x1406 JUMP JUMPDEST PUSH1 0x1 PUSH1 0x1 PUSH1 0xA0 SHL SUB DUP4 AND PUSH1 0x0 SWAP1 DUP2 MSTORE PUSH1 0x3 PUSH1 0x20 MSTORE PUSH1 0x40 DUP2 KECCAK256 DUP1 SLOAD PUSH2 0xFFFF DUP6 AND SWAP3 SWAP1 PUSH2 0x1C16 SWAP1 DUP5 SWAP1 PUSH1 0x1 PUSH1 0x1 PUSH1 0x80 SHL SUB AND PUSH2 0x33A0 JUMP JUMPDEST DUP3 SLOAD PUSH2 0x100 SWAP3 SWAP1 SWAP3 EXP PUSH1 0x1 PUSH1 0x1 PUSH1 0x80 SHL SUB DUP2 DUP2 MUL NOT SWAP1 SWAP4 AND SWAP2 SWAP1 SWAP3 AND SWAP2 SWAP1 SWAP2 MUL OR SWAP1 SSTORE POP PUSH2 0xFFFF DUP2 AND PUSH1 0x0 SWAP1 DUP2 MSTORE PUSH1 0x2 PUSH1 0x20 MSTORE PUSH1 0x40 DUP2 KECCAK256 DUP1 SLOAD PUSH1 0x1 PUSH1 0x1 PUSH1 0xA0 SHL SUB NOT AND PUSH1 0x1 PUSH1 0x1 PUSH1 0xA0 SHL SUB DUP7 AND OR SWAP1 SSTORE JUMPDEST DUP3 PUSH2 0xFFFF AND DUP2 PUSH2 0xFFFF AND LT ISZERO PUSH2 0x1D07 JUMPI PUSH1 0x40 MLOAD PUSH2 0xFFFF DUP4 AND SWAP1 PUSH1 0x1 PUSH1 0x1 PUSH1 0xA0 SHL SUB DUP7 AND SWAP1 PUSH1 0x0 SWAP1 PUSH32 0xDDF252AD1BE2C89B69C2B068FC378DAA952BA7F163C4A11628F55A4DF523B3EF SWAP1 DUP3 SWAP1 LOG4 PUSH2 0x1CBE PUSH1 0x1 DUP4 PUSH2 0x33CB JUMP JUMPDEST SWAP2 POP PUSH32 0x0 PUSH2 0xFFFF AND DUP3 PUSH2 0xFFFF AND GT ISZERO PUSH2 0x1CF5 JUMPI PUSH1 0x1 SWAP2 POP JUMPDEST DUP1 PUSH2 0x1CFF DUP2 PUSH2 0x3533 JUMP JUMPDEST SWAP2 POP POP PUSH2 0x1C67 JUMP JUMPDEST POP PUSH2 0x7AD PUSH1 0x0 DUP5 DUP4 DUP6 PUSH2 0xFFFF AND PUSH2 0x1406 JUMP JUMPDEST PUSH1 0x5 DUP1 SLOAD PUSH1 0x1 PUSH1 0x1 PUSH1 0xA0 SHL SUB DUP4 DUP2 AND PUSH1 0x1 PUSH1 0x1 PUSH1 0xA0 SHL SUB NOT DUP4 AND DUP2 OR SWAP1 SWAP4 SSTORE PUSH1 0x40 MLOAD SWAP2 AND SWAP2 SWAP1 DUP3 SWAP1 PUSH32 0x8BE0079C531659141344CD1FD0A4F28419497F9722A3DAAFE3B4186F6B6457E0 SWAP1 PUSH1 0x0 SWAP1 LOG3 POP POP JUMP JUMPDEST DUP2 PUSH1 0x1 PUSH1 0x1 PUSH1 0xA0 SHL SUB AND DUP4 PUSH1 0x1 PUSH1 0x1 PUSH1 0xA0 SHL SUB AND EQ ISZERO PUSH2 0x1D9D JUMPI PUSH1 0x40 MLOAD PUSH3 0x461BCD PUSH1 0xE5 SHL DUP2 MSTORE PUSH1 0x4 ADD PUSH2 0x6E9 SWAP1 PUSH2 0x2AB4 JUMP JUMPDEST PUSH1 0x1 PUSH1 0x1 PUSH1 0xA0 SHL SUB DUP4 DUP2 AND PUSH1 0x0 DUP2 DUP2 MSTORE PUSH1 0x4 PUSH1 0x20 SWAP1 DUP2 MSTORE PUSH1 0x40 DUP1 DUP4 KECCAK256 SWAP5 DUP8 AND DUP1 DUP5 MSTORE SWAP5 SWAP1 SWAP2 MSTORE SWAP1 DUP2 SWAP1 KECCAK256 DUP1 SLOAD PUSH1 0xFF NOT AND DUP6 ISZERO ISZERO OR SWAP1 SSTORE MLOAD PUSH32 0x17307EAB39AB6107E8899845AD3D59BD9653F200F220920489CA2B5937696C31 SWAP1 PUSH2 0x1E01 SWAP1 DUP6 SWAP1 PUSH2 0x29EB JUMP JUMPDEST PUSH1 0x40 MLOAD DUP1 SWAP2 SUB SWAP1 LOG3 POP POP POP JUMP JUMPDEST PUSH1 0x0 PUSH2 0x1E1A DUP3 MLOAD PUSH2 0x1EA4 JUMP JUMPDEST DUP3 PUSH1 0x40 MLOAD PUSH1 0x20 ADD PUSH2 0x1E2C SWAP3 SWAP2 SWAP1 PUSH2 0x2920 JUMP JUMPDEST PUSH1 0x40 MLOAD PUSH1 0x20 DUP2 DUP4 SUB SUB DUP2 MSTORE SWAP1 PUSH1 0x40 MSTORE DUP1 MLOAD SWAP1 PUSH1 0x20 ADD KECCAK256 SWAP1 POP SWAP2 SWAP1 POP JUMP JUMPDEST PUSH1 0x0 DUP1 PUSH1 0x0 PUSH2 0x1E58 DUP6 DUP6 PUSH2 0x2020 JUMP JUMPDEST SWAP2 POP SWAP2 POP PUSH2 0x1E65 DUP2 PUSH2 0x2090 JUMP JUMPDEST POP SWAP4 SWAP3 POP POP POP JUMP JUMPDEST PUSH2 0x1E78 DUP5 DUP5 DUP5 PUSH2 0x180D JUMP JUMPDEST PUSH2 0x1E88 DUP5 DUP5 DUP5 PUSH2 0xFFFF AND DUP5 PUSH2 0x21BD JUMP JUMPDEST PUSH2 0x1406 JUMPI PUSH1 0x40 MLOAD PUSH3 0x461BCD PUSH1 0xE5 SHL DUP2 MSTORE PUSH1 0x4 ADD PUSH2 0x6E9 SWAP1 PUSH2 0x318E JUMP JUMPDEST PUSH1 0x60 DUP2 PUSH2 0x1EC9 JUMPI POP PUSH1 0x40 DUP1 MLOAD DUP1 DUP3 ADD SWAP1 SWAP2 MSTORE PUSH1 0x1 DUP2 MSTORE PUSH1 0x3 PUSH1 0xFC SHL PUSH1 0x20 DUP3 ADD MSTORE PUSH2 0x62B JUMP JUMPDEST DUP2 PUSH1 0x0 JUMPDEST DUP2 ISZERO PUSH2 0x1EF3 JUMPI DUP1 PUSH2 0x1EDD DUP2 PUSH2 0x3555 JUMP JUMPDEST SWAP2 POP PUSH2 0x1EEC SWAP1 POP PUSH1 0xA DUP4 PUSH2 0x3421 JUMP JUMPDEST SWAP2 POP PUSH2 0x1ECD JUMP JUMPDEST PUSH1 0x0 DUP2 PUSH8 0xFFFFFFFFFFFFFFFF DUP2 GT ISZERO PUSH2 0x1F1C JUMPI PUSH4 0x4E487B71 PUSH1 0xE0 SHL PUSH1 0x0 MSTORE PUSH1 0x41 PUSH1 0x4 MSTORE PUSH1 0x24 PUSH1 0x0 REVERT JUMPDEST PUSH1 0x40 MLOAD SWAP1 DUP1 DUP3 MSTORE DUP1 PUSH1 0x1F ADD PUSH1 0x1F NOT AND PUSH1 0x20 ADD DUP3 ADD PUSH1 0x40 MSTORE DUP1 ISZERO PUSH2 0x1F46 JUMPI PUSH1 0x20 DUP3 ADD DUP2 DUP1 CALLDATASIZE DUP4 CALLDATACOPY ADD SWAP1 POP JUMPDEST POP SWAP1 POP JUMPDEST DUP5 ISZERO PUSH2 0x1805 JUMPI PUSH2 0x1F5B PUSH1 0x1 DUP4 PUSH2 0x3497 JUMP JUMPDEST SWAP2 POP PUSH2 0x1F68 PUSH1 0xA DUP7 PUSH2 0x3591 JUMP JUMPDEST PUSH2 0x1F73 SWAP1 PUSH1 0x30 PUSH2 0x33E8 JUMP JUMPDEST PUSH1 0xF8 SHL DUP2 DUP4 DUP2 MLOAD DUP2 LT PUSH2 0x1F96 JUMPI PUSH4 0x4E487B71 PUSH1 0xE0 SHL PUSH1 0x0 MSTORE PUSH1 0x32 PUSH1 0x4 MSTORE PUSH1 0x24 PUSH1 0x0 REVERT JUMPDEST PUSH1 0x20 ADD ADD SWAP1 PUSH31 0xFFFFFFFFFFFFFFFFFFFFFFFFFFFFFFFFFFFFFFFFFFFFFFFFFFFFFFFFFFFFFF NOT AND SWAP1 DUP2 PUSH1 0x0 BYTE SWAP1 MSTORE8 POP PUSH2 0x1FD0 PUSH1 0xA DUP7 PUSH2 0x3421 JUMP JUMPDEST SWAP5 POP PUSH2 0x1F4A JUMP JUMPDEST PUSH1 0xC SLOAD PUSH1 0x0 SWAP1 PUSH2 0xFFFF PUSH1 0x1 PUSH1 0x40 SHL DUP3 DIV DUP2 AND SWAP2 PUSH2 0x2006 SWAP2 PUSH5 0x100000000 DUP3 DIV DUP2 AND SWAP2 PUSH1 0x1 PUSH1 0x30 SHL SWAP1 DIV AND PUSH2 0x33CB JUMP JUMPDEST PUSH2 0x2010 SWAP2 SWAP1 PUSH2 0x3570 JUMP JUMPDEST PUSH2 0x201B SWAP1 PUSH1 0x1 PUSH2 0x33CB JUMP JUMPDEST SWAP1 POP SWAP1 JUMP JUMPDEST PUSH1 0x0 DUP1 DUP3 MLOAD PUSH1 0x41 EQ ISZERO PUSH2 0x2057 JUMPI PUSH1 0x20 DUP4 ADD MLOAD PUSH1 0x40 DUP5 ADD MLOAD PUSH1 0x60 DUP6 ADD MLOAD PUSH1 0x0 BYTE PUSH2 0x204B DUP8 DUP3 DUP6 DUP6 PUSH2 0x22D8 JUMP JUMPDEST SWAP5 POP SWAP5 POP POP POP POP PUSH2 0x2089 JUMP JUMPDEST DUP3 MLOAD PUSH1 0x40 EQ ISZERO PUSH2 0x2081 JUMPI PUSH1 0x20 DUP4 ADD MLOAD PUSH1 0x40 DUP5 ADD MLOAD PUSH2 0x2076 DUP7 DUP4 DUP4 PUSH2 0x23B8 JUMP JUMPDEST SWAP4 POP SWAP4 POP POP POP PUSH2 0x2089 JUMP JUMPDEST POP PUSH1 0x0 SWAP1 POP PUSH1 0x2 JUMPDEST SWAP3 POP SWAP3 SWAP1 POP JUMP JUMPDEST PUSH1 0x0 DUP2 PUSH1 0x4 DUP2 GT ISZERO PUSH2 0x20B2 JUMPI PUSH4 0x4E487B71 PUSH1 0xE0 SHL PUSH1 0x0 MSTORE PUSH1 0x21 PUSH1 0x4 MSTORE PUSH1 0x24 PUSH1 0x0 REVERT JUMPDEST EQ ISZERO PUSH2 0x20BD JUMPI PUSH2 0x15E8 JUMP JUMPDEST PUSH1 0x1 DUP2 PUSH1 0x4 DUP2 GT ISZERO PUSH2 0x20DF JUMPI PUSH4 0x4E487B71 PUSH1 0xE0 SHL PUSH1 0x0 MSTORE PUSH1 0x21 PUSH1 0x4 MSTORE PUSH1 0x24 PUSH1 0x0 REVERT JUMPDEST EQ ISZERO PUSH2 0x20FD JUMPI PUSH1 0x40 MLOAD PUSH3 0x461BCD PUSH1 0xE5 SHL DUP2 MSTORE PUSH1 0x4 ADD PUSH2 0x6E9 SWAP1 PUSH2 0x2A7D JUMP JUMPDEST PUSH1 0x2 DUP2 PUSH1 0x4 DUP2 GT ISZERO PUSH2 0x211F JUMPI PUSH4 0x4E487B71 PUSH1 0xE0 SHL PUSH1 0x0 MSTORE PUSH1 0x21 PUSH1 0x4 MSTORE PUSH1 0x24 PUSH1 0x0 REVERT JUMPDEST EQ ISZERO PUSH2 0x213D JUMPI PUSH1 0x40 MLOAD PUSH3 0x461BCD PUSH1 0xE5 SHL DUP2 MSTORE PUSH1 0x4 ADD PUSH2 0x6E9 SWAP1 PUSH2 0x2AEB JUMP JUMPDEST PUSH1 0x3 DUP2 PUSH1 0x4 DUP2 GT ISZERO PUSH2 0x215F JUMPI PUSH4 0x4E487B71 PUSH1 0xE0 SHL PUSH1 0x0 MSTORE PUSH1 0x21 PUSH1 0x4 MSTORE PUSH1 0x24 PUSH1 0x0 REVERT JUMPDEST EQ ISZERO PUSH2 0x217D JUMPI PUSH1 0x40 MLOAD PUSH3 0x461BCD PUSH1 0xE5 SHL DUP2 MSTORE PUSH1 0x4 ADD PUSH2 0x6E9 SWAP1 PUSH2 0x2D82 JUMP JUMPDEST PUSH1 0x4 DUP2 PUSH1 0x4 DUP2 GT ISZERO PUSH2 0x219F JUMPI PUSH4 0x4E487B71 PUSH1 0xE0 SHL PUSH1 0x0 MSTORE PUSH1 0x21 PUSH1 0x4 MSTORE PUSH1 0x24 PUSH1 0x0 REVERT JUMPDEST EQ ISZERO PUSH2 0x15E8 JUMPI PUSH1 0x40 MLOAD PUSH3 0x461BCD PUSH1 0xE5 SHL DUP2 MSTORE PUSH1 0x4 ADD PUSH2 0x6E9 SWAP1 PUSH2 0x2F43 JUMP JUMPDEST PUSH1 0x0 PUSH2 0x21D1 DUP5 PUSH1 0x1 PUSH1 0x1 PUSH1 0xA0 SHL SUB AND PUSH2 0x2400 JUMP JUMPDEST ISZERO PUSH2 0x22CD JUMPI DUP4 PUSH1 0x1 PUSH1 0x1 PUSH1 0xA0 SHL SUB AND PUSH4 0x150B7A02 PUSH2 0x21ED PUSH2 0x16AC JUMP JUMPDEST DUP8 DUP7 DUP7 PUSH1 0x40 MLOAD DUP6 PUSH4 0xFFFFFFFF AND PUSH1 0xE0 SHL DUP2 MSTORE PUSH1 0x4 ADD PUSH2 0x220F SWAP5 SWAP4 SWAP3 SWAP2 SWAP1 PUSH2 0x2992 JUMP JUMPDEST PUSH1 0x20 PUSH1 0x40 MLOAD DUP1 DUP4 SUB DUP2 PUSH1 0x0 DUP8 DUP1 EXTCODESIZE ISZERO DUP1 ISZERO PUSH2 0x2229 JUMPI PUSH1 0x0 DUP1 REVERT JUMPDEST POP GAS CALL SWAP3 POP POP POP DUP1 ISZERO PUSH2 0x2259 JUMPI POP PUSH1 0x40 DUP1 MLOAD PUSH1 0x1F RETURNDATASIZE SWAP1 DUP2 ADD PUSH1 0x1F NOT AND DUP3 ADD SWAP1 SWAP3 MSTORE PUSH2 0x2256 SWAP2 DUP2 ADD SWAP1 PUSH2 0x26FE JUMP JUMPDEST PUSH1 0x1 JUMPDEST PUSH2 0x22B3 JUMPI RETURNDATASIZE DUP1 DUP1 ISZERO PUSH2 0x2287 JUMPI PUSH1 0x40 MLOAD SWAP2 POP PUSH1 0x1F NOT PUSH1 0x3F RETURNDATASIZE ADD AND DUP3 ADD PUSH1 0x40 MSTORE RETURNDATASIZE DUP3 MSTORE RETURNDATASIZE PUSH1 0x0 PUSH1 0x20 DUP5 ADD RETURNDATACOPY PUSH2 0x228C JUMP JUMPDEST PUSH1 0x60 SWAP2 POP JUMPDEST POP DUP1 MLOAD PUSH2 0x22AB JUMPI PUSH1 0x40 MLOAD PUSH3 0x461BCD PUSH1 0xE5 SHL DUP2 MSTORE PUSH1 0x4 ADD PUSH2 0x6E9 SWAP1 PUSH2 0x318E JUMP JUMPDEST DUP1 MLOAD DUP2 PUSH1 0x20 ADD REVERT JUMPDEST PUSH1 0x1 PUSH1 0x1 PUSH1 0xE0 SHL SUB NOT AND PUSH4 0xA85BD01 PUSH1 0xE1 SHL EQ SWAP1 POP PUSH2 0x1805 JUMP JUMPDEST POP PUSH1 0x1 SWAP5 SWAP4 POP POP POP POP JUMP JUMPDEST PUSH1 0x0 DUP1 PUSH32 0x7FFFFFFFFFFFFFFFFFFFFFFFFFFFFFFF5D576E7357A4501DDFE92F46681B20A0 DUP4 GT ISZERO PUSH2 0x230F JUMPI POP PUSH1 0x0 SWAP1 POP PUSH1 0x3 PUSH2 0x23AF JUMP JUMPDEST DUP5 PUSH1 0xFF AND PUSH1 0x1B EQ ISZERO DUP1 ISZERO PUSH2 0x2327 JUMPI POP DUP5 PUSH1 0xFF AND PUSH1 0x1C EQ ISZERO JUMPDEST ISZERO PUSH2 0x2338 JUMPI POP PUSH1 0x0 SWAP1 POP PUSH1 0x4 PUSH2 0x23AF JUMP JUMPDEST PUSH1 0x0 PUSH1 0x1 DUP8 DUP8 DUP8 DUP8 PUSH1 0x40 MLOAD PUSH1 0x0 DUP2 MSTORE PUSH1 0x20 ADD PUSH1 0x40 MSTORE PUSH1 0x40 MLOAD PUSH2 0x235D SWAP5 SWAP4 SWAP3 SWAP2 SWAP1 PUSH2 0x2A4C JUMP JUMPDEST PUSH1 0x20 PUSH1 0x40 MLOAD PUSH1 0x20 DUP2 SUB SWAP1 DUP1 DUP5 SUB SWAP1 DUP6 GAS STATICCALL ISZERO DUP1 ISZERO PUSH2 0x237F JUMPI RETURNDATASIZE PUSH1 0x0 DUP1 RETURNDATACOPY RETURNDATASIZE PUSH1 0x0 REVERT JUMPDEST POP POP PUSH1 0x40 MLOAD PUSH1 0x1F NOT ADD MLOAD SWAP2 POP POP PUSH1 0x1 PUSH1 0x1 PUSH1 0xA0 SHL SUB DUP2 AND PUSH2 0x23A8 JUMPI PUSH1 0x0 PUSH1 0x1 SWAP3 POP SWAP3 POP POP PUSH2 0x23AF JUMP JUMPDEST SWAP2 POP PUSH1 0x0 SWAP1 POP JUMPDEST SWAP5 POP SWAP5 SWAP3 POP POP POP JUMP JUMPDEST PUSH1 0x0 DUP1 PUSH32 0x7FFFFFFFFFFFFFFFFFFFFFFFFFFFFFFFFFFFFFFFFFFFFFFFFFFFFFFFFFFFFFFF DUP4 AND PUSH1 0xFF DUP5 SWAP1 SHR PUSH1 0x1B ADD PUSH2 0x23F2 DUP8 DUP3 DUP9 DUP6 PUSH2 0x22D8 JUMP JUMPDEST SWAP4 POP SWAP4 POP POP POP SWAP4 POP SWAP4 SWAP2 POP POP JUMP JUMPDEST EXTCODESIZE ISZERO ISZERO SWAP1 JUMP JUMPDEST DUP3 DUP1 SLOAD PUSH2 0x2412 SWAP1 PUSH2 0x34F8 JUMP JUMPDEST SWAP1 PUSH1 0x0 MSTORE PUSH1 0x20 PUSH1 0x0 KECCAK256 SWAP1 PUSH1 0x1F ADD PUSH1 0x20 SWAP1 DIV DUP2 ADD SWAP3 DUP3 PUSH2 0x2434 JUMPI PUSH1 0x0 DUP6 SSTORE PUSH2 0x247A JUMP JUMPDEST DUP3 PUSH1 0x1F LT PUSH2 0x244D JUMPI DUP1 MLOAD PUSH1 0xFF NOT AND DUP4 DUP1 ADD OR DUP6 SSTORE PUSH2 0x247A JUMP JUMPDEST DUP3 DUP1 ADD PUSH1 0x1 ADD DUP6 SSTORE DUP3 ISZERO PUSH2 0x247A JUMPI SWAP2 DUP3 ADD JUMPDEST DUP3 DUP2 GT ISZERO PUSH2 0x247A JUMPI DUP3 MLOAD DUP3 SSTORE SWAP2 PUSH1 0x20 ADD SWAP2 SWAP1 PUSH1 0x1 ADD SWAP1 PUSH2 0x245F JUMP JUMPDEST POP PUSH2 0x2486 SWAP3 SWAP2 POP PUSH2 0x248A JUMP JUMPDEST POP SWAP1 JUMP JUMPDEST JUMPDEST DUP1 DUP3 GT ISZERO PUSH2 0x2486 JUMPI PUSH1 0x0 DUP2 SSTORE PUSH1 0x1 ADD PUSH2 0x248B JUMP JUMPDEST PUSH1 0x0 PUSH8 0xFFFFFFFFFFFFFFFF DUP1 DUP5 GT ISZERO PUSH2 0x24BA JUMPI PUSH2 0x24BA PUSH2 0x35D1 JUMP JUMPDEST PUSH1 0x40 MLOAD PUSH1 0x1F DUP6 ADD PUSH1 0x1F NOT AND DUP2 ADD PUSH1 0x20 ADD DUP3 DUP2 GT DUP3 DUP3 LT OR ISZERO PUSH2 0x24DE JUMPI PUSH2 0x24DE PUSH2 0x35D1 JUMP JUMPDEST PUSH1 0x40 MSTORE DUP5 DUP2 MSTORE SWAP2 POP DUP2 DUP4 DUP6 ADD DUP7 LT ISZERO PUSH2 0x24F6 JUMPI PUSH1 0x0 DUP1 REVERT JUMPDEST DUP5 DUP5 PUSH1 0x20 DUP4 ADD CALLDATACOPY PUSH1 0x0 PUSH1 0x20 DUP7 DUP4 ADD ADD MSTORE POP POP SWAP4 SWAP3 POP POP POP JUMP JUMPDEST DUP1 CALLDATALOAD PUSH1 0x1 PUSH1 0x1 PUSH1 0xA0 SHL SUB DUP2 AND DUP2 EQ PUSH2 0x62B JUMPI PUSH1 0x0 DUP1 REVERT JUMPDEST PUSH1 0x0 DUP1 DUP4 PUSH1 0x1F DUP5 ADD SLT PUSH2 0x2537 JUMPI DUP2 DUP3 REVERT JUMPDEST POP DUP2 CALLDATALOAD PUSH8 0xFFFFFFFFFFFFFFFF DUP2 GT ISZERO PUSH2 0x254E JUMPI DUP2 DUP3 REVERT JUMPDEST PUSH1 0x20 DUP4 ADD SWAP2 POP DUP4 PUSH1 0x20 DUP3 DUP6 ADD ADD GT ISZERO PUSH2 0x2089 JUMPI PUSH1 0x0 DUP1 REVERT JUMPDEST DUP1 CALLDATALOAD PUSH2 0xFFFF DUP2 AND DUP2 EQ PUSH2 0x62B JUMPI PUSH1 0x0 DUP1 REVERT JUMPDEST PUSH1 0x0 PUSH1 0x20 DUP3 DUP5 SUB SLT ISZERO PUSH2 0x2589 JUMPI DUP1 DUP2 REVERT JUMPDEST PUSH2 0x2592 DUP3 PUSH2 0x250F JUMP JUMPDEST SWAP4 SWAP3 POP POP POP JUMP JUMPDEST PUSH1 0x0 DUP1 PUSH1 0x40 DUP4 DUP6 SUB SLT ISZERO PUSH2 0x25AB JUMPI DUP1 DUP2 REVERT JUMPDEST PUSH2 0x25B4 DUP4 PUSH2 0x250F JUMP JUMPDEST SWAP2 POP PUSH2 0x25C2 PUSH1 0x20 DUP5 ADD PUSH2 0x250F JUMP JUMPDEST SWAP1 POP SWAP3 POP SWAP3 SWAP1 POP JUMP JUMPDEST PUSH1 0x0 DUP1 PUSH1 0x0 PUSH1 0x60 DUP5 DUP7 SUB SLT ISZERO PUSH2 0x25DF JUMPI DUP1 DUP2 REVERT JUMPDEST PUSH2 0x25E8 DUP5 PUSH2 0x250F JUMP JUMPDEST SWAP3 POP PUSH2 0x25F6 PUSH1 0x20 DUP6 ADD PUSH2 0x250F JUMP JUMPDEST SWAP2 POP PUSH1 0x40 DUP5 ADD CALLDATALOAD SWAP1 POP SWAP3 POP SWAP3 POP SWAP3 JUMP JUMPDEST PUSH1 0x0 DUP1 PUSH1 0x0 DUP1 PUSH1 0x80 DUP6 DUP8 SUB SLT ISZERO PUSH2 0x261B JUMPI DUP1 DUP2 REVERT JUMPDEST PUSH2 0x2624 DUP6 PUSH2 0x250F JUMP JUMPDEST SWAP4 POP PUSH2 0x2632 PUSH1 0x20 DUP7 ADD PUSH2 0x250F JUMP JUMPDEST SWAP3 POP PUSH1 0x40 DUP6 ADD CALLDATALOAD SWAP2 POP PUSH1 0x60 DUP6 ADD CALLDATALOAD PUSH8 0xFFFFFFFFFFFFFFFF DUP2 GT ISZERO PUSH2 0x2654 JUMPI DUP2 DUP3 REVERT JUMPDEST DUP6 ADD PUSH1 0x1F DUP2 ADD DUP8 SGT PUSH2 0x2664 JUMPI DUP2 DUP3 REVERT JUMPDEST PUSH2 0x2673 DUP8 DUP3 CALLDATALOAD PUSH1 0x20 DUP5 ADD PUSH2 0x249F JUMP JUMPDEST SWAP2 POP POP SWAP3 SWAP6 SWAP2 SWAP5 POP SWAP3 POP JUMP JUMPDEST PUSH1 0x0 DUP1 PUSH1 0x40 DUP4 DUP6 SUB SLT ISZERO PUSH2 0x2691 JUMPI DUP2 DUP3 REVERT JUMPDEST PUSH2 0x269A DUP4 PUSH2 0x250F JUMP JUMPDEST SWAP2 POP PUSH1 0x20 DUP4 ADD CALLDATALOAD DUP1 ISZERO ISZERO DUP2 EQ PUSH2 0x26AE JUMPI DUP2 DUP3 REVERT JUMPDEST DUP1 SWAP2 POP POP SWAP3 POP SWAP3 SWAP1 POP JUMP JUMPDEST PUSH1 0x0 DUP1 PUSH1 0x40 DUP4 DUP6 SUB SLT ISZERO PUSH2 0x26CB JUMPI DUP2 DUP3 REVERT JUMPDEST PUSH2 0x26D4 DUP4 PUSH2 0x250F JUMP JUMPDEST SWAP5 PUSH1 0x20 SWAP4 SWAP1 SWAP4 ADD CALLDATALOAD SWAP4 POP POP POP JUMP JUMPDEST PUSH1 0x0 PUSH1 0x20 DUP3 DUP5 SUB SLT ISZERO PUSH2 0x26F3 JUMPI DUP1 DUP2 REVERT JUMPDEST DUP2 CALLDATALOAD PUSH2 0x2592 DUP2 PUSH2 0x35E7 JUMP JUMPDEST PUSH1 0x0 PUSH1 0x20 DUP3 DUP5 SUB SLT ISZERO PUSH2 0x270F JUMPI DUP1 DUP2 REVERT JUMPDEST DUP2 MLOAD PUSH2 0x2592 DUP2 PUSH2 0x35E7 JUMP JUMPDEST PUSH1 0x0 DUP1 PUSH1 0x0 PUSH1 0x40 DUP5 DUP7 SUB SLT ISZERO PUSH2 0x272E JUMPI DUP3 DUP4 REVERT JUMPDEST DUP4 CALLDATALOAD PUSH8 0xFFFFFFFFFFFFFFFF DUP2 GT ISZERO PUSH2 0x2744 JUMPI DUP4 DUP5 REVERT JUMPDEST PUSH2 0x2750 DUP7 DUP3 DUP8 ADD PUSH2 0x2526 JUMP JUMPDEST SWAP1 SWAP5 POP SWAP3 POP PUSH2 0x2763 SWAP1 POP PUSH1 0x20 DUP6 ADD PUSH2 0x250F JUMP JUMPDEST SWAP1 POP SWAP3 POP SWAP3 POP SWAP3 JUMP JUMPDEST PUSH1 0x0 DUP1 PUSH1 0x0 PUSH1 0x40 DUP5 DUP7 SUB SLT ISZERO PUSH2 0x2780 JUMPI DUP3 DUP4 REVERT JUMPDEST DUP4 CALLDATALOAD PUSH8 0xFFFFFFFFFFFFFFFF DUP2 GT ISZERO PUSH2 0x2796 JUMPI DUP4 DUP5 REVERT JUMPDEST PUSH2 0x27A2 DUP7 DUP3 DUP8 ADD PUSH2 0x2526 JUMP JUMPDEST SWAP1 SWAP5 POP SWAP3 POP PUSH2 0x2763 SWAP1 POP PUSH1 0x20 DUP6 ADD PUSH2 0x2566 JUMP JUMPDEST PUSH1 0x0 PUSH1 0x20 DUP3 DUP5 SUB SLT ISZERO PUSH2 0x27C6 JUMPI DUP1 DUP2 REVERT JUMPDEST DUP2 CALLDATALOAD PUSH8 0xFFFFFFFFFFFFFFFF DUP2 GT ISZERO PUSH2 0x27DC JUMPI DUP2 DUP3 REVERT JUMPDEST DUP3 ADD PUSH1 0x1F DUP2 ADD DUP5 SGT PUSH2 0x27EC JUMPI DUP2 DUP3 REVERT JUMPDEST PUSH2 0x1805 DUP5 DUP3 CALLDATALOAD PUSH1 0x20 DUP5 ADD PUSH2 0x249F JUMP JUMPDEST PUSH1 0x0 PUSH1 0x20 DUP3 DUP5 SUB SLT ISZERO PUSH2 0x280C JUMPI DUP1 DUP2 REVERT JUMPDEST PUSH2 0x2592 DUP3 PUSH2 0x2566 JUMP JUMPDEST PUSH1 0x0 PUSH1 0x20 DUP3 DUP5 SUB SLT ISZERO PUSH2 0x2826 JUMPI DUP1 DUP2 REVERT JUMPDEST POP CALLDATALOAD SWAP2 SWAP1 POP JUMP JUMPDEST PUSH1 0x0 DUP2 MLOAD DUP1 DUP5 MSTORE PUSH2 0x2845 DUP2 PUSH1 0x20 DUP7 ADD PUSH1 0x20 DUP7 ADD PUSH2 0x34AE JUMP JUMPDEST PUSH1 0x1F ADD PUSH1 0x1F NOT AND SWAP3 SWAP1 SWAP3 ADD PUSH1 0x20 ADD SWAP3 SWAP2 POP POP JUMP JUMPDEST PUSH1 0x0 DUP2 MLOAD PUSH2 0x286B DUP2 DUP6 PUSH1 0x20 DUP7 ADD PUSH2 0x34AE JUMP JUMPDEST SWAP3 SWAP1 SWAP3 ADD SWAP3 SWAP2 POP POP JUMP JUMPDEST DUP4 SLOAD PUSH1 0x0 SWAP1 DUP2 SWAP1 PUSH1 0x2 DUP2 DIV PUSH1 0x1 DUP1 DUP4 AND DUP1 PUSH2 0x2891 JUMPI PUSH1 0x7F DUP4 AND SWAP3 POP JUMPDEST PUSH1 0x20 DUP1 DUP5 LT DUP3 EQ ISZERO PUSH2 0x28B1 JUMPI PUSH4 0x4E487B71 PUSH1 0xE0 SHL DUP8 MSTORE PUSH1 0x22 PUSH1 0x4 MSTORE PUSH1 0x24 DUP8 REVERT JUMPDEST DUP2 DUP1 ISZERO PUSH2 0x28C5 JUMPI PUSH1 0x1 DUP2 EQ PUSH2 0x28D6 JUMPI PUSH2 0x2902 JUMP JUMPDEST PUSH1 0xFF NOT DUP7 AND DUP10 MSTORE DUP5 DUP10 ADD SWAP7 POP PUSH2 0x2902 JUMP JUMPDEST PUSH2 0x28DF DUP13 PUSH2 0x3394 JUMP JUMPDEST DUP9 JUMPDEST DUP7 DUP2 LT ISZERO PUSH2 0x28FA JUMPI DUP2 SLOAD DUP12 DUP3 ADD MSTORE SWAP1 DUP6 ADD SWAP1 DUP4 ADD PUSH2 0x28E1 JUMP JUMPDEST POP POP DUP5 DUP10 ADD SWAP7 POP JUMPDEST POP PUSH2 0x290D DUP7 DUP12 PUSH2 0x2859 JUMP JUMPDEST SWAP9 DUP10 MSTORE SWAP1 SWAP8 ADD SWAP10 SWAP9 POP POP POP POP POP POP POP POP POP JUMP JUMPDEST PUSH1 0x0 PUSH32 0x19457468657265756D205369676E6564204D6573736167653A0A000000000000 DUP3 MSTORE DUP4 MLOAD PUSH2 0x2958 DUP2 PUSH1 0x1A DUP6 ADD PUSH1 0x20 DUP9 ADD PUSH2 0x34AE JUMP JUMPDEST DUP4 MLOAD SWAP1 DUP4 ADD SWAP1 PUSH2 0x296F DUP2 PUSH1 0x1A DUP5 ADD PUSH1 0x20 DUP9 ADD PUSH2 0x34AE JUMP JUMPDEST ADD PUSH1 0x1A ADD SWAP5 SWAP4 POP POP POP POP JUMP JUMPDEST SWAP1 JUMP JUMPDEST PUSH1 0x1 PUSH1 0x1 PUSH1 0xA0 SHL SUB SWAP2 SWAP1 SWAP2 AND DUP2 MSTORE PUSH1 0x20 ADD SWAP1 JUMP JUMPDEST PUSH1 0x0 PUSH1 0x1 PUSH1 0x1 PUSH1 0xA0 SHL SUB DUP1 DUP8 AND DUP4 MSTORE DUP1 DUP7 AND PUSH1 0x20 DUP5 ADD MSTORE POP DUP4 PUSH1 0x40 DUP4 ADD MSTORE PUSH1 0x80 PUSH1 0x60 DUP4 ADD MSTORE PUSH2 0x29C4 PUSH1 0x80 DUP4 ADD DUP5 PUSH2 0x282D JUMP JUMPDEST SWAP7 SWAP6 POP POP POP POP POP POP JUMP JUMPDEST PUSH1 0x1 PUSH1 0x1 PUSH1 0xA0 SHL SUB SWAP3 SWAP1 SWAP3 AND DUP3 MSTORE PUSH2 0xFFFF AND PUSH1 0x20 DUP3 ADD MSTORE PUSH1 0x40 ADD SWAP1 JUMP JUMPDEST SWAP1 ISZERO ISZERO DUP2 MSTORE PUSH1 0x20 ADD SWAP1 JUMP JUMPDEST SWAP9 ISZERO ISZERO DUP10 MSTORE SWAP7 ISZERO ISZERO PUSH1 0x20 DUP10 ADD MSTORE SWAP5 ISZERO ISZERO PUSH1 0x40 DUP9 ADD MSTORE SWAP3 ISZERO ISZERO PUSH1 0x60 DUP8 ADD MSTORE PUSH2 0xFFFF SWAP2 DUP3 AND PUSH1 0x80 DUP8 ADD MSTORE DUP2 AND PUSH1 0xA0 DUP7 ADD MSTORE SWAP1 DUP2 AND PUSH1 0xC0 DUP6 ADD MSTORE SWAP1 DUP2 AND PUSH1 0xE0 DUP5 ADD MSTORE AND PUSH2 0x100 DUP3 ADD MSTORE PUSH2 0x120 ADD SWAP1 JUMP JUMPDEST SWAP1 DUP2 MSTORE PUSH1 0x20 ADD SWAP1 JUMP JUMPDEST SWAP4 DUP5 MSTORE PUSH1 0xFF SWAP3 SWAP1 SWAP3 AND PUSH1 0x20 DUP5 ADD MSTORE PUSH1 0x40 DUP4 ADD MSTORE PUSH1 0x60 DUP3 ADD MSTORE PUSH1 0x80 ADD SWAP1 JUMP JUMPDEST PUSH1 0x0 PUSH1 0x20 DUP3 MSTORE PUSH2 0x2592 PUSH1 0x20 DUP4 ADD DUP5 PUSH2 0x282D JUMP JUMPDEST PUSH1 0x20 DUP1 DUP3 MSTORE PUSH1 0x18 SWAP1 DUP3 ADD MSTORE PUSH32 0x45434453413A20696E76616C6964207369676E61747572650000000000000000 PUSH1 0x40 DUP3 ADD MSTORE PUSH1 0x60 ADD SWAP1 JUMP JUMPDEST PUSH1 0x20 DUP1 DUP3 MSTORE PUSH1 0x1A SWAP1 DUP3 ADD MSTORE PUSH32 0x455243373231533A20617070726F766520746F2063616C6C6572000000000000 PUSH1 0x40 DUP3 ADD MSTORE PUSH1 0x60 ADD SWAP1 JUMP JUMPDEST PUSH1 0x20 DUP1 DUP3 MSTORE PUSH1 0x1F SWAP1 DUP3 ADD MSTORE PUSH32 0x45434453413A20696E76616C6964207369676E6174757265206C656E67746800 PUSH1 0x40 DUP3 ADD MSTORE PUSH1 0x60 ADD SWAP1 JUMP JUMPDEST PUSH1 0x20 DUP1 DUP3 MSTORE PUSH1 0x26 SWAP1 DUP3 ADD MSTORE PUSH32 0x4F776E61626C653A206E6577206F776E657220697320746865207A65726F2061 PUSH1 0x40 DUP3 ADD MSTORE PUSH6 0x646472657373 PUSH1 0xD0 SHL PUSH1 0x60 DUP3 ADD MSTORE PUSH1 0x80 ADD SWAP1 JUMP JUMPDEST PUSH1 0x20 DUP1 DUP3 MSTORE PUSH1 0x21 SWAP1 DUP3 ADD MSTORE PUSH32 0x455243373231533A206D696E7420746F20746865207A65726F20616464726573 PUSH1 0x40 DUP3 ADD MSTORE PUSH1 0x73 PUSH1 0xF8 SHL PUSH1 0x60 DUP3 ADD MSTORE PUSH1 0x80 ADD SWAP1 JUMP JUMPDEST PUSH1 0x20 DUP1 DUP3 MSTORE PUSH1 0x25 SWAP1 DUP3 ADD MSTORE PUSH32 0x4D757374206265206F6E2077686974656C69737420746F206D696E7420612073 PUSH1 0x40 DUP3 ADD MSTORE PUSH5 0x30B834B2B7 PUSH1 0xD9 SHL PUSH1 0x60 DUP3 ADD MSTORE PUSH1 0x80 ADD SWAP1 JUMP JUMPDEST PUSH1 0x20 DUP1 DUP3 MSTORE PUSH1 0x37 SWAP1 DUP3 ADD MSTORE PUSH32 0x596F752063616E206F6E6C79206D696E7420757020746F20332053617069656E PUSH1 0x40 DUP3 ADD MSTORE PUSH32 0x732066726F6D207468652073616D652061646472657373000000000000000000 PUSH1 0x60 DUP3 ADD MSTORE PUSH1 0x80 ADD SWAP1 JUMP JUMPDEST PUSH1 0x20 DUP1 DUP3 MSTORE PUSH1 0x39 SWAP1 DUP3 ADD MSTORE PUSH32 0x596F752063616E6E6F74206D696E74206D6F7265207468616E20332073617069 PUSH1 0x40 DUP3 ADD MSTORE PUSH32 0x656E732066726F6D207468652073616D65206164647265737300000000000000 PUSH1 0x60 DUP3 ADD MSTORE PUSH1 0x80 ADD SWAP1 JUMP JUMPDEST PUSH1 0x20 DUP1 DUP3 MSTORE PUSH1 0x1F SWAP1 DUP3 ADD MSTORE PUSH32 0x50726F76656E616E63652068617320616C7265616479206265656E2073657400 PUSH1 0x40 DUP3 ADD MSTORE PUSH1 0x60 ADD SWAP1 JUMP JUMPDEST PUSH1 0x20 DUP1 DUP3 MSTORE PUSH1 0x26 SWAP1 DUP3 ADD MSTORE PUSH32 0x455243373231533A207472616E736665722066726F6D20696E636F7272656374 PUSH1 0x40 DUP3 ADD MSTORE PUSH6 0x1037BBB732B9 PUSH1 0xD1 SHL PUSH1 0x60 DUP3 ADD MSTORE PUSH1 0x80 ADD SWAP1 JUMP JUMPDEST PUSH1 0x20 DUP1 DUP3 MSTORE PUSH1 0x39 SWAP1 DUP3 ADD MSTORE PUSH32 0x455243373231533A20617070726F76652063616C6C6572206973206E6F74206F PUSH1 0x40 DUP3 ADD MSTORE PUSH32 0x776E6572206E6F7220617070726F76656420666F7220616C6C00000000000000 PUSH1 0x60 DUP3 ADD MSTORE PUSH1 0x80 ADD SWAP1 JUMP JUMPDEST PUSH1 0x20 DUP1 DUP3 MSTORE PUSH1 0x22 SWAP1 DUP3 ADD MSTORE PUSH32 0x45434453413A20696E76616C6964207369676E6174757265202773272076616C PUSH1 0x40 DUP3 ADD MSTORE PUSH2 0x7565 PUSH1 0xF0 SHL PUSH1 0x60 DUP3 ADD MSTORE PUSH1 0x80 ADD SWAP1 JUMP JUMPDEST PUSH1 0x20 DUP1 DUP3 MSTORE PUSH1 0x2A SWAP1 DUP3 ADD MSTORE PUSH32 0x455243373231533A204F776E657220717565727920666F72206E6F6E65786973 PUSH1 0x40 DUP3 ADD MSTORE PUSH10 0x3A32B73A103A37B5B2B7 PUSH1 0xB1 SHL PUSH1 0x60 DUP3 ADD MSTORE PUSH1 0x80 ADD SWAP1 JUMP JUMPDEST PUSH1 0x20 DUP1 DUP3 MSTORE PUSH1 0x32 SWAP1 DUP3 ADD MSTORE PUSH32 0x455243373231533A207472616E736665722063616C6C6572206973206E6F7420 PUSH1 0x40 DUP3 ADD MSTORE PUSH32 0x6F776E6572206E6F7220617070726F7665640000000000000000000000000000 PUSH1 0x60 DUP3 ADD MSTORE PUSH1 0x80 ADD SWAP1 JUMP JUMPDEST PUSH1 0x20 DUP1 DUP3 MSTORE PUSH1 0x2B SWAP1 DUP3 ADD MSTORE PUSH32 0x507572636861736520776F756C6420657863656564206D617820737570706C79 PUSH1 0x40 DUP3 ADD MSTORE PUSH11 0x206F662073617069656E73 PUSH1 0xA8 SHL PUSH1 0x60 DUP3 ADD MSTORE PUSH1 0x80 ADD SWAP1 JUMP JUMPDEST PUSH1 0x20 DUP1 DUP3 MSTORE PUSH1 0x2A SWAP1 DUP3 ADD MSTORE PUSH32 0x4552433732313A2062616C616E636520717565727920666F7220746865207A65 PUSH1 0x40 DUP3 ADD MSTORE PUSH10 0x726F2061646472657373 PUSH1 0xB0 SHL PUSH1 0x60 DUP3 ADD MSTORE PUSH1 0x80 ADD SWAP1 JUMP JUMPDEST PUSH1 0x20 DUP1 DUP3 MSTORE PUSH1 0x23 SWAP1 DUP3 ADD MSTORE PUSH32 0x596F752063616E6E6F74206D696E74206D6F7265207468616E20332073617069 PUSH1 0x40 DUP3 ADD MSTORE PUSH3 0x656E73 PUSH1 0xE8 SHL PUSH1 0x60 DUP3 ADD MSTORE PUSH1 0x80 ADD SWAP1 JUMP JUMPDEST PUSH1 0x20 DUP1 DUP3 MSTORE PUSH1 0x22 SWAP1 DUP3 ADD MSTORE PUSH32 0x45434453413A20696E76616C6964207369676E6174757265202776272076616C PUSH1 0x40 DUP3 ADD MSTORE PUSH2 0x7565 PUSH1 0xF0 SHL PUSH1 0x60 DUP3 ADD MSTORE PUSH1 0x80 ADD SWAP1 JUMP JUMPDEST PUSH1 0x20 DUP1 DUP3 MSTORE PUSH1 0x2F SWAP1 DUP3 ADD MSTORE PUSH32 0x455243373231533A20556E61626C6520746F2064657465726D696E6520746865 PUSH1 0x40 DUP3 ADD MSTORE PUSH32 0x206F776E6572206F6620746F6B656E0000000000000000000000000000000000 PUSH1 0x60 DUP3 ADD MSTORE PUSH1 0x80 ADD SWAP1 JUMP JUMPDEST PUSH1 0x20 DUP1 DUP3 MSTORE DUP2 DUP2 ADD MSTORE PUSH32 0x4F776E61626C653A2063616C6C6572206973206E6F7420746865206F776E6572 PUSH1 0x40 DUP3 ADD MSTORE PUSH1 0x60 ADD SWAP1 JUMP JUMPDEST PUSH1 0x20 DUP1 DUP3 MSTORE PUSH1 0x1A SWAP1 DUP3 ADD MSTORE PUSH32 0x53616C652069732063757272656E746C7920696E616374697665000000000000 PUSH1 0x40 DUP3 ADD MSTORE PUSH1 0x60 ADD SWAP1 JUMP JUMPDEST PUSH1 0x20 DUP1 DUP3 MSTORE PUSH1 0x1F SWAP1 DUP3 ADD MSTORE PUSH32 0x455243373231533A206D75737420617070726F766520746F2063616C6C657200 PUSH1 0x40 DUP3 ADD MSTORE PUSH1 0x60 ADD SWAP1 JUMP JUMPDEST PUSH1 0x20 DUP1 DUP3 MSTORE PUSH1 0x2D SWAP1 DUP3 ADD MSTORE PUSH32 0x455243373231533A20617070726F76656420717565727920666F72206E6F6E65 PUSH1 0x40 DUP3 ADD MSTORE PUSH13 0x3C34B9BA32B73A103A37B5B2B7 PUSH1 0x99 SHL PUSH1 0x60 DUP3 ADD MSTORE PUSH1 0x80 ADD SWAP1 JUMP JUMPDEST PUSH1 0x20 DUP1 DUP3 MSTORE PUSH1 0x23 SWAP1 DUP3 ADD MSTORE PUSH32 0x596F752063616E6E6F74206D696E74206D6F7265207468616E20332053617069 PUSH1 0x40 DUP3 ADD MSTORE PUSH3 0x656E73 PUSH1 0xE8 SHL PUSH1 0x60 DUP3 ADD MSTORE PUSH1 0x80 ADD SWAP1 JUMP JUMPDEST PUSH1 0x20 DUP1 DUP3 MSTORE PUSH1 0x22 SWAP1 DUP3 ADD MSTORE PUSH32 0x455243373231533A20617070726F76616C20746F2063757272656E74206F776E PUSH1 0x40 DUP3 ADD MSTORE PUSH2 0x32B9 PUSH1 0xF1 SHL PUSH1 0x60 DUP3 ADD MSTORE PUSH1 0x80 ADD SWAP1 JUMP JUMPDEST PUSH1 0x20 DUP1 DUP3 MSTORE PUSH1 0x19 SWAP1 DUP3 ADD MSTORE PUSH32 0x496E636F727265637420616D6F756E74206F6620657468657200000000000000 PUSH1 0x40 DUP3 ADD MSTORE PUSH1 0x60 ADD SWAP1 JUMP JUMPDEST PUSH1 0x20 DUP1 DUP3 MSTORE PUSH1 0x33 SWAP1 DUP3 ADD MSTORE PUSH32 0x455243373231533A207472616E7366657220746F206E6F6E2045524337323152 PUSH1 0x40 DUP3 ADD MSTORE PUSH32 0x6563656976657220696D706C656D656E74657200000000000000000000000000 PUSH1 0x60 DUP3 ADD MSTORE PUSH1 0x80 ADD SWAP1 JUMP JUMPDEST PUSH1 0x20 DUP1 DUP3 MSTORE PUSH1 0x1D SWAP1 DUP3 ADD MSTORE PUSH32 0x50726573616C652069732063757272656E746C7920696E616374697665000000 PUSH1 0x40 DUP3 ADD MSTORE PUSH1 0x60 ADD SWAP1 JUMP JUMPDEST PUSH1 0x20 DUP1 DUP3 MSTORE PUSH1 0x2D SWAP1 DUP3 ADD MSTORE PUSH32 0x455243373231533A207472616E73666572206120746F6B656E20746861742064 PUSH1 0x40 DUP3 ADD MSTORE PUSH13 0x1BD95CC81B9BDD08195E1A5CDD PUSH1 0x9A SHL PUSH1 0x60 DUP3 ADD MSTORE PUSH1 0x80 ADD SWAP1 JUMP JUMPDEST PUSH1 0x20 DUP1 DUP3 MSTORE PUSH1 0x23 SWAP1 DUP3 ADD MSTORE PUSH32 0x5374617274696E6720696E6465782068617320616C7265616479206265656E20 PUSH1 0x40 DUP3 ADD MSTORE PUSH3 0x1CD95D PUSH1 0xEA SHL PUSH1 0x60 DUP3 ADD MSTORE PUSH1 0x80 ADD SWAP1 JUMP JUMPDEST PUSH1 0x20 DUP1 DUP3 MSTORE PUSH1 0x25 SWAP1 DUP3 ADD MSTORE PUSH32 0x455243373231533A207472616E7366657220746F20746865207A65726F206164 PUSH1 0x40 DUP3 ADD MSTORE PUSH5 0x6472657373 PUSH1 0xD8 SHL PUSH1 0x60 DUP3 ADD MSTORE PUSH1 0x80 ADD SWAP1 JUMP JUMPDEST PUSH1 0x20 DUP1 DUP3 MSTORE PUSH1 0x2D SWAP1 DUP3 ADD MSTORE PUSH32 0x455243373231533A206F70657261746F7220717565727920666F72206E6F6E65 PUSH1 0x40 DUP3 ADD MSTORE PUSH13 0x3C34B9BA32B73A103A37B5B2B7 PUSH1 0x99 SHL PUSH1 0x60 DUP3 ADD MSTORE PUSH1 0x80 ADD SWAP1 JUMP JUMPDEST PUSH1 0x20 DUP1 DUP3 MSTORE PUSH1 0x21 SWAP1 DUP3 ADD MSTORE PUSH32 0x436F6E74726163747320617265206E6F7420616C6C6F77656420746F206D696E PUSH1 0x40 DUP3 ADD MSTORE PUSH1 0x1D PUSH1 0xFA SHL PUSH1 0x60 DUP3 ADD MSTORE PUSH1 0x80 ADD SWAP1 JUMP JUMPDEST PUSH2 0xFFFF SWAP2 SWAP1 SWAP2 AND DUP2 MSTORE PUSH1 0x20 ADD SWAP1 JUMP JUMPDEST PUSH1 0x0 SWAP1 DUP2 MSTORE PUSH1 0x20 SWAP1 KECCAK256 SWAP1 JUMP JUMPDEST PUSH1 0x0 PUSH1 0x1 PUSH1 0x1 PUSH1 0x80 SHL SUB DUP1 DUP4 AND DUP2 DUP6 AND DUP1 DUP4 SUB DUP3 GT ISZERO PUSH2 0x33C2 JUMPI PUSH2 0x33C2 PUSH2 0x35A5 JUMP JUMPDEST ADD SWAP5 SWAP4 POP POP POP POP JUMP JUMPDEST PUSH1 0x0 PUSH2 0xFFFF DUP1 DUP4 AND DUP2 DUP6 AND DUP1 DUP4 SUB DUP3 GT ISZERO PUSH2 0x33C2 JUMPI PUSH2 0x33C2 PUSH2 0x35A5 JUMP JUMPDEST PUSH1 0x0 DUP3 NOT DUP3 GT ISZERO PUSH2 0x33FB JUMPI PUSH2 0x33FB PUSH2 0x35A5 JUMP JUMPDEST POP ADD SWAP1 JUMP JUMPDEST PUSH1 0x0 PUSH2 0xFFFF DUP1 DUP5 AND DUP1 PUSH2 0x3415 JUMPI PUSH2 0x3415 PUSH2 0x35BB JUMP JUMPDEST SWAP3 AND SWAP2 SWAP1 SWAP2 DIV SWAP3 SWAP2 POP POP JUMP JUMPDEST PUSH1 0x0 DUP3 PUSH2 0x3430 JUMPI PUSH2 0x3430 PUSH2 0x35BB JUMP JUMPDEST POP DIV SWAP1 JUMP JUMPDEST PUSH1 0x0 DUP2 PUSH1 0x0 NOT DIV DUP4 GT DUP3 ISZERO ISZERO AND ISZERO PUSH2 0x344F JUMPI PUSH2 0x344F PUSH2 0x35A5 JUMP JUMPDEST POP MUL SWAP1 JUMP JUMPDEST PUSH1 0x0 PUSH1 0x1 PUSH1 0x1 PUSH1 0x80 SHL SUB DUP4 DUP2 AND SWAP1 DUP4 AND DUP2 DUP2 LT ISZERO PUSH2 0x3474 JUMPI PUSH2 0x3474 PUSH2 0x35A5 JUMP JUMPDEST SUB SWAP4 SWAP3 POP POP POP JUMP JUMPDEST PUSH1 0x0 PUSH2 0xFFFF DUP4 DUP2 AND SWAP1 DUP4 AND DUP2 DUP2 LT ISZERO PUSH2 0x3474 JUMPI PUSH2 0x3474 PUSH2 0x35A5 JUMP JUMPDEST PUSH1 0x0 DUP3 DUP3 LT ISZERO PUSH2 0x34A9 JUMPI PUSH2 0x34A9 PUSH2 0x35A5 JUMP JUMPDEST POP SUB SWAP1 JUMP JUMPDEST PUSH1 0x0 JUMPDEST DUP4 DUP2 LT ISZERO PUSH2 0x34C9 JUMPI DUP2 DUP2 ADD MLOAD DUP4 DUP3 ADD MSTORE PUSH1 0x20 ADD PUSH2 0x34B1 JUMP JUMPDEST DUP4 DUP2 GT ISZERO PUSH2 0x1406 JUMPI POP POP PUSH1 0x0 SWAP2 ADD MSTORE JUMP JUMPDEST PUSH1 0x0 PUSH2 0xFFFF DUP3 AND DUP1 PUSH2 0x34EE JUMPI PUSH2 0x34EE PUSH2 0x35A5 JUMP JUMPDEST PUSH1 0x0 NOT ADD SWAP3 SWAP2 POP POP JUMP JUMPDEST PUSH1 0x2 DUP2 DIV PUSH1 0x1 DUP3 AND DUP1 PUSH2 0x350C JUMPI PUSH1 0x7F DUP3 AND SWAP2 POP JUMPDEST PUSH1 0x20 DUP3 LT DUP2 EQ ISZERO PUSH2 0x352D JUMPI PUSH4 0x4E487B71 PUSH1 0xE0 SHL PUSH1 0x0 MSTORE PUSH1 0x22 PUSH1 0x4 MSTORE PUSH1 0x24 PUSH1 0x0 REVERT JUMPDEST POP SWAP2 SWAP1 POP JUMP JUMPDEST PUSH1 0x0 PUSH2 0xFFFF DUP1 DUP4 AND DUP2 DUP2 EQ ISZERO PUSH2 0x354B JUMPI PUSH2 0x354B PUSH2 0x35A5 JUMP JUMPDEST PUSH1 0x1 ADD SWAP4 SWAP3 POP POP POP JUMP JUMPDEST PUSH1 0x0 PUSH1 0x0 NOT DUP3 EQ ISZERO PUSH2 0x3569 JUMPI PUSH2 0x3569 PUSH2 0x35A5 JUMP JUMPDEST POP PUSH1 0x1 ADD SWAP1 JUMP JUMPDEST PUSH1 0x0 PUSH2 0xFFFF DUP1 DUP5 AND DUP1 PUSH2 0x3585 JUMPI PUSH2 0x3585 PUSH2 0x35BB JUMP JUMPDEST SWAP3 AND SWAP2 SWAP1 SWAP2 MOD SWAP3 SWAP2 POP POP JUMP JUMPDEST PUSH1 0x0 DUP3 PUSH2 0x35A0 JUMPI PUSH2 0x35A0 PUSH2 0x35BB JUMP JUMPDEST POP MOD SWAP1 JUMP JUMPDEST PUSH4 0x4E487B71 PUSH1 0xE0 SHL PUSH1 0x0 MSTORE PUSH1 0x11 PUSH1 0x4 MSTORE PUSH1 0x24 PUSH1 0x0 REVERT JUMPDEST PUSH4 0x4E487B71 PUSH1 0xE0 SHL PUSH1 0x0 MSTORE PUSH1 0x12 PUSH1 0x4 MSTORE PUSH1 0x24 PUSH1 0x0 REVERT JUMPDEST PUSH4 0x4E487B71 PUSH1 0xE0 SHL PUSH1 0x0 MSTORE PUSH1 0x41 PUSH1 0x4 MSTORE PUSH1 0x24 PUSH1 0x0 REVERT JUMPDEST PUSH1 0x1 PUSH1 0x1 PUSH1 0xE0 SHL SUB NOT DUP2 AND DUP2 EQ PUSH2 0x15E8 JUMPI PUSH1 0x0 DUP1 REVERT INVALID LOG2 PUSH5 0x6970667358 0x22 SLT KECCAK256 SLT 0xB4 PUSH12 0x1BA012C91923F1AC0D880523 PUSH15 0xF780200BDC8CB4585B09BB0CB1818A 0xDE PUSH5 0x736F6C6343 STOP ADDMOD STOP STOP CALLER "
        },
        "methodIdentifiers": {
          "EXTENSION()": "46f13619",
          "approve(address,uint256)": "095ea7b3",
          "balanceOf(address)": "70a08231",
          "config()": "79502c55",
          "devMint()": "7c69e207",
          "getApproved(uint256)": "081812fc",
          "getMaxMint()": "1f46452f",
          "getMaxSupply()": "4c0f38c2",
          "isApprovedForAll(address,address)": "e985e9c5",
          "isWhitelisted(bytes,address)": "a3540c10",
          "mint(uint16)": "23cf0a22",
          "name()": "06fdde03",
          "owner()": "8da5cb5b",
          "ownerOf(uint256)": "6352211e",
          "presaleActive()": "53135ca0",
          "publicSaleActive()": "bc8893b4",
          "renounceOwnership()": "715018a6",
          "safeTransferFrom(address,address,uint256)": "42842e0e",
          "safeTransferFrom(address,address,uint256,bytes)": "b88d4fde",
          "setApprovalForAll(address,bool)": "a22cb465",
          "setBaseURL(string)": "49f2553a",
          "setPaused()": "37a66d85",
          "setPresale()": "dcc40744",
          "setProvenanceHash(string)": "10969523",
          "setPublicSale()": "56f8f78c",
          "setStartingIdx()": "18509269",
          "supportsInterface(bytes4)": "01ffc9a7",
          "symbol()": "95d89b41",
          "toggleReveal(string)": "5d8c2efd",
          "tokenURI(uint256)": "c87b56dd",
          "totalSupply()": "18160ddd",
          "transferFrom(address,address,uint256)": "23b872dd",
          "transferOwnership(address)": "f2fde38b",
          "whitelistMint(bytes,uint16)": "2c0b3d7c",
          "withdraw()": "3ccfd60b"
        }
      }
    }
  }
}