{
  "_format": "hh-sol-artifact-1",
  "contractName": "Sapien",
  "sourceName": "contracts/Sapien.sol",
  "abi": [
    {
      "inputs": [],
      "stateMutability": "nonpayable",
      "type": "constructor"
    },
    {
      "anonymous": false,
      "inputs": [
        {
          "indexed": true,
          "internalType": "address",
          "name": "owner",
          "type": "address"
        },
        {
          "indexed": true,
          "internalType": "address",
          "name": "approved",
          "type": "address"
        },
        {
          "indexed": true,
          "internalType": "uint256",
          "name": "tokenId",
          "type": "uint256"
        }
      ],
      "name": "Approval",
      "type": "event"
    },
    {
      "anonymous": false,
      "inputs": [
        {
          "indexed": true,
          "internalType": "address",
          "name": "owner",
          "type": "address"
        },
        {
          "indexed": true,
          "internalType": "address",
          "name": "operator",
          "type": "address"
        },
        {
          "indexed": false,
          "internalType": "bool",
          "name": "approved",
          "type": "bool"
        }
      ],
      "name": "ApprovalForAll",
      "type": "event"
    },
    {
      "anonymous": false,
      "inputs": [
        {
          "indexed": true,
          "internalType": "address",
          "name": "previousOwner",
          "type": "address"
        },
        {
          "indexed": true,
          "internalType": "address",
          "name": "newOwner",
          "type": "address"
        }
      ],
      "name": "OwnershipTransferred",
      "type": "event"
    },
    {
      "anonymous": false,
      "inputs": [
        {
          "indexed": true,
          "internalType": "address",
          "name": "from",
          "type": "address"
        },
        {
          "indexed": true,
          "internalType": "address",
          "name": "to",
          "type": "address"
        },
        {
          "indexed": true,
          "internalType": "uint256",
          "name": "tokenId",
          "type": "uint256"
        }
      ],
      "name": "Transfer",
      "type": "event"
    },
    {
      "inputs": [],
      "name": "BASE_URL",
      "outputs": [
        {
          "internalType": "string",
          "name": "",
          "type": "string"
        }
      ],
      "stateMutability": "view",
      "type": "function"
    },
    {
      "inputs": [],
      "name": "EXTENSION",
      "outputs": [
        {
          "internalType": "bytes32",
          "name": "",
          "type": "bytes32"
        }
      ],
      "stateMutability": "view",
      "type": "function"
    },
    {
      "inputs": [],
      "name": "FSNFT_PROVENANCE",
      "outputs": [
        {
          "internalType": "string",
          "name": "",
          "type": "string"
        }
      ],
      "stateMutability": "view",
      "type": "function"
    },
    {
      "inputs": [],
      "name": "GIVEAWAYS",
      "outputs": [
        {
          "internalType": "uint256",
          "name": "",
          "type": "uint256"
        }
      ],
      "stateMutability": "view",
      "type": "function"
    },
    {
      "inputs": [],
      "name": "MAX_MINT",
      "outputs": [
        {
          "internalType": "uint256",
          "name": "",
          "type": "uint256"
        }
      ],
      "stateMutability": "view",
      "type": "function"
    },
    {
      "inputs": [],
      "name": "MAX_SUPPLY",
      "outputs": [
        {
          "internalType": "uint256",
          "name": "",
          "type": "uint256"
        }
      ],
      "stateMutability": "view",
      "type": "function"
    },
    {
      "inputs": [],
      "name": "_tokenIds",
      "outputs": [
        {
          "internalType": "uint256",
          "name": "",
          "type": "uint256"
        }
      ],
      "stateMutability": "view",
      "type": "function"
    },
    {
      "inputs": [],
      "name": "active",
      "outputs": [
        {
          "internalType": "bool",
          "name": "",
          "type": "bool"
        }
      ],
      "stateMutability": "view",
      "type": "function"
    },
    {
      "inputs": [
        {
          "internalType": "address",
          "name": "to",
          "type": "address"
        },
        {
          "internalType": "uint256",
          "name": "tokenId",
          "type": "uint256"
        }
      ],
      "name": "approve",
      "outputs": [],
      "stateMutability": "nonpayable",
      "type": "function"
    },
    {
      "inputs": [
        {
          "internalType": "address",
          "name": "owner",
          "type": "address"
        }
      ],
      "name": "balanceOf",
      "outputs": [
        {
          "internalType": "uint256",
          "name": "",
          "type": "uint256"
        }
      ],
      "stateMutability": "view",
      "type": "function"
    },
    {
      "inputs": [
        {
          "internalType": "uint256",
          "name": "tokenId",
          "type": "uint256"
        }
      ],
      "name": "getApproved",
      "outputs": [
        {
          "internalType": "address",
          "name": "",
          "type": "address"
        }
      ],
      "stateMutability": "view",
      "type": "function"
    },
    {
      "inputs": [
        {
          "internalType": "address",
          "name": "_user",
          "type": "address"
        }
      ],
      "name": "getMinted",
      "outputs": [
        {
          "internalType": "uint256",
          "name": "",
          "type": "uint256"
        }
      ],
      "stateMutability": "view",
      "type": "function"
    },
    {
      "inputs": [
        {
          "internalType": "address",
          "name": "owner",
          "type": "address"
        },
        {
          "internalType": "address",
          "name": "operator",
          "type": "address"
        }
      ],
      "name": "isApprovedForAll",
      "outputs": [
        {
          "internalType": "bool",
          "name": "",
          "type": "bool"
        }
      ],
      "stateMutability": "view",
      "type": "function"
    },
    {
      "inputs": [
        {
          "internalType": "bytes",
          "name": "_signature",
          "type": "bytes"
        },
        {
          "internalType": "address",
          "name": "_user",
          "type": "address"
        }
      ],
      "name": "isWhitelisted",
      "outputs": [
        {
          "internalType": "bool",
          "name": "",
          "type": "bool"
        }
      ],
      "stateMutability": "view",
      "type": "function"
    },
    {
      "inputs": [
        {
          "internalType": "uint256",
          "name": "tokensToMint",
          "type": "uint256"
        }
      ],
      "name": "mint",
      "outputs": [],
      "stateMutability": "payable",
      "type": "function"
    },
    {
      "inputs": [],
      "name": "mintGiveaways",
      "outputs": [],
      "stateMutability": "nonpayable",
      "type": "function"
    },
    {
      "inputs": [],
      "name": "name",
      "outputs": [
        {
          "internalType": "string",
          "name": "",
          "type": "string"
        }
      ],
      "stateMutability": "view",
      "type": "function"
    },
    {
      "inputs": [],
      "name": "owner",
      "outputs": [
        {
          "internalType": "address",
          "name": "",
          "type": "address"
        }
      ],
      "stateMutability": "view",
      "type": "function"
    },
    {
      "inputs": [
        {
          "internalType": "uint256",
          "name": "tokenId",
          "type": "uint256"
        }
      ],
      "name": "ownerOf",
      "outputs": [
        {
          "internalType": "address",
          "name": "",
          "type": "address"
        }
      ],
      "stateMutability": "view",
      "type": "function"
    },
    {
      "inputs": [],
      "name": "paused",
      "outputs": [
        {
          "internalType": "bool",
          "name": "",
          "type": "bool"
        }
      ],
      "stateMutability": "view",
      "type": "function"
    },
    {
      "inputs": [],
      "name": "presale_active",
      "outputs": [
        {
          "internalType": "bool",
          "name": "",
          "type": "bool"
        }
      ],
      "stateMutability": "view",
      "type": "function"
    },
    {
      "inputs": [],
      "name": "renounceOwnership",
      "outputs": [],
      "stateMutability": "nonpayable",
      "type": "function"
    },
    {
      "inputs": [],
      "name": "revealed",
      "outputs": [
        {
          "internalType": "bool",
          "name": "",
          "type": "bool"
        }
      ],
      "stateMutability": "view",
      "type": "function"
    },
    {
      "inputs": [
        {
          "internalType": "address",
          "name": "from",
          "type": "address"
        },
        {
          "internalType": "address",
          "name": "to",
          "type": "address"
        },
        {
          "internalType": "uint256",
          "name": "tokenId",
          "type": "uint256"
        }
      ],
      "name": "safeTransferFrom",
      "outputs": [],
      "stateMutability": "nonpayable",
      "type": "function"
    },
    {
      "inputs": [
        {
          "internalType": "address",
          "name": "from",
          "type": "address"
        },
        {
          "internalType": "address",
          "name": "to",
          "type": "address"
        },
        {
          "internalType": "uint256",
          "name": "tokenId",
          "type": "uint256"
        },
        {
          "internalType": "bytes",
          "name": "_data",
          "type": "bytes"
        }
      ],
      "name": "safeTransferFrom",
      "outputs": [],
      "stateMutability": "nonpayable",
      "type": "function"
    },
    {
      "inputs": [
        {
          "internalType": "address",
          "name": "operator",
          "type": "address"
        },
        {
          "internalType": "bool",
          "name": "approved",
          "type": "bool"
        }
      ],
      "name": "setApprovalForAll",
      "outputs": [],
      "stateMutability": "nonpayable",
      "type": "function"
    },
    {
      "inputs": [
        {
          "internalType": "string",
          "name": "_url",
          "type": "string"
        }
      ],
      "name": "setBaseURL",
      "outputs": [],
      "stateMutability": "nonpayable",
      "type": "function"
    },
    {
      "inputs": [
        {
          "internalType": "bool",
          "name": "_state",
          "type": "bool"
        }
      ],
      "name": "setPaused",
      "outputs": [],
      "stateMutability": "nonpayable",
      "type": "function"
    },
    {
      "inputs": [
        {
          "internalType": "bool",
          "name": "_active",
          "type": "bool"
        }
      ],
      "name": "setPresale",
      "outputs": [],
      "stateMutability": "nonpayable",
      "type": "function"
    },
    {
      "inputs": [
        {
          "internalType": "string",
          "name": "_provenance",
          "type": "string"
        }
      ],
      "name": "setProvenanceHash",
      "outputs": [],
      "stateMutability": "nonpayable",
      "type": "function"
    },
    {
      "inputs": [
        {
          "internalType": "bool",
          "name": "_active",
          "type": "bool"
        }
      ],
      "name": "setPublicSale",
      "outputs": [],
      "stateMutability": "nonpayable",
      "type": "function"
    },
    {
      "inputs": [],
      "name": "setStartingIdx",
      "outputs": [],
      "stateMutability": "nonpayable",
      "type": "function"
    },
    {
      "inputs": [],
      "name": "starting_idx",
      "outputs": [
        {
          "internalType": "uint256",
          "name": "",
          "type": "uint256"
        }
      ],
      "stateMutability": "view",
      "type": "function"
    },
    {
      "inputs": [
        {
          "internalType": "bytes4",
          "name": "interfaceId",
          "type": "bytes4"
        }
      ],
      "name": "supportsInterface",
      "outputs": [
        {
          "internalType": "bool",
          "name": "",
          "type": "bool"
        }
      ],
      "stateMutability": "view",
      "type": "function"
    },
    {
      "inputs": [],
      "name": "symbol",
      "outputs": [
        {
          "internalType": "string",
          "name": "",
          "type": "string"
        }
      ],
      "stateMutability": "view",
      "type": "function"
    },
    {
      "inputs": [
        {
          "internalType": "string",
          "name": "_url",
          "type": "string"
        }
      ],
      "name": "toggleReveal",
      "outputs": [],
      "stateMutability": "nonpayable",
      "type": "function"
    },
    {
      "inputs": [
        {
          "internalType": "uint256",
          "name": "_tokenId",
          "type": "uint256"
        }
      ],
      "name": "tokenURI",
      "outputs": [
        {
          "internalType": "string",
          "name": "",
          "type": "string"
        }
      ],
      "stateMutability": "view",
      "type": "function"
    },
    {
      "inputs": [
        {
          "internalType": "address",
          "name": "from",
          "type": "address"
        },
        {
          "internalType": "address",
          "name": "to",
          "type": "address"
        },
        {
          "internalType": "uint256",
          "name": "tokenId",
          "type": "uint256"
        }
      ],
      "name": "transferFrom",
      "outputs": [],
      "stateMutability": "nonpayable",
      "type": "function"
    },
    {
      "inputs": [
        {
          "internalType": "address",
          "name": "newOwner",
          "type": "address"
        }
      ],
      "name": "transferOwnership",
      "outputs": [],
      "stateMutability": "nonpayable",
      "type": "function"
    },
    {
      "inputs": [
        {
          "internalType": "bytes",
          "name": "_signature",
          "type": "bytes"
        },
        {
          "internalType": "uint256",
          "name": "tokensToMint",
          "type": "uint256"
        }
      ],
      "name": "whitelistMint",
      "outputs": [],
      "stateMutability": "payable",
      "type": "function"
    },
    {
      "inputs": [],
      "name": "withdraw",
      "outputs": [],
      "stateMutability": "payable",
      "type": "function"
    }
  ],
  "bytecode": "0x6080604052601460078190556003600881905560095567016345785d8a0000600a55600e805463ffffffff1916905564173539b7b760d91b601155601380546001600160a01b031990811673103ece5b498b9c425295f58148aa5bdac7575708179091558154811673ab8483f64d9c6d1ecf9b849ae677dd3315835cb217909155601580548216734b20993bc481177ec7e8f571cecae8a9e22c02db1790556016805482167378731d3ca6b7e34ac0f824c42a7cc18a495cabab1790556017805490911673617f2e2fd72fd9d5503197092ac168c91465e7f2179055348015620000e857600080fd5b50604080518082018252600c81526b464f4d4f2053415049454e5360a01b60208083019182528351808501909452600684526529a0a824a2a760d11b9084015281519192916200013b91600091620001ca565b50805162000151906001906020840190620001ca565b5050506200016e620001686200017460201b60201c565b62000178565b620002ad565b3390565b600680546001600160a01b038381166001600160a01b0319831681179093556040519116919082907f8be0079c531659141344cd1fd0a4f28419497f9722a3daafe3b4186f6b6457e090600090a35050565b828054620001d89062000270565b90600052602060002090601f016020900481019282620001fc576000855562000247565b82601f106200021757805160ff191683800117855562000247565b8280016001018555821562000247579182015b82811115620002475782518255916020019190600101906200022a565b506200025592915062000259565b5090565b5b808211156200025557600081556001016200025a565b6002810460018216806200028557607f821691505b60208210811415620002a757634e487b7160e01b600052602260045260246000fd5b50919050565b612fc080620002bd6000396000f3fe6080604052600436106102465760003560e01c80636352211e11610139578063aa46a400116100b6578063ce0d0d671161007a578063ce0d0d671461061e578063ce2a86f014610633578063e985e9c514610648578063f0292a0314610668578063f2fde38b1461067d578063f41fbd5e1461069d57610246565b8063aa46a40014610594578063b88d4fde146105a9578063bc5f3a80146105c9578063c54e73e3146105de578063c87b56dd146105fe57610246565b806395d89b41116100fd57806395d89b411461050c57806396215e9214610521578063a0712d6814610541578063a22cb46514610554578063a3540c101461057457610246565b80636352211e1461048d57806370a08231146104ad578063715018a6146104cd5780637f78636a146104e25780638da5cb5b146104f757610246565b806332cb6b0c116101c757806349f2553a1161018b57806349f2553a1461040357806351830227146104235780635aca1bb6146104385780635c975abb146104585780635d8c2efd1461046d57610246565b806332cb6b0c1461038f5780633ccfd60b146103b15780633eafffdb146103b957806342842e0e146103ce57806346f13619146103ee57610246565b8063095ea7b31161020e578063095ea7b3146102fa578063109695231461031a57806316c38b3c1461033a578063185092691461035a57806323b872dd1461036f57610246565b806301ffc9a71461024b57806302fb0c5e1461028157806306fdde0314610296578063081812fc146102b857806308e3f868146102e5575b600080fd5b34801561025757600080fd5b5061026b61026636600461228c565b6106b2565b6040516102789190612579565b60405180910390f35b34801561028d57600080fd5b5061026b6106fa565b3480156102a257600080fd5b506102ab610703565b60405161027891906125ab565b3480156102c457600080fd5b506102d86102d33660046123a6565b610795565b604051610278919061250f565b6102f86102f3366004612316565b6107e1565b005b34801561030657600080fd5b506102f8610315366004612249565b61096b565b34801561032657600080fd5b506102f8610335366004612360565b610a03565b34801561034657600080fd5b506102f8610355366004612272565b610a7d565b34801561036657600080fd5b506102f8610ad8565b34801561037b57600080fd5b506102f861038a36600461216c565b610b4d565b34801561039b57600080fd5b506103a4610b85565b6040516102789190612584565b6102f8610b8b565b3480156103c557600080fd5b5061026b610d8a565b3480156103da57600080fd5b506102f86103e936600461216c565b610d98565b3480156103fa57600080fd5b506103a4610db3565b34801561040f57600080fd5b506102f861041e366004612360565b610db9565b34801561042f57600080fd5b5061026b610e0f565b34801561044457600080fd5b506102f8610453366004612272565b610e1f565b34801561046457600080fd5b5061026b610e71565b34801561047957600080fd5b506102f8610488366004612360565b610e80565b34801561049957600080fd5b506102d86104a83660046123a6565b610ef5565b3480156104b957600080fd5b506103a46104c8366004612119565b610f2a565b3480156104d957600080fd5b506102f8610f6e565b3480156104ee57600080fd5b506102ab610fb9565b34801561050357600080fd5b506102d8611047565b34801561051857600080fd5b506102ab611056565b34801561052d57600080fd5b506103a461053c366004612119565b611065565b6102f861054f3660046123a6565b6110c2565b34801561056057600080fd5b506102f861056f366004612220565b611281565b34801561058057600080fd5b5061026b61058f3660046122c4565b611293565b3480156105a057600080fd5b506103a4611320565b3480156105b557600080fd5b506102f86105c43660046121a7565b611326565b3480156105d557600080fd5b506102ab61135f565b3480156105ea57600080fd5b506102f86105f9366004612272565b61136c565b34801561060a57600080fd5b506102ab6106193660046123a6565b6113c5565b34801561062a57600080fd5b506102f86114a1565b34801561063f57600080fd5b506103a4611524565b34801561065457600080fd5b5061026b61066336600461213a565b61152a565b34801561067457600080fd5b506103a4611558565b34801561068957600080fd5b506102f8610698366004612119565b61155e565b3480156106a957600080fd5b506103a46115cc565b60006001600160e01b031982166380ac58cd60e01b14806106e357506001600160e01b03198216635b5e139f60e01b145b806106f257506106f2826115d2565b90505b919050565b600e5460ff1681565b60606000805461071290612ec8565b80601f016020809104026020016040519081016040528092919081815260200182805461073e90612ec8565b801561078b5780601f106107605761010080835404028352916020019161078b565b820191906000526020600020905b81548152906001019060200180831161076e57829003601f168201915b5050505050905090565b60006107a0826115eb565b6107c55760405162461bcd60e51b81526004016107bc90612b66565b60405180910390fd5b506000908152600460205260409020546001600160a01b031690565b600e5462010000900460ff16156107f757600080fd5b600e54610100900460ff1661081e5760405162461bcd60e51b81526004016107bc90612d73565b32331461083d5760405162461bcd60e51b81526004016107bc90612ded565b610848838333611293565b6108645760405162461bcd60e51b81526004016107bc906126c4565b80600a546108729190612e66565b34146108905760405162461bcd60e51b81526004016107bc90612d3c565b600854336000908152601260205260409020546108ae908390612e3a565b11156108cc5760405162461bcd60e51b81526004016107bc90612ca8565b60085433600090815260126020526040902054106108fc5760405162461bcd60e51b81526004016107bc90612740565b336000908152601260205260408120805483929061091b908490612e3a565b90915550600090505b818110156109655761093d33610938611608565b611637565b600b805490600061094d83612f03565b9190505550808061095d90612f03565b915050610924565b50505050565b600061097682610ef5565b9050806001600160a01b0316836001600160a01b031614156109aa5760405162461bcd60e51b81526004016107bc90612c67565b806001600160a01b03166109bc611716565b6001600160a01b031614806109d857506109d881610663611716565b6109f45760405162461bcd60e51b81526004016107bc90612971565b6109fe838361171a565b505050565b610a0b611716565b6001600160a01b0316610a1c611047565b6001600160a01b031614610a425760405162461bcd60e51b81526004016107bc90612bb2565b600d5415610a625760405162461bcd60e51b81526004016107bc906128ac565b8051610a7590600f906020840190611fa9565b505043600d55565b610a85611716565b6001600160a01b0316610a96611047565b6001600160a01b031614610abc5760405162461bcd60e51b81526004016107bc90612bb2565b600e8054911515620100000262ff000019909216919091179055565b610ae0611716565b6001600160a01b0316610af1611047565b6001600160a01b031614610b175760405162461bcd60e51b81526004016107bc90612bb2565b600c5415610b375760405162461bcd60e51b81526004016107bc90612daa565b600754600d54610b48919040612f1e565b600c55565b610b5e610b58611716565b82611788565b610b7a5760405162461bcd60e51b81526004016107bc90612ceb565b6109fe83838361180d565b60075481565b610b93611716565b6001600160a01b0316610ba4611047565b6001600160a01b031614610bca5760405162461bcd60e51b81526004016107bc90612bb2565b601480546000916001600160a01b0390911690606490610beb904790612e66565b610bf59190612e52565b604051610c019061250c565b60006040518083038185875af1925050503d8060008114610c3e576040519150601f19603f3d011682016040523d82523d6000602084013e610c43565b606091505b5050905080610c5157600080fd5b60006064610c60476021612e66565b610c6a9190612e52565b6015546040519192506001600160a01b03169082156108fc029083906000818181858888f19350505050158015610ca5573d6000803e3d6000fd5b506016546040516001600160a01b039091169082156108fc029083906000818181858888f19350505050158015610ce0573d6000803e3d6000fd5b506017546040516001600160a01b039091169082156108fc029083906000818181858888f19350505050158015610d1b573d6000803e3d6000fd5b506014546040516000916001600160a01b0316904790610d3a9061250c565b60006040518083038185875af1925050503d8060008114610d77576040519150601f19603f3d011682016040523d82523d6000602084013e610d7c565b606091505b50509050806109fe57600080fd5b600e54610100900460ff1681565b6109fe83838360405180602001604052806000815250611326565b60115481565b610dc1611716565b6001600160a01b0316610dd2611047565b6001600160a01b031614610df85760405162461bcd60e51b81526004016107bc90612bb2565b8051610e0b906010906020840190611fa9565b5050565b600e546301000000900460ff1681565b610e27611716565b6001600160a01b0316610e38611047565b6001600160a01b031614610e5e5760405162461bcd60e51b81526004016107bc90612bb2565b600e805460ff1916911515919091179055565b600e5462010000900460ff1681565b610e88611716565b6001600160a01b0316610e99611047565b6001600160a01b031614610ebf5760405162461bcd60e51b81526004016107bc90612bb2565b8051610ed2906010906020840190611fa9565b5050600e805463ff00000019811663010000009182900460ff1615909102179055565b6000818152600260205260408120546001600160a01b0316806106f25760405162461bcd60e51b81526004016107bc90612a63565b60006001600160a01b038216610f525760405162461bcd60e51b81526004016107bc90612a19565b506001600160a01b031660009081526003602052604090205490565b610f76611716565b6001600160a01b0316610f87611047565b6001600160a01b031614610fad5760405162461bcd60e51b81526004016107bc90612bb2565b610fb7600061193a565b565b60108054610fc690612ec8565b80601f0160208091040260200160405190810160405280929190818152602001828054610ff290612ec8565b801561103f5780601f106110145761010080835404028352916020019161103f565b820191906000526020600020905b81548152906001019060200180831161102257829003601f168201915b505050505081565b6006546001600160a01b031690565b60606001805461071290612ec8565b600061106f611716565b6001600160a01b0316611080611047565b6001600160a01b0316146110a65760405162461bcd60e51b81526004016107bc90612bb2565b506001600160a01b031660009081526012602052604090205490565b600e5462010000900460ff16156110d857600080fd5b600e5460ff166110fa5760405162461bcd60e51b81526004016107bc90612c30565b3233146111195760405162461bcd60e51b81526004016107bc90612ded565b80600a546111279190612e66565b34146111455760405162461bcd60e51b81526004016107bc90612d3c565b6009546007546111559190612e85565b600b54106111755760405162461bcd60e51b81526004016107bc9061279d565b6009546007546111859190612e85565b81600b546111939190612e3a565b11156111b15760405162461bcd60e51b81526004016107bc906129ce565b60085433600090815260126020526040902054106111e15760405162461bcd60e51b81526004016107bc9061284f565b600854336000908152601260205260409020546111ff908390612e3a565b111561121d5760405162461bcd60e51b81526004016107bc90612aac565b336000908152601260205260408120805483929061123c908490612e3a565b90915550600090505b81811015610e0b5761125933610938611608565b600b805490600061126983612f03565b9190505550808061127990612f03565b915050611245565b610e0b61128c611716565b838361198c565b601354604080516020601f86018190048102820181019092528481526000926001600160a01b03169161130e919087908790819084018382808284376000920191909152505060075460405161130893506112f49250889190602001612560565b604051602081830303815290604052611a2f565b90611a6a565b6001600160a01b031614949350505050565b600b5481565b611337611331611716565b83611788565b6113535760405162461bcd60e51b81526004016107bc90612ceb565b61096584848484611a8e565b600f8054610fc690612ec8565b611374611716565b6001600160a01b0316611385611047565b6001600160a01b0316146113ab5760405162461bcd60e51b81526004016107bc90612bb2565b600e80549115156101000261ff0019909216919091179055565b600e546060906301000000900460ff1661146b57601080546113e690612ec8565b80601f016020809104026020016040519081016040528092919081815260200182805461141290612ec8565b801561145f5780601f106114345761010080835404028352916020019161145f565b820191906000526020600020905b81548152906001019060200180831161144257829003601f168201915b505050505090506106f5565b601061147683611ac1565b60115460405160200161148b93929190612406565b6040516020818303038152906040529050919050565b6114a9611716565b6001600160a01b03166114ba611047565b6001600160a01b0316146114e05760405162461bcd60e51b81526004016107bc90612bb2565b60005b600954811015611521576114f933610938611608565b600b805490600061150983612f03565b9190505550808061151990612f03565b9150506114e3565b50565b60095481565b6001600160a01b03918216600090815260056020908152604080832093909416825291909152205460ff1690565b60085481565b611566611716565b6001600160a01b0316611577611047565b6001600160a01b03161461159d5760405162461bcd60e51b81526004016107bc90612bb2565b6001600160a01b0381166115c35760405162461bcd60e51b81526004016107bc9061267e565b6115218161193a565b600c5481565b6001600160e01b031981166301ffc9a760e01b14919050565b6000908152600260205260409020546001600160a01b0316151590565b6000600754600c54600b5461161d9190612e3a565b6116279190612f1e565b611632906001612e3a565b905090565b6001600160a01b03821661165d5760405162461bcd60e51b81526004016107bc90612b31565b611666816115eb565b156116835760405162461bcd60e51b81526004016107bc90612709565b61168f600083836109fe565b6001600160a01b03821660009081526003602052604081208054600192906116b8908490612e3a565b909155505060008181526002602052604080822080546001600160a01b0319166001600160a01b03861690811790915590518392907fddf252ad1be2c89b69c2b068fc378daa952ba7f163c4a11628f55a4df523b3ef908290a45050565b3390565b600081815260046020526040902080546001600160a01b0319166001600160a01b038416908117909155819061174f82610ef5565b6001600160a01b03167f8c5be1e5ebec7d5bd14f71427d1e84f3dd0314c0f7b2291e5b200ac8c7c3b92560405160405180910390a45050565b6000611793826115eb565b6117af5760405162461bcd60e51b81526004016107bc90612925565b60006117ba83610ef5565b9050806001600160a01b0316846001600160a01b031614806117f55750836001600160a01b03166117ea84610795565b6001600160a01b0316145b806118055750611805818561152a565b949350505050565b826001600160a01b031661182082610ef5565b6001600160a01b0316146118465760405162461bcd60e51b81526004016107bc90612be7565b6001600160a01b03821661186c5760405162461bcd60e51b81526004016107bc906127d4565b6118778383836109fe565b61188260008261171a565b6001600160a01b03831660009081526003602052604081208054600192906118ab908490612e85565b90915550506001600160a01b03821660009081526003602052604081208054600192906118d9908490612e3a565b909155505060008181526002602052604080822080546001600160a01b0319166001600160a01b0386811691821790925591518493918716917fddf252ad1be2c89b69c2b068fc378daa952ba7f163c4a11628f55a4df523b3ef91a4505050565b600680546001600160a01b038381166001600160a01b0319831681179093556040519116919082907f8be0079c531659141344cd1fd0a4f28419497f9722a3daafe3b4186f6b6457e090600090a35050565b816001600160a01b0316836001600160a01b031614156119be5760405162461bcd60e51b81526004016107bc90612818565b6001600160a01b0383811660008181526005602090815260408083209487168084529490915290819020805460ff1916851515179055517f17307eab39ab6107e8899845ad3d59bd9653f200f220920489ca2b5937696c3190611a22908590612579565b60405180910390a3505050565b6000611a3b8251611ac1565b82604051602001611a4d9291906124b1565b604051602081830303815290604052805190602001209050919050565b6000806000611a798585611bdc565b91509150611a8681611c4c565b509392505050565b611a9984848461180d565b611aa584848484611d79565b6109655760405162461bcd60e51b81526004016107bc9061262c565b606081611ae657506040805180820190915260018152600360fc1b60208201526106f5565b8160005b8115611b105780611afa81612f03565b9150611b099050600a83612e52565b9150611aea565b60008167ffffffffffffffff811115611b3957634e487b7160e01b600052604160045260246000fd5b6040519080825280601f01601f191660200182016040528015611b63576020820181803683370190505b5090505b841561180557611b78600183612e85565b9150611b85600a86612f1e565b611b90906030612e3a565b60f81b818381518110611bb357634e487b7160e01b600052603260045260246000fd5b60200101906001600160f81b031916908160001a905350611bd5600a86612e52565b9450611b67565b600080825160411415611c135760208301516040840151606085015160001a611c0787828585611e94565b94509450505050611c45565b825160401415611c3d5760208301516040840151611c32868383611f74565b935093505050611c45565b506000905060025b9250929050565b6000816004811115611c6e57634e487b7160e01b600052602160045260246000fd5b1415611c7957611521565b6001816004811115611c9b57634e487b7160e01b600052602160045260246000fd5b1415611cb95760405162461bcd60e51b81526004016107bc906125be565b6002816004811115611cdb57634e487b7160e01b600052602160045260246000fd5b1415611cf95760405162461bcd60e51b81526004016107bc906125f5565b6003816004811115611d1b57634e487b7160e01b600052602160045260246000fd5b1415611d395760405162461bcd60e51b81526004016107bc906128e3565b6004816004811115611d5b57634e487b7160e01b600052602160045260246000fd5b14156115215760405162461bcd60e51b81526004016107bc90612aef565b6000611d8d846001600160a01b0316611fa3565b15611e8957836001600160a01b031663150b7a02611da9611716565b8786866040518563ffffffff1660e01b8152600401611dcb9493929190612523565b602060405180830381600087803b158015611de557600080fd5b505af1925050508015611e15575060408051601f3d908101601f19168201909252611e12918101906122a8565b60015b611e6f573d808015611e43576040519150601f19603f3d011682016040523d82523d6000602084013e611e48565b606091505b508051611e675760405162461bcd60e51b81526004016107bc9061262c565b805181602001fd5b6001600160e01b031916630a85bd0160e11b149050611805565b506001949350505050565b6000807f7fffffffffffffffffffffffffffffff5d576e7357a4501ddfe92f46681b20a0831115611ecb5750600090506003611f6b565b8460ff16601b14158015611ee357508460ff16601c14155b15611ef45750600090506004611f6b565b600060018787878760405160008152602001604052604051611f19949392919061258d565b6020604051602081039080840390855afa158015611f3b573d6000803e3d6000fd5b5050604051601f1901519150506001600160a01b038116611f6457600060019250925050611f6b565b9150600090505b94509492505050565b6000806001600160ff1b03831660ff84901c601b01611f9587828885611e94565b935093505050935093915050565b3b151590565b828054611fb590612ec8565b90600052602060002090601f016020900481019282611fd7576000855561201d565b82601f10611ff057805160ff191683800117855561201d565b8280016001018555821561201d579182015b8281111561201d578251825591602001919060010190612002565b5061202992915061202d565b5090565b5b80821115612029576000815560010161202e565b600067ffffffffffffffff8084111561205d5761205d612f5e565b604051601f8501601f19168101602001828111828210171561208157612081612f5e565b60405284815291508183850186101561209957600080fd5b8484602083013760006020868301015250509392505050565b80356001600160a01b03811681146106f557600080fd5b803580151581146106f557600080fd5b60008083601f8401126120ea578182fd5b50813567ffffffffffffffff811115612101578182fd5b602083019150836020828501011115611c4557600080fd5b60006020828403121561212a578081fd5b612133826120b2565b9392505050565b6000806040838503121561214c578081fd5b612155836120b2565b9150612163602084016120b2565b90509250929050565b600080600060608486031215612180578081fd5b612189846120b2565b9250612197602085016120b2565b9150604084013590509250925092565b600080600080608085870312156121bc578081fd5b6121c5856120b2565b93506121d3602086016120b2565b925060408501359150606085013567ffffffffffffffff8111156121f5578182fd5b8501601f81018713612205578182fd5b61221487823560208401612042565b91505092959194509250565b60008060408385031215612232578182fd5b61223b836120b2565b9150612163602084016120c9565b6000806040838503121561225b578182fd5b612264836120b2565b946020939093013593505050565b600060208284031215612283578081fd5b612133826120c9565b60006020828403121561229d578081fd5b813561213381612f74565b6000602082840312156122b9578081fd5b815161213381612f74565b6000806000604084860312156122d8578283fd5b833567ffffffffffffffff8111156122ee578384fd5b6122fa868287016120d9565b909450925061230d9050602085016120b2565b90509250925092565b60008060006040848603121561232a578283fd5b833567ffffffffffffffff811115612340578384fd5b61234c868287016120d9565b909790965060209590950135949350505050565b600060208284031215612371578081fd5b813567ffffffffffffffff811115612387578182fd5b8201601f81018413612397578182fd5b61180584823560208401612042565b6000602082840312156123b7578081fd5b5035919050565b600081518084526123d6816020860160208601612e9c565b601f01601f19169290920160200192915050565b600081516123fc818560208601612e9c565b9290920192915050565b835460009081906002810460018083168061242257607f831692505b602080841082141561244257634e487b7160e01b87526022600452602487fd5b818015612456576001811461246757612493565b60ff19861689528489019650612493565b6124708c612e2e565b885b8681101561248b5781548b820152908501908301612472565b505084890196505b5061249e868b6123ea565b9889529097019998505050505050505050565b60007f19457468657265756d205369676e6564204d6573736167653a0a000000000000825283516124e981601a850160208801612e9c565b83519083019061250081601a840160208801612e9c565b01601a01949350505050565b90565b6001600160a01b0391909116815260200190565b6001600160a01b0385811682528416602082015260408101839052608060608201819052600090612556908301846123be565b9695505050505050565b6001600160a01b03929092168252602082015260400190565b901515815260200190565b90815260200190565b93845260ff9290921660208401526040830152606082015260800190565b60006020825261213360208301846123be565b60208082526018908201527f45434453413a20696e76616c6964207369676e61747572650000000000000000604082015260600190565b6020808252601f908201527f45434453413a20696e76616c6964207369676e6174757265206c656e67746800604082015260600190565b60208082526032908201527f4552433732313a207472616e7366657220746f206e6f6e20455243373231526560408201527131b2b4bb32b91034b6b83632b6b2b73a32b960711b606082015260800190565b60208082526026908201527f4f776e61626c653a206e6577206f776e657220697320746865207a65726f206160408201526564647265737360d01b606082015260800190565b60208082526025908201527f4d757374206265206f6e2077686974656c69737420746f206d696e742061207360408201526430b834b2b760d91b606082015260800190565b6020808252601c908201527f4552433732313a20746f6b656e20616c7265616479206d696e74656400000000604082015260600190565b60208082526037908201527f596f752063616e206f6e6c79206d696e7420757020746f20332053617069656e60408201527f732066726f6d207468652073616d652061646472657373000000000000000000606082015260800190565b6020808252601c908201527f416c6c2053617069656e732068617665206265656e206d696e74656400000000604082015260600190565b60208082526024908201527f4552433732313a207472616e7366657220746f20746865207a65726f206164646040820152637265737360e01b606082015260800190565b60208082526019908201527f4552433732313a20617070726f766520746f2063616c6c657200000000000000604082015260600190565b60208082526039908201527f596f752063616e6e6f74206d696e74206d6f7265207468616e2033207361706960408201527f656e732066726f6d207468652073616d65206164647265737300000000000000606082015260800190565b6020808252601f908201527f50726f76656e616e63652068617320616c7265616479206265656e2073657400604082015260600190565b60208082526022908201527f45434453413a20696e76616c6964207369676e6174757265202773272076616c604082015261756560f01b606082015260800190565b6020808252602c908201527f4552433732313a206f70657261746f7220717565727920666f72206e6f6e657860408201526b34b9ba32b73a103a37b5b2b760a11b606082015260800190565b60208082526038908201527f4552433732313a20617070726f76652063616c6c6572206973206e6f74206f7760408201527f6e6572206e6f7220617070726f76656420666f7220616c6c0000000000000000606082015260800190565b6020808252602b908201527f507572636861736520776f756c6420657863656564206d617820737570706c7960408201526a206f662073617069656e7360a81b606082015260800190565b6020808252602a908201527f4552433732313a2062616c616e636520717565727920666f7220746865207a65604082015269726f206164647265737360b01b606082015260800190565b60208082526029908201527f4552433732313a206f776e657220717565727920666f72206e6f6e657869737460408201526832b73a103a37b5b2b760b91b606082015260800190565b60208082526023908201527f596f752063616e6e6f74206d696e74206d6f7265207468616e20332073617069604082015262656e7360e81b606082015260800190565b60208082526022908201527f45434453413a20696e76616c6964207369676e6174757265202776272076616c604082015261756560f01b606082015260800190565b6020808252818101527f4552433732313a206d696e7420746f20746865207a65726f2061646472657373604082015260600190565b6020808252602c908201527f4552433732313a20617070726f76656420717565727920666f72206e6f6e657860408201526b34b9ba32b73a103a37b5b2b760a11b606082015260800190565b6020808252818101527f4f776e61626c653a2063616c6c6572206973206e6f7420746865206f776e6572604082015260600190565b60208082526029908201527f4552433732313a207472616e73666572206f6620746f6b656e2074686174206960408201526839903737ba1037bbb760b91b606082015260800190565b6020808252601a908201527f53616c652069732063757272656e746c7920696e616374697665000000000000604082015260600190565b60208082526021908201527f4552433732313a20617070726f76616c20746f2063757272656e74206f776e656040820152603960f91b606082015260800190565b60208082526023908201527f596f752063616e6e6f74206d696e74206d6f7265207468616e20332053617069604082015262656e7360e81b606082015260800190565b60208082526031908201527f4552433732313a207472616e736665722063616c6c6572206973206e6f74206f6040820152701ddb995c881b9bdc88185c1c1c9bdd9959607a1b606082015260800190565b60208082526019908201527f496e636f727265637420616d6f756e74206f6620657468657200000000000000604082015260600190565b6020808252601d908201527f50726573616c652069732063757272656e746c7920696e616374697665000000604082015260600190565b60208082526023908201527f5374617274696e6720696e6465782068617320616c7265616479206265656e206040820152621cd95d60ea1b606082015260800190565b60208082526021908201527f436f6e74726163747320617265206e6f7420616c6c6f77656420746f206d696e6040820152601d60fa1b606082015260800190565b60009081526020902090565b60008219821115612e4d57612e4d612f32565b500190565b600082612e6157612e61612f48565b500490565b6000816000190483118215151615612e8057612e80612f32565b500290565b600082821015612e9757612e97612f32565b500390565b60005b83811015612eb7578181015183820152602001612e9f565b838111156109655750506000910152565b600281046001821680612edc57607f821691505b60208210811415612efd57634e487b7160e01b600052602260045260246000fd5b50919050565b6000600019821415612f1757612f17612f32565b5060010190565b600082612f2d57612f2d612f48565b500690565b634e487b7160e01b600052601160045260246000fd5b634e487b7160e01b600052601260045260246000fd5b634e487b7160e01b600052604160045260246000fd5b6001600160e01b03198116811461152157600080fdfea2646970667358221220e4f3c03220a91ac57e379740229cd79a85da6e5f483d87baef6144b3e23e4edc64736f6c63430008000033",
  "linkReferences": {},
  "deployedLinkReferences": {}
}