{
  "_format": "hh-sol-artifact-1",
  "contractName": "Sapien",
  "sourceName": "contracts/Sapien.sol",
  "abi": [
    {
      "inputs": [
        {
          "internalType": "string",
          "name": "_name",
          "type": "string"
        },
        {
          "internalType": "string",
          "name": "_symbol",
          "type": "string"
        },
        {
          "internalType": "string",
          "name": "_baseURI",
          "type": "string"
        }
      ],
      "stateMutability": "nonpayable",
      "type": "constructor"
    },
    {
      "anonymous": false,
      "inputs": [
        {
          "indexed": true,
          "internalType": "address",
          "name": "owner",
          "type": "address"
        },
        {
          "indexed": true,
          "internalType": "address",
          "name": "approved",
          "type": "address"
        },
        {
          "indexed": true,
          "internalType": "uint256",
          "name": "tokenId",
          "type": "uint256"
        }
      ],
      "name": "Approval",
      "type": "event"
    },
    {
      "anonymous": false,
      "inputs": [
        {
          "indexed": true,
          "internalType": "address",
          "name": "owner",
          "type": "address"
        },
        {
          "indexed": true,
          "internalType": "address",
          "name": "operator",
          "type": "address"
        },
        {
          "indexed": false,
          "internalType": "bool",
          "name": "approved",
          "type": "bool"
        }
      ],
      "name": "ApprovalForAll",
      "type": "event"
    },
    {
      "anonymous": false,
      "inputs": [
        {
          "indexed": true,
          "internalType": "address",
          "name": "previousOwner",
          "type": "address"
        },
        {
          "indexed": true,
          "internalType": "address",
          "name": "newOwner",
          "type": "address"
        }
      ],
      "name": "OwnershipTransferred",
      "type": "event"
    },
    {
      "anonymous": false,
      "inputs": [
        {
          "indexed": true,
          "internalType": "address",
          "name": "from",
          "type": "address"
        },
        {
          "indexed": true,
          "internalType": "address",
          "name": "to",
          "type": "address"
        },
        {
          "indexed": true,
          "internalType": "uint256",
          "name": "tokenId",
          "type": "uint256"
        }
      ],
      "name": "Transfer",
      "type": "event"
    },
    {
      "inputs": [
        {
          "internalType": "address",
          "name": "to",
          "type": "address"
        },
        {
          "internalType": "uint256",
          "name": "tokenId",
          "type": "uint256"
        }
      ],
      "name": "approve",
      "outputs": [],
      "stateMutability": "nonpayable",
      "type": "function"
    },
    {
      "inputs": [
        {
          "internalType": "address",
          "name": "owner",
          "type": "address"
        }
      ],
      "name": "balanceOf",
      "outputs": [
        {
          "internalType": "uint256",
          "name": "",
          "type": "uint256"
        }
      ],
      "stateMutability": "view",
      "type": "function"
    },
    {
      "inputs": [],
      "name": "baseURI",
      "outputs": [
        {
          "internalType": "string",
          "name": "",
          "type": "string"
        }
      ],
      "stateMutability": "view",
      "type": "function"
    },
    {
      "inputs": [],
      "name": "getActive",
      "outputs": [
        {
          "internalType": "bool",
          "name": "",
          "type": "bool"
        }
      ],
      "stateMutability": "view",
      "type": "function"
    },
    {
      "inputs": [
        {
          "internalType": "uint256",
          "name": "tokenId",
          "type": "uint256"
        }
      ],
      "name": "getApproved",
      "outputs": [
        {
          "internalType": "address",
          "name": "",
          "type": "address"
        }
      ],
      "stateMutability": "view",
      "type": "function"
    },
    {
      "inputs": [
        {
          "internalType": "address",
          "name": "_owner",
          "type": "address"
        }
      ],
      "name": "getBalance",
      "outputs": [
        {
          "internalType": "uint256",
          "name": "",
          "type": "uint256"
        }
      ],
      "stateMutability": "view",
      "type": "function"
    },
    {
      "inputs": [],
      "name": "getTokensMinted",
      "outputs": [
        {
          "internalType": "uint256",
          "name": "",
          "type": "uint256"
        }
      ],
      "stateMutability": "view",
      "type": "function"
    },
    {
      "inputs": [
        {
          "internalType": "address",
          "name": "owner",
          "type": "address"
        },
        {
          "internalType": "address",
          "name": "operator",
          "type": "address"
        }
      ],
      "name": "isApprovedForAll",
      "outputs": [
        {
          "internalType": "bool",
          "name": "",
          "type": "bool"
        }
      ],
      "stateMutability": "view",
      "type": "function"
    },
    {
      "inputs": [
        {
          "internalType": "address",
          "name": "recipient",
          "type": "address"
        },
        {
          "internalType": "string",
          "name": "tokenURI",
          "type": "string"
        },
        {
          "internalType": "uint256",
          "name": "_tokenId",
          "type": "uint256"
        }
      ],
      "name": "mintSapien",
      "outputs": [
        {
          "internalType": "uint256",
          "name": "",
          "type": "uint256"
        }
      ],
      "stateMutability": "payable",
      "type": "function"
    },
    {
      "inputs": [],
      "name": "name",
      "outputs": [
        {
          "internalType": "string",
          "name": "",
          "type": "string"
        }
      ],
      "stateMutability": "view",
      "type": "function"
    },
    {
      "inputs": [],
      "name": "owner",
      "outputs": [
        {
          "internalType": "address",
          "name": "",
          "type": "address"
        }
      ],
      "stateMutability": "view",
      "type": "function"
    },
    {
      "inputs": [
        {
          "internalType": "uint256",
          "name": "tokenId",
          "type": "uint256"
        }
      ],
      "name": "ownerOf",
      "outputs": [
        {
          "internalType": "address",
          "name": "",
          "type": "address"
        }
      ],
      "stateMutability": "view",
      "type": "function"
    },
    {
      "inputs": [],
      "name": "renounceOwnership",
      "outputs": [],
      "stateMutability": "nonpayable",
      "type": "function"
    },
    {
      "inputs": [
        {
          "internalType": "address",
          "name": "from",
          "type": "address"
        },
        {
          "internalType": "address",
          "name": "to",
          "type": "address"
        },
        {
          "internalType": "uint256",
          "name": "tokenId",
          "type": "uint256"
        }
      ],
      "name": "safeTransferFrom",
      "outputs": [],
      "stateMutability": "nonpayable",
      "type": "function"
    },
    {
      "inputs": [
        {
          "internalType": "address",
          "name": "from",
          "type": "address"
        },
        {
          "internalType": "address",
          "name": "to",
          "type": "address"
        },
        {
          "internalType": "uint256",
          "name": "tokenId",
          "type": "uint256"
        },
        {
          "internalType": "bytes",
          "name": "_data",
          "type": "bytes"
        }
      ],
      "name": "safeTransferFrom",
      "outputs": [],
      "stateMutability": "nonpayable",
      "type": "function"
    },
    {
      "inputs": [
        {
          "internalType": "bool",
          "name": "_active",
          "type": "bool"
        }
      ],
      "name": "setActive",
      "outputs": [],
      "stateMutability": "nonpayable",
      "type": "function"
    },
    {
      "inputs": [
        {
          "internalType": "address",
          "name": "operator",
          "type": "address"
        },
        {
          "internalType": "bool",
          "name": "approved",
          "type": "bool"
        }
      ],
      "name": "setApprovalForAll",
      "outputs": [],
      "stateMutability": "nonpayable",
      "type": "function"
    },
    {
      "inputs": [],
      "name": "supply",
      "outputs": [
        {
          "internalType": "uint256",
          "name": "",
          "type": "uint256"
        }
      ],
      "stateMutability": "view",
      "type": "function"
    },
    {
      "inputs": [
        {
          "internalType": "bytes4",
          "name": "interfaceId",
          "type": "bytes4"
        }
      ],
      "name": "supportsInterface",
      "outputs": [
        {
          "internalType": "bool",
          "name": "",
          "type": "bool"
        }
      ],
      "stateMutability": "view",
      "type": "function"
    },
    {
      "inputs": [],
      "name": "symbol",
      "outputs": [
        {
          "internalType": "string",
          "name": "",
          "type": "string"
        }
      ],
      "stateMutability": "view",
      "type": "function"
    },
    {
      "inputs": [],
      "name": "tokenCount",
      "outputs": [
        {
          "internalType": "uint256",
          "name": "",
          "type": "uint256"
        }
      ],
      "stateMutability": "view",
      "type": "function"
    },
    {
      "inputs": [
        {
          "internalType": "uint256",
          "name": "_tokenId",
          "type": "uint256"
        }
      ],
      "name": "tokenExists",
      "outputs": [
        {
          "internalType": "bool",
          "name": "",
          "type": "bool"
        }
      ],
      "stateMutability": "view",
      "type": "function"
    },
    {
      "inputs": [
        {
          "internalType": "uint256",
          "name": "tokenId",
          "type": "uint256"
        }
      ],
      "name": "tokenURI",
      "outputs": [
        {
          "internalType": "string",
          "name": "",
          "type": "string"
        }
      ],
      "stateMutability": "view",
      "type": "function"
    },
    {
      "inputs": [
        {
          "internalType": "address",
          "name": "from",
          "type": "address"
        },
        {
          "internalType": "address",
          "name": "to",
          "type": "address"
        },
        {
          "internalType": "uint256",
          "name": "tokenId",
          "type": "uint256"
        }
      ],
      "name": "transferFrom",
      "outputs": [],
      "stateMutability": "nonpayable",
      "type": "function"
    },
    {
      "inputs": [
        {
          "internalType": "address",
          "name": "newOwner",
          "type": "address"
        }
      ],
      "name": "transferOwnership",
      "outputs": [],
      "stateMutability": "nonpayable",
      "type": "function"
    }
  ],
  "bytecode": "0x60806040526107d060085567016345785d8a0000600a553480156200002357600080fd5b5060405162003a4b38038062003a4b8339818101604052810190620000499190620002b1565b82828160009080519060200190620000639291906200018f565b5080600190805190602001906200007c9291906200018f565b5050506200009f62000093620000c160201b60201c565b620000c960201b60201c565b80600c9080519060200190620000b79291906200018f565b5050505062000483565b600033905090565b6000600760009054906101000a900473ffffffffffffffffffffffffffffffffffffffff16905081600760006101000a81548173ffffffffffffffffffffffffffffffffffffffff021916908373ffffffffffffffffffffffffffffffffffffffff1602179055508173ffffffffffffffffffffffffffffffffffffffff168173ffffffffffffffffffffffffffffffffffffffff167f8be0079c531659141344cd1fd0a4f28419497f9722a3daafe3b4186f6b6457e060405160405180910390a35050565b8280546200019d90620003ef565b90600052602060002090601f016020900481019282620001c157600085556200020d565b82601f10620001dc57805160ff19168380011785556200020d565b828001600101855582156200020d579182015b828111156200020c578251825591602001919060010190620001ef565b5b5090506200021c919062000220565b5090565b5b808211156200023b57600081600090555060010162000221565b5090565b600062000256620002508462000386565b62000352565b9050828152602081018484840111156200026f57600080fd5b6200027c848285620003b9565b509392505050565b600082601f8301126200029657600080fd5b8151620002a88482602086016200023f565b91505092915050565b600080600060608486031215620002c757600080fd5b600084015167ffffffffffffffff811115620002e257600080fd5b620002f08682870162000284565b935050602084015167ffffffffffffffff8111156200030e57600080fd5b6200031c8682870162000284565b925050604084015167ffffffffffffffff8111156200033a57600080fd5b620003488682870162000284565b9150509250925092565b6000604051905081810181811067ffffffffffffffff821117156200037c576200037b62000454565b5b8060405250919050565b600067ffffffffffffffff821115620003a457620003a362000454565b5b601f19601f8301169050602081019050919050565b60005b83811015620003d9578082015181840152602081019050620003bc565b83811115620003e9576000848401525b50505050565b600060028204905060018216806200040857607f821691505b602082108114156200041f576200041e62000425565b5b50919050565b7f4e487b7100000000000000000000000000000000000000000000000000000000600052602260045260246000fd5b7f4e487b7100000000000000000000000000000000000000000000000000000000600052604160045260246000fd5b6135b880620004936000396000f3fe6080604052600436106101645760003560e01c8063715018a6116100d1578063acec338a1161008a578063d69f6bae11610064578063d69f6bae14610541578063e985e9c51461056c578063f2fde38b146105a9578063f8b2cb4f146105d257610164565b8063acec338a146104b2578063b88d4fde146104db578063c87b56dd1461050457610164565b8063715018a6146103c157806381bdf27c146103d85780638da5cb5b1461040857806395d89b41146104335780639f181b5e1461045e578063a22cb4651461048957610164565b8063095ea7b311610123578063095ea7b3146102a157806323b872dd146102ca57806342842e0e146102f35780636352211e1461031c5780636c0360eb1461035957806370a082311461038457610164565b8062923f9e146101695780629ebb10146101a657806301ffc9a7146101d1578063047fc9aa1461020e57806306fdde0314610239578063081812fc14610264575b600080fd5b34801561017557600080fd5b50610190600480360381019061018b9190612512565b61060f565b60405161019d9190612e50565b60405180910390f35b3480156101b257600080fd5b506101bb610621565b6040516101c89190612e50565b60405180910390f35b3480156101dd57600080fd5b506101f860048036038101906101f391906124c0565b610638565b6040516102059190612e50565b60405180910390f35b34801561021a57600080fd5b5061022361071a565b604051610230919061314d565b60405180910390f35b34801561024557600080fd5b5061024e610720565b60405161025b9190612e6b565b60405180910390f35b34801561027057600080fd5b5061028b60048036038101906102869190612512565b6107b2565b6040516102989190612de9565b60405180910390f35b3480156102ad57600080fd5b506102c860048036038101906102c3919061245b565b610837565b005b3480156102d657600080fd5b506102f160048036038101906102ec91906122ee565b61094f565b005b3480156102ff57600080fd5b5061031a600480360381019061031591906122ee565b6109af565b005b34801561032857600080fd5b50610343600480360381019061033e9190612512565b6109cf565b6040516103509190612de9565b60405180910390f35b34801561036557600080fd5b5061036e610a81565b60405161037b9190612e6b565b60405180910390f35b34801561039057600080fd5b506103ab60048036038101906103a69190612289565b610b0f565b6040516103b8919061314d565b60405180910390f35b3480156103cd57600080fd5b506103d6610bc7565b005b6103f260048036038101906103ed91906123f4565b610c4f565b6040516103ff919061314d565b60405180910390f35b34801561041457600080fd5b5061041d610dad565b60405161042a9190612de9565b60405180910390f35b34801561043f57600080fd5b50610448610dd7565b6040516104559190612e6b565b60405180910390f35b34801561046a57600080fd5b50610473610e69565b604051610480919061314d565b60405180910390f35b34801561049557600080fd5b506104b060048036038101906104ab91906123b8565b610e6f565b005b3480156104be57600080fd5b506104d960048036038101906104d49190612497565b610ff0565b005b3480156104e757600080fd5b5061050260048036038101906104fd919061233d565b611089565b005b34801561051057600080fd5b5061052b60048036038101906105269190612512565b6110eb565b6040516105389190612e6b565b60405180910390f35b34801561054d57600080fd5b5061055661123d565b604051610563919061314d565b60405180910390f35b34801561057857600080fd5b50610593600480360381019061058e91906122b2565b611247565b6040516105a09190612e50565b60405180910390f35b3480156105b557600080fd5b506105d060048036038101906105cb9190612289565b6112db565b005b3480156105de57600080fd5b506105f960048036038101906105f49190612289565b6113d3565b604051610606919061314d565b60405180910390f35b600061061a826113e5565b9050919050565b6000600b60009054906101000a900460ff16905090565b60007f80ac58cd000000000000000000000000000000000000000000000000000000007bffffffffffffffffffffffffffffffffffffffffffffffffffffffff1916827bffffffffffffffffffffffffffffffffffffffffffffffffffffffff1916148061070357507f5b5e139f000000000000000000000000000000000000000000000000000000007bffffffffffffffffffffffffffffffffffffffffffffffffffffffff1916827bffffffffffffffffffffffffffffffffffffffffffffffffffffffff1916145b80610713575061071282611451565b5b9050919050565b60085481565b60606000805461072f906133ad565b80601f016020809104026020016040519081016040528092919081815260200182805461075b906133ad565b80156107a85780601f1061077d576101008083540402835291602001916107a8565b820191906000526020600020905b81548152906001019060200180831161078b57829003601f168201915b5050505050905090565b60006107bd826113e5565b6107fc576040517f08c379a00000000000000000000000000000000000000000000000000000000081526004016107f39061302d565b60405180910390fd5b6004600083815260200190815260200160002060009054906101000a900473ffffffffffffffffffffffffffffffffffffffff169050919050565b6000610842826109cf565b90508073ffffffffffffffffffffffffffffffffffffffff168373ffffffffffffffffffffffffffffffffffffffff1614156108b3576040517f08c379a00000000000000000000000000000000000000000000000000000000081526004016108aa906130cd565b60405180910390fd5b8073ffffffffffffffffffffffffffffffffffffffff166108d26114bb565b73ffffffffffffffffffffffffffffffffffffffff1614806109015750610900816108fb6114bb565b611247565b5b610940576040517f08c379a000000000000000000000000000000000000000000000000000000000815260040161093790612f4d565b60405180910390fd5b61094a83836114c3565b505050565b61096061095a6114bb565b8261157c565b61099f576040517f08c379a0000000000000000000000000000000000000000000000000000000008152600401610996906130ed565b60405180910390fd5b6109aa83838361165a565b505050565b6109ca83838360405180602001604052806000815250611089565b505050565b6000806002600084815260200190815260200160002060009054906101000a900473ffffffffffffffffffffffffffffffffffffffff169050600073ffffffffffffffffffffffffffffffffffffffff168173ffffffffffffffffffffffffffffffffffffffff161415610a78576040517f08c379a0000000000000000000000000000000000000000000000000000000008152600401610a6f90612f8d565b60405180910390fd5b80915050919050565b600c8054610a8e906133ad565b80601f0160208091040260200160405190810160405280929190818152602001828054610aba906133ad565b8015610b075780601f10610adc57610100808354040283529160200191610b07565b820191906000526020600020905b815481529060010190602001808311610aea57829003601f168201915b505050505081565b60008073ffffffffffffffffffffffffffffffffffffffff168273ffffffffffffffffffffffffffffffffffffffff161415610b80576040517f08c379a0000000000000000000000000000000000000000000000000000000008152600401610b7790612f6d565b60405180910390fd5b600360008373ffffffffffffffffffffffffffffffffffffffff1673ffffffffffffffffffffffffffffffffffffffff168152602001908152602001600020549050919050565b610bcf6114bb565b73ffffffffffffffffffffffffffffffffffffffff16610bed610dad565b73ffffffffffffffffffffffffffffffffffffffff1614610c43576040517f08c379a0000000000000000000000000000000000000000000000000000000008152600401610c3a9061304d565b60405180910390fd5b610c4d60006118b6565b565b6000600b60009054906101000a900460ff16610ca0576040517f08c379a0000000000000000000000000000000000000000000000000000000008152600401610c97906130ad565b60405180910390fd5b600a543414610ce4576040517f08c379a0000000000000000000000000000000000000000000000000000000008152600401610cdb9061310d565b60405180910390fd5b6000610cef856113d3565b14610d2f576040517f08c379a0000000000000000000000000000000000000000000000000000000008152600401610d269061312d565b60405180910390fd5b600854610d3a61123d565b10610d7a576040517f08c379a0000000000000000000000000000000000000000000000000000000008152600401610d7190612fed565b60405180910390fd5b610d84848361197c565b610d8e828461199a565b6001600954610d9d919061323c565b6009819055508190509392505050565b6000600760009054906101000a900473ffffffffffffffffffffffffffffffffffffffff16905090565b606060018054610de6906133ad565b80601f0160208091040260200160405190810160405280929190818152602001828054610e12906133ad565b8015610e5f5780601f10610e3457610100808354040283529160200191610e5f565b820191906000526020600020905b815481529060010190602001808311610e4257829003601f168201915b5050505050905090565b60095481565b610e776114bb565b73ffffffffffffffffffffffffffffffffffffffff168273ffffffffffffffffffffffffffffffffffffffff161415610ee5576040517f08c379a0000000000000000000000000000000000000000000000000000000008152600401610edc90612f0d565b60405180910390fd5b8060056000610ef26114bb565b73ffffffffffffffffffffffffffffffffffffffff1673ffffffffffffffffffffffffffffffffffffffff16815260200190815260200160002060008473ffffffffffffffffffffffffffffffffffffffff1673ffffffffffffffffffffffffffffffffffffffff16815260200190815260200160002060006101000a81548160ff0219169083151502179055508173ffffffffffffffffffffffffffffffffffffffff16610f9f6114bb565b73ffffffffffffffffffffffffffffffffffffffff167f17307eab39ab6107e8899845ad3d59bd9653f200f220920489ca2b5937696c3183604051610fe49190612e50565b60405180910390a35050565b610ff86114bb565b73ffffffffffffffffffffffffffffffffffffffff16611016610dad565b73ffffffffffffffffffffffffffffffffffffffff161461106c576040517f08c379a00000000000000000000000000000000000000000000000000000000081526004016110639061304d565b60405180910390fd5b80600b60006101000a81548160ff02191690831515021790555050565b61109a6110946114bb565b8361157c565b6110d9576040517f08c379a00000000000000000000000000000000000000000000000000000000081526004016110d0906130ed565b60405180910390fd5b6110e584848484611a0e565b50505050565b60606110f6826113e5565b611135576040517f08c379a000000000000000000000000000000000000000000000000000000000815260040161112c9061300d565b60405180910390fd5b6000600660008481526020019081526020016000208054611155906133ad565b80601f0160208091040260200160405190810160405280929190818152602001828054611181906133ad565b80156111ce5780601f106111a3576101008083540402835291602001916111ce565b820191906000526020600020905b8154815290600101906020018083116111b157829003601f168201915b5050505050905060006111df611a6a565b90506000815114156111f5578192505050611238565b60008251111561122a578082604051602001611212929190612dc5565b60405160208183030381529060405292505050611238565b61123384611a81565b925050505b919050565b6000600954905090565b6000600560008473ffffffffffffffffffffffffffffffffffffffff1673ffffffffffffffffffffffffffffffffffffffff16815260200190815260200160002060008373ffffffffffffffffffffffffffffffffffffffff1673ffffffffffffffffffffffffffffffffffffffff16815260200190815260200160002060009054906101000a900460ff16905092915050565b6112e36114bb565b73ffffffffffffffffffffffffffffffffffffffff16611301610dad565b73ffffffffffffffffffffffffffffffffffffffff1614611357576040517f08c379a000000000000000000000000000000000000000000000000000000000815260040161134e9061304d565b60405180910390fd5b600073ffffffffffffffffffffffffffffffffffffffff168173ffffffffffffffffffffffffffffffffffffffff1614156113c7576040517f08c379a00000000000000000000000000000000000000000000000000000000081526004016113be90612ead565b60405180910390fd5b6113d0816118b6565b50565b60006113de82610b0f565b9050919050565b60008073ffffffffffffffffffffffffffffffffffffffff166002600084815260200190815260200160002060009054906101000a900473ffffffffffffffffffffffffffffffffffffffff1673ffffffffffffffffffffffffffffffffffffffff1614159050919050565b60007f01ffc9a7000000000000000000000000000000000000000000000000000000007bffffffffffffffffffffffffffffffffffffffffffffffffffffffff1916827bffffffffffffffffffffffffffffffffffffffffffffffffffffffff1916149050919050565b600033905090565b816004600083815260200190815260200160002060006101000a81548173ffffffffffffffffffffffffffffffffffffffff021916908373ffffffffffffffffffffffffffffffffffffffff160217905550808273ffffffffffffffffffffffffffffffffffffffff16611536836109cf565b73ffffffffffffffffffffffffffffffffffffffff167f8c5be1e5ebec7d5bd14f71427d1e84f3dd0314c0f7b2291e5b200ac8c7c3b92560405160405180910390a45050565b6000611587826113e5565b6115c6576040517f08c379a00000000000000000000000000000000000000000000000000000000081526004016115bd90612f2d565b60405180910390fd5b60006115d1836109cf565b90508073ffffffffffffffffffffffffffffffffffffffff168473ffffffffffffffffffffffffffffffffffffffff16148061164057508373ffffffffffffffffffffffffffffffffffffffff16611628846107b2565b73ffffffffffffffffffffffffffffffffffffffff16145b8061165157506116508185611247565b5b91505092915050565b8273ffffffffffffffffffffffffffffffffffffffff1661167a826109cf565b73ffffffffffffffffffffffffffffffffffffffff16146116d0576040517f08c379a00000000000000000000000000000000000000000000000000000000081526004016116c79061306d565b60405180910390fd5b600073ffffffffffffffffffffffffffffffffffffffff168273ffffffffffffffffffffffffffffffffffffffff161415611740576040517f08c379a000000000000000000000000000000000000000000000000000000000815260040161173790612eed565b60405180910390fd5b61174b838383611b28565b6117566000826114c3565b6001600360008573ffffffffffffffffffffffffffffffffffffffff1673ffffffffffffffffffffffffffffffffffffffff16815260200190815260200160002060008282546117a691906132c3565b925050819055506001600360008473ffffffffffffffffffffffffffffffffffffffff1673ffffffffffffffffffffffffffffffffffffffff16815260200190815260200160002060008282546117fd919061323c565b92505081905550816002600083815260200190815260200160002060006101000a81548173ffffffffffffffffffffffffffffffffffffffff021916908373ffffffffffffffffffffffffffffffffffffffff160217905550808273ffffffffffffffffffffffffffffffffffffffff168473ffffffffffffffffffffffffffffffffffffffff167fddf252ad1be2c89b69c2b068fc378daa952ba7f163c4a11628f55a4df523b3ef60405160405180910390a4505050565b6000600760009054906101000a900473ffffffffffffffffffffffffffffffffffffffff16905081600760006101000a81548173ffffffffffffffffffffffffffffffffffffffff021916908373ffffffffffffffffffffffffffffffffffffffff1602179055508173ffffffffffffffffffffffffffffffffffffffff168173ffffffffffffffffffffffffffffffffffffffff167f8be0079c531659141344cd1fd0a4f28419497f9722a3daafe3b4186f6b6457e060405160405180910390a35050565b611996828260405180602001604052806000815250611b2d565b5050565b6119a3826113e5565b6119e2576040517f08c379a00000000000000000000000000000000000000000000000000000000081526004016119d990612fad565b60405180910390fd5b80600660008481526020019081526020016000209080519060200190611a099291906120ad565b505050565b611a1984848461165a565b611a2584848484611b88565b611a64576040517f08c379a0000000000000000000000000000000000000000000000000000000008152600401611a5b90612e8d565b60405180910390fd5b50505050565b606060405180602001604052806000815250905090565b6060611a8c826113e5565b611acb576040517f08c379a0000000000000000000000000000000000000000000000000000000008152600401611ac29061308d565b60405180910390fd5b6000611ad5611a6a565b90506000815111611af55760405180602001604052806000815250611b20565b80611aff84611d1f565b604051602001611b10929190612dc5565b6040516020818303038152906040525b915050919050565b505050565b611b378383611ecc565b611b446000848484611b88565b611b83576040517f08c379a0000000000000000000000000000000000000000000000000000000008152600401611b7a90612e8d565b60405180910390fd5b505050565b6000611ba98473ffffffffffffffffffffffffffffffffffffffff1661209a565b15611d12578373ffffffffffffffffffffffffffffffffffffffff1663150b7a02611bd26114bb565b8786866040518563ffffffff1660e01b8152600401611bf49493929190612e04565b602060405180830381600087803b158015611c0e57600080fd5b505af1925050508015611c3f57506040513d601f19601f82011682018060405250810190611c3c91906124e9565b60015b611cc2573d8060008114611c6f576040519150601f19603f3d011682016040523d82523d6000602084013e611c74565b606091505b50600081511415611cba576040517f08c379a0000000000000000000000000000000000000000000000000000000008152600401611cb190612e8d565b60405180910390fd5b805181602001fd5b63150b7a0260e01b7bffffffffffffffffffffffffffffffffffffffffffffffffffffffff1916817bffffffffffffffffffffffffffffffffffffffffffffffffffffffff191614915050611d17565b600190505b949350505050565b60606000821415611d67576040518060400160405280600181526020017f30000000000000000000000000000000000000000000000000000000000000008152509050611ec7565b600082905060005b60008214611d99578080611d82906133df565b915050600a82611d929190613292565b9150611d6f565b60008167ffffffffffffffff811115611ddb577f4e487b7100000000000000000000000000000000000000000000000000000000600052604160045260246000fd5b6040519080825280601f01601f191660200182016040528015611e0d5781602001600182028036833780820191505090505b5090505b60008514611ec057600182611e2691906132c3565b9150600a85611e359190613428565b6030611e41919061323c565b60f81b818381518110611e7d577f4e487b7100000000000000000000000000000000000000000000000000000000600052603260045260246000fd5b60200101907effffffffffffffffffffffffffffffffffffffffffffffffffffffffffffff1916908160001a905350600a85611eb99190613292565b9450611e11565b8093505050505b919050565b600073ffffffffffffffffffffffffffffffffffffffff168273ffffffffffffffffffffffffffffffffffffffff161415611f3c576040517f08c379a0000000000000000000000000000000000000000000000000000000008152600401611f3390612fcd565b60405180910390fd5b611f45816113e5565b15611f85576040517f08c379a0000000000000000000000000000000000000000000000000000000008152600401611f7c90612ecd565b60405180910390fd5b611f9160008383611b28565b6001600360008473ffffffffffffffffffffffffffffffffffffffff1673ffffffffffffffffffffffffffffffffffffffff1681526020019081526020016000206000828254611fe1919061323c565b92505081905550816002600083815260200190815260200160002060006101000a81548173ffffffffffffffffffffffffffffffffffffffff021916908373ffffffffffffffffffffffffffffffffffffffff160217905550808273ffffffffffffffffffffffffffffffffffffffff16600073ffffffffffffffffffffffffffffffffffffffff167fddf252ad1be2c89b69c2b068fc378daa952ba7f163c4a11628f55a4df523b3ef60405160405180910390a45050565b600080823b905060008111915050919050565b8280546120b9906133ad565b90600052602060002090601f0160209004810192826120db5760008555612122565b82601f106120f457805160ff1916838001178555612122565b82800160010185558215612122579182015b82811115612121578251825591602001919060010190612106565b5b50905061212f9190612133565b5090565b5b8082111561214c576000816000905550600101612134565b5090565b600061216361215e84613199565b613168565b90508281526020810184848401111561217b57600080fd5b61218684828561336b565b509392505050565b60006121a161219c846131c9565b613168565b9050828152602081018484840111156121b957600080fd5b6121c484828561336b565b509392505050565b6000813590506121db81613526565b92915050565b6000813590506121f08161353d565b92915050565b60008135905061220581613554565b92915050565b60008151905061221a81613554565b92915050565b600082601f83011261223157600080fd5b8135612241848260208601612150565b91505092915050565b600082601f83011261225b57600080fd5b813561226b84826020860161218e565b91505092915050565b6000813590506122838161356b565b92915050565b60006020828403121561229b57600080fd5b60006122a9848285016121cc565b91505092915050565b600080604083850312156122c557600080fd5b60006122d3858286016121cc565b92505060206122e4858286016121cc565b9150509250929050565b60008060006060848603121561230357600080fd5b6000612311868287016121cc565b9350506020612322868287016121cc565b925050604061233386828701612274565b9150509250925092565b6000806000806080858703121561235357600080fd5b6000612361878288016121cc565b9450506020612372878288016121cc565b935050604061238387828801612274565b925050606085013567ffffffffffffffff8111156123a057600080fd5b6123ac87828801612220565b91505092959194509250565b600080604083850312156123cb57600080fd5b60006123d9858286016121cc565b92505060206123ea858286016121e1565b9150509250929050565b60008060006060848603121561240957600080fd5b6000612417868287016121cc565b935050602084013567ffffffffffffffff81111561243457600080fd5b6124408682870161224a565b925050604061245186828701612274565b9150509250925092565b6000806040838503121561246e57600080fd5b600061247c858286016121cc565b925050602061248d85828601612274565b9150509250929050565b6000602082840312156124a957600080fd5b60006124b7848285016121e1565b91505092915050565b6000602082840312156124d257600080fd5b60006124e0848285016121f6565b91505092915050565b6000602082840312156124fb57600080fd5b60006125098482850161220b565b91505092915050565b60006020828403121561252457600080fd5b600061253284828501612274565b91505092915050565b612544816132f7565b82525050565b61255381613309565b82525050565b6000612564826131f9565b61256e818561320f565b935061257e81856020860161337a565b61258781613515565b840191505092915050565b600061259d82613204565b6125a78185613220565b93506125b781856020860161337a565b6125c081613515565b840191505092915050565b60006125d682613204565b6125e08185613231565b93506125f081856020860161337a565b80840191505092915050565b6000612609603283613220565b91507f4552433732313a207472616e7366657220746f206e6f6e20455243373231526560008301527f63656976657220696d706c656d656e74657200000000000000000000000000006020830152604082019050919050565b600061266f602683613220565b91507f4f776e61626c653a206e6577206f776e657220697320746865207a65726f206160008301527f64647265737300000000000000000000000000000000000000000000000000006020830152604082019050919050565b60006126d5601c83613220565b91507f4552433732313a20746f6b656e20616c7265616479206d696e746564000000006000830152602082019050919050565b6000612715602483613220565b91507f4552433732313a207472616e7366657220746f20746865207a65726f2061646460008301527f72657373000000000000000000000000000000000000000000000000000000006020830152604082019050919050565b600061277b601983613220565b91507f4552433732313a20617070726f766520746f2063616c6c6572000000000000006000830152602082019050919050565b60006127bb602c83613220565b91507f4552433732313a206f70657261746f7220717565727920666f72206e6f6e657860008301527f697374656e7420746f6b656e00000000000000000000000000000000000000006020830152604082019050919050565b6000612821603883613220565b91507f4552433732313a20617070726f76652063616c6c6572206973206e6f74206f7760008301527f6e6572206e6f7220617070726f76656420666f7220616c6c00000000000000006020830152604082019050919050565b6000612887602a83613220565b91507f4552433732313a2062616c616e636520717565727920666f7220746865207a6560008301527f726f2061646472657373000000000000000000000000000000000000000000006020830152604082019050919050565b60006128ed602983613220565b91507f4552433732313a206f776e657220717565727920666f72206e6f6e657869737460008301527f656e7420746f6b656e00000000000000000000000000000000000000000000006020830152604082019050919050565b6000612953602e83613220565b91507f45524337323155524953746f726167653a2055524920736574206f66206e6f6e60008301527f6578697374656e7420746f6b656e0000000000000000000000000000000000006020830152604082019050919050565b60006129b9602083613220565b91507f4552433732313a206d696e7420746f20746865207a65726f20616464726573736000830152602082019050919050565b60006129f9601983613220565b91507f416c6c204e4654732068617665206265656e206d696e746564000000000000006000830152602082019050919050565b6000612a39603183613220565b91507f45524337323155524953746f726167653a2055524920717565727920666f722060008301527f6e6f6e6578697374656e7420746f6b656e0000000000000000000000000000006020830152604082019050919050565b6000612a9f602c83613220565b91507f4552433732313a20617070726f76656420717565727920666f72206e6f6e657860008301527f697374656e7420746f6b656e00000000000000000000000000000000000000006020830152604082019050919050565b6000612b05602083613220565b91507f4f776e61626c653a2063616c6c6572206973206e6f7420746865206f776e65726000830152602082019050919050565b6000612b45602983613220565b91507f4552433732313a207472616e73666572206f6620746f6b656e2074686174206960008301527f73206e6f74206f776e00000000000000000000000000000000000000000000006020830152604082019050919050565b6000612bab602f83613220565b91507f4552433732314d657461646174613a2055524920717565727920666f72206e6f60008301527f6e6578697374656e7420746f6b656e00000000000000000000000000000000006020830152604082019050919050565b6000612c11601a83613220565b91507f53616c652069732063757272656e746c7920696e6163746976650000000000006000830152602082019050919050565b6000612c51602183613220565b91507f4552433732313a20617070726f76616c20746f2063757272656e74206f776e6560008301527f72000000000000000000000000000000000000000000000000000000000000006020830152604082019050919050565b6000612cb7603183613220565b91507f4552433732313a207472616e736665722063616c6c6572206973206e6f74206f60008301527f776e6572206e6f7220617070726f7665640000000000000000000000000000006020830152604082019050919050565b6000612d1d601983613220565b91507f496e636f727265637420616d6f756e74206f66206574686572000000000000006000830152602082019050919050565b6000612d5d602483613220565b91507f596f752063616e6e6f74206d696e74206d6f7265207468616e206f6e6520536160008301527f7069656e000000000000000000000000000000000000000000000000000000006020830152604082019050919050565b612dbf81613361565b82525050565b6000612dd182856125cb565b9150612ddd82846125cb565b91508190509392505050565b6000602082019050612dfe600083018461253b565b92915050565b6000608082019050612e19600083018761253b565b612e26602083018661253b565b612e336040830185612db6565b8181036060830152612e458184612559565b905095945050505050565b6000602082019050612e65600083018461254a565b92915050565b60006020820190508181036000830152612e858184612592565b905092915050565b60006020820190508181036000830152612ea6816125fc565b9050919050565b60006020820190508181036000830152612ec681612662565b9050919050565b60006020820190508181036000830152612ee6816126c8565b9050919050565b60006020820190508181036000830152612f0681612708565b9050919050565b60006020820190508181036000830152612f268161276e565b9050919050565b60006020820190508181036000830152612f46816127ae565b9050919050565b60006020820190508181036000830152612f6681612814565b9050919050565b60006020820190508181036000830152612f868161287a565b9050919050565b60006020820190508181036000830152612fa6816128e0565b9050919050565b60006020820190508181036000830152612fc681612946565b9050919050565b60006020820190508181036000830152612fe6816129ac565b9050919050565b60006020820190508181036000830152613006816129ec565b9050919050565b6000602082019050818103600083015261302681612a2c565b9050919050565b6000602082019050818103600083015261304681612a92565b9050919050565b6000602082019050818103600083015261306681612af8565b9050919050565b6000602082019050818103600083015261308681612b38565b9050919050565b600060208201905081810360008301526130a681612b9e565b9050919050565b600060208201905081810360008301526130c681612c04565b9050919050565b600060208201905081810360008301526130e681612c44565b9050919050565b6000602082019050818103600083015261310681612caa565b9050919050565b6000602082019050818103600083015261312681612d10565b9050919050565b6000602082019050818103600083015261314681612d50565b9050919050565b60006020820190506131626000830184612db6565b92915050565b6000604051905081810181811067ffffffffffffffff8211171561318f5761318e6134e6565b5b8060405250919050565b600067ffffffffffffffff8211156131b4576131b36134e6565b5b601f19601f8301169050602081019050919050565b600067ffffffffffffffff8211156131e4576131e36134e6565b5b601f19601f8301169050602081019050919050565b600081519050919050565b600081519050919050565b600082825260208201905092915050565b600082825260208201905092915050565b600081905092915050565b600061324782613361565b915061325283613361565b9250827fffffffffffffffffffffffffffffffffffffffffffffffffffffffffffffffff0382111561328757613286613459565b5b828201905092915050565b600061329d82613361565b91506132a883613361565b9250826132b8576132b7613488565b5b828204905092915050565b60006132ce82613361565b91506132d983613361565b9250828210156132ec576132eb613459565b5b828203905092915050565b600061330282613341565b9050919050565b60008115159050919050565b60007fffffffff0000000000000000000000000000000000000000000000000000000082169050919050565b600073ffffffffffffffffffffffffffffffffffffffff82169050919050565b6000819050919050565b82818337600083830152505050565b60005b8381101561339857808201518184015260208101905061337d565b838111156133a7576000848401525b50505050565b600060028204905060018216806133c557607f821691505b602082108114156133d9576133d86134b7565b5b50919050565b60006133ea82613361565b91507fffffffffffffffffffffffffffffffffffffffffffffffffffffffffffffffff82141561341d5761341c613459565b5b600182019050919050565b600061343382613361565b915061343e83613361565b92508261344e5761344d613488565b5b828206905092915050565b7f4e487b7100000000000000000000000000000000000000000000000000000000600052601160045260246000fd5b7f4e487b7100000000000000000000000000000000000000000000000000000000600052601260045260246000fd5b7f4e487b7100000000000000000000000000000000000000000000000000000000600052602260045260246000fd5b7f4e487b7100000000000000000000000000000000000000000000000000000000600052604160045260246000fd5b6000601f19601f8301169050919050565b61352f816132f7565b811461353a57600080fd5b50565b61354681613309565b811461355157600080fd5b50565b61355d81613315565b811461356857600080fd5b50565b61357481613361565b811461357f57600080fd5b5056fea26469706673582212205d1324fc683335bf800db88fae49cef796263c2d5ca3a5c807a857246e7d778964736f6c63430008000033",
  "linkReferences": {},
  "deployedLinkReferences": {}
}