{
  "_format": "hh-sol-artifact-1",
  "contractName": "Sapien",
  "sourceName": "contracts/Sapien.sol",
  "abi": [
    {
      "inputs": [],
      "stateMutability": "nonpayable",
      "type": "constructor"
    },
    {
      "anonymous": false,
      "inputs": [
        {
          "indexed": true,
          "internalType": "address",
          "name": "owner",
          "type": "address"
        },
        {
          "indexed": true,
          "internalType": "address",
          "name": "approved",
          "type": "address"
        },
        {
          "indexed": true,
          "internalType": "uint256",
          "name": "tokenId",
          "type": "uint256"
        }
      ],
      "name": "Approval",
      "type": "event"
    },
    {
      "anonymous": false,
      "inputs": [
        {
          "indexed": true,
          "internalType": "address",
          "name": "owner",
          "type": "address"
        },
        {
          "indexed": true,
          "internalType": "address",
          "name": "operator",
          "type": "address"
        },
        {
          "indexed": false,
          "internalType": "bool",
          "name": "approved",
          "type": "bool"
        }
      ],
      "name": "ApprovalForAll",
      "type": "event"
    },
    {
      "anonymous": false,
      "inputs": [
        {
          "indexed": true,
          "internalType": "address",
          "name": "previousOwner",
          "type": "address"
        },
        {
          "indexed": true,
          "internalType": "address",
          "name": "newOwner",
          "type": "address"
        }
      ],
      "name": "OwnershipTransferred",
      "type": "event"
    },
    {
      "anonymous": false,
      "inputs": [
        {
          "indexed": true,
          "internalType": "address",
          "name": "from",
          "type": "address"
        },
        {
          "indexed": true,
          "internalType": "address",
          "name": "to",
          "type": "address"
        },
        {
          "indexed": true,
          "internalType": "uint256",
          "name": "tokenId",
          "type": "uint256"
        }
      ],
      "name": "Transfer",
      "type": "event"
    },
    {
      "inputs": [],
      "name": "BASE_URL",
      "outputs": [
        {
          "internalType": "string",
          "name": "",
          "type": "string"
        }
      ],
      "stateMutability": "view",
      "type": "function"
    },
    {
      "inputs": [],
      "name": "EXTENSION",
      "outputs": [
        {
          "internalType": "bytes32",
          "name": "",
          "type": "bytes32"
        }
      ],
      "stateMutability": "view",
      "type": "function"
    },
    {
      "inputs": [],
      "name": "FSNFT_PROVENANCE",
      "outputs": [
        {
          "internalType": "string",
          "name": "",
          "type": "string"
        }
      ],
      "stateMutability": "view",
      "type": "function"
    },
    {
      "inputs": [],
      "name": "GIVEAWAYS",
      "outputs": [
        {
          "internalType": "uint256",
          "name": "",
          "type": "uint256"
        }
      ],
      "stateMutability": "view",
      "type": "function"
    },
    {
      "inputs": [],
      "name": "MAX_MINT",
      "outputs": [
        {
          "internalType": "uint256",
          "name": "",
          "type": "uint256"
        }
      ],
      "stateMutability": "view",
      "type": "function"
    },
    {
      "inputs": [],
      "name": "MAX_SUPPLY",
      "outputs": [
        {
          "internalType": "uint256",
          "name": "",
          "type": "uint256"
        }
      ],
      "stateMutability": "view",
      "type": "function"
    },
    {
      "inputs": [],
      "name": "SALE_PRICE",
      "outputs": [
        {
          "internalType": "uint256",
          "name": "",
          "type": "uint256"
        }
      ],
      "stateMutability": "view",
      "type": "function"
    },
    {
      "inputs": [],
      "name": "_tokenIds",
      "outputs": [
        {
          "internalType": "uint256",
          "name": "",
          "type": "uint256"
        }
      ],
      "stateMutability": "view",
      "type": "function"
    },
    {
      "inputs": [],
      "name": "active",
      "outputs": [
        {
          "internalType": "bool",
          "name": "",
          "type": "bool"
        }
      ],
      "stateMutability": "view",
      "type": "function"
    },
    {
      "inputs": [
        {
          "internalType": "address",
          "name": "to",
          "type": "address"
        },
        {
          "internalType": "uint256",
          "name": "tokenId",
          "type": "uint256"
        }
      ],
      "name": "approve",
      "outputs": [],
      "stateMutability": "nonpayable",
      "type": "function"
    },
    {
      "inputs": [
        {
          "internalType": "address",
          "name": "owner",
          "type": "address"
        }
      ],
      "name": "balanceOf",
      "outputs": [
        {
          "internalType": "uint256",
          "name": "",
          "type": "uint256"
        }
      ],
      "stateMutability": "view",
      "type": "function"
    },
    {
      "inputs": [
        {
          "internalType": "uint256",
          "name": "tokenId",
          "type": "uint256"
        }
      ],
      "name": "getApproved",
      "outputs": [
        {
          "internalType": "address",
          "name": "",
          "type": "address"
        }
      ],
      "stateMutability": "view",
      "type": "function"
    },
    {
      "inputs": [
        {
          "internalType": "address",
          "name": "_user",
          "type": "address"
        }
      ],
      "name": "getMinted",
      "outputs": [
        {
          "internalType": "uint256",
          "name": "",
          "type": "uint256"
        }
      ],
      "stateMutability": "view",
      "type": "function"
    },
    {
      "inputs": [
        {
          "internalType": "address",
          "name": "owner",
          "type": "address"
        },
        {
          "internalType": "address",
          "name": "operator",
          "type": "address"
        }
      ],
      "name": "isApprovedForAll",
      "outputs": [
        {
          "internalType": "bool",
          "name": "",
          "type": "bool"
        }
      ],
      "stateMutability": "view",
      "type": "function"
    },
    {
      "inputs": [
        {
          "internalType": "bytes",
          "name": "_signature",
          "type": "bytes"
        },
        {
          "internalType": "address",
          "name": "_user",
          "type": "address"
        }
      ],
      "name": "isWhitelisted",
      "outputs": [
        {
          "internalType": "bool",
          "name": "",
          "type": "bool"
        }
      ],
      "stateMutability": "view",
      "type": "function"
    },
    {
      "inputs": [
        {
          "internalType": "uint256",
          "name": "tokensToMint",
          "type": "uint256"
        }
      ],
      "name": "mint",
      "outputs": [],
      "stateMutability": "payable",
      "type": "function"
    },
    {
      "inputs": [],
      "name": "mintGiveaways",
      "outputs": [],
      "stateMutability": "nonpayable",
      "type": "function"
    },
    {
      "inputs": [],
      "name": "name",
      "outputs": [
        {
          "internalType": "string",
          "name": "",
          "type": "string"
        }
      ],
      "stateMutability": "view",
      "type": "function"
    },
    {
      "inputs": [],
      "name": "owner",
      "outputs": [
        {
          "internalType": "address",
          "name": "",
          "type": "address"
        }
      ],
      "stateMutability": "view",
      "type": "function"
    },
    {
      "inputs": [
        {
          "internalType": "uint256",
          "name": "tokenId",
          "type": "uint256"
        }
      ],
      "name": "ownerOf",
      "outputs": [
        {
          "internalType": "address",
          "name": "",
          "type": "address"
        }
      ],
      "stateMutability": "view",
      "type": "function"
    },
    {
      "inputs": [],
      "name": "paused",
      "outputs": [
        {
          "internalType": "bool",
          "name": "",
          "type": "bool"
        }
      ],
      "stateMutability": "view",
      "type": "function"
    },
    {
      "inputs": [],
      "name": "presale_active",
      "outputs": [
        {
          "internalType": "bool",
          "name": "",
          "type": "bool"
        }
      ],
      "stateMutability": "view",
      "type": "function"
    },
    {
      "inputs": [],
      "name": "renounceOwnership",
      "outputs": [],
      "stateMutability": "nonpayable",
      "type": "function"
    },
    {
      "inputs": [],
      "name": "revealed",
      "outputs": [
        {
          "internalType": "bool",
          "name": "",
          "type": "bool"
        }
      ],
      "stateMutability": "view",
      "type": "function"
    },
    {
      "inputs": [
        {
          "internalType": "address",
          "name": "from",
          "type": "address"
        },
        {
          "internalType": "address",
          "name": "to",
          "type": "address"
        },
        {
          "internalType": "uint256",
          "name": "tokenId",
          "type": "uint256"
        }
      ],
      "name": "safeTransferFrom",
      "outputs": [],
      "stateMutability": "nonpayable",
      "type": "function"
    },
    {
      "inputs": [
        {
          "internalType": "address",
          "name": "from",
          "type": "address"
        },
        {
          "internalType": "address",
          "name": "to",
          "type": "address"
        },
        {
          "internalType": "uint256",
          "name": "tokenId",
          "type": "uint256"
        },
        {
          "internalType": "bytes",
          "name": "_data",
          "type": "bytes"
        }
      ],
      "name": "safeTransferFrom",
      "outputs": [],
      "stateMutability": "nonpayable",
      "type": "function"
    },
    {
      "inputs": [
        {
          "internalType": "address",
          "name": "operator",
          "type": "address"
        },
        {
          "internalType": "bool",
          "name": "approved",
          "type": "bool"
        }
      ],
      "name": "setApprovalForAll",
      "outputs": [],
      "stateMutability": "nonpayable",
      "type": "function"
    },
    {
      "inputs": [
        {
          "internalType": "string",
          "name": "_url",
          "type": "string"
        }
      ],
      "name": "setBaseURL",
      "outputs": [],
      "stateMutability": "nonpayable",
      "type": "function"
    },
    {
      "inputs": [
        {
          "internalType": "bool",
          "name": "_state",
          "type": "bool"
        }
      ],
      "name": "setPaused",
      "outputs": [],
      "stateMutability": "nonpayable",
      "type": "function"
    },
    {
      "inputs": [
        {
          "internalType": "bool",
          "name": "_active",
          "type": "bool"
        }
      ],
      "name": "setPresale",
      "outputs": [],
      "stateMutability": "nonpayable",
      "type": "function"
    },
    {
      "inputs": [
        {
          "internalType": "string",
          "name": "_provenance",
          "type": "string"
        }
      ],
      "name": "setProvenanceHash",
      "outputs": [],
      "stateMutability": "nonpayable",
      "type": "function"
    },
    {
      "inputs": [
        {
          "internalType": "bool",
          "name": "_active",
          "type": "bool"
        }
      ],
      "name": "setPublicSale",
      "outputs": [],
      "stateMutability": "nonpayable",
      "type": "function"
    },
    {
      "inputs": [],
      "name": "setStartingIdx",
      "outputs": [],
      "stateMutability": "nonpayable",
      "type": "function"
    },
    {
      "inputs": [],
      "name": "starting_idx",
      "outputs": [
        {
          "internalType": "uint256",
          "name": "",
          "type": "uint256"
        }
      ],
      "stateMutability": "view",
      "type": "function"
    },
    {
      "inputs": [
        {
          "internalType": "bytes4",
          "name": "interfaceId",
          "type": "bytes4"
        }
      ],
      "name": "supportsInterface",
      "outputs": [
        {
          "internalType": "bool",
          "name": "",
          "type": "bool"
        }
      ],
      "stateMutability": "view",
      "type": "function"
    },
    {
      "inputs": [],
      "name": "symbol",
      "outputs": [
        {
          "internalType": "string",
          "name": "",
          "type": "string"
        }
      ],
      "stateMutability": "view",
      "type": "function"
    },
    {
      "inputs": [
        {
          "internalType": "string",
          "name": "_url",
          "type": "string"
        }
      ],
      "name": "toggleReveal",
      "outputs": [],
      "stateMutability": "nonpayable",
      "type": "function"
    },
    {
      "inputs": [
        {
          "internalType": "uint256",
          "name": "_tokenId",
          "type": "uint256"
        }
      ],
      "name": "tokenURI",
      "outputs": [
        {
          "internalType": "string",
          "name": "",
          "type": "string"
        }
      ],
      "stateMutability": "view",
      "type": "function"
    },
    {
      "inputs": [
        {
          "internalType": "address",
          "name": "from",
          "type": "address"
        },
        {
          "internalType": "address",
          "name": "to",
          "type": "address"
        },
        {
          "internalType": "uint256",
          "name": "tokenId",
          "type": "uint256"
        }
      ],
      "name": "transferFrom",
      "outputs": [],
      "stateMutability": "nonpayable",
      "type": "function"
    },
    {
      "inputs": [
        {
          "internalType": "address",
          "name": "newOwner",
          "type": "address"
        }
      ],
      "name": "transferOwnership",
      "outputs": [],
      "stateMutability": "nonpayable",
      "type": "function"
    },
    {
      "inputs": [
        {
          "internalType": "bytes",
          "name": "_signature",
          "type": "bytes"
        },
        {
          "internalType": "uint256",
          "name": "tokensToMint",
          "type": "uint256"
        }
      ],
      "name": "whitelistMint",
      "outputs": [],
      "stateMutability": "payable",
      "type": "function"
    },
    {
      "inputs": [],
      "name": "withdraw",
      "outputs": [],
      "stateMutability": "payable",
      "type": "function"
    }
  ],
  "bytecode": "0x60806040526009600781905560036008819055905567016345785d8a0000600a55600e805463ffffffff1916905564173539b7b760d91b601155601380546001600160a01b031990811673103ece5b498b9c425295f58148aa5bdac75757081790915560148054821673ab8483f64d9c6d1ecf9b849ae677dd3315835cb2179055601580548216734b20993bc481177ec7e8f571cecae8a9e22c02db1790556016805482167378731d3ca6b7e34ac0f824c42a7cc18a495cabab1790556017805490911673617f2e2fd72fd9d5503197092ac168c91465e7f2179055348015620000e857600080fd5b50604080518082018252600c81526b464f4d4f2053415049454e5360a01b60208083019182528351808501909452600684526529a0a824a2a760d11b9084015281519192916200013b91600091620001ca565b50805162000151906001906020840190620001ca565b5050506200016e620001686200017460201b60201c565b62000178565b620002ad565b3390565b600680546001600160a01b038381166001600160a01b0319831681179093556040519116919082907f8be0079c531659141344cd1fd0a4f28419497f9722a3daafe3b4186f6b6457e090600090a35050565b828054620001d89062000270565b90600052602060002090601f016020900481019282620001fc576000855562000247565b82601f106200021757805160ff191683800117855562000247565b8280016001018555821562000247579182015b82811115620002475782518255916020019190600101906200022a565b506200025592915062000259565b5090565b5b808211156200025557600081556001016200025a565b6002810460018216806200028557607f821691505b60208210811415620002a757634e487b7160e01b600052602260045260246000fd5b50919050565b612fe680620002bd6000396000f3fe6080604052600436106102515760003560e01c806370a0823111610139578063aa46a400116100b6578063ce0d0d671161007a578063ce0d0d671461063e578063ce2a86f014610653578063e985e9c514610668578063f0292a0314610688578063f2fde38b1461069d578063f41fbd5e146106bd57610251565b8063aa46a400146105b4578063b88d4fde146105c9578063bc5f3a80146105e9578063c54e73e3146105fe578063c87b56dd1461061e57610251565b806395d89b41116100fd57806395d89b411461052c57806396215e9214610541578063a0712d6814610561578063a22cb46514610574578063a3540c101461059457610251565b806370a08231146104b8578063715018a6146104d85780637f205a74146104ed5780637f78636a146105025780638da5cb5b1461051757610251565b806332cb6b0c116101d257806349f2553a1161019657806349f2553a1461040e578063518302271461042e5780635aca1bb6146104435780635c975abb146104635780635d8c2efd146104785780636352211e1461049857610251565b806332cb6b0c1461039a5780633ccfd60b146103bc5780633eafffdb146103c457806342842e0e146103d957806346f13619146103f957610251565b8063095ea7b311610219578063095ea7b314610305578063109695231461032557806316c38b3c14610345578063185092691461036557806323b872dd1461037a57610251565b806301ffc9a71461025657806302fb0c5e1461028c57806306fdde03146102a1578063081812fc146102c357806308e3f868146102f0575b600080fd5b34801561026257600080fd5b506102766102713660046122b2565b6106d2565b604051610283919061259f565b60405180910390f35b34801561029857600080fd5b5061027661071a565b3480156102ad57600080fd5b506102b6610723565b60405161028391906125d1565b3480156102cf57600080fd5b506102e36102de3660046123cc565b6107b5565b6040516102839190612535565b6103036102fe36600461233c565b610801565b005b34801561031157600080fd5b5061030361032036600461226f565b61098b565b34801561033157600080fd5b50610303610340366004612386565b610a23565b34801561035157600080fd5b50610303610360366004612298565b610a9d565b34801561037157600080fd5b50610303610af8565b34801561038657600080fd5b50610303610395366004612192565b610b6d565b3480156103a657600080fd5b506103af610ba5565b60405161028391906125aa565b610303610bab565b3480156103d057600080fd5b50610276610daa565b3480156103e557600080fd5b506103036103f4366004612192565b610db8565b34801561040557600080fd5b506103af610dd3565b34801561041a57600080fd5b50610303610429366004612386565b610dd9565b34801561043a57600080fd5b50610276610e2f565b34801561044f57600080fd5b5061030361045e366004612298565b610e3f565b34801561046f57600080fd5b50610276610e91565b34801561048457600080fd5b50610303610493366004612386565b610ea0565b3480156104a457600080fd5b506102e36104b33660046123cc565b610f15565b3480156104c457600080fd5b506103af6104d336600461213f565b610f4a565b3480156104e457600080fd5b50610303610f8e565b3480156104f957600080fd5b506103af610fd9565b34801561050e57600080fd5b506102b6610fdf565b34801561052357600080fd5b506102e361106d565b34801561053857600080fd5b506102b661107c565b34801561054d57600080fd5b506103af61055c36600461213f565b61108b565b61030361056f3660046123cc565b6110e8565b34801561058057600080fd5b5061030361058f366004612246565b6112a7565b3480156105a057600080fd5b506102766105af3660046122ea565b6112b9565b3480156105c057600080fd5b506103af611346565b3480156105d557600080fd5b506103036105e43660046121cd565b61134c565b3480156105f557600080fd5b506102b6611385565b34801561060a57600080fd5b50610303610619366004612298565b611392565b34801561062a57600080fd5b506102b66106393660046123cc565b6113eb565b34801561064a57600080fd5b506103036114c7565b34801561065f57600080fd5b506103af61154a565b34801561067457600080fd5b50610276610683366004612160565b611550565b34801561069457600080fd5b506103af61157e565b3480156106a957600080fd5b506103036106b836600461213f565b611584565b3480156106c957600080fd5b506103af6115f2565b60006001600160e01b031982166380ac58cd60e01b148061070357506001600160e01b03198216635b5e139f60e01b145b806107125750610712826115f8565b90505b919050565b600e5460ff1681565b60606000805461073290612eee565b80601f016020809104026020016040519081016040528092919081815260200182805461075e90612eee565b80156107ab5780601f10610780576101008083540402835291602001916107ab565b820191906000526020600020905b81548152906001019060200180831161078e57829003601f168201915b5050505050905090565b60006107c082611611565b6107e55760405162461bcd60e51b81526004016107dc90612b8c565b60405180910390fd5b506000908152600460205260409020546001600160a01b031690565b600e5462010000900460ff161561081757600080fd5b600e54610100900460ff1661083e5760405162461bcd60e51b81526004016107dc90612d99565b32331461085d5760405162461bcd60e51b81526004016107dc90612e13565b6108688383336112b9565b6108845760405162461bcd60e51b81526004016107dc906126ea565b80600a546108929190612e8c565b34146108b05760405162461bcd60e51b81526004016107dc90612d62565b600854336000908152601260205260409020546108ce908390612e60565b11156108ec5760405162461bcd60e51b81526004016107dc90612cce565b600854336000908152601260205260409020541061091c5760405162461bcd60e51b81526004016107dc90612766565b336000908152601260205260408120805483929061093b908490612e60565b90915550600090505b818110156109855761095d3361095861162e565b61165d565b600b805490600061096d83612f29565b9190505550808061097d90612f29565b915050610944565b50505050565b600061099682610f15565b9050806001600160a01b0316836001600160a01b031614156109ca5760405162461bcd60e51b81526004016107dc90612c8d565b806001600160a01b03166109dc61173c565b6001600160a01b031614806109f857506109f88161068361173c565b610a145760405162461bcd60e51b81526004016107dc90612997565b610a1e8383611740565b505050565b610a2b61173c565b6001600160a01b0316610a3c61106d565b6001600160a01b031614610a625760405162461bcd60e51b81526004016107dc90612bd8565b600d5415610a825760405162461bcd60e51b81526004016107dc906128d2565b8051610a9590600f906020840190611fcf565b505043600d55565b610aa561173c565b6001600160a01b0316610ab661106d565b6001600160a01b031614610adc5760405162461bcd60e51b81526004016107dc90612bd8565b600e8054911515620100000262ff000019909216919091179055565b610b0061173c565b6001600160a01b0316610b1161106d565b6001600160a01b031614610b375760405162461bcd60e51b81526004016107dc90612bd8565b600c5415610b575760405162461bcd60e51b81526004016107dc90612dd0565b600754600d54610b68919040612f44565b600c55565b610b7e610b7861173c565b826117ae565b610b9a5760405162461bcd60e51b81526004016107dc90612d11565b610a1e838383611833565b60075481565b610bb361173c565b6001600160a01b0316610bc461106d565b6001600160a01b031614610bea5760405162461bcd60e51b81526004016107dc90612bd8565b601480546000916001600160a01b0390911690606490610c0b904790612e8c565b610c159190612e78565b604051610c2190612532565b60006040518083038185875af1925050503d8060008114610c5e576040519150601f19603f3d011682016040523d82523d6000602084013e610c63565b606091505b5050905080610c7157600080fd5b60006064610c80476021612e8c565b610c8a9190612e78565b6015546040519192506001600160a01b03169082156108fc029083906000818181858888f19350505050158015610cc5573d6000803e3d6000fd5b506016546040516001600160a01b039091169082156108fc029083906000818181858888f19350505050158015610d00573d6000803e3d6000fd5b506017546040516001600160a01b039091169082156108fc029083906000818181858888f19350505050158015610d3b573d6000803e3d6000fd5b506014546040516000916001600160a01b0316904790610d5a90612532565b60006040518083038185875af1925050503d8060008114610d97576040519150601f19603f3d011682016040523d82523d6000602084013e610d9c565b606091505b5050905080610a1e57600080fd5b600e54610100900460ff1681565b610a1e8383836040518060200160405280600081525061134c565b60115481565b610de161173c565b6001600160a01b0316610df261106d565b6001600160a01b031614610e185760405162461bcd60e51b81526004016107dc90612bd8565b8051610e2b906010906020840190611fcf565b5050565b600e546301000000900460ff1681565b610e4761173c565b6001600160a01b0316610e5861106d565b6001600160a01b031614610e7e5760405162461bcd60e51b81526004016107dc90612bd8565b600e805460ff1916911515919091179055565b600e5462010000900460ff1681565b610ea861173c565b6001600160a01b0316610eb961106d565b6001600160a01b031614610edf5760405162461bcd60e51b81526004016107dc90612bd8565b8051610ef2906010906020840190611fcf565b5050600e805463ff00000019811663010000009182900460ff1615909102179055565b6000818152600260205260408120546001600160a01b0316806107125760405162461bcd60e51b81526004016107dc90612a89565b60006001600160a01b038216610f725760405162461bcd60e51b81526004016107dc90612a3f565b506001600160a01b031660009081526003602052604090205490565b610f9661173c565b6001600160a01b0316610fa761106d565b6001600160a01b031614610fcd5760405162461bcd60e51b81526004016107dc90612bd8565b610fd76000611960565b565b600a5481565b60108054610fec90612eee565b80601f016020809104026020016040519081016040528092919081815260200182805461101890612eee565b80156110655780601f1061103a57610100808354040283529160200191611065565b820191906000526020600020905b81548152906001019060200180831161104857829003601f168201915b505050505081565b6006546001600160a01b031690565b60606001805461073290612eee565b600061109561173c565b6001600160a01b03166110a661106d565b6001600160a01b0316146110cc5760405162461bcd60e51b81526004016107dc90612bd8565b506001600160a01b031660009081526012602052604090205490565b600e5462010000900460ff16156110fe57600080fd5b600e5460ff166111205760405162461bcd60e51b81526004016107dc90612c56565b32331461113f5760405162461bcd60e51b81526004016107dc90612e13565b80600a5461114d9190612e8c565b341461116b5760405162461bcd60e51b81526004016107dc90612d62565b60095460075461117b9190612eab565b600b541061119b5760405162461bcd60e51b81526004016107dc906127c3565b6009546007546111ab9190612eab565b81600b546111b99190612e60565b11156111d75760405162461bcd60e51b81526004016107dc906129f4565b60085433600090815260126020526040902054106112075760405162461bcd60e51b81526004016107dc90612875565b60085433600090815260126020526040902054611225908390612e60565b11156112435760405162461bcd60e51b81526004016107dc90612ad2565b3360009081526012602052604081208054839290611262908490612e60565b90915550600090505b81811015610e2b5761127f3361095861162e565b600b805490600061128f83612f29565b9190505550808061129f90612f29565b91505061126b565b610e2b6112b261173c565b83836119b2565b601354604080516020601f86018190048102820181019092528481526000926001600160a01b031691611334919087908790819084018382808284376000920191909152505060075460405161132e935061131a9250889190602001612586565b604051602081830303815290604052611a55565b90611a90565b6001600160a01b031614949350505050565b600b5481565b61135d61135761173c565b836117ae565b6113795760405162461bcd60e51b81526004016107dc90612d11565b61098584848484611ab4565b600f8054610fec90612eee565b61139a61173c565b6001600160a01b03166113ab61106d565b6001600160a01b0316146113d15760405162461bcd60e51b81526004016107dc90612bd8565b600e80549115156101000261ff0019909216919091179055565b600e546060906301000000900460ff16611491576010805461140c90612eee565b80601f016020809104026020016040519081016040528092919081815260200182805461143890612eee565b80156114855780601f1061145a57610100808354040283529160200191611485565b820191906000526020600020905b81548152906001019060200180831161146857829003601f168201915b50505050509050610715565b601061149c83611ae7565b6011546040516020016114b19392919061242c565b6040516020818303038152906040529050919050565b6114cf61173c565b6001600160a01b03166114e061106d565b6001600160a01b0316146115065760405162461bcd60e51b81526004016107dc90612bd8565b60005b6009548110156115475761151f3361095861162e565b600b805490600061152f83612f29565b9190505550808061153f90612f29565b915050611509565b50565b60095481565b6001600160a01b03918216600090815260056020908152604080832093909416825291909152205460ff1690565b60085481565b61158c61173c565b6001600160a01b031661159d61106d565b6001600160a01b0316146115c35760405162461bcd60e51b81526004016107dc90612bd8565b6001600160a01b0381166115e95760405162461bcd60e51b81526004016107dc906126a4565b61154781611960565b600c5481565b6001600160e01b031981166301ffc9a760e01b14919050565b6000908152600260205260409020546001600160a01b0316151590565b6000600754600c54600b546116439190612e60565b61164d9190612f44565b611658906001612e60565b905090565b6001600160a01b0382166116835760405162461bcd60e51b81526004016107dc90612b57565b61168c81611611565b156116a95760405162461bcd60e51b81526004016107dc9061272f565b6116b560008383610a1e565b6001600160a01b03821660009081526003602052604081208054600192906116de908490612e60565b909155505060008181526002602052604080822080546001600160a01b0319166001600160a01b03861690811790915590518392907fddf252ad1be2c89b69c2b068fc378daa952ba7f163c4a11628f55a4df523b3ef908290a45050565b3390565b600081815260046020526040902080546001600160a01b0319166001600160a01b038416908117909155819061177582610f15565b6001600160a01b03167f8c5be1e5ebec7d5bd14f71427d1e84f3dd0314c0f7b2291e5b200ac8c7c3b92560405160405180910390a45050565b60006117b982611611565b6117d55760405162461bcd60e51b81526004016107dc9061294b565b60006117e083610f15565b9050806001600160a01b0316846001600160a01b0316148061181b5750836001600160a01b0316611810846107b5565b6001600160a01b0316145b8061182b575061182b8185611550565b949350505050565b826001600160a01b031661184682610f15565b6001600160a01b03161461186c5760405162461bcd60e51b81526004016107dc90612c0d565b6001600160a01b0382166118925760405162461bcd60e51b81526004016107dc906127fa565b61189d838383610a1e565b6118a8600082611740565b6001600160a01b03831660009081526003602052604081208054600192906118d1908490612eab565b90915550506001600160a01b03821660009081526003602052604081208054600192906118ff908490612e60565b909155505060008181526002602052604080822080546001600160a01b0319166001600160a01b0386811691821790925591518493918716917fddf252ad1be2c89b69c2b068fc378daa952ba7f163c4a11628f55a4df523b3ef91a4505050565b600680546001600160a01b038381166001600160a01b0319831681179093556040519116919082907f8be0079c531659141344cd1fd0a4f28419497f9722a3daafe3b4186f6b6457e090600090a35050565b816001600160a01b0316836001600160a01b031614156119e45760405162461bcd60e51b81526004016107dc9061283e565b6001600160a01b0383811660008181526005602090815260408083209487168084529490915290819020805460ff1916851515179055517f17307eab39ab6107e8899845ad3d59bd9653f200f220920489ca2b5937696c3190611a4890859061259f565b60405180910390a3505050565b6000611a618251611ae7565b82604051602001611a739291906124d7565b604051602081830303815290604052805190602001209050919050565b6000806000611a9f8585611c02565b91509150611aac81611c72565b509392505050565b611abf848484611833565b611acb84848484611d9f565b6109855760405162461bcd60e51b81526004016107dc90612652565b606081611b0c57506040805180820190915260018152600360fc1b6020820152610715565b8160005b8115611b365780611b2081612f29565b9150611b2f9050600a83612e78565b9150611b10565b60008167ffffffffffffffff811115611b5f57634e487b7160e01b600052604160045260246000fd5b6040519080825280601f01601f191660200182016040528015611b89576020820181803683370190505b5090505b841561182b57611b9e600183612eab565b9150611bab600a86612f44565b611bb6906030612e60565b60f81b818381518110611bd957634e487b7160e01b600052603260045260246000fd5b60200101906001600160f81b031916908160001a905350611bfb600a86612e78565b9450611b8d565b600080825160411415611c395760208301516040840151606085015160001a611c2d87828585611eba565b94509450505050611c6b565b825160401415611c635760208301516040840151611c58868383611f9a565b935093505050611c6b565b506000905060025b9250929050565b6000816004811115611c9457634e487b7160e01b600052602160045260246000fd5b1415611c9f57611547565b6001816004811115611cc157634e487b7160e01b600052602160045260246000fd5b1415611cdf5760405162461bcd60e51b81526004016107dc906125e4565b6002816004811115611d0157634e487b7160e01b600052602160045260246000fd5b1415611d1f5760405162461bcd60e51b81526004016107dc9061261b565b6003816004811115611d4157634e487b7160e01b600052602160045260246000fd5b1415611d5f5760405162461bcd60e51b81526004016107dc90612909565b6004816004811115611d8157634e487b7160e01b600052602160045260246000fd5b14156115475760405162461bcd60e51b81526004016107dc90612b15565b6000611db3846001600160a01b0316611fc9565b15611eaf57836001600160a01b031663150b7a02611dcf61173c565b8786866040518563ffffffff1660e01b8152600401611df19493929190612549565b602060405180830381600087803b158015611e0b57600080fd5b505af1925050508015611e3b575060408051601f3d908101601f19168201909252611e38918101906122ce565b60015b611e95573d808015611e69576040519150601f19603f3d011682016040523d82523d6000602084013e611e6e565b606091505b508051611e8d5760405162461bcd60e51b81526004016107dc90612652565b805181602001fd5b6001600160e01b031916630a85bd0160e11b14905061182b565b506001949350505050565b6000807f7fffffffffffffffffffffffffffffff5d576e7357a4501ddfe92f46681b20a0831115611ef15750600090506003611f91565b8460ff16601b14158015611f0957508460ff16601c14155b15611f1a5750600090506004611f91565b600060018787878760405160008152602001604052604051611f3f94939291906125b3565b6020604051602081039080840390855afa158015611f61573d6000803e3d6000fd5b5050604051601f1901519150506001600160a01b038116611f8a57600060019250925050611f91565b9150600090505b94509492505050565b6000806001600160ff1b03831660ff84901c601b01611fbb87828885611eba565b935093505050935093915050565b3b151590565b828054611fdb90612eee565b90600052602060002090601f016020900481019282611ffd5760008555612043565b82601f1061201657805160ff1916838001178555612043565b82800160010185558215612043579182015b82811115612043578251825591602001919060010190612028565b5061204f929150612053565b5090565b5b8082111561204f5760008155600101612054565b600067ffffffffffffffff8084111561208357612083612f84565b604051601f8501601f1916810160200182811182821017156120a7576120a7612f84565b6040528481529150818385018610156120bf57600080fd5b8484602083013760006020868301015250509392505050565b80356001600160a01b038116811461071557600080fd5b8035801515811461071557600080fd5b60008083601f840112612110578182fd5b50813567ffffffffffffffff811115612127578182fd5b602083019150836020828501011115611c6b57600080fd5b600060208284031215612150578081fd5b612159826120d8565b9392505050565b60008060408385031215612172578081fd5b61217b836120d8565b9150612189602084016120d8565b90509250929050565b6000806000606084860312156121a6578081fd5b6121af846120d8565b92506121bd602085016120d8565b9150604084013590509250925092565b600080600080608085870312156121e2578081fd5b6121eb856120d8565b93506121f9602086016120d8565b925060408501359150606085013567ffffffffffffffff81111561221b578182fd5b8501601f8101871361222b578182fd5b61223a87823560208401612068565b91505092959194509250565b60008060408385031215612258578182fd5b612261836120d8565b9150612189602084016120ef565b60008060408385031215612281578182fd5b61228a836120d8565b946020939093013593505050565b6000602082840312156122a9578081fd5b612159826120ef565b6000602082840312156122c3578081fd5b813561215981612f9a565b6000602082840312156122df578081fd5b815161215981612f9a565b6000806000604084860312156122fe578283fd5b833567ffffffffffffffff811115612314578384fd5b612320868287016120ff565b90945092506123339050602085016120d8565b90509250925092565b600080600060408486031215612350578283fd5b833567ffffffffffffffff811115612366578384fd5b612372868287016120ff565b909790965060209590950135949350505050565b600060208284031215612397578081fd5b813567ffffffffffffffff8111156123ad578182fd5b8201601f810184136123bd578182fd5b61182b84823560208401612068565b6000602082840312156123dd578081fd5b5035919050565b600081518084526123fc816020860160208601612ec2565b601f01601f19169290920160200192915050565b60008151612422818560208601612ec2565b9290920192915050565b835460009081906002810460018083168061244857607f831692505b602080841082141561246857634e487b7160e01b87526022600452602487fd5b81801561247c576001811461248d576124b9565b60ff198616895284890196506124b9565b6124968c612e54565b885b868110156124b15781548b820152908501908301612498565b505084890196505b506124c4868b612410565b9889529097019998505050505050505050565b60007f19457468657265756d205369676e6564204d6573736167653a0a0000000000008252835161250f81601a850160208801612ec2565b83519083019061252681601a840160208801612ec2565b01601a01949350505050565b90565b6001600160a01b0391909116815260200190565b6001600160a01b038581168252841660208201526040810183905260806060820181905260009061257c908301846123e4565b9695505050505050565b6001600160a01b03929092168252602082015260400190565b901515815260200190565b90815260200190565b93845260ff9290921660208401526040830152606082015260800190565b60006020825261215960208301846123e4565b60208082526018908201527f45434453413a20696e76616c6964207369676e61747572650000000000000000604082015260600190565b6020808252601f908201527f45434453413a20696e76616c6964207369676e6174757265206c656e67746800604082015260600190565b60208082526032908201527f4552433732313a207472616e7366657220746f206e6f6e20455243373231526560408201527131b2b4bb32b91034b6b83632b6b2b73a32b960711b606082015260800190565b60208082526026908201527f4f776e61626c653a206e6577206f776e657220697320746865207a65726f206160408201526564647265737360d01b606082015260800190565b60208082526025908201527f4d757374206265206f6e2077686974656c69737420746f206d696e742061207360408201526430b834b2b760d91b606082015260800190565b6020808252601c908201527f4552433732313a20746f6b656e20616c7265616479206d696e74656400000000604082015260600190565b60208082526037908201527f596f752063616e206f6e6c79206d696e7420757020746f20332053617069656e60408201527f732066726f6d207468652073616d652061646472657373000000000000000000606082015260800190565b6020808252601c908201527f416c6c2053617069656e732068617665206265656e206d696e74656400000000604082015260600190565b60208082526024908201527f4552433732313a207472616e7366657220746f20746865207a65726f206164646040820152637265737360e01b606082015260800190565b60208082526019908201527f4552433732313a20617070726f766520746f2063616c6c657200000000000000604082015260600190565b60208082526039908201527f596f752063616e6e6f74206d696e74206d6f7265207468616e2033207361706960408201527f656e732066726f6d207468652073616d65206164647265737300000000000000606082015260800190565b6020808252601f908201527f50726f76656e616e63652068617320616c7265616479206265656e2073657400604082015260600190565b60208082526022908201527f45434453413a20696e76616c6964207369676e6174757265202773272076616c604082015261756560f01b606082015260800190565b6020808252602c908201527f4552433732313a206f70657261746f7220717565727920666f72206e6f6e657860408201526b34b9ba32b73a103a37b5b2b760a11b606082015260800190565b60208082526038908201527f4552433732313a20617070726f76652063616c6c6572206973206e6f74206f7760408201527f6e6572206e6f7220617070726f76656420666f7220616c6c0000000000000000606082015260800190565b6020808252602b908201527f507572636861736520776f756c6420657863656564206d617820737570706c7960408201526a206f662073617069656e7360a81b606082015260800190565b6020808252602a908201527f4552433732313a2062616c616e636520717565727920666f7220746865207a65604082015269726f206164647265737360b01b606082015260800190565b60208082526029908201527f4552433732313a206f776e657220717565727920666f72206e6f6e657869737460408201526832b73a103a37b5b2b760b91b606082015260800190565b60208082526023908201527f596f752063616e6e6f74206d696e74206d6f7265207468616e20332073617069604082015262656e7360e81b606082015260800190565b60208082526022908201527f45434453413a20696e76616c6964207369676e6174757265202776272076616c604082015261756560f01b606082015260800190565b6020808252818101527f4552433732313a206d696e7420746f20746865207a65726f2061646472657373604082015260600190565b6020808252602c908201527f4552433732313a20617070726f76656420717565727920666f72206e6f6e657860408201526b34b9ba32b73a103a37b5b2b760a11b606082015260800190565b6020808252818101527f4f776e61626c653a2063616c6c6572206973206e6f7420746865206f776e6572604082015260600190565b60208082526029908201527f4552433732313a207472616e73666572206f6620746f6b656e2074686174206960408201526839903737ba1037bbb760b91b606082015260800190565b6020808252601a908201527f53616c652069732063757272656e746c7920696e616374697665000000000000604082015260600190565b60208082526021908201527f4552433732313a20617070726f76616c20746f2063757272656e74206f776e656040820152603960f91b606082015260800190565b60208082526023908201527f596f752063616e6e6f74206d696e74206d6f7265207468616e20332053617069604082015262656e7360e81b606082015260800190565b60208082526031908201527f4552433732313a207472616e736665722063616c6c6572206973206e6f74206f6040820152701ddb995c881b9bdc88185c1c1c9bdd9959607a1b606082015260800190565b60208082526019908201527f496e636f727265637420616d6f756e74206f6620657468657200000000000000604082015260600190565b6020808252601d908201527f50726573616c652069732063757272656e746c7920696e616374697665000000604082015260600190565b60208082526023908201527f5374617274696e6720696e6465782068617320616c7265616479206265656e206040820152621cd95d60ea1b606082015260800190565b60208082526021908201527f436f6e74726163747320617265206e6f7420616c6c6f77656420746f206d696e6040820152601d60fa1b606082015260800190565b60009081526020902090565b60008219821115612e7357612e73612f58565b500190565b600082612e8757612e87612f6e565b500490565b6000816000190483118215151615612ea657612ea6612f58565b500290565b600082821015612ebd57612ebd612f58565b500390565b60005b83811015612edd578181015183820152602001612ec5565b838111156109855750506000910152565b600281046001821680612f0257607f821691505b60208210811415612f2357634e487b7160e01b600052602260045260246000fd5b50919050565b6000600019821415612f3d57612f3d612f58565b5060010190565b600082612f5357612f53612f6e565b500690565b634e487b7160e01b600052601160045260246000fd5b634e487b7160e01b600052601260045260246000fd5b634e487b7160e01b600052604160045260246000fd5b6001600160e01b03198116811461154757600080fdfea26469706673582212205047b6a35f246e0265a16cf3ff8513db25d94f58f722372d47903cc41c6184da64736f6c63430008000033",
  "linkReferences": {},
  "deployedLinkReferences": {}
}