{
  "_format": "hh-sol-artifact-1",
  "contractName": "Sapien",
  "sourceName": "contracts/Sapien.sol",
  "abi": [
    {
      "inputs": [],
      "stateMutability": "nonpayable",
      "type": "constructor"
    },
    {
      "anonymous": false,
      "inputs": [
        {
          "indexed": true,
          "internalType": "address",
          "name": "owner",
          "type": "address"
        },
        {
          "indexed": true,
          "internalType": "address",
          "name": "approved",
          "type": "address"
        },
        {
          "indexed": true,
          "internalType": "uint256",
          "name": "tokenId",
          "type": "uint256"
        }
      ],
      "name": "Approval",
      "type": "event"
    },
    {
      "anonymous": false,
      "inputs": [
        {
          "indexed": true,
          "internalType": "address",
          "name": "owner",
          "type": "address"
        },
        {
          "indexed": true,
          "internalType": "address",
          "name": "operator",
          "type": "address"
        },
        {
          "indexed": false,
          "internalType": "bool",
          "name": "approved",
          "type": "bool"
        }
      ],
      "name": "ApprovalForAll",
      "type": "event"
    },
    {
      "anonymous": false,
      "inputs": [
        {
          "indexed": true,
          "internalType": "address",
          "name": "previousOwner",
          "type": "address"
        },
        {
          "indexed": true,
          "internalType": "address",
          "name": "newOwner",
          "type": "address"
        }
      ],
      "name": "OwnershipTransferred",
      "type": "event"
    },
    {
      "anonymous": false,
      "inputs": [
        {
          "indexed": true,
          "internalType": "address",
          "name": "from",
          "type": "address"
        },
        {
          "indexed": true,
          "internalType": "address",
          "name": "to",
          "type": "address"
        },
        {
          "indexed": true,
          "internalType": "uint256",
          "name": "tokenId",
          "type": "uint256"
        }
      ],
      "name": "Transfer",
      "type": "event"
    },
    {
      "inputs": [],
      "name": "BASE_URL",
      "outputs": [
        {
          "internalType": "string",
          "name": "",
          "type": "string"
        }
      ],
      "stateMutability": "view",
      "type": "function"
    },
    {
      "inputs": [],
      "name": "EXTENSION",
      "outputs": [
        {
          "internalType": "string",
          "name": "",
          "type": "string"
        }
      ],
      "stateMutability": "view",
      "type": "function"
    },
    {
      "inputs": [],
      "name": "FSNFT_PROVENANCE",
      "outputs": [
        {
          "internalType": "string",
          "name": "",
          "type": "string"
        }
      ],
      "stateMutability": "view",
      "type": "function"
    },
    {
      "inputs": [],
      "name": "MAX_MINT",
      "outputs": [
        {
          "internalType": "uint256",
          "name": "",
          "type": "uint256"
        }
      ],
      "stateMutability": "view",
      "type": "function"
    },
    {
      "inputs": [],
      "name": "MAX_SUPPLY",
      "outputs": [
        {
          "internalType": "uint256",
          "name": "",
          "type": "uint256"
        }
      ],
      "stateMutability": "view",
      "type": "function"
    },
    {
      "inputs": [],
      "name": "PLACEHOLDER",
      "outputs": [
        {
          "internalType": "string",
          "name": "",
          "type": "string"
        }
      ],
      "stateMutability": "view",
      "type": "function"
    },
    {
      "inputs": [],
      "name": "RESERVED",
      "outputs": [
        {
          "internalType": "uint256",
          "name": "",
          "type": "uint256"
        }
      ],
      "stateMutability": "view",
      "type": "function"
    },
    {
      "inputs": [],
      "name": "_tokenIds",
      "outputs": [
        {
          "internalType": "uint256",
          "name": "",
          "type": "uint256"
        }
      ],
      "stateMutability": "view",
      "type": "function"
    },
    {
      "inputs": [
        {
          "internalType": "address",
          "name": "to",
          "type": "address"
        },
        {
          "internalType": "uint256",
          "name": "tokenId",
          "type": "uint256"
        }
      ],
      "name": "approve",
      "outputs": [],
      "stateMutability": "nonpayable",
      "type": "function"
    },
    {
      "inputs": [
        {
          "internalType": "address",
          "name": "owner",
          "type": "address"
        }
      ],
      "name": "balanceOf",
      "outputs": [
        {
          "internalType": "uint256",
          "name": "",
          "type": "uint256"
        }
      ],
      "stateMutability": "view",
      "type": "function"
    },
    {
      "inputs": [
        {
          "internalType": "uint256",
          "name": "tokenId",
          "type": "uint256"
        }
      ],
      "name": "getApproved",
      "outputs": [
        {
          "internalType": "address",
          "name": "",
          "type": "address"
        }
      ],
      "stateMutability": "view",
      "type": "function"
    },
    {
      "inputs": [],
      "name": "getPresale",
      "outputs": [
        {
          "internalType": "bool",
          "name": "",
          "type": "bool"
        }
      ],
      "stateMutability": "view",
      "type": "function"
    },
    {
      "inputs": [],
      "name": "getProvenanceHash",
      "outputs": [
        {
          "internalType": "string",
          "name": "",
          "type": "string"
        }
      ],
      "stateMutability": "view",
      "type": "function"
    },
    {
      "inputs": [],
      "name": "getPublicSale",
      "outputs": [
        {
          "internalType": "bool",
          "name": "",
          "type": "bool"
        }
      ],
      "stateMutability": "view",
      "type": "function"
    },
    {
      "inputs": [],
      "name": "getStartingIdx",
      "outputs": [
        {
          "internalType": "uint256",
          "name": "",
          "type": "uint256"
        }
      ],
      "stateMutability": "view",
      "type": "function"
    },
    {
      "inputs": [
        {
          "internalType": "address",
          "name": "owner",
          "type": "address"
        },
        {
          "internalType": "address",
          "name": "operator",
          "type": "address"
        }
      ],
      "name": "isApprovedForAll",
      "outputs": [
        {
          "internalType": "bool",
          "name": "",
          "type": "bool"
        }
      ],
      "stateMutability": "view",
      "type": "function"
    },
    {
      "inputs": [
        {
          "internalType": "bytes",
          "name": "_signature",
          "type": "bytes"
        },
        {
          "internalType": "address",
          "name": "_user",
          "type": "address"
        }
      ],
      "name": "isWhitelisted",
      "outputs": [
        {
          "internalType": "bool",
          "name": "",
          "type": "bool"
        }
      ],
      "stateMutability": "view",
      "type": "function"
    },
    {
      "inputs": [
        {
          "internalType": "uint256",
          "name": "_numTokens",
          "type": "uint256"
        }
      ],
      "name": "mint",
      "outputs": [],
      "stateMutability": "payable",
      "type": "function"
    },
    {
      "inputs": [],
      "name": "name",
      "outputs": [
        {
          "internalType": "string",
          "name": "",
          "type": "string"
        }
      ],
      "stateMutability": "view",
      "type": "function"
    },
    {
      "inputs": [],
      "name": "owner",
      "outputs": [
        {
          "internalType": "address",
          "name": "",
          "type": "address"
        }
      ],
      "stateMutability": "view",
      "type": "function"
    },
    {
      "inputs": [
        {
          "internalType": "uint256",
          "name": "tokenId",
          "type": "uint256"
        }
      ],
      "name": "ownerOf",
      "outputs": [
        {
          "internalType": "address",
          "name": "",
          "type": "address"
        }
      ],
      "stateMutability": "view",
      "type": "function"
    },
    {
      "inputs": [],
      "name": "paused",
      "outputs": [
        {
          "internalType": "bool",
          "name": "",
          "type": "bool"
        }
      ],
      "stateMutability": "view",
      "type": "function"
    },
    {
      "inputs": [],
      "name": "renounceOwnership",
      "outputs": [],
      "stateMutability": "nonpayable",
      "type": "function"
    },
    {
      "inputs": [
        {
          "internalType": "bytes",
          "name": "_signature",
          "type": "bytes"
        },
        {
          "internalType": "uint256",
          "name": "_numTokens",
          "type": "uint256"
        }
      ],
      "name": "reserveNFT",
      "outputs": [],
      "stateMutability": "payable",
      "type": "function"
    },
    {
      "inputs": [],
      "name": "revealed",
      "outputs": [
        {
          "internalType": "bool",
          "name": "",
          "type": "bool"
        }
      ],
      "stateMutability": "view",
      "type": "function"
    },
    {
      "inputs": [
        {
          "internalType": "address",
          "name": "from",
          "type": "address"
        },
        {
          "internalType": "address",
          "name": "to",
          "type": "address"
        },
        {
          "internalType": "uint256",
          "name": "tokenId",
          "type": "uint256"
        }
      ],
      "name": "safeTransferFrom",
      "outputs": [],
      "stateMutability": "nonpayable",
      "type": "function"
    },
    {
      "inputs": [
        {
          "internalType": "address",
          "name": "from",
          "type": "address"
        },
        {
          "internalType": "address",
          "name": "to",
          "type": "address"
        },
        {
          "internalType": "uint256",
          "name": "tokenId",
          "type": "uint256"
        },
        {
          "internalType": "bytes",
          "name": "_data",
          "type": "bytes"
        }
      ],
      "name": "safeTransferFrom",
      "outputs": [],
      "stateMutability": "nonpayable",
      "type": "function"
    },
    {
      "inputs": [],
      "name": "sapienReserves",
      "outputs": [],
      "stateMutability": "nonpayable",
      "type": "function"
    },
    {
      "inputs": [
        {
          "internalType": "address",
          "name": "operator",
          "type": "address"
        },
        {
          "internalType": "bool",
          "name": "approved",
          "type": "bool"
        }
      ],
      "name": "setApprovalForAll",
      "outputs": [],
      "stateMutability": "nonpayable",
      "type": "function"
    },
    {
      "inputs": [
        {
          "internalType": "bool",
          "name": "_state",
          "type": "bool"
        }
      ],
      "name": "setPaused",
      "outputs": [],
      "stateMutability": "nonpayable",
      "type": "function"
    },
    {
      "inputs": [
        {
          "internalType": "bool",
          "name": "_active",
          "type": "bool"
        }
      ],
      "name": "setPresale",
      "outputs": [],
      "stateMutability": "nonpayable",
      "type": "function"
    },
    {
      "inputs": [
        {
          "internalType": "string",
          "name": "_provenance",
          "type": "string"
        }
      ],
      "name": "setProvenanceHash",
      "outputs": [],
      "stateMutability": "nonpayable",
      "type": "function"
    },
    {
      "inputs": [
        {
          "internalType": "bool",
          "name": "_active",
          "type": "bool"
        }
      ],
      "name": "setPublicSale",
      "outputs": [],
      "stateMutability": "nonpayable",
      "type": "function"
    },
    {
      "inputs": [
        {
          "internalType": "bool",
          "name": "_reveal",
          "type": "bool"
        }
      ],
      "name": "setReveal",
      "outputs": [],
      "stateMutability": "nonpayable",
      "type": "function"
    },
    {
      "inputs": [],
      "name": "starting_idx",
      "outputs": [
        {
          "internalType": "uint256",
          "name": "",
          "type": "uint256"
        }
      ],
      "stateMutability": "view",
      "type": "function"
    },
    {
      "inputs": [],
      "name": "starting_idx_block",
      "outputs": [
        {
          "internalType": "uint256",
          "name": "",
          "type": "uint256"
        }
      ],
      "stateMutability": "view",
      "type": "function"
    },
    {
      "inputs": [
        {
          "internalType": "bytes4",
          "name": "interfaceId",
          "type": "bytes4"
        }
      ],
      "name": "supportsInterface",
      "outputs": [
        {
          "internalType": "bool",
          "name": "",
          "type": "bool"
        }
      ],
      "stateMutability": "view",
      "type": "function"
    },
    {
      "inputs": [],
      "name": "symbol",
      "outputs": [
        {
          "internalType": "string",
          "name": "",
          "type": "string"
        }
      ],
      "stateMutability": "view",
      "type": "function"
    },
    {
      "inputs": [
        {
          "internalType": "uint256",
          "name": "index",
          "type": "uint256"
        }
      ],
      "name": "tokenByIndex",
      "outputs": [
        {
          "internalType": "uint256",
          "name": "",
          "type": "uint256"
        }
      ],
      "stateMutability": "view",
      "type": "function"
    },
    {
      "inputs": [
        {
          "internalType": "address",
          "name": "owner",
          "type": "address"
        },
        {
          "internalType": "uint256",
          "name": "index",
          "type": "uint256"
        }
      ],
      "name": "tokenOfOwnerByIndex",
      "outputs": [
        {
          "internalType": "uint256",
          "name": "",
          "type": "uint256"
        }
      ],
      "stateMutability": "view",
      "type": "function"
    },
    {
      "inputs": [
        {
          "internalType": "uint256",
          "name": "_tokenId",
          "type": "uint256"
        }
      ],
      "name": "tokenURI",
      "outputs": [
        {
          "internalType": "string",
          "name": "",
          "type": "string"
        }
      ],
      "stateMutability": "view",
      "type": "function"
    },
    {
      "inputs": [],
      "name": "totalSupply",
      "outputs": [
        {
          "internalType": "uint256",
          "name": "",
          "type": "uint256"
        }
      ],
      "stateMutability": "view",
      "type": "function"
    },
    {
      "inputs": [
        {
          "internalType": "address",
          "name": "from",
          "type": "address"
        },
        {
          "internalType": "address",
          "name": "to",
          "type": "address"
        },
        {
          "internalType": "uint256",
          "name": "tokenId",
          "type": "uint256"
        }
      ],
      "name": "transferFrom",
      "outputs": [],
      "stateMutability": "nonpayable",
      "type": "function"
    },
    {
      "inputs": [
        {
          "internalType": "address",
          "name": "newOwner",
          "type": "address"
        }
      ],
      "name": "transferOwnership",
      "outputs": [],
      "stateMutability": "nonpayable",
      "type": "function"
    },
    {
      "inputs": [],
      "name": "whitelistMint",
      "outputs": [],
      "stateMutability": "payable",
      "type": "function"
    },
    {
      "inputs": [],
      "name": "withdraw",
      "outputs": [],
      "stateMutability": "payable",
      "type": "function"
    }
  ],
  "bytecode": "0x608060405261157c600b556003600c556032600d5567016345785d8a0000600e556000601260006101000a81548160ff0219169083151502179055506000601260016101000a81548160ff0219169083151502179055506000601260026101000a81548160ff0219169083151502179055506000601260036101000a81548160ff0219169083151502179055506040518060200160405280600081525060139080519060200190620000b3929190620004b1565b50604051806060016040528060368152602001620065356036913960149080519060200190620000e5929190620004b1565b506040518060600160405280603581526020016200656b603591396015908051906020019062000117929190620004b1565b506040518060400160405280600581526020017f2e6a736f6e0000000000000000000000000000000000000000000000000000008152506016908051906020019062000165929190620004b1565b5073103ece5b498b9c425295f58148aa5bdac7575708601960006101000a81548173ffffffffffffffffffffffffffffffffffffffff021916908373ffffffffffffffffffffffffffffffffffffffff16021790555073ab8483f64d9c6d1ecf9b849ae677dd3315835cb2601a60006101000a81548173ffffffffffffffffffffffffffffffffffffffff021916908373ffffffffffffffffffffffffffffffffffffffff160217905550734b20993bc481177ec7e8f571cecae8a9e22c02db601b60006101000a81548173ffffffffffffffffffffffffffffffffffffffff021916908373ffffffffffffffffffffffffffffffffffffffff1602179055507378731d3ca6b7e34ac0f824c42a7cc18a495cabab601c60006101000a81548173ffffffffffffffffffffffffffffffffffffffff021916908373ffffffffffffffffffffffffffffffffffffffff16021790555073617f2e2fd72fd9d5503197092ac168c91465e7f2601d60006101000a81548173ffffffffffffffffffffffffffffffffffffffff021916908373ffffffffffffffffffffffffffffffffffffffff1602179055503480156200031c57600080fd5b506040518060400160405280600c81526020017f464f4d4f2053415049454e5300000000000000000000000000000000000000008152506040518060400160405280600681526020017f53415049454e00000000000000000000000000000000000000000000000000008152508160009080519060200190620003a1929190620004b1565b508060019080519060200190620003ba929190620004b1565b505050620003dd620003d1620003e360201b60201c565b620003eb60201b60201c565b620005c6565b600033905090565b6000600a60009054906101000a900473ffffffffffffffffffffffffffffffffffffffff16905081600a60006101000a81548173ffffffffffffffffffffffffffffffffffffffff021916908373ffffffffffffffffffffffffffffffffffffffff1602179055508173ffffffffffffffffffffffffffffffffffffffff168173ffffffffffffffffffffffffffffffffffffffff167f8be0079c531659141344cd1fd0a4f28419497f9722a3daafe3b4186f6b6457e060405160405180910390a35050565b828054620004bf9062000561565b90600052602060002090601f016020900481019282620004e357600085556200052f565b82601f10620004fe57805160ff19168380011785556200052f565b828001600101855582156200052f579182015b828111156200052e57825182559160200191906001019062000511565b5b5090506200053e919062000542565b5090565b5b808211156200055d57600081600090555060010162000543565b5090565b600060028204905060018216806200057a57607f821691505b6020821081141562000591576200059062000597565b5b50919050565b7f4e487b7100000000000000000000000000000000000000000000000000000000600052602260045260246000fd5b615f5f80620005d66000396000f3fe60806040526004361061027d5760003560e01c8063715018a61161014f578063aee99e52116100c1578063c8965ee51161007a578063c8965ee51461092e578063d75dd26814610959578063e985e9c514610984578063f0292a03146109c1578063f2fde38b146109ec578063f41fbd5e14610a155761027d565b8063aee99e521461082d578063b88d4fde14610858578063bc5f3a8014610881578063c54e73e3146108ac578063c69ea206146108d5578063c87b56dd146108f15761027d565b806395d89b411161011357806395d89b411461072a578063a0712d6814610755578063a22cb46514610771578063a3540c101461079a578063aa46a400146107d7578063aa592f25146108025761027d565b8063715018a6146106885780637f78636a1461069f578063804f43cd146106ca5780638da5cb5b146106d457806394b3fbc2146106ff5761027d565b806332cb6b0c116101f35780634f6ccce7116101ac5780634f6ccce714610552578063518302271461058f5780635aca1bb6146105ba5780635c975abb146105e35780636352211e1461060e57806370a082311461064b5761027d565b806332cb6b0c146104735780633867f5a71461049e5780633ccfd60b146104c957806342842e0e146104d357806346f13619146104fc5780634bf53055146105275761027d565b806316c38b3c1161024557806316c38b3c1461037957806318160ddd146103a25780631f2e299c146103cd57806323b872dd146103e45780632a3f300c1461040d5780632f745c59146104365761027d565b806301ffc9a71461028257806306fdde03146102bf578063081812fc146102ea578063095ea7b3146103275780631096952314610350575b600080fd5b34801561028e57600080fd5b506102a960048036038101906102a49190614528565b610a40565b6040516102b691906155a1565b60405180910390f35b3480156102cb57600080fd5b506102d4610aba565b6040516102e19190615601565b60405180910390f35b3480156102f657600080fd5b50610311600480360381019061030c919061466b565b610b4c565b60405161031e9190615511565b60405180910390f35b34801561033357600080fd5b5061034e600480360381019061034991906144c3565b610bd1565b005b34801561035c57600080fd5b506103776004803603810190610372919061462a565b610ce9565b005b34801561038557600080fd5b506103a0600480360381019061039b91906144ff565b610d86565b005b3480156103ae57600080fd5b506103b7610e1f565b6040516103c49190615a63565b60405180910390f35b3480156103d957600080fd5b506103e2610e2c565b005b3480156103f057600080fd5b5061040b600480360381019061040691906143bd565b610f1b565b005b34801561041957600080fd5b50610434600480360381019061042f91906144ff565b610f7b565b005b34801561044257600080fd5b5061045d600480360381019061045891906144c3565b611014565b60405161046a9190615a63565b60405180910390f35b34801561047f57600080fd5b506104886110b9565b6040516104959190615a63565b60405180910390f35b3480156104aa57600080fd5b506104b36110bf565b6040516104c09190615601565b60405180910390f35b6104d161114d565b005b3480156104df57600080fd5b506104fa60048036038101906104f591906143bd565b61146e565b005b34801561050857600080fd5b5061051161148e565b60405161051e9190615601565b60405180910390f35b34801561053357600080fd5b5061053c61151c565b60405161054991906155a1565b60405180910390f35b34801561055e57600080fd5b506105796004803603810190610574919061466b565b611533565b6040516105869190615a63565b60405180910390f35b34801561059b57600080fd5b506105a46115ca565b6040516105b191906155a1565b60405180910390f35b3480156105c657600080fd5b506105e160048036038101906105dc91906144ff565b6115dd565b005b3480156105ef57600080fd5b506105f8611676565b60405161060591906155a1565b60405180910390f35b34801561061a57600080fd5b506106356004803603810190610630919061466b565b611689565b6040516106429190615511565b60405180910390f35b34801561065757600080fd5b50610672600480360381019061066d9190614358565b61173b565b60405161067f9190615a63565b60405180910390f35b34801561069457600080fd5b5061069d6117f3565b005b3480156106ab57600080fd5b506106b461187b565b6040516106c19190615601565b60405180910390f35b6106d2611909565b005b3480156106e057600080fd5b506106e9611bb5565b6040516106f69190615511565b60405180910390f35b34801561070b57600080fd5b50610714611bdf565b6040516107219190615601565b60405180910390f35b34801561073657600080fd5b5061073f611c71565b60405161074c9190615601565b60405180910390f35b61076f600480360381019061076a919061466b565b611d03565b005b34801561077d57600080fd5b5061079860048036038101906107939190614487565b6120b5565b005b3480156107a657600080fd5b506107c160048036038101906107bc919061457a565b6120cb565b6040516107ce91906155a1565b60405180910390f35b3480156107e357600080fd5b506107ec6121a8565b6040516107f99190615a63565b60405180910390f35b34801561080e57600080fd5b506108176121ae565b6040516108249190615a63565b60405180910390f35b34801561083957600080fd5b506108426121b4565b60405161084f91906155a1565b60405180910390f35b34801561086457600080fd5b5061087f600480360381019061087a919061440c565b6121cb565b005b34801561088d57600080fd5b5061089661222d565b6040516108a39190615601565b60405180910390f35b3480156108b857600080fd5b506108d360048036038101906108ce91906144ff565b6122bb565b005b6108ef60048036038101906108ea91906145d2565b612354565b005b3480156108fd57600080fd5b506109186004803603810190610913919061466b565b612632565b6040516109259190615601565b60405180910390f35b34801561093a57600080fd5b5061094361273c565b6040516109509190615a63565b60405180910390f35b34801561096557600080fd5b5061096e612742565b60405161097b9190615a63565b60405180910390f35b34801561099057600080fd5b506109ab60048036038101906109a69190614381565b61274c565b6040516109b891906155a1565b60405180910390f35b3480156109cd57600080fd5b506109d66127e0565b6040516109e39190615a63565b60405180910390f35b3480156109f857600080fd5b50610a136004803603810190610a0e9190614358565b6127e6565b005b348015610a2157600080fd5b50610a2a6128de565b604051610a379190615a63565b60405180910390f35b60007f780e9d63000000000000000000000000000000000000000000000000000000007bffffffffffffffffffffffffffffffffffffffffffffffffffffffff1916827bffffffffffffffffffffffffffffffffffffffffffffffffffffffff19161480610ab35750610ab2826128e4565b5b9050919050565b606060008054610ac990615d54565b80601f0160208091040260200160405190810160405280929190818152602001828054610af590615d54565b8015610b425780601f10610b1757610100808354040283529160200191610b42565b820191906000526020600020905b815481529060010190602001808311610b2557829003601f168201915b5050505050905090565b6000610b57826129c6565b610b96576040517f08c379a0000000000000000000000000000000000000000000000000000000008152600401610b8d90615903565b60405180910390fd5b6004600083815260200190815260200160002060009054906101000a900473ffffffffffffffffffffffffffffffffffffffff169050919050565b6000610bdc82611689565b90508073ffffffffffffffffffffffffffffffffffffffff168373ffffffffffffffffffffffffffffffffffffffff161415610c4d576040517f08c379a0000000000000000000000000000000000000000000000000000000008152600401610c44906159a3565b60405180910390fd5b8073ffffffffffffffffffffffffffffffffffffffff16610c6c612a32565b73ffffffffffffffffffffffffffffffffffffffff161480610c9b5750610c9a81610c95612a32565b61274c565b5b610cda576040517f08c379a0000000000000000000000000000000000000000000000000000000008152600401610cd190615803565b60405180910390fd5b610ce48383612a3a565b505050565b610cf1612a32565b73ffffffffffffffffffffffffffffffffffffffff16610d0f611bb5565b73ffffffffffffffffffffffffffffffffffffffff1614610d65576040517f08c379a0000000000000000000000000000000000000000000000000000000008152600401610d5c90615923565b60405180910390fd5b8060139080519060200190610d7b929190614132565b504360118190555050565b610d8e612a32565b73ffffffffffffffffffffffffffffffffffffffff16610dac611bb5565b73ffffffffffffffffffffffffffffffffffffffff1614610e02576040517f08c379a0000000000000000000000000000000000000000000000000000000008152600401610df990615923565b60405180910390fd5b80601260026101000a81548160ff02191690831515021790555050565b6000600880549050905090565b610e34612a32565b73ffffffffffffffffffffffffffffffffffffffff16610e52611bb5565b73ffffffffffffffffffffffffffffffffffffffff1614610ea8576040517f08c379a0000000000000000000000000000000000000000000000000000000008152600401610e9f90615923565b60405180910390fd5b60005b600d54811015610f185760006001600b54601054600f54610ecc9190615b72565b610ed69190615dcf565b610ee09190615b72565b9050610eec3382612af3565b600f6000815480929190610eff90615d86565b9190505550508080610f1090615d86565b915050610eab565b50565b610f2c610f26612a32565b82612b11565b610f6b576040517f08c379a0000000000000000000000000000000000000000000000000000000008152600401610f62906159c3565b60405180910390fd5b610f76838383612bef565b505050565b610f83612a32565b73ffffffffffffffffffffffffffffffffffffffff16610fa1611bb5565b73ffffffffffffffffffffffffffffffffffffffff1614610ff7576040517f08c379a0000000000000000000000000000000000000000000000000000000008152600401610fee90615923565b60405180910390fd5b80601260036101000a81548160ff02191690831515021790555050565b600061101f8361173b565b8210611060576040517f08c379a0000000000000000000000000000000000000000000000000000000008152600401611057906156c3565b60405180910390fd5b600660008473ffffffffffffffffffffffffffffffffffffffff1673ffffffffffffffffffffffffffffffffffffffff168152602001908152602001600020600083815260200190815260200160002054905092915050565b600b5481565b601580546110cc90615d54565b80601f01602080910402602001604051908101604052809291908181526020018280546110f890615d54565b80156111455780601f1061111a57610100808354040283529160200191611145565b820191906000526020600020905b81548152906001019060200180831161112857829003601f168201915b505050505081565b611155612a32565b73ffffffffffffffffffffffffffffffffffffffff16611173611bb5565b73ffffffffffffffffffffffffffffffffffffffff16146111c9576040517f08c379a00000000000000000000000000000000000000000000000000000000081526004016111c090615923565b60405180910390fd5b6000601a60009054906101000a900473ffffffffffffffffffffffffffffffffffffffff1673ffffffffffffffffffffffffffffffffffffffff1660646014476112139190615bf9565b61121d9190615bc8565b604051611229906154fc565b60006040518083038185875af1925050503d8060008114611266576040519150601f19603f3d011682016040523d82523d6000602084013e61126b565b606091505b505090508061127957600080fd5b6000606460214761128a9190615bf9565b6112949190615bc8565b9050601b60009054906101000a900473ffffffffffffffffffffffffffffffffffffffff1673ffffffffffffffffffffffffffffffffffffffff166108fc829081150290604051600060405180830381858888f193505050501580156112fe573d6000803e3d6000fd5b50601c60009054906101000a900473ffffffffffffffffffffffffffffffffffffffff1673ffffffffffffffffffffffffffffffffffffffff166108fc829081150290604051600060405180830381858888f19350505050158015611367573d6000803e3d6000fd5b50601d60009054906101000a900473ffffffffffffffffffffffffffffffffffffffff1673ffffffffffffffffffffffffffffffffffffffff166108fc829081150290604051600060405180830381858888f193505050501580156113d0573d6000803e3d6000fd5b506000601a60009054906101000a900473ffffffffffffffffffffffffffffffffffffffff1673ffffffffffffffffffffffffffffffffffffffff1647604051611419906154fc565b60006040518083038185875af1925050503d8060008114611456576040519150601f19603f3d011682016040523d82523d6000602084013e61145b565b606091505b505090508061146957600080fd5b505050565b611489838383604051806020016040528060008152506121cb565b505050565b6016805461149b90615d54565b80601f01602080910402602001604051908101604052809291908181526020018280546114c790615d54565b80156115145780601f106114e957610100808354040283529160200191611514565b820191906000526020600020905b8154815290600101906020018083116114f757829003601f168201915b505050505081565b6000601260009054906101000a900460ff16905090565b600061153d610e1f565b821061157e576040517f08c379a000000000000000000000000000000000000000000000000000000000815260040161157590615a03565b60405180910390fd5b600882815481106115b8577f4e487b7100000000000000000000000000000000000000000000000000000000600052603260045260246000fd5b90600052602060002001549050919050565b601260039054906101000a900460ff1681565b6115e5612a32565b73ffffffffffffffffffffffffffffffffffffffff16611603611bb5565b73ffffffffffffffffffffffffffffffffffffffff1614611659576040517f08c379a000000000000000000000000000000000000000000000000000000000815260040161165090615923565b60405180910390fd5b80601260006101000a81548160ff02191690831515021790555050565b601260029054906101000a900460ff1681565b6000806002600084815260200190815260200160002060009054906101000a900473ffffffffffffffffffffffffffffffffffffffff169050600073ffffffffffffffffffffffffffffffffffffffff168173ffffffffffffffffffffffffffffffffffffffff161415611732576040517f08c379a000000000000000000000000000000000000000000000000000000000815260040161172990615863565b60405180910390fd5b80915050919050565b60008073ffffffffffffffffffffffffffffffffffffffff168273ffffffffffffffffffffffffffffffffffffffff1614156117ac576040517f08c379a00000000000000000000000000000000000000000000000000000000081526004016117a390615843565b60405180910390fd5b600360008373ffffffffffffffffffffffffffffffffffffffff1673ffffffffffffffffffffffffffffffffffffffff168152602001908152602001600020549050919050565b6117fb612a32565b73ffffffffffffffffffffffffffffffffffffffff16611819611bb5565b73ffffffffffffffffffffffffffffffffffffffff161461186f576040517f08c379a000000000000000000000000000000000000000000000000000000000815260040161186690615923565b60405180910390fd5b6118796000612e4b565b565b6014805461188890615d54565b80601f01602080910402602001604051908101604052809291908181526020018280546118b490615d54565b80156119015780601f106118d657610100808354040283529160200191611901565b820191906000526020600020905b8154815290600101906020018083116118e457829003601f168201915b505050505081565b601260029054906101000a900460ff161561192357600080fd5b601260019054906101000a900460ff16611972576040517f08c379a000000000000000000000000000000000000000000000000000000000815260040161196990615963565b60405180910390fd5b3373ffffffffffffffffffffffffffffffffffffffff163273ffffffffffffffffffffffffffffffffffffffff16146119e0576040517f08c379a00000000000000000000000000000000000000000000000000000000081526004016119d790615a43565b60405180910390fd5b60006119eb33612f11565b1415611a2c576040517f08c379a0000000000000000000000000000000000000000000000000000000008152600401611a2390615663565b60405180910390fd5b601860003373ffffffffffffffffffffffffffffffffffffffff1673ffffffffffffffffffffffffffffffffffffffff16815260200190815260200160002080549050601760003373ffffffffffffffffffffffffffffffffffffffff1673ffffffffffffffffffffffffffffffffffffffff1681526020019081526020016000206000828254611abd9190615b72565b9250508190555060005b601760003373ffffffffffffffffffffffffffffffffffffffff1673ffffffffffffffffffffffffffffffffffffffff16815260200190815260200160002054811015611bb2576000601860003373ffffffffffffffffffffffffffffffffffffffff1673ffffffffffffffffffffffffffffffffffffffff1681526020019081526020016000208281548110611b87577f4e487b7100000000000000000000000000000000000000000000000000000000600052603260045260246000fd5b90600052602060002001549050611b9e3382612af3565b508080611baa90615d86565b915050611ac7565b50565b6000600a60009054906101000a900473ffffffffffffffffffffffffffffffffffffffff16905090565b606060138054611bee90615d54565b80601f0160208091040260200160405190810160405280929190818152602001828054611c1a90615d54565b8015611c675780601f10611c3c57610100808354040283529160200191611c67565b820191906000526020600020905b815481529060010190602001808311611c4a57829003601f168201915b5050505050905090565b606060018054611c8090615d54565b80601f0160208091040260200160405190810160405280929190818152602001828054611cac90615d54565b8015611cf95780601f10611cce57610100808354040283529160200191611cf9565b820191906000526020600020905b815481529060010190602001808311611cdc57829003601f168201915b5050505050905090565b601260029054906101000a900460ff1615611d1d57600080fd5b601260009054906101000a900460ff16611d6c576040517f08c379a0000000000000000000000000000000000000000000000000000000008152600401611d6390615963565b60405180910390fd5b3373ffffffffffffffffffffffffffffffffffffffff163273ffffffffffffffffffffffffffffffffffffffff1614611dda576040517f08c379a0000000000000000000000000000000000000000000000000000000008152600401611dd190615a43565b60405180910390fd5b80600e54611de89190615bf9565b3414611e29576040517f08c379a0000000000000000000000000000000000000000000000000000000008152600401611e20906159e3565b60405180910390fd5b600c54601760003373ffffffffffffffffffffffffffffffffffffffff1673ffffffffffffffffffffffffffffffffffffffff1681526020019081526020016000205410611eac576040517f08c379a0000000000000000000000000000000000000000000000000000000008152600401611ea3906157a3565b60405180910390fd5b600c5481601760003373ffffffffffffffffffffffffffffffffffffffff1673ffffffffffffffffffffffffffffffffffffffff16815260200190815260200160002054611efa9190615b72565b1115611f3b576040517f08c379a0000000000000000000000000000000000000000000000000000000008152600401611f32906158a3565b60405180910390fd5b600d54600b54611f4b9190615c53565b600f5410611f8e576040517f08c379a0000000000000000000000000000000000000000000000000000000008152600401611f8590615743565b60405180910390fd5b600d54600b54611f9e9190615c53565b81600f54611fac9190615b72565b1115611fed576040517f08c379a0000000000000000000000000000000000000000000000000000000008152600401611fe490615823565b60405180910390fd5b80601760003373ffffffffffffffffffffffffffffffffffffffff1673ffffffffffffffffffffffffffffffffffffffff168152602001908152602001600020600082825461203c9190615b72565b9250508190555060005b818110156120b15760006001600b54601054600f546120659190615b72565b61206f9190615dcf565b6120799190615b72565b90506120853382612af3565b600f600081548092919061209890615d86565b91905055505080806120a990615d86565b915050612046565b5050565b6120c76120c0612a32565b8383612f5d565b5050565b6000601960009054906101000a900473ffffffffffffffffffffffffffffffffffffffff1673ffffffffffffffffffffffffffffffffffffffff1661218885858080601f016020809104026020016040519081016040528093929190818152602001838380828437600081840152601f19601f8201169050808301925050505050505061217a85600b54604051602001612166929190615578565b6040516020818303038152906040526130ca565b61310590919063ffffffff16565b73ffffffffffffffffffffffffffffffffffffffff161490509392505050565b600f5481565b600d5481565b6000601260019054906101000a900460ff16905090565b6121dc6121d6612a32565b83612b11565b61221b576040517f08c379a0000000000000000000000000000000000000000000000000000000008152600401612212906159c3565b60405180910390fd5b6122278484848461312c565b50505050565b6013805461223a90615d54565b80601f016020809104026020016040519081016040528092919081815260200182805461226690615d54565b80156122b35780601f10612288576101008083540402835291602001916122b3565b820191906000526020600020905b81548152906001019060200180831161229657829003601f168201915b505050505081565b6122c3612a32565b73ffffffffffffffffffffffffffffffffffffffff166122e1611bb5565b73ffffffffffffffffffffffffffffffffffffffff1614612337576040517f08c379a000000000000000000000000000000000000000000000000000000000815260040161232e90615923565b60405180910390fd5b80601260016101000a81548160ff02191690831515021790555050565b601260029054906101000a900460ff161561236e57600080fd5b601260019054906101000a900460ff166123bd576040517f08c379a00000000000000000000000000000000000000000000000000000000081526004016123b490615a23565b60405180910390fd5b3373ffffffffffffffffffffffffffffffffffffffff163273ffffffffffffffffffffffffffffffffffffffff161461242b576040517f08c379a000000000000000000000000000000000000000000000000000000000815260040161242290615683565b60405180910390fd5b6124368383336120cb565b612475576040517f08c379a000000000000000000000000000000000000000000000000000000000815260040161246c90615643565b60405180910390fd5b80600e546124839190615bf9565b34146124c4576040517f08c379a00000000000000000000000000000000000000000000000000000000081526004016124bb906159e3565b60405180910390fd5b600c54816124d133612f11565b6124db9190615b72565b111561251c576040517f08c379a000000000000000000000000000000000000000000000000000000000815260040161251390615983565b60405180910390fd5b600c5461252833612f11565b10612568576040517f08c379a000000000000000000000000000000000000000000000000000000000815260040161255f90615883565b60405180910390fd5b60005b8181101561262c57601860003373ffffffffffffffffffffffffffffffffffffffff1673ffffffffffffffffffffffffffffffffffffffff1681526020019081526020016000206001600b54601054600f546125c79190615b72565b6125d19190615dcf565b6125db9190615b72565b9080600181540180825580915050600190039060005260206000200160009091909190915055600f600081548092919061261490615d86565b9190505550808061262490615d86565b91505061256b565b50505050565b6060601260039054906101000a900460ff166126da576015805461265590615d54565b80601f016020809104026020016040519081016040528092919081815260200182805461268190615d54565b80156126ce5780601f106126a3576101008083540402835291602001916126ce565b820191906000526020600020905b8154815290600101906020018083116126b157829003601f168201915b50505050509050612737565b6000601480546126e990615d54565b9050116127055760405180602001604052806000815250612734565b601461271083613188565b60166040516020016127249392919061549c565b6040516020818303038152906040525b90505b919050565b60115481565b6000601054905090565b6000600560008473ffffffffffffffffffffffffffffffffffffffff1673ffffffffffffffffffffffffffffffffffffffff16815260200190815260200160002060008373ffffffffffffffffffffffffffffffffffffffff1673ffffffffffffffffffffffffffffffffffffffff16815260200190815260200160002060009054906101000a900460ff16905092915050565b600c5481565b6127ee612a32565b73ffffffffffffffffffffffffffffffffffffffff1661280c611bb5565b73ffffffffffffffffffffffffffffffffffffffff1614612862576040517f08c379a000000000000000000000000000000000000000000000000000000000815260040161285990615923565b60405180910390fd5b600073ffffffffffffffffffffffffffffffffffffffff168173ffffffffffffffffffffffffffffffffffffffff1614156128d2576040517f08c379a00000000000000000000000000000000000000000000000000000000081526004016128c990615703565b60405180910390fd5b6128db81612e4b565b50565b60105481565b60007f80ac58cd000000000000000000000000000000000000000000000000000000007bffffffffffffffffffffffffffffffffffffffffffffffffffffffff1916827bffffffffffffffffffffffffffffffffffffffffffffffffffffffff191614806129af57507f5b5e139f000000000000000000000000000000000000000000000000000000007bffffffffffffffffffffffffffffffffffffffffffffffffffffffff1916827bffffffffffffffffffffffffffffffffffffffffffffffffffffffff1916145b806129bf57506129be82613335565b5b9050919050565b60008073ffffffffffffffffffffffffffffffffffffffff166002600084815260200190815260200160002060009054906101000a900473ffffffffffffffffffffffffffffffffffffffff1673ffffffffffffffffffffffffffffffffffffffff1614159050919050565b600033905090565b816004600083815260200190815260200160002060006101000a81548173ffffffffffffffffffffffffffffffffffffffff021916908373ffffffffffffffffffffffffffffffffffffffff160217905550808273ffffffffffffffffffffffffffffffffffffffff16612aad83611689565b73ffffffffffffffffffffffffffffffffffffffff167f8c5be1e5ebec7d5bd14f71427d1e84f3dd0314c0f7b2291e5b200ac8c7c3b92560405160405180910390a45050565b612b0d82826040518060200160405280600081525061339f565b5050565b6000612b1c826129c6565b612b5b576040517f08c379a0000000000000000000000000000000000000000000000000000000008152600401612b52906157e3565b60405180910390fd5b6000612b6683611689565b90508073ffffffffffffffffffffffffffffffffffffffff168473ffffffffffffffffffffffffffffffffffffffff161480612bd557508373ffffffffffffffffffffffffffffffffffffffff16612bbd84610b4c565b73ffffffffffffffffffffffffffffffffffffffff16145b80612be65750612be5818561274c565b5b91505092915050565b8273ffffffffffffffffffffffffffffffffffffffff16612c0f82611689565b73ffffffffffffffffffffffffffffffffffffffff1614612c65576040517f08c379a0000000000000000000000000000000000000000000000000000000008152600401612c5c90615943565b60405180910390fd5b600073ffffffffffffffffffffffffffffffffffffffff168273ffffffffffffffffffffffffffffffffffffffff161415612cd5576040517f08c379a0000000000000000000000000000000000000000000000000000000008152600401612ccc90615763565b60405180910390fd5b612ce08383836133fa565b612ceb600082612a3a565b6001600360008573ffffffffffffffffffffffffffffffffffffffff1673ffffffffffffffffffffffffffffffffffffffff1681526020019081526020016000206000828254612d3b9190615c53565b925050819055506001600360008473ffffffffffffffffffffffffffffffffffffffff1673ffffffffffffffffffffffffffffffffffffffff1681526020019081526020016000206000828254612d929190615b72565b92505081905550816002600083815260200190815260200160002060006101000a81548173ffffffffffffffffffffffffffffffffffffffff021916908373ffffffffffffffffffffffffffffffffffffffff160217905550808273ffffffffffffffffffffffffffffffffffffffff168473ffffffffffffffffffffffffffffffffffffffff167fddf252ad1be2c89b69c2b068fc378daa952ba7f163c4a11628f55a4df523b3ef60405160405180910390a4505050565b6000600a60009054906101000a900473ffffffffffffffffffffffffffffffffffffffff16905081600a60006101000a81548173ffffffffffffffffffffffffffffffffffffffff021916908373ffffffffffffffffffffffffffffffffffffffff1602179055508173ffffffffffffffffffffffffffffffffffffffff168173ffffffffffffffffffffffffffffffffffffffff167f8be0079c531659141344cd1fd0a4f28419497f9722a3daafe3b4186f6b6457e060405160405180910390a35050565b6000601860008373ffffffffffffffffffffffffffffffffffffffff1673ffffffffffffffffffffffffffffffffffffffff168152602001908152602001600020805490509050919050565b8173ffffffffffffffffffffffffffffffffffffffff168373ffffffffffffffffffffffffffffffffffffffff161415612fcc576040517f08c379a0000000000000000000000000000000000000000000000000000000008152600401612fc390615783565b60405180910390fd5b80600560008573ffffffffffffffffffffffffffffffffffffffff1673ffffffffffffffffffffffffffffffffffffffff16815260200190815260200160002060008473ffffffffffffffffffffffffffffffffffffffff1673ffffffffffffffffffffffffffffffffffffffff16815260200190815260200160002060006101000a81548160ff0219169083151502179055508173ffffffffffffffffffffffffffffffffffffffff168373ffffffffffffffffffffffffffffffffffffffff167f17307eab39ab6107e8899845ad3d59bd9653f200f220920489ca2b5937696c31836040516130bd91906155a1565b60405180910390a3505050565b60006130d68251613188565b826040516020016130e89291906154cd565b604051602081830303815290604052805190602001209050919050565b6000806000613114858561350e565b9150915061312181613591565b819250505092915050565b613137848484612bef565b613143848484846138e2565b613182576040517f08c379a0000000000000000000000000000000000000000000000000000000008152600401613179906156e3565b60405180910390fd5b50505050565b606060008214156131d0576040518060400160405280600181526020017f30000000000000000000000000000000000000000000000000000000000000008152509050613330565b600082905060005b600082146132025780806131eb90615d86565b915050600a826131fb9190615bc8565b91506131d8565b60008167ffffffffffffffff811115613244577f4e487b7100000000000000000000000000000000000000000000000000000000600052604160045260246000fd5b6040519080825280601f01601f1916602001820160405280156132765781602001600182028036833780820191505090505b5090505b600085146133295760018261328f9190615c53565b9150600a8561329e9190615dcf565b60306132aa9190615b72565b60f81b8183815181106132e6577f4e487b7100000000000000000000000000000000000000000000000000000000600052603260045260246000fd5b60200101907effffffffffffffffffffffffffffffffffffffffffffffffffffffffffffff1916908160001a905350600a856133229190615bc8565b945061327a565b8093505050505b919050565b60007f01ffc9a7000000000000000000000000000000000000000000000000000000007bffffffffffffffffffffffffffffffffffffffffffffffffffffffff1916827bffffffffffffffffffffffffffffffffffffffffffffffffffffffff1916149050919050565b6133a98383613a79565b6133b660008484846138e2565b6133f5576040517f08c379a00000000000000000000000000000000000000000000000000000000081526004016133ec906156e3565b60405180910390fd5b505050565b613405838383613c47565b600073ffffffffffffffffffffffffffffffffffffffff168373ffffffffffffffffffffffffffffffffffffffff1614156134485761344381613c4c565b613487565b8173ffffffffffffffffffffffffffffffffffffffff168373ffffffffffffffffffffffffffffffffffffffff1614613486576134858382613c95565b5b5b600073ffffffffffffffffffffffffffffffffffffffff168273ffffffffffffffffffffffffffffffffffffffff1614156134ca576134c581613e02565b613509565b8273ffffffffffffffffffffffffffffffffffffffff168273ffffffffffffffffffffffffffffffffffffffff1614613508576135078282613f45565b5b5b505050565b6000806041835114156135505760008060006020860151925060408601519150606086015160001a905061354487828585613fc4565b9450945050505061358a565b6040835114156135815760008060208501519150604085015190506135768683836140d1565b93509350505061358a565b60006002915091505b9250929050565b600060048111156135cb577f4e487b7100000000000000000000000000000000000000000000000000000000600052602160045260246000fd5b816004811115613604577f4e487b7100000000000000000000000000000000000000000000000000000000600052602160045260246000fd5b141561360f576138df565b60016004811115613649577f4e487b7100000000000000000000000000000000000000000000000000000000600052602160045260246000fd5b816004811115613682577f4e487b7100000000000000000000000000000000000000000000000000000000600052602160045260246000fd5b14156136c3576040517f08c379a00000000000000000000000000000000000000000000000000000000081526004016136ba90615623565b60405180910390fd5b600260048111156136fd577f4e487b7100000000000000000000000000000000000000000000000000000000600052602160045260246000fd5b816004811115613736577f4e487b7100000000000000000000000000000000000000000000000000000000600052602160045260246000fd5b1415613777576040517f08c379a000000000000000000000000000000000000000000000000000000000815260040161376e906156a3565b60405180910390fd5b600360048111156137b1577f4e487b7100000000000000000000000000000000000000000000000000000000600052602160045260246000fd5b8160048111156137ea577f4e487b7100000000000000000000000000000000000000000000000000000000600052602160045260246000fd5b141561382b576040517f08c379a0000000000000000000000000000000000000000000000000000000008152600401613822906157c3565b60405180910390fd5b600480811115613864577f4e487b7100000000000000000000000000000000000000000000000000000000600052602160045260246000fd5b81600481111561389d577f4e487b7100000000000000000000000000000000000000000000000000000000600052602160045260246000fd5b14156138de576040517f08c379a00000000000000000000000000000000000000000000000000000000081526004016138d5906158c3565b60405180910390fd5b5b50565b60006139038473ffffffffffffffffffffffffffffffffffffffff1661411f565b15613a6c578373ffffffffffffffffffffffffffffffffffffffff1663150b7a0261392c612a32565b8786866040518563ffffffff1660e01b815260040161394e949392919061552c565b602060405180830381600087803b15801561396857600080fd5b505af192505050801561399957506040513d601f19601f820116820180604052508101906139969190614551565b60015b613a1c573d80600081146139c9576040519150601f19603f3d011682016040523d82523d6000602084013e6139ce565b606091505b50600081511415613a14576040517f08c379a0000000000000000000000000000000000000000000000000000000008152600401613a0b906156e3565b60405180910390fd5b805181602001fd5b63150b7a0260e01b7bffffffffffffffffffffffffffffffffffffffffffffffffffffffff1916817bffffffffffffffffffffffffffffffffffffffffffffffffffffffff191614915050613a71565b600190505b949350505050565b600073ffffffffffffffffffffffffffffffffffffffff168273ffffffffffffffffffffffffffffffffffffffff161415613ae9576040517f08c379a0000000000000000000000000000000000000000000000000000000008152600401613ae0906158e3565b60405180910390fd5b613af2816129c6565b15613b32576040517f08c379a0000000000000000000000000000000000000000000000000000000008152600401613b2990615723565b60405180910390fd5b613b3e600083836133fa565b6001600360008473ffffffffffffffffffffffffffffffffffffffff1673ffffffffffffffffffffffffffffffffffffffff1681526020019081526020016000206000828254613b8e9190615b72565b92505081905550816002600083815260200190815260200160002060006101000a81548173ffffffffffffffffffffffffffffffffffffffff021916908373ffffffffffffffffffffffffffffffffffffffff160217905550808273ffffffffffffffffffffffffffffffffffffffff16600073ffffffffffffffffffffffffffffffffffffffff167fddf252ad1be2c89b69c2b068fc378daa952ba7f163c4a11628f55a4df523b3ef60405160405180910390a45050565b505050565b6008805490506009600083815260200190815260200160002081905550600881908060018154018082558091505060019003906000526020600020016000909190919091505550565b60006001613ca28461173b565b613cac9190615c53565b9050600060076000848152602001908152602001600020549050818114613d91576000600660008673ffffffffffffffffffffffffffffffffffffffff1673ffffffffffffffffffffffffffffffffffffffff168152602001908152602001600020600084815260200190815260200160002054905080600660008773ffffffffffffffffffffffffffffffffffffffff1673ffffffffffffffffffffffffffffffffffffffff168152602001908152602001600020600084815260200190815260200160002081905550816007600083815260200190815260200160002081905550505b6007600084815260200190815260200160002060009055600660008573ffffffffffffffffffffffffffffffffffffffff1673ffffffffffffffffffffffffffffffffffffffff16815260200190815260200160002060008381526020019081526020016000206000905550505050565b60006001600880549050613e169190615c53565b9050600060096000848152602001908152602001600020549050600060088381548110613e6c577f4e487b7100000000000000000000000000000000000000000000000000000000600052603260045260246000fd5b906000526020600020015490508060088381548110613eb4577f4e487b7100000000000000000000000000000000000000000000000000000000600052603260045260246000fd5b906000526020600020018190555081600960008381526020019081526020016000208190555060096000858152602001908152602001600020600090556008805480613f29577f4e487b7100000000000000000000000000000000000000000000000000000000600052603160045260246000fd5b6001900381819060005260206000200160009055905550505050565b6000613f508361173b565b905081600660008573ffffffffffffffffffffffffffffffffffffffff1673ffffffffffffffffffffffffffffffffffffffff168152602001908152602001600020600083815260200190815260200160002081905550806007600084815260200190815260200160002081905550505050565b6000807f7fffffffffffffffffffffffffffffff5d576e7357a4501ddfe92f46681b20a08360001c1115613fff5760006003915091506140c8565b601b8560ff16141580156140175750601c8560ff1614155b156140295760006004915091506140c8565b60006001878787876040516000815260200160405260405161404e94939291906155bc565b6020604051602081039080840390855afa158015614070573d6000803e3d6000fd5b505050602060405103519050600073ffffffffffffffffffffffffffffffffffffffff168173ffffffffffffffffffffffffffffffffffffffff1614156140bf576000600192509250506140c8565b80600092509250505b94509492505050565b6000806000807f7fffffffffffffffffffffffffffffffffffffffffffffffffffffffffffffff85169150601b8560ff1c01905061411187828885613fc4565b935093505050935093915050565b600080823b905060008111915050919050565b82805461413e90615d54565b90600052602060002090601f01602090048101928261416057600085556141a7565b82601f1061417957805160ff19168380011785556141a7565b828001600101855582156141a7579182015b828111156141a657825182559160200191906001019061418b565b5b5090506141b491906141b8565b5090565b5b808211156141d15760008160009055506001016141b9565b5090565b60006141e86141e384615aaf565b615a7e565b90508281526020810184848401111561420057600080fd5b61420b848285615d12565b509392505050565b600061422661422184615adf565b615a7e565b90508281526020810184848401111561423e57600080fd5b614249848285615d12565b509392505050565b60008135905061426081615ecd565b92915050565b60008135905061427581615ee4565b92915050565b60008135905061428a81615efb565b92915050565b60008151905061429f81615efb565b92915050565b60008083601f8401126142b757600080fd5b8235905067ffffffffffffffff8111156142d057600080fd5b6020830191508360018202830111156142e857600080fd5b9250929050565b600082601f83011261430057600080fd5b81356143108482602086016141d5565b91505092915050565b600082601f83011261432a57600080fd5b813561433a848260208601614213565b91505092915050565b60008135905061435281615f12565b92915050565b60006020828403121561436a57600080fd5b600061437884828501614251565b91505092915050565b6000806040838503121561439457600080fd5b60006143a285828601614251565b92505060206143b385828601614251565b9150509250929050565b6000806000606084860312156143d257600080fd5b60006143e086828701614251565b93505060206143f186828701614251565b925050604061440286828701614343565b9150509250925092565b6000806000806080858703121561442257600080fd5b600061443087828801614251565b945050602061444187828801614251565b935050604061445287828801614343565b925050606085013567ffffffffffffffff81111561446f57600080fd5b61447b878288016142ef565b91505092959194509250565b6000806040838503121561449a57600080fd5b60006144a885828601614251565b92505060206144b985828601614266565b9150509250929050565b600080604083850312156144d657600080fd5b60006144e485828601614251565b92505060206144f585828601614343565b9150509250929050565b60006020828403121561451157600080fd5b600061451f84828501614266565b91505092915050565b60006020828403121561453a57600080fd5b60006145488482850161427b565b91505092915050565b60006020828403121561456357600080fd5b600061457184828501614290565b91505092915050565b60008060006040848603121561458f57600080fd5b600084013567ffffffffffffffff8111156145a957600080fd5b6145b5868287016142a5565b935093505060206145c886828701614251565b9150509250925092565b6000806000604084860312156145e757600080fd5b600084013567ffffffffffffffff81111561460157600080fd5b61460d868287016142a5565b9350935050602061462086828701614343565b9150509250925092565b60006020828403121561463c57600080fd5b600082013567ffffffffffffffff81111561465657600080fd5b61466284828501614319565b91505092915050565b60006020828403121561467d57600080fd5b600061468b84828501614343565b91505092915050565b61469d81615c87565b82525050565b6146ac81615c99565b82525050565b6146bb81615ca5565b82525050565b60006146cc82615b24565b6146d68185615b3a565b93506146e6818560208601615d21565b6146ef81615ebc565b840191505092915050565b600061470582615b24565b61470f8185615b4b565b935061471f818560208601615d21565b80840191505092915050565b600061473682615b2f565b6147408185615b56565b9350614750818560208601615d21565b61475981615ebc565b840191505092915050565b600061476f82615b2f565b6147798185615b67565b9350614789818560208601615d21565b80840191505092915050565b600081546147a281615d54565b6147ac8186615b67565b945060018216600081146147c757600181146147d85761480b565b60ff1983168652818601935061480b565b6147e185615b0f565b60005b83811015614803578154818901526001820191506020810190506147e4565b838801955050505b50505092915050565b6000614821601883615b56565b91507f45434453413a20696e76616c6964207369676e617475726500000000000000006000830152602082019050919050565b6000614861602883615b56565b91507f4d757374206265206f6e2077686974656c69737420746f20726573657276652060008301527f612073617069656e0000000000000000000000000000000000000000000000006020830152604082019050919050565b60006148c7602183615b56565b91507f53617069656e206e6565647320746f206265207265736572766564206669727360008301527f74000000000000000000000000000000000000000000000000000000000000006020830152604082019050919050565b600061492d602483615b56565b91507f436f6e74726163747320617265206e6f7420616c6c6f77656420746f2072657360008301527f65727665000000000000000000000000000000000000000000000000000000006020830152604082019050919050565b6000614993601f83615b56565b91507f45434453413a20696e76616c6964207369676e6174757265206c656e677468006000830152602082019050919050565b60006149d3602b83615b56565b91507f455243373231456e756d657261626c653a206f776e657220696e646578206f7560008301527f74206f6620626f756e64730000000000000000000000000000000000000000006020830152604082019050919050565b6000614a39603283615b56565b91507f4552433732313a207472616e7366657220746f206e6f6e20455243373231526560008301527f63656976657220696d706c656d656e74657200000000000000000000000000006020830152604082019050919050565b6000614a9f602683615b56565b91507f4f776e61626c653a206e6577206f776e657220697320746865207a65726f206160008301527f64647265737300000000000000000000000000000000000000000000000000006020830152604082019050919050565b6000614b05601c83615b56565b91507f4552433732313a20746f6b656e20616c7265616479206d696e746564000000006000830152602082019050919050565b6000614b45601c83615b56565b91507f416c6c2053617069656e732068617665206265656e206d696e746564000000006000830152602082019050919050565b6000614b85602483615b56565b91507f4552433732313a207472616e7366657220746f20746865207a65726f2061646460008301527f72657373000000000000000000000000000000000000000000000000000000006020830152604082019050919050565b6000614beb601983615b56565b91507f4552433732313a20617070726f766520746f2063616c6c6572000000000000006000830152602082019050919050565b6000614c2b603983615b56565b91507f596f752063616e6e6f74206d696e74206d6f7265207468616e2033207361706960008301527f656e732066726f6d207468652073616d652061646472657373000000000000006020830152604082019050919050565b6000614c91602283615b56565b91507f45434453413a20696e76616c6964207369676e6174757265202773272076616c60008301527f75650000000000000000000000000000000000000000000000000000000000006020830152604082019050919050565b6000614cf7602c83615b56565b91507f4552433732313a206f70657261746f7220717565727920666f72206e6f6e657860008301527f697374656e7420746f6b656e00000000000000000000000000000000000000006020830152604082019050919050565b6000614d5d603883615b56565b91507f4552433732313a20617070726f76652063616c6c6572206973206e6f74206f7760008301527f6e6572206e6f7220617070726f76656420666f7220616c6c00000000000000006020830152604082019050919050565b6000614dc3602b83615b56565b91507f507572636861736520776f756c6420657863656564206d617820737570706c7960008301527f206f662073617069656e730000000000000000000000000000000000000000006020830152604082019050919050565b6000614e29602a83615b56565b91507f4552433732313a2062616c616e636520717565727920666f7220746865207a6560008301527f726f2061646472657373000000000000000000000000000000000000000000006020830152604082019050919050565b6000614e8f602983615b56565b91507f4552433732313a206f776e657220717565727920666f72206e6f6e657869737460008301527f656e7420746f6b656e00000000000000000000000000000000000000000000006020830152604082019050919050565b6000614ef5603a83615b56565b91507f596f752063616e206f6e6c79207265736572766520757020746f20332053617060008301527f69656e732066726f6d207468652073616d6520616464726573730000000000006020830152604082019050919050565b6000614f5b602383615b56565b91507f596f752063616e6e6f74206d696e74206d6f7265207468616e2033207361706960008301527f656e7300000000000000000000000000000000000000000000000000000000006020830152604082019050919050565b6000614fc1602283615b56565b91507f45434453413a20696e76616c6964207369676e6174757265202776272076616c60008301527f75650000000000000000000000000000000000000000000000000000000000006020830152604082019050919050565b6000615027602083615b56565b91507f4552433732313a206d696e7420746f20746865207a65726f20616464726573736000830152602082019050919050565b6000615067602c83615b56565b91507f4552433732313a20617070726f76656420717565727920666f72206e6f6e657860008301527f697374656e7420746f6b656e00000000000000000000000000000000000000006020830152604082019050919050565b60006150cd602083615b56565b91507f4f776e61626c653a2063616c6c6572206973206e6f7420746865206f776e65726000830152602082019050919050565b600061510d601a83615b67565b91507f19457468657265756d205369676e6564204d6573736167653a0a0000000000006000830152601a82019050919050565b600061514d602983615b56565b91507f4552433732313a207472616e73666572206f6620746f6b656e2074686174206960008301527f73206e6f74206f776e00000000000000000000000000000000000000000000006020830152604082019050919050565b60006151b3601a83615b56565b91507f53616c652069732063757272656e746c7920696e6163746976650000000000006000830152602082019050919050565b60006151f3602683615b56565b91507f596f752063616e6e6f742072657365727665206d6f7265207468616e2033205360008301527f617069656e7300000000000000000000000000000000000000000000000000006020830152604082019050919050565b6000615259602183615b56565b91507f4552433732313a20617070726f76616c20746f2063757272656e74206f776e6560008301527f72000000000000000000000000000000000000000000000000000000000000006020830152604082019050919050565b60006152bf600083615b4b565b9150600082019050919050565b60006152d9603183615b56565b91507f4552433732313a207472616e736665722063616c6c6572206973206e6f74206f60008301527f776e6572206e6f7220617070726f7665640000000000000000000000000000006020830152604082019050919050565b600061533f601983615b56565b91507f496e636f727265637420616d6f756e74206f66206574686572000000000000006000830152602082019050919050565b600061537f602c83615b56565b91507f455243373231456e756d657261626c653a20676c6f62616c20696e646578206f60008301527f7574206f6620626f756e647300000000000000000000000000000000000000006020830152604082019050919050565b60006153e5601d83615b56565b91507f50726573616c652069732063757272656e746c7920696e6163746976650000006000830152602082019050919050565b6000615425602183615b56565b91507f436f6e74726163747320617265206e6f7420616c6c6f77656420746f206d696e60008301527f74000000000000000000000000000000000000000000000000000000000000006020830152604082019050919050565b61548781615cfb565b82525050565b61549681615d05565b82525050565b60006154a88286614795565b91506154b48285614764565b91506154c08284614795565b9150819050949350505050565b60006154d882615100565b91506154e48285614764565b91506154f082846146fa565b91508190509392505050565b6000615507826152b2565b9150819050919050565b60006020820190506155266000830184614694565b92915050565b60006080820190506155416000830187614694565b61554e6020830186614694565b61555b604083018561547e565b818103606083015261556d81846146c1565b905095945050505050565b600060408201905061558d6000830185614694565b61559a602083018461547e565b9392505050565b60006020820190506155b660008301846146a3565b92915050565b60006080820190506155d160008301876146b2565b6155de602083018661548d565b6155eb60408301856146b2565b6155f860608301846146b2565b95945050505050565b6000602082019050818103600083015261561b818461472b565b905092915050565b6000602082019050818103600083015261563c81614814565b9050919050565b6000602082019050818103600083015261565c81614854565b9050919050565b6000602082019050818103600083015261567c816148ba565b9050919050565b6000602082019050818103600083015261569c81614920565b9050919050565b600060208201905081810360008301526156bc81614986565b9050919050565b600060208201905081810360008301526156dc816149c6565b9050919050565b600060208201905081810360008301526156fc81614a2c565b9050919050565b6000602082019050818103600083015261571c81614a92565b9050919050565b6000602082019050818103600083015261573c81614af8565b9050919050565b6000602082019050818103600083015261575c81614b38565b9050919050565b6000602082019050818103600083015261577c81614b78565b9050919050565b6000602082019050818103600083015261579c81614bde565b9050919050565b600060208201905081810360008301526157bc81614c1e565b9050919050565b600060208201905081810360008301526157dc81614c84565b9050919050565b600060208201905081810360008301526157fc81614cea565b9050919050565b6000602082019050818103600083015261581c81614d50565b9050919050565b6000602082019050818103600083015261583c81614db6565b9050919050565b6000602082019050818103600083015261585c81614e1c565b9050919050565b6000602082019050818103600083015261587c81614e82565b9050919050565b6000602082019050818103600083015261589c81614ee8565b9050919050565b600060208201905081810360008301526158bc81614f4e565b9050919050565b600060208201905081810360008301526158dc81614fb4565b9050919050565b600060208201905081810360008301526158fc8161501a565b9050919050565b6000602082019050818103600083015261591c8161505a565b9050919050565b6000602082019050818103600083015261593c816150c0565b9050919050565b6000602082019050818103600083015261595c81615140565b9050919050565b6000602082019050818103600083015261597c816151a6565b9050919050565b6000602082019050818103600083015261599c816151e6565b9050919050565b600060208201905081810360008301526159bc8161524c565b9050919050565b600060208201905081810360008301526159dc816152cc565b9050919050565b600060208201905081810360008301526159fc81615332565b9050919050565b60006020820190508181036000830152615a1c81615372565b9050919050565b60006020820190508181036000830152615a3c816153d8565b9050919050565b60006020820190508181036000830152615a5c81615418565b9050919050565b6000602082019050615a78600083018461547e565b92915050565b6000604051905081810181811067ffffffffffffffff82111715615aa557615aa4615e8d565b5b8060405250919050565b600067ffffffffffffffff821115615aca57615ac9615e8d565b5b601f19601f8301169050602081019050919050565b600067ffffffffffffffff821115615afa57615af9615e8d565b5b601f19601f8301169050602081019050919050565b60008190508160005260206000209050919050565b600081519050919050565b600081519050919050565b600082825260208201905092915050565b600081905092915050565b600082825260208201905092915050565b600081905092915050565b6000615b7d82615cfb565b9150615b8883615cfb565b9250827fffffffffffffffffffffffffffffffffffffffffffffffffffffffffffffffff03821115615bbd57615bbc615e00565b5b828201905092915050565b6000615bd382615cfb565b9150615bde83615cfb565b925082615bee57615bed615e2f565b5b828204905092915050565b6000615c0482615cfb565b9150615c0f83615cfb565b9250817fffffffffffffffffffffffffffffffffffffffffffffffffffffffffffffffff0483118215151615615c4857615c47615e00565b5b828202905092915050565b6000615c5e82615cfb565b9150615c6983615cfb565b925082821015615c7c57615c7b615e00565b5b828203905092915050565b6000615c9282615cdb565b9050919050565b60008115159050919050565b6000819050919050565b60007fffffffff0000000000000000000000000000000000000000000000000000000082169050919050565b600073ffffffffffffffffffffffffffffffffffffffff82169050919050565b6000819050919050565b600060ff82169050919050565b82818337600083830152505050565b60005b83811015615d3f578082015181840152602081019050615d24565b83811115615d4e576000848401525b50505050565b60006002820490506001821680615d6c57607f821691505b60208210811415615d8057615d7f615e5e565b5b50919050565b6000615d9182615cfb565b91507fffffffffffffffffffffffffffffffffffffffffffffffffffffffffffffffff821415615dc457615dc3615e00565b5b600182019050919050565b6000615dda82615cfb565b9150615de583615cfb565b925082615df557615df4615e2f565b5b828206905092915050565b7f4e487b7100000000000000000000000000000000000000000000000000000000600052601160045260246000fd5b7f4e487b7100000000000000000000000000000000000000000000000000000000600052601260045260246000fd5b7f4e487b7100000000000000000000000000000000000000000000000000000000600052602260045260246000fd5b7f4e487b7100000000000000000000000000000000000000000000000000000000600052604160045260246000fd5b6000601f19601f8301169050919050565b615ed681615c87565b8114615ee157600080fd5b50565b615eed81615c99565b8114615ef857600080fd5b50565b615f0481615caf565b8114615f0f57600080fd5b50565b615f1b81615cfb565b8114615f2657600080fd5b5056fea264697066735822122070182da08c90dfabef6dfa604da5797602190f6aa1984502acfc06d0729cc04964736f6c63430008000033697066733a2f2f516d5679315a57466867367374583756536f32586f466f706f4c714a5654377863335257526551364d5843524d562f697066733a2f2f516d576e72716b4265395a314232344835686f6f694d4d4e377a345a704b524d324e326e4e635a50506937733572",
  "linkReferences": {},
  "deployedLinkReferences": {}
}