{
  "_format": "hh-sol-artifact-1",
  "contractName": "Sapien",
  "sourceName": "contracts/Sapien.sol",
  "abi": [
    {
      "inputs": [
        {
          "internalType": "string",
          "name": "_name",
          "type": "string"
        },
        {
          "internalType": "string",
          "name": "_symbol",
          "type": "string"
        },
        {
          "internalType": "string",
          "name": "_baseURI",
          "type": "string"
        }
      ],
      "stateMutability": "nonpayable",
      "type": "constructor"
    },
    {
      "anonymous": false,
      "inputs": [
        {
          "indexed": true,
          "internalType": "address",
          "name": "owner",
          "type": "address"
        },
        {
          "indexed": true,
          "internalType": "address",
          "name": "approved",
          "type": "address"
        },
        {
          "indexed": true,
          "internalType": "uint256",
          "name": "tokenId",
          "type": "uint256"
        }
      ],
      "name": "Approval",
      "type": "event"
    },
    {
      "anonymous": false,
      "inputs": [
        {
          "indexed": true,
          "internalType": "address",
          "name": "owner",
          "type": "address"
        },
        {
          "indexed": true,
          "internalType": "address",
          "name": "operator",
          "type": "address"
        },
        {
          "indexed": false,
          "internalType": "bool",
          "name": "approved",
          "type": "bool"
        }
      ],
      "name": "ApprovalForAll",
      "type": "event"
    },
    {
      "anonymous": false,
      "inputs": [
        {
          "indexed": true,
          "internalType": "address",
          "name": "previousOwner",
          "type": "address"
        },
        {
          "indexed": true,
          "internalType": "address",
          "name": "newOwner",
          "type": "address"
        }
      ],
      "name": "OwnershipTransferred",
      "type": "event"
    },
    {
      "anonymous": false,
      "inputs": [
        {
          "indexed": true,
          "internalType": "address",
          "name": "from",
          "type": "address"
        },
        {
          "indexed": true,
          "internalType": "address",
          "name": "to",
          "type": "address"
        },
        {
          "indexed": true,
          "internalType": "uint256",
          "name": "tokenId",
          "type": "uint256"
        }
      ],
      "name": "Transfer",
      "type": "event"
    },
    {
      "inputs": [
        {
          "internalType": "address",
          "name": "to",
          "type": "address"
        },
        {
          "internalType": "uint256",
          "name": "tokenId",
          "type": "uint256"
        }
      ],
      "name": "approve",
      "outputs": [],
      "stateMutability": "nonpayable",
      "type": "function"
    },
    {
      "inputs": [
        {
          "internalType": "address",
          "name": "owner",
          "type": "address"
        }
      ],
      "name": "balanceOf",
      "outputs": [
        {
          "internalType": "uint256",
          "name": "",
          "type": "uint256"
        }
      ],
      "stateMutability": "view",
      "type": "function"
    },
    {
      "inputs": [],
      "name": "baseURI",
      "outputs": [
        {
          "internalType": "string",
          "name": "",
          "type": "string"
        }
      ],
      "stateMutability": "view",
      "type": "function"
    },
    {
      "inputs": [
        {
          "internalType": "uint256",
          "name": "tokenId",
          "type": "uint256"
        }
      ],
      "name": "getApproved",
      "outputs": [
        {
          "internalType": "address",
          "name": "",
          "type": "address"
        }
      ],
      "stateMutability": "view",
      "type": "function"
    },
    {
      "inputs": [
        {
          "internalType": "address",
          "name": "_owner",
          "type": "address"
        }
      ],
      "name": "getBalance",
      "outputs": [
        {
          "internalType": "uint256",
          "name": "",
          "type": "uint256"
        }
      ],
      "stateMutability": "view",
      "type": "function"
    },
    {
      "inputs": [],
      "name": "getTokensMinted",
      "outputs": [
        {
          "internalType": "uint256",
          "name": "",
          "type": "uint256"
        }
      ],
      "stateMutability": "view",
      "type": "function"
    },
    {
      "inputs": [
        {
          "internalType": "address",
          "name": "owner",
          "type": "address"
        },
        {
          "internalType": "address",
          "name": "operator",
          "type": "address"
        }
      ],
      "name": "isApprovedForAll",
      "outputs": [
        {
          "internalType": "bool",
          "name": "",
          "type": "bool"
        }
      ],
      "stateMutability": "view",
      "type": "function"
    },
    {
      "inputs": [
        {
          "internalType": "address",
          "name": "recipient",
          "type": "address"
        },
        {
          "internalType": "string",
          "name": "tokenURI",
          "type": "string"
        }
      ],
      "name": "mintSapien",
      "outputs": [
        {
          "internalType": "uint256",
          "name": "",
          "type": "uint256"
        }
      ],
      "stateMutability": "payable",
      "type": "function"
    },
    {
      "inputs": [],
      "name": "name",
      "outputs": [
        {
          "internalType": "string",
          "name": "",
          "type": "string"
        }
      ],
      "stateMutability": "view",
      "type": "function"
    },
    {
      "inputs": [],
      "name": "owner",
      "outputs": [
        {
          "internalType": "address",
          "name": "",
          "type": "address"
        }
      ],
      "stateMutability": "view",
      "type": "function"
    },
    {
      "inputs": [
        {
          "internalType": "uint256",
          "name": "tokenId",
          "type": "uint256"
        }
      ],
      "name": "ownerOf",
      "outputs": [
        {
          "internalType": "address",
          "name": "",
          "type": "address"
        }
      ],
      "stateMutability": "view",
      "type": "function"
    },
    {
      "inputs": [],
      "name": "renounceOwnership",
      "outputs": [],
      "stateMutability": "nonpayable",
      "type": "function"
    },
    {
      "inputs": [
        {
          "internalType": "address",
          "name": "from",
          "type": "address"
        },
        {
          "internalType": "address",
          "name": "to",
          "type": "address"
        },
        {
          "internalType": "uint256",
          "name": "tokenId",
          "type": "uint256"
        }
      ],
      "name": "safeTransferFrom",
      "outputs": [],
      "stateMutability": "nonpayable",
      "type": "function"
    },
    {
      "inputs": [
        {
          "internalType": "address",
          "name": "from",
          "type": "address"
        },
        {
          "internalType": "address",
          "name": "to",
          "type": "address"
        },
        {
          "internalType": "uint256",
          "name": "tokenId",
          "type": "uint256"
        },
        {
          "internalType": "bytes",
          "name": "_data",
          "type": "bytes"
        }
      ],
      "name": "safeTransferFrom",
      "outputs": [],
      "stateMutability": "nonpayable",
      "type": "function"
    },
    {
      "inputs": [
        {
          "internalType": "bool",
          "name": "_active",
          "type": "bool"
        }
      ],
      "name": "setActive",
      "outputs": [],
      "stateMutability": "nonpayable",
      "type": "function"
    },
    {
      "inputs": [
        {
          "internalType": "address",
          "name": "operator",
          "type": "address"
        },
        {
          "internalType": "bool",
          "name": "approved",
          "type": "bool"
        }
      ],
      "name": "setApprovalForAll",
      "outputs": [],
      "stateMutability": "nonpayable",
      "type": "function"
    },
    {
      "inputs": [],
      "name": "supply",
      "outputs": [
        {
          "internalType": "uint256",
          "name": "",
          "type": "uint256"
        }
      ],
      "stateMutability": "view",
      "type": "function"
    },
    {
      "inputs": [
        {
          "internalType": "bytes4",
          "name": "interfaceId",
          "type": "bytes4"
        }
      ],
      "name": "supportsInterface",
      "outputs": [
        {
          "internalType": "bool",
          "name": "",
          "type": "bool"
        }
      ],
      "stateMutability": "view",
      "type": "function"
    },
    {
      "inputs": [],
      "name": "symbol",
      "outputs": [
        {
          "internalType": "string",
          "name": "",
          "type": "string"
        }
      ],
      "stateMutability": "view",
      "type": "function"
    },
    {
      "inputs": [],
      "name": "tokenCount",
      "outputs": [
        {
          "internalType": "uint256",
          "name": "",
          "type": "uint256"
        }
      ],
      "stateMutability": "view",
      "type": "function"
    },
    {
      "inputs": [
        {
          "internalType": "uint256",
          "name": "_tokenId",
          "type": "uint256"
        }
      ],
      "name": "tokenExists",
      "outputs": [
        {
          "internalType": "bool",
          "name": "",
          "type": "bool"
        }
      ],
      "stateMutability": "view",
      "type": "function"
    },
    {
      "inputs": [
        {
          "internalType": "uint256",
          "name": "tokenId",
          "type": "uint256"
        }
      ],
      "name": "tokenURI",
      "outputs": [
        {
          "internalType": "string",
          "name": "",
          "type": "string"
        }
      ],
      "stateMutability": "view",
      "type": "function"
    },
    {
      "inputs": [
        {
          "internalType": "address",
          "name": "from",
          "type": "address"
        },
        {
          "internalType": "address",
          "name": "to",
          "type": "address"
        },
        {
          "internalType": "uint256",
          "name": "tokenId",
          "type": "uint256"
        }
      ],
      "name": "transferFrom",
      "outputs": [],
      "stateMutability": "nonpayable",
      "type": "function"
    },
    {
      "inputs": [
        {
          "internalType": "address",
          "name": "newOwner",
          "type": "address"
        }
      ],
      "name": "transferOwnership",
      "outputs": [],
      "stateMutability": "nonpayable",
      "type": "function"
    }
  ],
  "bytecode": "0x60806040526107d060085567016345785d8a0000600a553480156200002357600080fd5b50604051620039e3380380620039e38339818101604052810190620000499190620002b1565b82828160009080519060200190620000639291906200018f565b5080600190805190602001906200007c9291906200018f565b5050506200009f62000093620000c160201b60201c565b620000c960201b60201c565b80600c9080519060200190620000b79291906200018f565b5050505062000483565b600033905090565b6000600760009054906101000a900473ffffffffffffffffffffffffffffffffffffffff16905081600760006101000a81548173ffffffffffffffffffffffffffffffffffffffff021916908373ffffffffffffffffffffffffffffffffffffffff1602179055508173ffffffffffffffffffffffffffffffffffffffff168173ffffffffffffffffffffffffffffffffffffffff167f8be0079c531659141344cd1fd0a4f28419497f9722a3daafe3b4186f6b6457e060405160405180910390a35050565b8280546200019d90620003ef565b90600052602060002090601f016020900481019282620001c157600085556200020d565b82601f10620001dc57805160ff19168380011785556200020d565b828001600101855582156200020d579182015b828111156200020c578251825591602001919060010190620001ef565b5b5090506200021c919062000220565b5090565b5b808211156200023b57600081600090555060010162000221565b5090565b600062000256620002508462000386565b62000352565b9050828152602081018484840111156200026f57600080fd5b6200027c848285620003b9565b509392505050565b600082601f8301126200029657600080fd5b8151620002a88482602086016200023f565b91505092915050565b600080600060608486031215620002c757600080fd5b600084015167ffffffffffffffff811115620002e257600080fd5b620002f08682870162000284565b935050602084015167ffffffffffffffff8111156200030e57600080fd5b6200031c8682870162000284565b925050604084015167ffffffffffffffff8111156200033a57600080fd5b620003488682870162000284565b9150509250925092565b6000604051905081810181811067ffffffffffffffff821117156200037c576200037b62000454565b5b8060405250919050565b600067ffffffffffffffff821115620003a457620003a362000454565b5b601f19601f8301169050602081019050919050565b60005b83811015620003d9578082015181840152602081019050620003bc565b83811115620003e9576000848401525b50505050565b600060028204905060018216806200040857607f821691505b602082108114156200041f576200041e62000425565b5b50919050565b7f4e487b7100000000000000000000000000000000000000000000000000000000600052602260045260246000fd5b7f4e487b7100000000000000000000000000000000000000000000000000000000600052604160045260246000fd5b61355080620004936000396000f3fe60806040526004361061014a5760003560e01c80638da5cb5b116100b6578063c87b56dd1161006f578063c87b56dd1461048f578063d69f6bae146104cc578063e985e9c5146104f7578063f2fde38b14610534578063f55e851d1461055d578063f8b2cb4f1461058d5761014a565b80638da5cb5b1461039357806395d89b41146103be5780639f181b5e146103e9578063a22cb46514610414578063acec338a1461043d578063b88d4fde146104665761014a565b806323b872dd1161010857806323b872dd1461028557806342842e0e146102ae5780636352211e146102d75780636c0360eb1461031457806370a082311461033f578063715018a61461037c5761014a565b8062923f9e1461014f57806301ffc9a71461018c578063047fc9aa146101c957806306fdde03146101f4578063081812fc1461021f578063095ea7b31461025c575b600080fd5b34801561015b57600080fd5b50610176600480360381019061017191906124aa565b6105ca565b6040516101839190612de8565b60405180910390f35b34801561019857600080fd5b506101b360048036038101906101ae9190612458565b6105dc565b6040516101c09190612de8565b60405180910390f35b3480156101d557600080fd5b506101de6106be565b6040516101eb91906130e5565b60405180910390f35b34801561020057600080fd5b506102096106c4565b6040516102169190612e03565b60405180910390f35b34801561022b57600080fd5b50610246600480360381019061024191906124aa565b610756565b6040516102539190612d81565b60405180910390f35b34801561026857600080fd5b50610283600480360381019061027e91906123f3565b6107db565b005b34801561029157600080fd5b506102ac60048036038101906102a79190612299565b6108f3565b005b3480156102ba57600080fd5b506102d560048036038101906102d09190612299565b610953565b005b3480156102e357600080fd5b506102fe60048036038101906102f991906124aa565b610973565b60405161030b9190612d81565b60405180910390f35b34801561032057600080fd5b50610329610a25565b6040516103369190612e03565b60405180910390f35b34801561034b57600080fd5b5061036660048036038101906103619190612234565b610ab3565b60405161037391906130e5565b60405180910390f35b34801561038857600080fd5b50610391610b6b565b005b34801561039f57600080fd5b506103a8610bf3565b6040516103b59190612d81565b60405180910390f35b3480156103ca57600080fd5b506103d3610c1d565b6040516103e09190612e03565b60405180910390f35b3480156103f557600080fd5b506103fe610caf565b60405161040b91906130e5565b60405180910390f35b34801561042057600080fd5b5061043b60048036038101906104369190612363565b610cb5565b005b34801561044957600080fd5b50610464600480360381019061045f919061242f565b610e36565b005b34801561047257600080fd5b5061048d600480360381019061048891906122e8565b610ecf565b005b34801561049b57600080fd5b506104b660048036038101906104b191906124aa565b610f31565b6040516104c39190612e03565b60405180910390f35b3480156104d857600080fd5b506104e1611083565b6040516104ee91906130e5565b60405180910390f35b34801561050357600080fd5b5061051e6004803603810190610519919061225d565b61108d565b60405161052b9190612de8565b60405180910390f35b34801561054057600080fd5b5061055b60048036038101906105569190612234565b611121565b005b6105776004803603810190610572919061239f565b611219565b60405161058491906130e5565b60405180910390f35b34801561059957600080fd5b506105b460048036038101906105af9190612234565b61137e565b6040516105c191906130e5565b60405180910390f35b60006105d582611390565b9050919050565b60007f80ac58cd000000000000000000000000000000000000000000000000000000007bffffffffffffffffffffffffffffffffffffffffffffffffffffffff1916827bffffffffffffffffffffffffffffffffffffffffffffffffffffffff191614806106a757507f5b5e139f000000000000000000000000000000000000000000000000000000007bffffffffffffffffffffffffffffffffffffffffffffffffffffffff1916827bffffffffffffffffffffffffffffffffffffffffffffffffffffffff1916145b806106b757506106b6826113fc565b5b9050919050565b60085481565b6060600080546106d390613345565b80601f01602080910402602001604051908101604052809291908181526020018280546106ff90613345565b801561074c5780601f106107215761010080835404028352916020019161074c565b820191906000526020600020905b81548152906001019060200180831161072f57829003601f168201915b5050505050905090565b600061076182611390565b6107a0576040517f08c379a000000000000000000000000000000000000000000000000000000000815260040161079790612fc5565b60405180910390fd5b6004600083815260200190815260200160002060009054906101000a900473ffffffffffffffffffffffffffffffffffffffff169050919050565b60006107e682610973565b90508073ffffffffffffffffffffffffffffffffffffffff168373ffffffffffffffffffffffffffffffffffffffff161415610857576040517f08c379a000000000000000000000000000000000000000000000000000000000815260040161084e90613065565b60405180910390fd5b8073ffffffffffffffffffffffffffffffffffffffff16610876611466565b73ffffffffffffffffffffffffffffffffffffffff1614806108a557506108a48161089f611466565b61108d565b5b6108e4576040517f08c379a00000000000000000000000000000000000000000000000000000000081526004016108db90612ee5565b60405180910390fd5b6108ee838361146e565b505050565b6109046108fe611466565b82611527565b610943576040517f08c379a000000000000000000000000000000000000000000000000000000000815260040161093a90613085565b60405180910390fd5b61094e838383611605565b505050565b61096e83838360405180602001604052806000815250610ecf565b505050565b6000806002600084815260200190815260200160002060009054906101000a900473ffffffffffffffffffffffffffffffffffffffff169050600073ffffffffffffffffffffffffffffffffffffffff168173ffffffffffffffffffffffffffffffffffffffff161415610a1c576040517f08c379a0000000000000000000000000000000000000000000000000000000008152600401610a1390612f25565b60405180910390fd5b80915050919050565b600c8054610a3290613345565b80601f0160208091040260200160405190810160405280929190818152602001828054610a5e90613345565b8015610aab5780601f10610a8057610100808354040283529160200191610aab565b820191906000526020600020905b815481529060010190602001808311610a8e57829003601f168201915b505050505081565b60008073ffffffffffffffffffffffffffffffffffffffff168273ffffffffffffffffffffffffffffffffffffffff161415610b24576040517f08c379a0000000000000000000000000000000000000000000000000000000008152600401610b1b90612f05565b60405180910390fd5b600360008373ffffffffffffffffffffffffffffffffffffffff1673ffffffffffffffffffffffffffffffffffffffff168152602001908152602001600020549050919050565b610b73611466565b73ffffffffffffffffffffffffffffffffffffffff16610b91610bf3565b73ffffffffffffffffffffffffffffffffffffffff1614610be7576040517f08c379a0000000000000000000000000000000000000000000000000000000008152600401610bde90612fe5565b60405180910390fd5b610bf16000611861565b565b6000600760009054906101000a900473ffffffffffffffffffffffffffffffffffffffff16905090565b606060018054610c2c90613345565b80601f0160208091040260200160405190810160405280929190818152602001828054610c5890613345565b8015610ca55780601f10610c7a57610100808354040283529160200191610ca5565b820191906000526020600020905b815481529060010190602001808311610c8857829003601f168201915b5050505050905090565b60095481565b610cbd611466565b73ffffffffffffffffffffffffffffffffffffffff168273ffffffffffffffffffffffffffffffffffffffff161415610d2b576040517f08c379a0000000000000000000000000000000000000000000000000000000008152600401610d2290612ea5565b60405180910390fd5b8060056000610d38611466565b73ffffffffffffffffffffffffffffffffffffffff1673ffffffffffffffffffffffffffffffffffffffff16815260200190815260200160002060008473ffffffffffffffffffffffffffffffffffffffff1673ffffffffffffffffffffffffffffffffffffffff16815260200190815260200160002060006101000a81548160ff0219169083151502179055508173ffffffffffffffffffffffffffffffffffffffff16610de5611466565b73ffffffffffffffffffffffffffffffffffffffff167f17307eab39ab6107e8899845ad3d59bd9653f200f220920489ca2b5937696c3183604051610e2a9190612de8565b60405180910390a35050565b610e3e611466565b73ffffffffffffffffffffffffffffffffffffffff16610e5c610bf3565b73ffffffffffffffffffffffffffffffffffffffff1614610eb2576040517f08c379a0000000000000000000000000000000000000000000000000000000008152600401610ea990612fe5565b60405180910390fd5b80600b60006101000a81548160ff02191690831515021790555050565b610ee0610eda611466565b83611527565b610f1f576040517f08c379a0000000000000000000000000000000000000000000000000000000008152600401610f1690613085565b60405180910390fd5b610f2b84848484611927565b50505050565b6060610f3c82611390565b610f7b576040517f08c379a0000000000000000000000000000000000000000000000000000000008152600401610f7290612fa5565b60405180910390fd5b6000600660008481526020019081526020016000208054610f9b90613345565b80601f0160208091040260200160405190810160405280929190818152602001828054610fc790613345565b80156110145780601f10610fe957610100808354040283529160200191611014565b820191906000526020600020905b815481529060010190602001808311610ff757829003601f168201915b505050505090506000611025611983565b905060008151141561103b57819250505061107e565b600082511115611070578082604051602001611058929190612d5d565b6040516020818303038152906040529250505061107e565b6110798461199a565b925050505b919050565b6000600954905090565b6000600560008473ffffffffffffffffffffffffffffffffffffffff1673ffffffffffffffffffffffffffffffffffffffff16815260200190815260200160002060008373ffffffffffffffffffffffffffffffffffffffff1673ffffffffffffffffffffffffffffffffffffffff16815260200190815260200160002060009054906101000a900460ff16905092915050565b611129611466565b73ffffffffffffffffffffffffffffffffffffffff16611147610bf3565b73ffffffffffffffffffffffffffffffffffffffff161461119d576040517f08c379a000000000000000000000000000000000000000000000000000000000815260040161119490612fe5565b60405180910390fd5b600073ffffffffffffffffffffffffffffffffffffffff168173ffffffffffffffffffffffffffffffffffffffff16141561120d576040517f08c379a000000000000000000000000000000000000000000000000000000000815260040161120490612e45565b60405180910390fd5b61121681611861565b50565b6000600b60009054906101000a900460ff1661126a576040517f08c379a000000000000000000000000000000000000000000000000000000000815260040161126190613045565b60405180910390fd5b600a5434146112ae576040517f08c379a00000000000000000000000000000000000000000000000000000000081526004016112a5906130a5565b60405180910390fd5b60006112b98461137e565b146112f9576040517f08c379a00000000000000000000000000000000000000000000000000000000081526004016112f0906130c5565b60405180910390fd5b600854611304611083565b10611344576040517f08c379a000000000000000000000000000000000000000000000000000000000815260040161133b90612f85565b60405180910390fd5b600060095490506113558482611a41565b61135f8184611a5f565b600160095461136e91906131d4565b6009819055508091505092915050565b600061138982610ab3565b9050919050565b60008073ffffffffffffffffffffffffffffffffffffffff166002600084815260200190815260200160002060009054906101000a900473ffffffffffffffffffffffffffffffffffffffff1673ffffffffffffffffffffffffffffffffffffffff1614159050919050565b60007f01ffc9a7000000000000000000000000000000000000000000000000000000007bffffffffffffffffffffffffffffffffffffffffffffffffffffffff1916827bffffffffffffffffffffffffffffffffffffffffffffffffffffffff1916149050919050565b600033905090565b816004600083815260200190815260200160002060006101000a81548173ffffffffffffffffffffffffffffffffffffffff021916908373ffffffffffffffffffffffffffffffffffffffff160217905550808273ffffffffffffffffffffffffffffffffffffffff166114e183610973565b73ffffffffffffffffffffffffffffffffffffffff167f8c5be1e5ebec7d5bd14f71427d1e84f3dd0314c0f7b2291e5b200ac8c7c3b92560405160405180910390a45050565b600061153282611390565b611571576040517f08c379a000000000000000000000000000000000000000000000000000000000815260040161156890612ec5565b60405180910390fd5b600061157c83610973565b90508073ffffffffffffffffffffffffffffffffffffffff168473ffffffffffffffffffffffffffffffffffffffff1614806115eb57508373ffffffffffffffffffffffffffffffffffffffff166115d384610756565b73ffffffffffffffffffffffffffffffffffffffff16145b806115fc57506115fb818561108d565b5b91505092915050565b8273ffffffffffffffffffffffffffffffffffffffff1661162582610973565b73ffffffffffffffffffffffffffffffffffffffff161461167b576040517f08c379a000000000000000000000000000000000000000000000000000000000815260040161167290613005565b60405180910390fd5b600073ffffffffffffffffffffffffffffffffffffffff168273ffffffffffffffffffffffffffffffffffffffff1614156116eb576040517f08c379a00000000000000000000000000000000000000000000000000000000081526004016116e290612e85565b60405180910390fd5b6116f6838383611ad3565b61170160008261146e565b6001600360008573ffffffffffffffffffffffffffffffffffffffff1673ffffffffffffffffffffffffffffffffffffffff1681526020019081526020016000206000828254611751919061325b565b925050819055506001600360008473ffffffffffffffffffffffffffffffffffffffff1673ffffffffffffffffffffffffffffffffffffffff16815260200190815260200160002060008282546117a891906131d4565b92505081905550816002600083815260200190815260200160002060006101000a81548173ffffffffffffffffffffffffffffffffffffffff021916908373ffffffffffffffffffffffffffffffffffffffff160217905550808273ffffffffffffffffffffffffffffffffffffffff168473ffffffffffffffffffffffffffffffffffffffff167fddf252ad1be2c89b69c2b068fc378daa952ba7f163c4a11628f55a4df523b3ef60405160405180910390a4505050565b6000600760009054906101000a900473ffffffffffffffffffffffffffffffffffffffff16905081600760006101000a81548173ffffffffffffffffffffffffffffffffffffffff021916908373ffffffffffffffffffffffffffffffffffffffff1602179055508173ffffffffffffffffffffffffffffffffffffffff168173ffffffffffffffffffffffffffffffffffffffff167f8be0079c531659141344cd1fd0a4f28419497f9722a3daafe3b4186f6b6457e060405160405180910390a35050565b611932848484611605565b61193e84848484611ad8565b61197d576040517f08c379a000000000000000000000000000000000000000000000000000000000815260040161197490612e25565b60405180910390fd5b50505050565b606060405180602001604052806000815250905090565b60606119a582611390565b6119e4576040517f08c379a00000000000000000000000000000000000000000000000000000000081526004016119db90613025565b60405180910390fd5b60006119ee611983565b90506000815111611a0e5760405180602001604052806000815250611a39565b80611a1884611c6f565b604051602001611a29929190612d5d565b6040516020818303038152906040525b915050919050565b611a5b828260405180602001604052806000815250611e1c565b5050565b611a6882611390565b611aa7576040517f08c379a0000000000000000000000000000000000000000000000000000000008152600401611a9e90612f45565b60405180910390fd5b80600660008481526020019081526020016000209080519060200190611ace929190612058565b505050565b505050565b6000611af98473ffffffffffffffffffffffffffffffffffffffff16611e77565b15611c62578373ffffffffffffffffffffffffffffffffffffffff1663150b7a02611b22611466565b8786866040518563ffffffff1660e01b8152600401611b449493929190612d9c565b602060405180830381600087803b158015611b5e57600080fd5b505af1925050508015611b8f57506040513d601f19601f82011682018060405250810190611b8c9190612481565b60015b611c12573d8060008114611bbf576040519150601f19603f3d011682016040523d82523d6000602084013e611bc4565b606091505b50600081511415611c0a576040517f08c379a0000000000000000000000000000000000000000000000000000000008152600401611c0190612e25565b60405180910390fd5b805181602001fd5b63150b7a0260e01b7bffffffffffffffffffffffffffffffffffffffffffffffffffffffff1916817bffffffffffffffffffffffffffffffffffffffffffffffffffffffff191614915050611c67565b600190505b949350505050565b60606000821415611cb7576040518060400160405280600181526020017f30000000000000000000000000000000000000000000000000000000000000008152509050611e17565b600082905060005b60008214611ce9578080611cd290613377565b915050600a82611ce2919061322a565b9150611cbf565b60008167ffffffffffffffff811115611d2b577f4e487b7100000000000000000000000000000000000000000000000000000000600052604160045260246000fd5b6040519080825280601f01601f191660200182016040528015611d5d5781602001600182028036833780820191505090505b5090505b60008514611e1057600182611d76919061325b565b9150600a85611d8591906133c0565b6030611d9191906131d4565b60f81b818381518110611dcd577f4e487b7100000000000000000000000000000000000000000000000000000000600052603260045260246000fd5b60200101907effffffffffffffffffffffffffffffffffffffffffffffffffffffffffffff1916908160001a905350600a85611e09919061322a565b9450611d61565b8093505050505b919050565b611e268383611e8a565b611e336000848484611ad8565b611e72576040517f08c379a0000000000000000000000000000000000000000000000000000000008152600401611e6990612e25565b60405180910390fd5b505050565b600080823b905060008111915050919050565b600073ffffffffffffffffffffffffffffffffffffffff168273ffffffffffffffffffffffffffffffffffffffff161415611efa576040517f08c379a0000000000000000000000000000000000000000000000000000000008152600401611ef190612f65565b60405180910390fd5b611f0381611390565b15611f43576040517f08c379a0000000000000000000000000000000000000000000000000000000008152600401611f3a90612e65565b60405180910390fd5b611f4f60008383611ad3565b6001600360008473ffffffffffffffffffffffffffffffffffffffff1673ffffffffffffffffffffffffffffffffffffffff1681526020019081526020016000206000828254611f9f91906131d4565b92505081905550816002600083815260200190815260200160002060006101000a81548173ffffffffffffffffffffffffffffffffffffffff021916908373ffffffffffffffffffffffffffffffffffffffff160217905550808273ffffffffffffffffffffffffffffffffffffffff16600073ffffffffffffffffffffffffffffffffffffffff167fddf252ad1be2c89b69c2b068fc378daa952ba7f163c4a11628f55a4df523b3ef60405160405180910390a45050565b82805461206490613345565b90600052602060002090601f01602090048101928261208657600085556120cd565b82601f1061209f57805160ff19168380011785556120cd565b828001600101855582156120cd579182015b828111156120cc5782518255916020019190600101906120b1565b5b5090506120da91906120de565b5090565b5b808211156120f75760008160009055506001016120df565b5090565b600061210e61210984613131565b613100565b90508281526020810184848401111561212657600080fd5b612131848285613303565b509392505050565b600061214c61214784613161565b613100565b90508281526020810184848401111561216457600080fd5b61216f848285613303565b509392505050565b600081359050612186816134be565b92915050565b60008135905061219b816134d5565b92915050565b6000813590506121b0816134ec565b92915050565b6000815190506121c5816134ec565b92915050565b600082601f8301126121dc57600080fd5b81356121ec8482602086016120fb565b91505092915050565b600082601f83011261220657600080fd5b8135612216848260208601612139565b91505092915050565b60008135905061222e81613503565b92915050565b60006020828403121561224657600080fd5b600061225484828501612177565b91505092915050565b6000806040838503121561227057600080fd5b600061227e85828601612177565b925050602061228f85828601612177565b9150509250929050565b6000806000606084860312156122ae57600080fd5b60006122bc86828701612177565b93505060206122cd86828701612177565b92505060406122de8682870161221f565b9150509250925092565b600080600080608085870312156122fe57600080fd5b600061230c87828801612177565b945050602061231d87828801612177565b935050604061232e8782880161221f565b925050606085013567ffffffffffffffff81111561234b57600080fd5b612357878288016121cb565b91505092959194509250565b6000806040838503121561237657600080fd5b600061238485828601612177565b92505060206123958582860161218c565b9150509250929050565b600080604083850312156123b257600080fd5b60006123c085828601612177565b925050602083013567ffffffffffffffff8111156123dd57600080fd5b6123e9858286016121f5565b9150509250929050565b6000806040838503121561240657600080fd5b600061241485828601612177565b92505060206124258582860161221f565b9150509250929050565b60006020828403121561244157600080fd5b600061244f8482850161218c565b91505092915050565b60006020828403121561246a57600080fd5b6000612478848285016121a1565b91505092915050565b60006020828403121561249357600080fd5b60006124a1848285016121b6565b91505092915050565b6000602082840312156124bc57600080fd5b60006124ca8482850161221f565b91505092915050565b6124dc8161328f565b82525050565b6124eb816132a1565b82525050565b60006124fc82613191565b61250681856131a7565b9350612516818560208601613312565b61251f816134ad565b840191505092915050565b60006125358261319c565b61253f81856131b8565b935061254f818560208601613312565b612558816134ad565b840191505092915050565b600061256e8261319c565b61257881856131c9565b9350612588818560208601613312565b80840191505092915050565b60006125a16032836131b8565b91507f4552433732313a207472616e7366657220746f206e6f6e20455243373231526560008301527f63656976657220696d706c656d656e74657200000000000000000000000000006020830152604082019050919050565b60006126076026836131b8565b91507f4f776e61626c653a206e6577206f776e657220697320746865207a65726f206160008301527f64647265737300000000000000000000000000000000000000000000000000006020830152604082019050919050565b600061266d601c836131b8565b91507f4552433732313a20746f6b656e20616c7265616479206d696e746564000000006000830152602082019050919050565b60006126ad6024836131b8565b91507f4552433732313a207472616e7366657220746f20746865207a65726f2061646460008301527f72657373000000000000000000000000000000000000000000000000000000006020830152604082019050919050565b60006127136019836131b8565b91507f4552433732313a20617070726f766520746f2063616c6c6572000000000000006000830152602082019050919050565b6000612753602c836131b8565b91507f4552433732313a206f70657261746f7220717565727920666f72206e6f6e657860008301527f697374656e7420746f6b656e00000000000000000000000000000000000000006020830152604082019050919050565b60006127b96038836131b8565b91507f4552433732313a20617070726f76652063616c6c6572206973206e6f74206f7760008301527f6e6572206e6f7220617070726f76656420666f7220616c6c00000000000000006020830152604082019050919050565b600061281f602a836131b8565b91507f4552433732313a2062616c616e636520717565727920666f7220746865207a6560008301527f726f2061646472657373000000000000000000000000000000000000000000006020830152604082019050919050565b60006128856029836131b8565b91507f4552433732313a206f776e657220717565727920666f72206e6f6e657869737460008301527f656e7420746f6b656e00000000000000000000000000000000000000000000006020830152604082019050919050565b60006128eb602e836131b8565b91507f45524337323155524953746f726167653a2055524920736574206f66206e6f6e60008301527f6578697374656e7420746f6b656e0000000000000000000000000000000000006020830152604082019050919050565b60006129516020836131b8565b91507f4552433732313a206d696e7420746f20746865207a65726f20616464726573736000830152602082019050919050565b60006129916019836131b8565b91507f416c6c204e4654732068617665206265656e206d696e746564000000000000006000830152602082019050919050565b60006129d16031836131b8565b91507f45524337323155524953746f726167653a2055524920717565727920666f722060008301527f6e6f6e6578697374656e7420746f6b656e0000000000000000000000000000006020830152604082019050919050565b6000612a37602c836131b8565b91507f4552433732313a20617070726f76656420717565727920666f72206e6f6e657860008301527f697374656e7420746f6b656e00000000000000000000000000000000000000006020830152604082019050919050565b6000612a9d6020836131b8565b91507f4f776e61626c653a2063616c6c6572206973206e6f7420746865206f776e65726000830152602082019050919050565b6000612add6029836131b8565b91507f4552433732313a207472616e73666572206f6620746f6b656e2074686174206960008301527f73206e6f74206f776e00000000000000000000000000000000000000000000006020830152604082019050919050565b6000612b43602f836131b8565b91507f4552433732314d657461646174613a2055524920717565727920666f72206e6f60008301527f6e6578697374656e7420746f6b656e00000000000000000000000000000000006020830152604082019050919050565b6000612ba9601a836131b8565b91507f53616c652069732063757272656e746c7920696e6163746976650000000000006000830152602082019050919050565b6000612be96021836131b8565b91507f4552433732313a20617070726f76616c20746f2063757272656e74206f776e6560008301527f72000000000000000000000000000000000000000000000000000000000000006020830152604082019050919050565b6000612c4f6031836131b8565b91507f4552433732313a207472616e736665722063616c6c6572206973206e6f74206f60008301527f776e6572206e6f7220617070726f7665640000000000000000000000000000006020830152604082019050919050565b6000612cb56019836131b8565b91507f496e636f727265637420616d6f756e74206f66206574686572000000000000006000830152602082019050919050565b6000612cf56024836131b8565b91507f596f752063616e6e6f74206d696e74206d6f7265207468616e206f6e6520536160008301527f7069656e000000000000000000000000000000000000000000000000000000006020830152604082019050919050565b612d57816132f9565b82525050565b6000612d698285612563565b9150612d758284612563565b91508190509392505050565b6000602082019050612d9660008301846124d3565b92915050565b6000608082019050612db160008301876124d3565b612dbe60208301866124d3565b612dcb6040830185612d4e565b8181036060830152612ddd81846124f1565b905095945050505050565b6000602082019050612dfd60008301846124e2565b92915050565b60006020820190508181036000830152612e1d818461252a565b905092915050565b60006020820190508181036000830152612e3e81612594565b9050919050565b60006020820190508181036000830152612e5e816125fa565b9050919050565b60006020820190508181036000830152612e7e81612660565b9050919050565b60006020820190508181036000830152612e9e816126a0565b9050919050565b60006020820190508181036000830152612ebe81612706565b9050919050565b60006020820190508181036000830152612ede81612746565b9050919050565b60006020820190508181036000830152612efe816127ac565b9050919050565b60006020820190508181036000830152612f1e81612812565b9050919050565b60006020820190508181036000830152612f3e81612878565b9050919050565b60006020820190508181036000830152612f5e816128de565b9050919050565b60006020820190508181036000830152612f7e81612944565b9050919050565b60006020820190508181036000830152612f9e81612984565b9050919050565b60006020820190508181036000830152612fbe816129c4565b9050919050565b60006020820190508181036000830152612fde81612a2a565b9050919050565b60006020820190508181036000830152612ffe81612a90565b9050919050565b6000602082019050818103600083015261301e81612ad0565b9050919050565b6000602082019050818103600083015261303e81612b36565b9050919050565b6000602082019050818103600083015261305e81612b9c565b9050919050565b6000602082019050818103600083015261307e81612bdc565b9050919050565b6000602082019050818103600083015261309e81612c42565b9050919050565b600060208201905081810360008301526130be81612ca8565b9050919050565b600060208201905081810360008301526130de81612ce8565b9050919050565b60006020820190506130fa6000830184612d4e565b92915050565b6000604051905081810181811067ffffffffffffffff821117156131275761312661347e565b5b8060405250919050565b600067ffffffffffffffff82111561314c5761314b61347e565b5b601f19601f8301169050602081019050919050565b600067ffffffffffffffff82111561317c5761317b61347e565b5b601f19601f8301169050602081019050919050565b600081519050919050565b600081519050919050565b600082825260208201905092915050565b600082825260208201905092915050565b600081905092915050565b60006131df826132f9565b91506131ea836132f9565b9250827fffffffffffffffffffffffffffffffffffffffffffffffffffffffffffffffff0382111561321f5761321e6133f1565b5b828201905092915050565b6000613235826132f9565b9150613240836132f9565b9250826132505761324f613420565b5b828204905092915050565b6000613266826132f9565b9150613271836132f9565b925082821015613284576132836133f1565b5b828203905092915050565b600061329a826132d9565b9050919050565b60008115159050919050565b60007fffffffff0000000000000000000000000000000000000000000000000000000082169050919050565b600073ffffffffffffffffffffffffffffffffffffffff82169050919050565b6000819050919050565b82818337600083830152505050565b60005b83811015613330578082015181840152602081019050613315565b8381111561333f576000848401525b50505050565b6000600282049050600182168061335d57607f821691505b602082108114156133715761337061344f565b5b50919050565b6000613382826132f9565b91507fffffffffffffffffffffffffffffffffffffffffffffffffffffffffffffffff8214156133b5576133b46133f1565b5b600182019050919050565b60006133cb826132f9565b91506133d6836132f9565b9250826133e6576133e5613420565b5b828206905092915050565b7f4e487b7100000000000000000000000000000000000000000000000000000000600052601160045260246000fd5b7f4e487b7100000000000000000000000000000000000000000000000000000000600052601260045260246000fd5b7f4e487b7100000000000000000000000000000000000000000000000000000000600052602260045260246000fd5b7f4e487b7100000000000000000000000000000000000000000000000000000000600052604160045260246000fd5b6000601f19601f8301169050919050565b6134c78161328f565b81146134d257600080fd5b50565b6134de816132a1565b81146134e957600080fd5b50565b6134f5816132ad565b811461350057600080fd5b50565b61350c816132f9565b811461351757600080fd5b5056fea2646970667358221220da56895452da1e8cb4784b536a1400f86a77764f85b82b54fe1d7629f6bd0d4064736f6c63430008000033",
  "linkReferences": {},
  "deployedLinkReferences": {}
}