{
  "_format": "hh-sol-artifact-1",
  "contractName": "Sapien",
  "sourceName": "contracts/Sapien.sol",
  "abi": [
    {
      "inputs": [
        {
          "internalType": "string",
          "name": "_name",
          "type": "string"
        },
        {
          "internalType": "string",
          "name": "_symbol",
          "type": "string"
        },
        {
          "internalType": "string",
          "name": "_baseURI",
          "type": "string"
        }
      ],
      "stateMutability": "nonpayable",
      "type": "constructor"
    },
    {
      "anonymous": false,
      "inputs": [
        {
          "indexed": true,
          "internalType": "address",
          "name": "owner",
          "type": "address"
        },
        {
          "indexed": true,
          "internalType": "address",
          "name": "approved",
          "type": "address"
        },
        {
          "indexed": true,
          "internalType": "uint256",
          "name": "tokenId",
          "type": "uint256"
        }
      ],
      "name": "Approval",
      "type": "event"
    },
    {
      "anonymous": false,
      "inputs": [
        {
          "indexed": true,
          "internalType": "address",
          "name": "owner",
          "type": "address"
        },
        {
          "indexed": true,
          "internalType": "address",
          "name": "operator",
          "type": "address"
        },
        {
          "indexed": false,
          "internalType": "bool",
          "name": "approved",
          "type": "bool"
        }
      ],
      "name": "ApprovalForAll",
      "type": "event"
    },
    {
      "anonymous": false,
      "inputs": [
        {
          "indexed": true,
          "internalType": "address",
          "name": "previousOwner",
          "type": "address"
        },
        {
          "indexed": true,
          "internalType": "address",
          "name": "newOwner",
          "type": "address"
        }
      ],
      "name": "OwnershipTransferred",
      "type": "event"
    },
    {
      "anonymous": false,
      "inputs": [
        {
          "indexed": true,
          "internalType": "address",
          "name": "from",
          "type": "address"
        },
        {
          "indexed": true,
          "internalType": "address",
          "name": "to",
          "type": "address"
        },
        {
          "indexed": true,
          "internalType": "uint256",
          "name": "tokenId",
          "type": "uint256"
        }
      ],
      "name": "Transfer",
      "type": "event"
    },
    {
      "inputs": [
        {
          "internalType": "address",
          "name": "to",
          "type": "address"
        },
        {
          "internalType": "uint256",
          "name": "tokenId",
          "type": "uint256"
        }
      ],
      "name": "approve",
      "outputs": [],
      "stateMutability": "nonpayable",
      "type": "function"
    },
    {
      "inputs": [
        {
          "internalType": "address",
          "name": "owner",
          "type": "address"
        }
      ],
      "name": "balanceOf",
      "outputs": [
        {
          "internalType": "uint256",
          "name": "",
          "type": "uint256"
        }
      ],
      "stateMutability": "view",
      "type": "function"
    },
    {
      "inputs": [],
      "name": "baseURI",
      "outputs": [
        {
          "internalType": "string",
          "name": "",
          "type": "string"
        }
      ],
      "stateMutability": "view",
      "type": "function"
    },
    {
      "inputs": [
        {
          "internalType": "uint256",
          "name": "tokenId",
          "type": "uint256"
        }
      ],
      "name": "getApproved",
      "outputs": [
        {
          "internalType": "address",
          "name": "",
          "type": "address"
        }
      ],
      "stateMutability": "view",
      "type": "function"
    },
    {
      "inputs": [
        {
          "internalType": "address",
          "name": "_owner",
          "type": "address"
        }
      ],
      "name": "getBalance",
      "outputs": [
        {
          "internalType": "uint256",
          "name": "",
          "type": "uint256"
        }
      ],
      "stateMutability": "view",
      "type": "function"
    },
    {
      "inputs": [],
      "name": "getTokensMinted",
      "outputs": [
        {
          "internalType": "uint256",
          "name": "",
          "type": "uint256"
        }
      ],
      "stateMutability": "view",
      "type": "function"
    },
    {
      "inputs": [
        {
          "internalType": "address",
          "name": "owner",
          "type": "address"
        },
        {
          "internalType": "address",
          "name": "operator",
          "type": "address"
        }
      ],
      "name": "isApprovedForAll",
      "outputs": [
        {
          "internalType": "bool",
          "name": "",
          "type": "bool"
        }
      ],
      "stateMutability": "view",
      "type": "function"
    },
    {
      "inputs": [
        {
          "internalType": "address",
          "name": "recipient",
          "type": "address"
        },
        {
          "internalType": "string",
          "name": "tokenURI",
          "type": "string"
        },
        {
          "internalType": "uint256",
          "name": "_tokenId",
          "type": "uint256"
        }
      ],
      "name": "mintSapien",
      "outputs": [
        {
          "internalType": "uint256",
          "name": "",
          "type": "uint256"
        }
      ],
      "stateMutability": "payable",
      "type": "function"
    },
    {
      "inputs": [],
      "name": "name",
      "outputs": [
        {
          "internalType": "string",
          "name": "",
          "type": "string"
        }
      ],
      "stateMutability": "view",
      "type": "function"
    },
    {
      "inputs": [],
      "name": "owner",
      "outputs": [
        {
          "internalType": "address",
          "name": "",
          "type": "address"
        }
      ],
      "stateMutability": "view",
      "type": "function"
    },
    {
      "inputs": [
        {
          "internalType": "uint256",
          "name": "tokenId",
          "type": "uint256"
        }
      ],
      "name": "ownerOf",
      "outputs": [
        {
          "internalType": "address",
          "name": "",
          "type": "address"
        }
      ],
      "stateMutability": "view",
      "type": "function"
    },
    {
      "inputs": [],
      "name": "renounceOwnership",
      "outputs": [],
      "stateMutability": "nonpayable",
      "type": "function"
    },
    {
      "inputs": [
        {
          "internalType": "address",
          "name": "from",
          "type": "address"
        },
        {
          "internalType": "address",
          "name": "to",
          "type": "address"
        },
        {
          "internalType": "uint256",
          "name": "tokenId",
          "type": "uint256"
        }
      ],
      "name": "safeTransferFrom",
      "outputs": [],
      "stateMutability": "nonpayable",
      "type": "function"
    },
    {
      "inputs": [
        {
          "internalType": "address",
          "name": "from",
          "type": "address"
        },
        {
          "internalType": "address",
          "name": "to",
          "type": "address"
        },
        {
          "internalType": "uint256",
          "name": "tokenId",
          "type": "uint256"
        },
        {
          "internalType": "bytes",
          "name": "_data",
          "type": "bytes"
        }
      ],
      "name": "safeTransferFrom",
      "outputs": [],
      "stateMutability": "nonpayable",
      "type": "function"
    },
    {
      "inputs": [
        {
          "internalType": "bool",
          "name": "_active",
          "type": "bool"
        }
      ],
      "name": "setActive",
      "outputs": [],
      "stateMutability": "nonpayable",
      "type": "function"
    },
    {
      "inputs": [
        {
          "internalType": "address",
          "name": "operator",
          "type": "address"
        },
        {
          "internalType": "bool",
          "name": "approved",
          "type": "bool"
        }
      ],
      "name": "setApprovalForAll",
      "outputs": [],
      "stateMutability": "nonpayable",
      "type": "function"
    },
    {
      "inputs": [],
      "name": "supply",
      "outputs": [
        {
          "internalType": "uint256",
          "name": "",
          "type": "uint256"
        }
      ],
      "stateMutability": "view",
      "type": "function"
    },
    {
      "inputs": [
        {
          "internalType": "bytes4",
          "name": "interfaceId",
          "type": "bytes4"
        }
      ],
      "name": "supportsInterface",
      "outputs": [
        {
          "internalType": "bool",
          "name": "",
          "type": "bool"
        }
      ],
      "stateMutability": "view",
      "type": "function"
    },
    {
      "inputs": [],
      "name": "symbol",
      "outputs": [
        {
          "internalType": "string",
          "name": "",
          "type": "string"
        }
      ],
      "stateMutability": "view",
      "type": "function"
    },
    {
      "inputs": [],
      "name": "tokenCount",
      "outputs": [
        {
          "internalType": "uint256",
          "name": "",
          "type": "uint256"
        }
      ],
      "stateMutability": "view",
      "type": "function"
    },
    {
      "inputs": [
        {
          "internalType": "uint256",
          "name": "_tokenId",
          "type": "uint256"
        }
      ],
      "name": "tokenExists",
      "outputs": [
        {
          "internalType": "bool",
          "name": "",
          "type": "bool"
        }
      ],
      "stateMutability": "view",
      "type": "function"
    },
    {
      "inputs": [
        {
          "internalType": "uint256",
          "name": "tokenId",
          "type": "uint256"
        }
      ],
      "name": "tokenURI",
      "outputs": [
        {
          "internalType": "string",
          "name": "",
          "type": "string"
        }
      ],
      "stateMutability": "view",
      "type": "function"
    },
    {
      "inputs": [
        {
          "internalType": "address",
          "name": "from",
          "type": "address"
        },
        {
          "internalType": "address",
          "name": "to",
          "type": "address"
        },
        {
          "internalType": "uint256",
          "name": "tokenId",
          "type": "uint256"
        }
      ],
      "name": "transferFrom",
      "outputs": [],
      "stateMutability": "nonpayable",
      "type": "function"
    },
    {
      "inputs": [
        {
          "internalType": "address",
          "name": "newOwner",
          "type": "address"
        }
      ],
      "name": "transferOwnership",
      "outputs": [],
      "stateMutability": "nonpayable",
      "type": "function"
    }
  ],
  "bytecode": "0x60806040526107d060085567016345785d8a0000600a553480156200002357600080fd5b50604051620039ef380380620039ef8339818101604052810190620000499190620002b1565b82828160009080519060200190620000639291906200018f565b5080600190805190602001906200007c9291906200018f565b5050506200009f62000093620000c160201b60201c565b620000c960201b60201c565b80600c9080519060200190620000b79291906200018f565b5050505062000483565b600033905090565b6000600760009054906101000a900473ffffffffffffffffffffffffffffffffffffffff16905081600760006101000a81548173ffffffffffffffffffffffffffffffffffffffff021916908373ffffffffffffffffffffffffffffffffffffffff1602179055508173ffffffffffffffffffffffffffffffffffffffff168173ffffffffffffffffffffffffffffffffffffffff167f8be0079c531659141344cd1fd0a4f28419497f9722a3daafe3b4186f6b6457e060405160405180910390a35050565b8280546200019d90620003ef565b90600052602060002090601f016020900481019282620001c157600085556200020d565b82601f10620001dc57805160ff19168380011785556200020d565b828001600101855582156200020d579182015b828111156200020c578251825591602001919060010190620001ef565b5b5090506200021c919062000220565b5090565b5b808211156200023b57600081600090555060010162000221565b5090565b600062000256620002508462000386565b62000352565b9050828152602081018484840111156200026f57600080fd5b6200027c848285620003b9565b509392505050565b600082601f8301126200029657600080fd5b8151620002a88482602086016200023f565b91505092915050565b600080600060608486031215620002c757600080fd5b600084015167ffffffffffffffff811115620002e257600080fd5b620002f08682870162000284565b935050602084015167ffffffffffffffff8111156200030e57600080fd5b6200031c8682870162000284565b925050604084015167ffffffffffffffff8111156200033a57600080fd5b620003488682870162000284565b9150509250925092565b6000604051905081810181811067ffffffffffffffff821117156200037c576200037b62000454565b5b8060405250919050565b600067ffffffffffffffff821115620003a457620003a362000454565b5b601f19601f8301169050602081019050919050565b60005b83811015620003d9578082015181840152602081019050620003bc565b83811115620003e9576000848401525b50505050565b600060028204905060018216806200040857607f821691505b602082108114156200041f576200041e62000425565b5b50919050565b7f4e487b7100000000000000000000000000000000000000000000000000000000600052602260045260246000fd5b7f4e487b7100000000000000000000000000000000000000000000000000000000600052604160045260246000fd5b61355c80620004936000396000f3fe60806040526004361061014a5760003560e01c806381bdf27c116100b6578063b88d4fde1161006f578063b88d4fde14610496578063c87b56dd146104bf578063d69f6bae146104fc578063e985e9c514610527578063f2fde38b14610564578063f8b2cb4f1461058d5761014a565b806381bdf27c146103935780638da5cb5b146103c357806395d89b41146103ee5780639f181b5e14610419578063a22cb46514610444578063acec338a1461046d5761014a565b806323b872dd1161010857806323b872dd1461028557806342842e0e146102ae5780636352211e146102d75780636c0360eb1461031457806370a082311461033f578063715018a61461037c5761014a565b8062923f9e1461014f57806301ffc9a71461018c578063047fc9aa146101c957806306fdde03146101f4578063081812fc1461021f578063095ea7b31461025c575b600080fd5b34801561015b57600080fd5b50610176600480360381019061017191906124b6565b6105ca565b6040516101839190612df4565b60405180910390f35b34801561019857600080fd5b506101b360048036038101906101ae9190612464565b6105dc565b6040516101c09190612df4565b60405180910390f35b3480156101d557600080fd5b506101de6106be565b6040516101eb91906130f1565b60405180910390f35b34801561020057600080fd5b506102096106c4565b6040516102169190612e0f565b60405180910390f35b34801561022b57600080fd5b50610246600480360381019061024191906124b6565b610756565b6040516102539190612d8d565b60405180910390f35b34801561026857600080fd5b50610283600480360381019061027e91906123ff565b6107db565b005b34801561029157600080fd5b506102ac60048036038101906102a79190612292565b6108f3565b005b3480156102ba57600080fd5b506102d560048036038101906102d09190612292565b610953565b005b3480156102e357600080fd5b506102fe60048036038101906102f991906124b6565b610973565b60405161030b9190612d8d565b60405180910390f35b34801561032057600080fd5b50610329610a25565b6040516103369190612e0f565b60405180910390f35b34801561034b57600080fd5b506103666004803603810190610361919061222d565b610ab3565b60405161037391906130f1565b60405180910390f35b34801561038857600080fd5b50610391610b6b565b005b6103ad60048036038101906103a89190612398565b610bf3565b6040516103ba91906130f1565b60405180910390f35b3480156103cf57600080fd5b506103d8610d51565b6040516103e59190612d8d565b60405180910390f35b3480156103fa57600080fd5b50610403610d7b565b6040516104109190612e0f565b60405180910390f35b34801561042557600080fd5b5061042e610e0d565b60405161043b91906130f1565b60405180910390f35b34801561045057600080fd5b5061046b6004803603810190610466919061235c565b610e13565b005b34801561047957600080fd5b50610494600480360381019061048f919061243b565b610f94565b005b3480156104a257600080fd5b506104bd60048036038101906104b891906122e1565b61102d565b005b3480156104cb57600080fd5b506104e660048036038101906104e191906124b6565b61108f565b6040516104f39190612e0f565b60405180910390f35b34801561050857600080fd5b506105116111e1565b60405161051e91906130f1565b60405180910390f35b34801561053357600080fd5b5061054e60048036038101906105499190612256565b6111eb565b60405161055b9190612df4565b60405180910390f35b34801561057057600080fd5b5061058b6004803603810190610586919061222d565b61127f565b005b34801561059957600080fd5b506105b460048036038101906105af919061222d565b611377565b6040516105c191906130f1565b60405180910390f35b60006105d582611389565b9050919050565b60007f80ac58cd000000000000000000000000000000000000000000000000000000007bffffffffffffffffffffffffffffffffffffffffffffffffffffffff1916827bffffffffffffffffffffffffffffffffffffffffffffffffffffffff191614806106a757507f5b5e139f000000000000000000000000000000000000000000000000000000007bffffffffffffffffffffffffffffffffffffffffffffffffffffffff1916827bffffffffffffffffffffffffffffffffffffffffffffffffffffffff1916145b806106b757506106b6826113f5565b5b9050919050565b60085481565b6060600080546106d390613351565b80601f01602080910402602001604051908101604052809291908181526020018280546106ff90613351565b801561074c5780601f106107215761010080835404028352916020019161074c565b820191906000526020600020905b81548152906001019060200180831161072f57829003601f168201915b5050505050905090565b600061076182611389565b6107a0576040517f08c379a000000000000000000000000000000000000000000000000000000000815260040161079790612fd1565b60405180910390fd5b6004600083815260200190815260200160002060009054906101000a900473ffffffffffffffffffffffffffffffffffffffff169050919050565b60006107e682610973565b90508073ffffffffffffffffffffffffffffffffffffffff168373ffffffffffffffffffffffffffffffffffffffff161415610857576040517f08c379a000000000000000000000000000000000000000000000000000000000815260040161084e90613071565b60405180910390fd5b8073ffffffffffffffffffffffffffffffffffffffff1661087661145f565b73ffffffffffffffffffffffffffffffffffffffff1614806108a557506108a48161089f61145f565b6111eb565b5b6108e4576040517f08c379a00000000000000000000000000000000000000000000000000000000081526004016108db90612ef1565b60405180910390fd5b6108ee8383611467565b505050565b6109046108fe61145f565b82611520565b610943576040517f08c379a000000000000000000000000000000000000000000000000000000000815260040161093a90613091565b60405180910390fd5b61094e8383836115fe565b505050565b61096e8383836040518060200160405280600081525061102d565b505050565b6000806002600084815260200190815260200160002060009054906101000a900473ffffffffffffffffffffffffffffffffffffffff169050600073ffffffffffffffffffffffffffffffffffffffff168173ffffffffffffffffffffffffffffffffffffffff161415610a1c576040517f08c379a0000000000000000000000000000000000000000000000000000000008152600401610a1390612f31565b60405180910390fd5b80915050919050565b600c8054610a3290613351565b80601f0160208091040260200160405190810160405280929190818152602001828054610a5e90613351565b8015610aab5780601f10610a8057610100808354040283529160200191610aab565b820191906000526020600020905b815481529060010190602001808311610a8e57829003601f168201915b505050505081565b60008073ffffffffffffffffffffffffffffffffffffffff168273ffffffffffffffffffffffffffffffffffffffff161415610b24576040517f08c379a0000000000000000000000000000000000000000000000000000000008152600401610b1b90612f11565b60405180910390fd5b600360008373ffffffffffffffffffffffffffffffffffffffff1673ffffffffffffffffffffffffffffffffffffffff168152602001908152602001600020549050919050565b610b7361145f565b73ffffffffffffffffffffffffffffffffffffffff16610b91610d51565b73ffffffffffffffffffffffffffffffffffffffff1614610be7576040517f08c379a0000000000000000000000000000000000000000000000000000000008152600401610bde90612ff1565b60405180910390fd5b610bf1600061185a565b565b6000600b60009054906101000a900460ff16610c44576040517f08c379a0000000000000000000000000000000000000000000000000000000008152600401610c3b90613051565b60405180910390fd5b600a543414610c88576040517f08c379a0000000000000000000000000000000000000000000000000000000008152600401610c7f906130b1565b60405180910390fd5b6000610c9385611377565b14610cd3576040517f08c379a0000000000000000000000000000000000000000000000000000000008152600401610cca906130d1565b60405180910390fd5b600854610cde6111e1565b10610d1e576040517f08c379a0000000000000000000000000000000000000000000000000000000008152600401610d1590612f91565b60405180910390fd5b610d288483611920565b610d32828461193e565b6001600954610d4191906131e0565b6009819055508190509392505050565b6000600760009054906101000a900473ffffffffffffffffffffffffffffffffffffffff16905090565b606060018054610d8a90613351565b80601f0160208091040260200160405190810160405280929190818152602001828054610db690613351565b8015610e035780601f10610dd857610100808354040283529160200191610e03565b820191906000526020600020905b815481529060010190602001808311610de657829003601f168201915b5050505050905090565b60095481565b610e1b61145f565b73ffffffffffffffffffffffffffffffffffffffff168273ffffffffffffffffffffffffffffffffffffffff161415610e89576040517f08c379a0000000000000000000000000000000000000000000000000000000008152600401610e8090612eb1565b60405180910390fd5b8060056000610e9661145f565b73ffffffffffffffffffffffffffffffffffffffff1673ffffffffffffffffffffffffffffffffffffffff16815260200190815260200160002060008473ffffffffffffffffffffffffffffffffffffffff1673ffffffffffffffffffffffffffffffffffffffff16815260200190815260200160002060006101000a81548160ff0219169083151502179055508173ffffffffffffffffffffffffffffffffffffffff16610f4361145f565b73ffffffffffffffffffffffffffffffffffffffff167f17307eab39ab6107e8899845ad3d59bd9653f200f220920489ca2b5937696c3183604051610f889190612df4565b60405180910390a35050565b610f9c61145f565b73ffffffffffffffffffffffffffffffffffffffff16610fba610d51565b73ffffffffffffffffffffffffffffffffffffffff1614611010576040517f08c379a000000000000000000000000000000000000000000000000000000000815260040161100790612ff1565b60405180910390fd5b80600b60006101000a81548160ff02191690831515021790555050565b61103e61103861145f565b83611520565b61107d576040517f08c379a000000000000000000000000000000000000000000000000000000000815260040161107490613091565b60405180910390fd5b611089848484846119b2565b50505050565b606061109a82611389565b6110d9576040517f08c379a00000000000000000000000000000000000000000000000000000000081526004016110d090612fb1565b60405180910390fd5b60006006600084815260200190815260200160002080546110f990613351565b80601f016020809104026020016040519081016040528092919081815260200182805461112590613351565b80156111725780601f1061114757610100808354040283529160200191611172565b820191906000526020600020905b81548152906001019060200180831161115557829003601f168201915b505050505090506000611183611a0e565b90506000815114156111995781925050506111dc565b6000825111156111ce5780826040516020016111b6929190612d69565b604051602081830303815290604052925050506111dc565b6111d784611a25565b925050505b919050565b6000600954905090565b6000600560008473ffffffffffffffffffffffffffffffffffffffff1673ffffffffffffffffffffffffffffffffffffffff16815260200190815260200160002060008373ffffffffffffffffffffffffffffffffffffffff1673ffffffffffffffffffffffffffffffffffffffff16815260200190815260200160002060009054906101000a900460ff16905092915050565b61128761145f565b73ffffffffffffffffffffffffffffffffffffffff166112a5610d51565b73ffffffffffffffffffffffffffffffffffffffff16146112fb576040517f08c379a00000000000000000000000000000000000000000000000000000000081526004016112f290612ff1565b60405180910390fd5b600073ffffffffffffffffffffffffffffffffffffffff168173ffffffffffffffffffffffffffffffffffffffff16141561136b576040517f08c379a000000000000000000000000000000000000000000000000000000000815260040161136290612e51565b60405180910390fd5b6113748161185a565b50565b600061138282610ab3565b9050919050565b60008073ffffffffffffffffffffffffffffffffffffffff166002600084815260200190815260200160002060009054906101000a900473ffffffffffffffffffffffffffffffffffffffff1673ffffffffffffffffffffffffffffffffffffffff1614159050919050565b60007f01ffc9a7000000000000000000000000000000000000000000000000000000007bffffffffffffffffffffffffffffffffffffffffffffffffffffffff1916827bffffffffffffffffffffffffffffffffffffffffffffffffffffffff1916149050919050565b600033905090565b816004600083815260200190815260200160002060006101000a81548173ffffffffffffffffffffffffffffffffffffffff021916908373ffffffffffffffffffffffffffffffffffffffff160217905550808273ffffffffffffffffffffffffffffffffffffffff166114da83610973565b73ffffffffffffffffffffffffffffffffffffffff167f8c5be1e5ebec7d5bd14f71427d1e84f3dd0314c0f7b2291e5b200ac8c7c3b92560405160405180910390a45050565b600061152b82611389565b61156a576040517f08c379a000000000000000000000000000000000000000000000000000000000815260040161156190612ed1565b60405180910390fd5b600061157583610973565b90508073ffffffffffffffffffffffffffffffffffffffff168473ffffffffffffffffffffffffffffffffffffffff1614806115e457508373ffffffffffffffffffffffffffffffffffffffff166115cc84610756565b73ffffffffffffffffffffffffffffffffffffffff16145b806115f557506115f481856111eb565b5b91505092915050565b8273ffffffffffffffffffffffffffffffffffffffff1661161e82610973565b73ffffffffffffffffffffffffffffffffffffffff1614611674576040517f08c379a000000000000000000000000000000000000000000000000000000000815260040161166b90613011565b60405180910390fd5b600073ffffffffffffffffffffffffffffffffffffffff168273ffffffffffffffffffffffffffffffffffffffff1614156116e4576040517f08c379a00000000000000000000000000000000000000000000000000000000081526004016116db90612e91565b60405180910390fd5b6116ef838383611acc565b6116fa600082611467565b6001600360008573ffffffffffffffffffffffffffffffffffffffff1673ffffffffffffffffffffffffffffffffffffffff168152602001908152602001600020600082825461174a9190613267565b925050819055506001600360008473ffffffffffffffffffffffffffffffffffffffff1673ffffffffffffffffffffffffffffffffffffffff16815260200190815260200160002060008282546117a191906131e0565b92505081905550816002600083815260200190815260200160002060006101000a81548173ffffffffffffffffffffffffffffffffffffffff021916908373ffffffffffffffffffffffffffffffffffffffff160217905550808273ffffffffffffffffffffffffffffffffffffffff168473ffffffffffffffffffffffffffffffffffffffff167fddf252ad1be2c89b69c2b068fc378daa952ba7f163c4a11628f55a4df523b3ef60405160405180910390a4505050565b6000600760009054906101000a900473ffffffffffffffffffffffffffffffffffffffff16905081600760006101000a81548173ffffffffffffffffffffffffffffffffffffffff021916908373ffffffffffffffffffffffffffffffffffffffff1602179055508173ffffffffffffffffffffffffffffffffffffffff168173ffffffffffffffffffffffffffffffffffffffff167f8be0079c531659141344cd1fd0a4f28419497f9722a3daafe3b4186f6b6457e060405160405180910390a35050565b61193a828260405180602001604052806000815250611ad1565b5050565b61194782611389565b611986576040517f08c379a000000000000000000000000000000000000000000000000000000000815260040161197d90612f51565b60405180910390fd5b806006600084815260200190815260200160002090805190602001906119ad929190612051565b505050565b6119bd8484846115fe565b6119c984848484611b2c565b611a08576040517f08c379a00000000000000000000000000000000000000000000000000000000081526004016119ff90612e31565b60405180910390fd5b50505050565b606060405180602001604052806000815250905090565b6060611a3082611389565b611a6f576040517f08c379a0000000000000000000000000000000000000000000000000000000008152600401611a6690613031565b60405180910390fd5b6000611a79611a0e565b90506000815111611a995760405180602001604052806000815250611ac4565b80611aa384611cc3565b604051602001611ab4929190612d69565b6040516020818303038152906040525b915050919050565b505050565b611adb8383611e70565b611ae86000848484611b2c565b611b27576040517f08c379a0000000000000000000000000000000000000000000000000000000008152600401611b1e90612e31565b60405180910390fd5b505050565b6000611b4d8473ffffffffffffffffffffffffffffffffffffffff1661203e565b15611cb6578373ffffffffffffffffffffffffffffffffffffffff1663150b7a02611b7661145f565b8786866040518563ffffffff1660e01b8152600401611b989493929190612da8565b602060405180830381600087803b158015611bb257600080fd5b505af1925050508015611be357506040513d601f19601f82011682018060405250810190611be0919061248d565b60015b611c66573d8060008114611c13576040519150601f19603f3d011682016040523d82523d6000602084013e611c18565b606091505b50600081511415611c5e576040517f08c379a0000000000000000000000000000000000000000000000000000000008152600401611c5590612e31565b60405180910390fd5b805181602001fd5b63150b7a0260e01b7bffffffffffffffffffffffffffffffffffffffffffffffffffffffff1916817bffffffffffffffffffffffffffffffffffffffffffffffffffffffff191614915050611cbb565b600190505b949350505050565b60606000821415611d0b576040518060400160405280600181526020017f30000000000000000000000000000000000000000000000000000000000000008152509050611e6b565b600082905060005b60008214611d3d578080611d2690613383565b915050600a82611d369190613236565b9150611d13565b60008167ffffffffffffffff811115611d7f577f4e487b7100000000000000000000000000000000000000000000000000000000600052604160045260246000fd5b6040519080825280601f01601f191660200182016040528015611db15781602001600182028036833780820191505090505b5090505b60008514611e6457600182611dca9190613267565b9150600a85611dd991906133cc565b6030611de591906131e0565b60f81b818381518110611e21577f4e487b7100000000000000000000000000000000000000000000000000000000600052603260045260246000fd5b60200101907effffffffffffffffffffffffffffffffffffffffffffffffffffffffffffff1916908160001a905350600a85611e5d9190613236565b9450611db5565b8093505050505b919050565b600073ffffffffffffffffffffffffffffffffffffffff168273ffffffffffffffffffffffffffffffffffffffff161415611ee0576040517f08c379a0000000000000000000000000000000000000000000000000000000008152600401611ed790612f71565b60405180910390fd5b611ee981611389565b15611f29576040517f08c379a0000000000000000000000000000000000000000000000000000000008152600401611f2090612e71565b60405180910390fd5b611f3560008383611acc565b6001600360008473ffffffffffffffffffffffffffffffffffffffff1673ffffffffffffffffffffffffffffffffffffffff1681526020019081526020016000206000828254611f8591906131e0565b92505081905550816002600083815260200190815260200160002060006101000a81548173ffffffffffffffffffffffffffffffffffffffff021916908373ffffffffffffffffffffffffffffffffffffffff160217905550808273ffffffffffffffffffffffffffffffffffffffff16600073ffffffffffffffffffffffffffffffffffffffff167fddf252ad1be2c89b69c2b068fc378daa952ba7f163c4a11628f55a4df523b3ef60405160405180910390a45050565b600080823b905060008111915050919050565b82805461205d90613351565b90600052602060002090601f01602090048101928261207f57600085556120c6565b82601f1061209857805160ff19168380011785556120c6565b828001600101855582156120c6579182015b828111156120c55782518255916020019190600101906120aa565b5b5090506120d391906120d7565b5090565b5b808211156120f05760008160009055506001016120d8565b5090565b60006121076121028461313d565b61310c565b90508281526020810184848401111561211f57600080fd5b61212a84828561330f565b509392505050565b60006121456121408461316d565b61310c565b90508281526020810184848401111561215d57600080fd5b61216884828561330f565b509392505050565b60008135905061217f816134ca565b92915050565b600081359050612194816134e1565b92915050565b6000813590506121a9816134f8565b92915050565b6000815190506121be816134f8565b92915050565b600082601f8301126121d557600080fd5b81356121e58482602086016120f4565b91505092915050565b600082601f8301126121ff57600080fd5b813561220f848260208601612132565b91505092915050565b6000813590506122278161350f565b92915050565b60006020828403121561223f57600080fd5b600061224d84828501612170565b91505092915050565b6000806040838503121561226957600080fd5b600061227785828601612170565b925050602061228885828601612170565b9150509250929050565b6000806000606084860312156122a757600080fd5b60006122b586828701612170565b93505060206122c686828701612170565b92505060406122d786828701612218565b9150509250925092565b600080600080608085870312156122f757600080fd5b600061230587828801612170565b945050602061231687828801612170565b935050604061232787828801612218565b925050606085013567ffffffffffffffff81111561234457600080fd5b612350878288016121c4565b91505092959194509250565b6000806040838503121561236f57600080fd5b600061237d85828601612170565b925050602061238e85828601612185565b9150509250929050565b6000806000606084860312156123ad57600080fd5b60006123bb86828701612170565b935050602084013567ffffffffffffffff8111156123d857600080fd5b6123e4868287016121ee565b92505060406123f586828701612218565b9150509250925092565b6000806040838503121561241257600080fd5b600061242085828601612170565b925050602061243185828601612218565b9150509250929050565b60006020828403121561244d57600080fd5b600061245b84828501612185565b91505092915050565b60006020828403121561247657600080fd5b60006124848482850161219a565b91505092915050565b60006020828403121561249f57600080fd5b60006124ad848285016121af565b91505092915050565b6000602082840312156124c857600080fd5b60006124d684828501612218565b91505092915050565b6124e88161329b565b82525050565b6124f7816132ad565b82525050565b60006125088261319d565b61251281856131b3565b935061252281856020860161331e565b61252b816134b9565b840191505092915050565b6000612541826131a8565b61254b81856131c4565b935061255b81856020860161331e565b612564816134b9565b840191505092915050565b600061257a826131a8565b61258481856131d5565b935061259481856020860161331e565b80840191505092915050565b60006125ad6032836131c4565b91507f4552433732313a207472616e7366657220746f206e6f6e20455243373231526560008301527f63656976657220696d706c656d656e74657200000000000000000000000000006020830152604082019050919050565b60006126136026836131c4565b91507f4f776e61626c653a206e6577206f776e657220697320746865207a65726f206160008301527f64647265737300000000000000000000000000000000000000000000000000006020830152604082019050919050565b6000612679601c836131c4565b91507f4552433732313a20746f6b656e20616c7265616479206d696e746564000000006000830152602082019050919050565b60006126b96024836131c4565b91507f4552433732313a207472616e7366657220746f20746865207a65726f2061646460008301527f72657373000000000000000000000000000000000000000000000000000000006020830152604082019050919050565b600061271f6019836131c4565b91507f4552433732313a20617070726f766520746f2063616c6c6572000000000000006000830152602082019050919050565b600061275f602c836131c4565b91507f4552433732313a206f70657261746f7220717565727920666f72206e6f6e657860008301527f697374656e7420746f6b656e00000000000000000000000000000000000000006020830152604082019050919050565b60006127c56038836131c4565b91507f4552433732313a20617070726f76652063616c6c6572206973206e6f74206f7760008301527f6e6572206e6f7220617070726f76656420666f7220616c6c00000000000000006020830152604082019050919050565b600061282b602a836131c4565b91507f4552433732313a2062616c616e636520717565727920666f7220746865207a6560008301527f726f2061646472657373000000000000000000000000000000000000000000006020830152604082019050919050565b60006128916029836131c4565b91507f4552433732313a206f776e657220717565727920666f72206e6f6e657869737460008301527f656e7420746f6b656e00000000000000000000000000000000000000000000006020830152604082019050919050565b60006128f7602e836131c4565b91507f45524337323155524953746f726167653a2055524920736574206f66206e6f6e60008301527f6578697374656e7420746f6b656e0000000000000000000000000000000000006020830152604082019050919050565b600061295d6020836131c4565b91507f4552433732313a206d696e7420746f20746865207a65726f20616464726573736000830152602082019050919050565b600061299d6019836131c4565b91507f416c6c204e4654732068617665206265656e206d696e746564000000000000006000830152602082019050919050565b60006129dd6031836131c4565b91507f45524337323155524953746f726167653a2055524920717565727920666f722060008301527f6e6f6e6578697374656e7420746f6b656e0000000000000000000000000000006020830152604082019050919050565b6000612a43602c836131c4565b91507f4552433732313a20617070726f76656420717565727920666f72206e6f6e657860008301527f697374656e7420746f6b656e00000000000000000000000000000000000000006020830152604082019050919050565b6000612aa96020836131c4565b91507f4f776e61626c653a2063616c6c6572206973206e6f7420746865206f776e65726000830152602082019050919050565b6000612ae96029836131c4565b91507f4552433732313a207472616e73666572206f6620746f6b656e2074686174206960008301527f73206e6f74206f776e00000000000000000000000000000000000000000000006020830152604082019050919050565b6000612b4f602f836131c4565b91507f4552433732314d657461646174613a2055524920717565727920666f72206e6f60008301527f6e6578697374656e7420746f6b656e00000000000000000000000000000000006020830152604082019050919050565b6000612bb5601a836131c4565b91507f53616c652069732063757272656e746c7920696e6163746976650000000000006000830152602082019050919050565b6000612bf56021836131c4565b91507f4552433732313a20617070726f76616c20746f2063757272656e74206f776e6560008301527f72000000000000000000000000000000000000000000000000000000000000006020830152604082019050919050565b6000612c5b6031836131c4565b91507f4552433732313a207472616e736665722063616c6c6572206973206e6f74206f60008301527f776e6572206e6f7220617070726f7665640000000000000000000000000000006020830152604082019050919050565b6000612cc16019836131c4565b91507f496e636f727265637420616d6f756e74206f66206574686572000000000000006000830152602082019050919050565b6000612d016024836131c4565b91507f596f752063616e6e6f74206d696e74206d6f7265207468616e206f6e6520536160008301527f7069656e000000000000000000000000000000000000000000000000000000006020830152604082019050919050565b612d6381613305565b82525050565b6000612d75828561256f565b9150612d81828461256f565b91508190509392505050565b6000602082019050612da260008301846124df565b92915050565b6000608082019050612dbd60008301876124df565b612dca60208301866124df565b612dd76040830185612d5a565b8181036060830152612de981846124fd565b905095945050505050565b6000602082019050612e0960008301846124ee565b92915050565b60006020820190508181036000830152612e298184612536565b905092915050565b60006020820190508181036000830152612e4a816125a0565b9050919050565b60006020820190508181036000830152612e6a81612606565b9050919050565b60006020820190508181036000830152612e8a8161266c565b9050919050565b60006020820190508181036000830152612eaa816126ac565b9050919050565b60006020820190508181036000830152612eca81612712565b9050919050565b60006020820190508181036000830152612eea81612752565b9050919050565b60006020820190508181036000830152612f0a816127b8565b9050919050565b60006020820190508181036000830152612f2a8161281e565b9050919050565b60006020820190508181036000830152612f4a81612884565b9050919050565b60006020820190508181036000830152612f6a816128ea565b9050919050565b60006020820190508181036000830152612f8a81612950565b9050919050565b60006020820190508181036000830152612faa81612990565b9050919050565b60006020820190508181036000830152612fca816129d0565b9050919050565b60006020820190508181036000830152612fea81612a36565b9050919050565b6000602082019050818103600083015261300a81612a9c565b9050919050565b6000602082019050818103600083015261302a81612adc565b9050919050565b6000602082019050818103600083015261304a81612b42565b9050919050565b6000602082019050818103600083015261306a81612ba8565b9050919050565b6000602082019050818103600083015261308a81612be8565b9050919050565b600060208201905081810360008301526130aa81612c4e565b9050919050565b600060208201905081810360008301526130ca81612cb4565b9050919050565b600060208201905081810360008301526130ea81612cf4565b9050919050565b60006020820190506131066000830184612d5a565b92915050565b6000604051905081810181811067ffffffffffffffff821117156131335761313261348a565b5b8060405250919050565b600067ffffffffffffffff8211156131585761315761348a565b5b601f19601f8301169050602081019050919050565b600067ffffffffffffffff8211156131885761318761348a565b5b601f19601f8301169050602081019050919050565b600081519050919050565b600081519050919050565b600082825260208201905092915050565b600082825260208201905092915050565b600081905092915050565b60006131eb82613305565b91506131f683613305565b9250827fffffffffffffffffffffffffffffffffffffffffffffffffffffffffffffffff0382111561322b5761322a6133fd565b5b828201905092915050565b600061324182613305565b915061324c83613305565b92508261325c5761325b61342c565b5b828204905092915050565b600061327282613305565b915061327d83613305565b9250828210156132905761328f6133fd565b5b828203905092915050565b60006132a6826132e5565b9050919050565b60008115159050919050565b60007fffffffff0000000000000000000000000000000000000000000000000000000082169050919050565b600073ffffffffffffffffffffffffffffffffffffffff82169050919050565b6000819050919050565b82818337600083830152505050565b60005b8381101561333c578082015181840152602081019050613321565b8381111561334b576000848401525b50505050565b6000600282049050600182168061336957607f821691505b6020821081141561337d5761337c61345b565b5b50919050565b600061338e82613305565b91507fffffffffffffffffffffffffffffffffffffffffffffffffffffffffffffffff8214156133c1576133c06133fd565b5b600182019050919050565b60006133d782613305565b91506133e283613305565b9250826133f2576133f161342c565b5b828206905092915050565b7f4e487b7100000000000000000000000000000000000000000000000000000000600052601160045260246000fd5b7f4e487b7100000000000000000000000000000000000000000000000000000000600052601260045260246000fd5b7f4e487b7100000000000000000000000000000000000000000000000000000000600052602260045260246000fd5b7f4e487b7100000000000000000000000000000000000000000000000000000000600052604160045260246000fd5b6000601f19601f8301169050919050565b6134d38161329b565b81146134de57600080fd5b50565b6134ea816132ad565b81146134f557600080fd5b50565b613501816132b9565b811461350c57600080fd5b50565b61351881613305565b811461352357600080fd5b5056fea2646970667358221220ddeabae89dcbdf75af8b4ec5f28b7b693ae4759b6474216cf988bbfc81e03cb364736f6c63430008000033",
  "linkReferences": {},
  "deployedLinkReferences": {}
}