{
  "_format": "hh-sol-artifact-1",
  "contractName": "Sapien",
  "sourceName": "contracts/Sapien.sol",
  "abi": [
    {
      "inputs": [],
      "stateMutability": "nonpayable",
      "type": "constructor"
    },
    {
      "anonymous": false,
      "inputs": [
        {
          "indexed": true,
          "internalType": "address",
          "name": "owner",
          "type": "address"
        },
        {
          "indexed": true,
          "internalType": "address",
          "name": "approved",
          "type": "address"
        },
        {
          "indexed": true,
          "internalType": "uint256",
          "name": "tokenId",
          "type": "uint256"
        }
      ],
      "name": "Approval",
      "type": "event"
    },
    {
      "anonymous": false,
      "inputs": [
        {
          "indexed": true,
          "internalType": "address",
          "name": "owner",
          "type": "address"
        },
        {
          "indexed": true,
          "internalType": "address",
          "name": "operator",
          "type": "address"
        },
        {
          "indexed": false,
          "internalType": "bool",
          "name": "approved",
          "type": "bool"
        }
      ],
      "name": "ApprovalForAll",
      "type": "event"
    },
    {
      "anonymous": false,
      "inputs": [
        {
          "indexed": true,
          "internalType": "address",
          "name": "previousOwner",
          "type": "address"
        },
        {
          "indexed": true,
          "internalType": "address",
          "name": "newOwner",
          "type": "address"
        }
      ],
      "name": "OwnershipTransferred",
      "type": "event"
    },
    {
      "anonymous": false,
      "inputs": [
        {
          "indexed": true,
          "internalType": "address",
          "name": "from",
          "type": "address"
        },
        {
          "indexed": true,
          "internalType": "address",
          "name": "to",
          "type": "address"
        },
        {
          "indexed": true,
          "internalType": "uint256",
          "name": "tokenId",
          "type": "uint256"
        }
      ],
      "name": "Transfer",
      "type": "event"
    },
    {
      "inputs": [],
      "name": "BASE_URL",
      "outputs": [
        {
          "internalType": "string",
          "name": "",
          "type": "string"
        }
      ],
      "stateMutability": "view",
      "type": "function"
    },
    {
      "inputs": [],
      "name": "EXTENSION",
      "outputs": [
        {
          "internalType": "string",
          "name": "",
          "type": "string"
        }
      ],
      "stateMutability": "view",
      "type": "function"
    },
    {
      "inputs": [],
      "name": "FSNFT_PROVENANCE",
      "outputs": [
        {
          "internalType": "string",
          "name": "",
          "type": "string"
        }
      ],
      "stateMutability": "view",
      "type": "function"
    },
    {
      "inputs": [],
      "name": "MAX_SUPPLY",
      "outputs": [
        {
          "internalType": "uint256",
          "name": "",
          "type": "uint256"
        }
      ],
      "stateMutability": "view",
      "type": "function"
    },
    {
      "inputs": [],
      "name": "PLACEHOLDER",
      "outputs": [
        {
          "internalType": "string",
          "name": "",
          "type": "string"
        }
      ],
      "stateMutability": "view",
      "type": "function"
    },
    {
      "inputs": [],
      "name": "PRESALE_SUPPLY",
      "outputs": [
        {
          "internalType": "uint256",
          "name": "",
          "type": "uint256"
        }
      ],
      "stateMutability": "view",
      "type": "function"
    },
    {
      "inputs": [],
      "name": "_tokenIds",
      "outputs": [
        {
          "internalType": "uint256",
          "name": "",
          "type": "uint256"
        }
      ],
      "stateMutability": "view",
      "type": "function"
    },
    {
      "inputs": [
        {
          "internalType": "address",
          "name": "to",
          "type": "address"
        },
        {
          "internalType": "uint256",
          "name": "tokenId",
          "type": "uint256"
        }
      ],
      "name": "approve",
      "outputs": [],
      "stateMutability": "nonpayable",
      "type": "function"
    },
    {
      "inputs": [
        {
          "internalType": "address",
          "name": "owner",
          "type": "address"
        }
      ],
      "name": "balanceOf",
      "outputs": [
        {
          "internalType": "uint256",
          "name": "",
          "type": "uint256"
        }
      ],
      "stateMutability": "view",
      "type": "function"
    },
    {
      "inputs": [
        {
          "internalType": "uint256",
          "name": "tokenId",
          "type": "uint256"
        }
      ],
      "name": "getApproved",
      "outputs": [
        {
          "internalType": "address",
          "name": "",
          "type": "address"
        }
      ],
      "stateMutability": "view",
      "type": "function"
    },
    {
      "inputs": [],
      "name": "getPresale",
      "outputs": [
        {
          "internalType": "bool",
          "name": "",
          "type": "bool"
        }
      ],
      "stateMutability": "view",
      "type": "function"
    },
    {
      "inputs": [],
      "name": "getProvenanceHash",
      "outputs": [
        {
          "internalType": "string",
          "name": "",
          "type": "string"
        }
      ],
      "stateMutability": "view",
      "type": "function"
    },
    {
      "inputs": [],
      "name": "getPublicSale",
      "outputs": [
        {
          "internalType": "bool",
          "name": "",
          "type": "bool"
        }
      ],
      "stateMutability": "view",
      "type": "function"
    },
    {
      "inputs": [],
      "name": "getStartingIdx",
      "outputs": [
        {
          "internalType": "uint256",
          "name": "",
          "type": "uint256"
        }
      ],
      "stateMutability": "view",
      "type": "function"
    },
    {
      "inputs": [
        {
          "internalType": "address",
          "name": "owner",
          "type": "address"
        },
        {
          "internalType": "address",
          "name": "operator",
          "type": "address"
        }
      ],
      "name": "isApprovedForAll",
      "outputs": [
        {
          "internalType": "bool",
          "name": "",
          "type": "bool"
        }
      ],
      "stateMutability": "view",
      "type": "function"
    },
    {
      "inputs": [
        {
          "internalType": "bytes",
          "name": "_signature",
          "type": "bytes"
        },
        {
          "internalType": "address",
          "name": "_user",
          "type": "address"
        }
      ],
      "name": "isWhitelisted",
      "outputs": [
        {
          "internalType": "bool",
          "name": "",
          "type": "bool"
        }
      ],
      "stateMutability": "view",
      "type": "function"
    },
    {
      "inputs": [],
      "name": "mint",
      "outputs": [
        {
          "internalType": "string",
          "name": "",
          "type": "string"
        }
      ],
      "stateMutability": "payable",
      "type": "function"
    },
    {
      "inputs": [],
      "name": "name",
      "outputs": [
        {
          "internalType": "string",
          "name": "",
          "type": "string"
        }
      ],
      "stateMutability": "view",
      "type": "function"
    },
    {
      "inputs": [],
      "name": "owner",
      "outputs": [
        {
          "internalType": "address",
          "name": "",
          "type": "address"
        }
      ],
      "stateMutability": "view",
      "type": "function"
    },
    {
      "inputs": [
        {
          "internalType": "uint256",
          "name": "tokenId",
          "type": "uint256"
        }
      ],
      "name": "ownerOf",
      "outputs": [
        {
          "internalType": "address",
          "name": "",
          "type": "address"
        }
      ],
      "stateMutability": "view",
      "type": "function"
    },
    {
      "inputs": [],
      "name": "paused",
      "outputs": [
        {
          "internalType": "bool",
          "name": "",
          "type": "bool"
        }
      ],
      "stateMutability": "view",
      "type": "function"
    },
    {
      "inputs": [],
      "name": "renounceOwnership",
      "outputs": [],
      "stateMutability": "nonpayable",
      "type": "function"
    },
    {
      "inputs": [
        {
          "internalType": "bytes",
          "name": "_signature",
          "type": "bytes"
        }
      ],
      "name": "reserveNFT",
      "outputs": [],
      "stateMutability": "payable",
      "type": "function"
    },
    {
      "inputs": [],
      "name": "revealed",
      "outputs": [
        {
          "internalType": "bool",
          "name": "",
          "type": "bool"
        }
      ],
      "stateMutability": "view",
      "type": "function"
    },
    {
      "inputs": [
        {
          "internalType": "address",
          "name": "from",
          "type": "address"
        },
        {
          "internalType": "address",
          "name": "to",
          "type": "address"
        },
        {
          "internalType": "uint256",
          "name": "tokenId",
          "type": "uint256"
        }
      ],
      "name": "safeTransferFrom",
      "outputs": [],
      "stateMutability": "nonpayable",
      "type": "function"
    },
    {
      "inputs": [
        {
          "internalType": "address",
          "name": "from",
          "type": "address"
        },
        {
          "internalType": "address",
          "name": "to",
          "type": "address"
        },
        {
          "internalType": "uint256",
          "name": "tokenId",
          "type": "uint256"
        },
        {
          "internalType": "bytes",
          "name": "_data",
          "type": "bytes"
        }
      ],
      "name": "safeTransferFrom",
      "outputs": [],
      "stateMutability": "nonpayable",
      "type": "function"
    },
    {
      "inputs": [
        {
          "internalType": "address",
          "name": "operator",
          "type": "address"
        },
        {
          "internalType": "bool",
          "name": "approved",
          "type": "bool"
        }
      ],
      "name": "setApprovalForAll",
      "outputs": [],
      "stateMutability": "nonpayable",
      "type": "function"
    },
    {
      "inputs": [
        {
          "internalType": "bool",
          "name": "_state",
          "type": "bool"
        }
      ],
      "name": "setPaused",
      "outputs": [],
      "stateMutability": "nonpayable",
      "type": "function"
    },
    {
      "inputs": [
        {
          "internalType": "bool",
          "name": "_active",
          "type": "bool"
        }
      ],
      "name": "setPresale",
      "outputs": [],
      "stateMutability": "nonpayable",
      "type": "function"
    },
    {
      "inputs": [
        {
          "internalType": "string",
          "name": "_provenance",
          "type": "string"
        }
      ],
      "name": "setProvenanceHash",
      "outputs": [],
      "stateMutability": "nonpayable",
      "type": "function"
    },
    {
      "inputs": [
        {
          "internalType": "bool",
          "name": "_active",
          "type": "bool"
        }
      ],
      "name": "setPublicSale",
      "outputs": [],
      "stateMutability": "nonpayable",
      "type": "function"
    },
    {
      "inputs": [
        {
          "internalType": "bool",
          "name": "_reveal",
          "type": "bool"
        }
      ],
      "name": "setReveal",
      "outputs": [],
      "stateMutability": "nonpayable",
      "type": "function"
    },
    {
      "inputs": [],
      "name": "starting_idx",
      "outputs": [
        {
          "internalType": "uint256",
          "name": "",
          "type": "uint256"
        }
      ],
      "stateMutability": "view",
      "type": "function"
    },
    {
      "inputs": [],
      "name": "starting_idx_block",
      "outputs": [
        {
          "internalType": "uint256",
          "name": "",
          "type": "uint256"
        }
      ],
      "stateMutability": "view",
      "type": "function"
    },
    {
      "inputs": [
        {
          "internalType": "bytes4",
          "name": "interfaceId",
          "type": "bytes4"
        }
      ],
      "name": "supportsInterface",
      "outputs": [
        {
          "internalType": "bool",
          "name": "",
          "type": "bool"
        }
      ],
      "stateMutability": "view",
      "type": "function"
    },
    {
      "inputs": [],
      "name": "symbol",
      "outputs": [
        {
          "internalType": "string",
          "name": "",
          "type": "string"
        }
      ],
      "stateMutability": "view",
      "type": "function"
    },
    {
      "inputs": [
        {
          "internalType": "uint256",
          "name": "index",
          "type": "uint256"
        }
      ],
      "name": "tokenByIndex",
      "outputs": [
        {
          "internalType": "uint256",
          "name": "",
          "type": "uint256"
        }
      ],
      "stateMutability": "view",
      "type": "function"
    },
    {
      "inputs": [
        {
          "internalType": "address",
          "name": "owner",
          "type": "address"
        },
        {
          "internalType": "uint256",
          "name": "index",
          "type": "uint256"
        }
      ],
      "name": "tokenOfOwnerByIndex",
      "outputs": [
        {
          "internalType": "uint256",
          "name": "",
          "type": "uint256"
        }
      ],
      "stateMutability": "view",
      "type": "function"
    },
    {
      "inputs": [
        {
          "internalType": "uint256",
          "name": "_tokenId",
          "type": "uint256"
        }
      ],
      "name": "tokenURI",
      "outputs": [
        {
          "internalType": "string",
          "name": "",
          "type": "string"
        }
      ],
      "stateMutability": "view",
      "type": "function"
    },
    {
      "inputs": [],
      "name": "totalSupply",
      "outputs": [
        {
          "internalType": "uint256",
          "name": "",
          "type": "uint256"
        }
      ],
      "stateMutability": "view",
      "type": "function"
    },
    {
      "inputs": [
        {
          "internalType": "address",
          "name": "from",
          "type": "address"
        },
        {
          "internalType": "address",
          "name": "to",
          "type": "address"
        },
        {
          "internalType": "uint256",
          "name": "tokenId",
          "type": "uint256"
        }
      ],
      "name": "transferFrom",
      "outputs": [],
      "stateMutability": "nonpayable",
      "type": "function"
    },
    {
      "inputs": [
        {
          "internalType": "address",
          "name": "newOwner",
          "type": "address"
        }
      ],
      "name": "transferOwnership",
      "outputs": [],
      "stateMutability": "nonpayable",
      "type": "function"
    },
    {
      "inputs": [],
      "name": "whitelistMint",
      "outputs": [
        {
          "internalType": "string",
          "name": "",
          "type": "string"
        }
      ],
      "stateMutability": "payable",
      "type": "function"
    },
    {
      "inputs": [],
      "name": "withdraw",
      "outputs": [],
      "stateMutability": "payable",
      "type": "function"
    }
  ],
  "bytecode": "0x6080604052600e600b556006600c5567016345785d8a0000600d556000601160006101000a81548160ff0219169083151502179055506000601160016101000a81548160ff0219169083151502179055506000601160026101000a81548160ff0219169083151502179055506000601160036101000a81548160ff0219169083151502179055506040518060200160405280600081525060129080519060200190620000ad929190620004ab565b50604051806060016040528060368152602001620060d96036913960139080519060200190620000df929190620004ab565b506040518060600160405280603581526020016200610f603591396014908051906020019062000111929190620004ab565b506040518060400160405280600581526020017f2e6a736f6e000000000000000000000000000000000000000000000000000000815250601590805190602001906200015f929190620004ab565b5073103ece5b498b9c425295f58148aa5bdac7575708601860006101000a81548173ffffffffffffffffffffffffffffffffffffffff021916908373ffffffffffffffffffffffffffffffffffffffff16021790555073ab8483f64d9c6d1ecf9b849ae677dd3315835cb2601960006101000a81548173ffffffffffffffffffffffffffffffffffffffff021916908373ffffffffffffffffffffffffffffffffffffffff160217905550734b20993bc481177ec7e8f571cecae8a9e22c02db601a60006101000a81548173ffffffffffffffffffffffffffffffffffffffff021916908373ffffffffffffffffffffffffffffffffffffffff1602179055507378731d3ca6b7e34ac0f824c42a7cc18a495cabab601b60006101000a81548173ffffffffffffffffffffffffffffffffffffffff021916908373ffffffffffffffffffffffffffffffffffffffff16021790555073617f2e2fd72fd9d5503197092ac168c91465e7f2601c60006101000a81548173ffffffffffffffffffffffffffffffffffffffff021916908373ffffffffffffffffffffffffffffffffffffffff1602179055503480156200031657600080fd5b506040518060400160405280600c81526020017f464f4d4f2053415049454e5300000000000000000000000000000000000000008152506040518060400160405280600681526020017f53415049454e000000000000000000000000000000000000000000000000000081525081600090805190602001906200039b929190620004ab565b508060019080519060200190620003b4929190620004ab565b505050620003d7620003cb620003dd60201b60201c565b620003e560201b60201c565b620005c0565b600033905090565b6000600a60009054906101000a900473ffffffffffffffffffffffffffffffffffffffff16905081600a60006101000a81548173ffffffffffffffffffffffffffffffffffffffff021916908373ffffffffffffffffffffffffffffffffffffffff1602179055508173ffffffffffffffffffffffffffffffffffffffff168173ffffffffffffffffffffffffffffffffffffffff167f8be0079c531659141344cd1fd0a4f28419497f9722a3daafe3b4186f6b6457e060405160405180910390a35050565b828054620004b9906200055b565b90600052602060002090601f016020900481019282620004dd576000855562000529565b82601f10620004f857805160ff191683800117855562000529565b8280016001018555821562000529579182015b82811115620005285782518255916020019190600101906200050b565b5b5090506200053891906200053c565b5090565b5b80821115620005575760008160009055506001016200053d565b5090565b600060028204905060018216806200057457607f821691505b602082108114156200058b576200058a62000591565b5b50919050565b7f4e487b7100000000000000000000000000000000000000000000000000000000600052602260045260246000fd5b615b0980620005d06000396000f3fe6080604052600436106102675760003560e01c80636352211e11610144578063aa46a400116100b6578063c87b56dd1161007a578063c87b56dd146108da578063c8965ee514610917578063d75dd26814610942578063e985e9c51461096d578063f2fde38b146109aa578063f41fbd5e146109d357610267565b8063aa46a40014610807578063aee99e5214610832578063b88d4fde1461085d578063bc5f3a8014610886578063c54e73e3146108b157610267565b8063804f43cd11610108578063804f43cd146107025780638da5cb5b1461072057806394b3fbc21461074b57806395d89b4114610776578063a22cb465146107a1578063a3540c10146107ca57610267565b80636352211e1461061b57806370a0823114610658578063715018a61461069557806373138e4f146106ac5780637f78636a146106d757610267565b80632f745c59116101dd57806346f13619116101a157806346f13619146105095780634bf53055146105345780634f6ccce71461055f578063518302271461059c5780635aca1bb6146105c75780635c975abb146105f057610267565b80632f745c591461044357806332cb6b0c146104805780633867f5a7146104ab5780633ccfd60b146104d657806342842e0e146104e057610267565b8063109695231161022f57806310969523146103565780631249c58b1461037f57806316c38b3c1461039d57806318160ddd146103c657806323b872dd146103f15780632a3f300c1461041a57610267565b806301ffc9a71461026c578063029af5bd146102a957806306fdde03146102c5578063081812fc146102f0578063095ea7b31461032d575b600080fd5b34801561027857600080fd5b50610293600480360381019061028e91906142c3565b6109fe565b6040516102a091906151ab565b60405180910390f35b6102c360048036038101906102be9190614315565b610a78565b005b3480156102d157600080fd5b506102da610c66565b6040516102e7919061520b565b60405180910390f35b3480156102fc57600080fd5b50610317600480360381019061031291906143f3565b610cf8565b604051610324919061511b565b60405180910390f35b34801561033957600080fd5b50610354600480360381019061034f919061425e565b610d7d565b005b34801561036257600080fd5b5061037d600480360381019061037891906143b2565b610e95565b005b610387610f32565b604051610394919061520b565b60405180910390f35b3480156103a957600080fd5b506103c460048036038101906103bf919061429a565b6111e3565b005b3480156103d257600080fd5b506103db61127c565b6040516103e8919061560d565b60405180910390f35b3480156103fd57600080fd5b5061041860048036038101906104139190614158565b611289565b005b34801561042657600080fd5b50610441600480360381019061043c919061429a565b6112e9565b005b34801561044f57600080fd5b5061046a6004803603810190610465919061425e565b611382565b604051610477919061560d565b60405180910390f35b34801561048c57600080fd5b50610495611427565b6040516104a2919061560d565b60405180910390f35b3480156104b757600080fd5b506104c061142d565b6040516104cd919061520b565b60405180910390f35b6104de6114bb565b005b3480156104ec57600080fd5b5061050760048036038101906105029190614158565b611896565b005b34801561051557600080fd5b5061051e6118b6565b60405161052b919061520b565b60405180910390f35b34801561054057600080fd5b50610549611944565b60405161055691906151ab565b60405180910390f35b34801561056b57600080fd5b50610586600480360381019061058191906143f3565b61195b565b604051610593919061560d565b60405180910390f35b3480156105a857600080fd5b506105b16119f2565b6040516105be91906151ab565b60405180910390f35b3480156105d357600080fd5b506105ee60048036038101906105e9919061429a565b611a05565b005b3480156105fc57600080fd5b50610605611a9e565b60405161061291906151ab565b60405180910390f35b34801561062757600080fd5b50610642600480360381019061063d91906143f3565b611ab1565b60405161064f919061511b565b60405180910390f35b34801561066457600080fd5b5061067f600480360381019061067a91906140f3565b611b63565b60405161068c919061560d565b60405180910390f35b3480156106a157600080fd5b506106aa611c1b565b005b3480156106b857600080fd5b506106c1611ca3565b6040516106ce919061560d565b60405180910390f35b3480156106e357600080fd5b506106ec611ca9565b6040516106f9919061520b565b60405180910390f35b61070a611d37565b604051610717919061520b565b60405180910390f35b34801561072c57600080fd5b50610735611fef565b604051610742919061511b565b60405180910390f35b34801561075757600080fd5b50610760612019565b60405161076d919061520b565b60405180910390f35b34801561078257600080fd5b5061078b6120ab565b604051610798919061520b565b60405180910390f35b3480156107ad57600080fd5b506107c860048036038101906107c39190614222565b61213d565b005b3480156107d657600080fd5b506107f160048036038101906107ec919061435a565b612153565b6040516107fe91906151ab565b60405180910390f35b34801561081357600080fd5b5061081c612230565b604051610829919061560d565b60405180910390f35b34801561083e57600080fd5b50610847612236565b60405161085491906151ab565b60405180910390f35b34801561086957600080fd5b50610884600480360381019061087f91906141a7565b61224d565b005b34801561089257600080fd5b5061089b6122af565b6040516108a8919061520b565b60405180910390f35b3480156108bd57600080fd5b506108d860048036038101906108d3919061429a565b61233d565b005b3480156108e657600080fd5b5061090160048036038101906108fc91906143f3565b6123d6565b60405161090e919061520b565b60405180910390f35b34801561092357600080fd5b5061092c6124e0565b604051610939919061560d565b60405180910390f35b34801561094e57600080fd5b506109576124e6565b604051610964919061560d565b60405180910390f35b34801561097957600080fd5b50610994600480360381019061098f919061411c565b6124f0565b6040516109a191906151ab565b60405180910390f35b3480156109b657600080fd5b506109d160048036038101906109cc91906140f3565b612584565b005b3480156109df57600080fd5b506109e861267c565b6040516109f5919061560d565b60405180910390f35b60007f780e9d63000000000000000000000000000000000000000000000000000000007bffffffffffffffffffffffffffffffffffffffffffffffffffffffff1916827bffffffffffffffffffffffffffffffffffffffffffffffffffffffff19161480610a715750610a7082612682565b5b9050919050565b601160029054906101000a900460ff1615610a9257600080fd5b601160019054906101000a900460ff16610ae1576040517f08c379a0000000000000000000000000000000000000000000000000000000008152600401610ad8906155ad565b60405180910390fd5b3373ffffffffffffffffffffffffffffffffffffffff163273ffffffffffffffffffffffffffffffffffffffff1614610b4f576040517f08c379a0000000000000000000000000000000000000000000000000000000008152600401610b469061528d565b60405180910390fd5b600d543414610b93576040517f08c379a0000000000000000000000000000000000000000000000000000000008152600401610b8a9061556d565b60405180910390fd5b6000610b9e33612764565b14610bde576040517f08c379a0000000000000000000000000000000000000000000000000000000008152600401610bd59061524d565b60405180910390fd5b6001600b54600f54600e54610bf3919061571c565b610bfd9190615979565b610c07919061571c565b601760003373ffffffffffffffffffffffffffffffffffffffff1673ffffffffffffffffffffffffffffffffffffffff16815260200190815260200160002081905550600e6000815480929190610c5d90615930565b91905055505050565b606060008054610c75906158fe565b80601f0160208091040260200160405190810160405280929190818152602001828054610ca1906158fe565b8015610cee5780601f10610cc357610100808354040283529160200191610cee565b820191906000526020600020905b815481529060010190602001808311610cd157829003601f168201915b5050505050905090565b6000610d03826127ad565b610d42576040517f08c379a0000000000000000000000000000000000000000000000000000000008152600401610d399061548d565b60405180910390fd5b6004600083815260200190815260200160002060009054906101000a900473ffffffffffffffffffffffffffffffffffffffff169050919050565b6000610d8882611ab1565b90508073ffffffffffffffffffffffffffffffffffffffff168373ffffffffffffffffffffffffffffffffffffffff161415610df9576040517f08c379a0000000000000000000000000000000000000000000000000000000008152600401610df09061552d565b60405180910390fd5b8073ffffffffffffffffffffffffffffffffffffffff16610e18612819565b73ffffffffffffffffffffffffffffffffffffffff161480610e475750610e4681610e41612819565b6124f0565b5b610e86576040517f08c379a0000000000000000000000000000000000000000000000000000000008152600401610e7d906153ed565b60405180910390fd5b610e908383612821565b505050565b610e9d612819565b73ffffffffffffffffffffffffffffffffffffffff16610ebb611fef565b73ffffffffffffffffffffffffffffffffffffffff1614610f11576040517f08c379a0000000000000000000000000000000000000000000000000000000008152600401610f08906154ad565b60405180910390fd5b8060129080519060200190610f27929190613ecd565b504360108190555050565b6060601160029054906101000a900460ff1615610f4e57600080fd5b601160009054906101000a900460ff16610f9d576040517f08c379a0000000000000000000000000000000000000000000000000000000008152600401610f949061550d565b60405180910390fd5b3373ffffffffffffffffffffffffffffffffffffffff163273ffffffffffffffffffffffffffffffffffffffff161461100b576040517f08c379a0000000000000000000000000000000000000000000000000000000008152600401611002906155cd565b60405180910390fd5b600d54341461104f576040517f08c379a00000000000000000000000000000000000000000000000000000000081526004016110469061556d565b60405180910390fd5b601660003373ffffffffffffffffffffffffffffffffffffffff1673ffffffffffffffffffffffffffffffffffffffff16815260200190815260200160002060009054906101000a900460ff16156110dc576040517f08c379a00000000000000000000000000000000000000000000000000000000081526004016110d3906155ed565b60405180910390fd5b600b546110e761127c565b10611127576040517f08c379a000000000000000000000000000000000000000000000000000000000815260040161111e9061534d565b60405180910390fd5b60006001600b54600f54600e5461113e919061571c565b6111489190615979565b611152919061571c565b90506001601660003373ffffffffffffffffffffffffffffffffffffffff1673ffffffffffffffffffffffffffffffffffffffff16815260200190815260200160002060006101000a81548160ff0219169083151502179055506111b633826128da565b60006111c1826123d6565b9050600e60008154809291906111d690615930565b9190505550809250505090565b6111eb612819565b73ffffffffffffffffffffffffffffffffffffffff16611209611fef565b73ffffffffffffffffffffffffffffffffffffffff161461125f576040517f08c379a0000000000000000000000000000000000000000000000000000000008152600401611256906154ad565b60405180910390fd5b80601160026101000a81548160ff02191690831515021790555050565b6000600880549050905090565b61129a611294612819565b826128f8565b6112d9576040517f08c379a00000000000000000000000000000000000000000000000000000000081526004016112d09061554d565b60405180910390fd5b6112e48383836129d6565b505050565b6112f1612819565b73ffffffffffffffffffffffffffffffffffffffff1661130f611fef565b73ffffffffffffffffffffffffffffffffffffffff1614611365576040517f08c379a000000000000000000000000000000000000000000000000000000000815260040161135c906154ad565b60405180910390fd5b80601160036101000a81548160ff02191690831515021790555050565b600061138d83611b63565b82106113ce576040517f08c379a00000000000000000000000000000000000000000000000000000000081526004016113c5906152cd565b60405180910390fd5b600660008473ffffffffffffffffffffffffffffffffffffffff1673ffffffffffffffffffffffffffffffffffffffff168152602001908152602001600020600083815260200190815260200160002054905092915050565b600b5481565b6014805461143a906158fe565b80601f0160208091040260200160405190810160405280929190818152602001828054611466906158fe565b80156114b35780601f10611488576101008083540402835291602001916114b3565b820191906000526020600020905b81548152906001019060200180831161149657829003601f168201915b505050505081565b6114c3612819565b73ffffffffffffffffffffffffffffffffffffffff166114e1611fef565b73ffffffffffffffffffffffffffffffffffffffff1614611537576040517f08c379a000000000000000000000000000000000000000000000000000000000815260040161152e906154ad565b60405180910390fd5b6000601960009054906101000a900473ffffffffffffffffffffffffffffffffffffffff1673ffffffffffffffffffffffffffffffffffffffff166064601e4761158191906157a3565b61158b9190615772565b60405161159790615106565b60006040518083038185875af1925050503d80600081146115d4576040519150601f19603f3d011682016040523d82523d6000602084013e6115d9565b606091505b50509050806115e757600080fd5b6000601a60009054906101000a900473ffffffffffffffffffffffffffffffffffffffff1673ffffffffffffffffffffffffffffffffffffffff16606460174761163191906157a3565b61163b9190615772565b60405161164790615106565b60006040518083038185875af1925050503d8060008114611684576040519150601f19603f3d011682016040523d82523d6000602084013e611689565b606091505b505090508061169757600080fd5b6000601b60009054906101000a900473ffffffffffffffffffffffffffffffffffffffff1673ffffffffffffffffffffffffffffffffffffffff1660646017476116e191906157a3565b6116eb9190615772565b6040516116f790615106565b60006040518083038185875af1925050503d8060008114611734576040519150601f19603f3d011682016040523d82523d6000602084013e611739565b606091505b505090508061174757600080fd5b6000601c60009054906101000a900473ffffffffffffffffffffffffffffffffffffffff1673ffffffffffffffffffffffffffffffffffffffff16606460174761179191906157a3565b61179b9190615772565b6040516117a790615106565b60006040518083038185875af1925050503d80600081146117e4576040519150601f19603f3d011682016040523d82523d6000602084013e6117e9565b606091505b50509050806117f757600080fd5b6000601960009054906101000a900473ffffffffffffffffffffffffffffffffffffffff1673ffffffffffffffffffffffffffffffffffffffff164760405161183f90615106565b60006040518083038185875af1925050503d806000811461187c576040519150601f19603f3d011682016040523d82523d6000602084013e611881565b606091505b505090508061188f57600080fd5b5050505050565b6118b18383836040518060200160405280600081525061224d565b505050565b601580546118c3906158fe565b80601f01602080910402602001604051908101604052809291908181526020018280546118ef906158fe565b801561193c5780601f106119115761010080835404028352916020019161193c565b820191906000526020600020905b81548152906001019060200180831161191f57829003601f168201915b505050505081565b6000601160009054906101000a900460ff16905090565b600061196561127c565b82106119a6576040517f08c379a000000000000000000000000000000000000000000000000000000000815260040161199d9061558d565b60405180910390fd5b600882815481106119e0577f4e487b7100000000000000000000000000000000000000000000000000000000600052603260045260246000fd5b90600052602060002001549050919050565b601160039054906101000a900460ff1681565b611a0d612819565b73ffffffffffffffffffffffffffffffffffffffff16611a2b611fef565b73ffffffffffffffffffffffffffffffffffffffff1614611a81576040517f08c379a0000000000000000000000000000000000000000000000000000000008152600401611a78906154ad565b60405180910390fd5b80601160006101000a81548160ff02191690831515021790555050565b601160029054906101000a900460ff1681565b6000806002600084815260200190815260200160002060009054906101000a900473ffffffffffffffffffffffffffffffffffffffff169050600073ffffffffffffffffffffffffffffffffffffffff168173ffffffffffffffffffffffffffffffffffffffff161415611b5a576040517f08c379a0000000000000000000000000000000000000000000000000000000008152600401611b519061542d565b60405180910390fd5b80915050919050565b60008073ffffffffffffffffffffffffffffffffffffffff168273ffffffffffffffffffffffffffffffffffffffff161415611bd4576040517f08c379a0000000000000000000000000000000000000000000000000000000008152600401611bcb9061540d565b60405180910390fd5b600360008373ffffffffffffffffffffffffffffffffffffffff1673ffffffffffffffffffffffffffffffffffffffff168152602001908152602001600020549050919050565b611c23612819565b73ffffffffffffffffffffffffffffffffffffffff16611c41611fef565b73ffffffffffffffffffffffffffffffffffffffff1614611c97576040517f08c379a0000000000000000000000000000000000000000000000000000000008152600401611c8e906154ad565b60405180910390fd5b611ca16000612c32565b565b600c5481565b60138054611cb6906158fe565b80601f0160208091040260200160405190810160405280929190818152602001828054611ce2906158fe565b8015611d2f5780601f10611d0457610100808354040283529160200191611d2f565b820191906000526020600020905b815481529060010190602001808311611d1257829003601f168201915b505050505081565b6060601160029054906101000a900460ff1615611d5357600080fd5b601160019054906101000a900460ff16611da2576040517f08c379a0000000000000000000000000000000000000000000000000000000008152600401611d999061550d565b60405180910390fd5b3373ffffffffffffffffffffffffffffffffffffffff163273ffffffffffffffffffffffffffffffffffffffff1614611e10576040517f08c379a0000000000000000000000000000000000000000000000000000000008152600401611e07906155cd565b60405180910390fd5b601660003373ffffffffffffffffffffffffffffffffffffffff1673ffffffffffffffffffffffffffffffffffffffff16815260200190815260200160002060009054906101000a900460ff1615611e9d576040517f08c379a0000000000000000000000000000000000000000000000000000000008152600401611e94906155ed565b60405180910390fd5b6000611ea833612764565b1415611ee9576040517f08c379a0000000000000000000000000000000000000000000000000000000008152600401611ee09061526d565b60405180910390fd5b600c54611ef461127c565b10611f34576040517f08c379a0000000000000000000000000000000000000000000000000000000008152600401611f2b906154ed565b60405180910390fd5b6000601760003373ffffffffffffffffffffffffffffffffffffffff1673ffffffffffffffffffffffffffffffffffffffff1681526020019081526020016000205490506001601660003373ffffffffffffffffffffffffffffffffffffffff1673ffffffffffffffffffffffffffffffffffffffff16815260200190815260200160002060006101000a81548160ff021916908315150217905550611fda33826128da565b6000611fe5826123d6565b9050809250505090565b6000600a60009054906101000a900473ffffffffffffffffffffffffffffffffffffffff16905090565b606060128054612028906158fe565b80601f0160208091040260200160405190810160405280929190818152602001828054612054906158fe565b80156120a15780601f10612076576101008083540402835291602001916120a1565b820191906000526020600020905b81548152906001019060200180831161208457829003601f168201915b5050505050905090565b6060600180546120ba906158fe565b80601f01602080910402602001604051908101604052809291908181526020018280546120e6906158fe565b80156121335780601f1061210857610100808354040283529160200191612133565b820191906000526020600020905b81548152906001019060200180831161211657829003601f168201915b5050505050905090565b61214f612148612819565b8383612cf8565b5050565b6000601860009054906101000a900473ffffffffffffffffffffffffffffffffffffffff1673ffffffffffffffffffffffffffffffffffffffff1661221085858080601f016020809104026020016040519081016040528093929190818152602001838380828437600081840152601f19601f8201169050808301925050505050505061220285600b546040516020016121ee929190615182565b604051602081830303815290604052612e65565b612ea090919063ffffffff16565b73ffffffffffffffffffffffffffffffffffffffff161490509392505050565b600e5481565b6000601160019054906101000a900460ff16905090565b61225e612258612819565b836128f8565b61229d576040517f08c379a00000000000000000000000000000000000000000000000000000000081526004016122949061554d565b60405180910390fd5b6122a984848484612ec7565b50505050565b601280546122bc906158fe565b80601f01602080910402602001604051908101604052809291908181526020018280546122e8906158fe565b80156123355780601f1061230a57610100808354040283529160200191612335565b820191906000526020600020905b81548152906001019060200180831161231857829003601f168201915b505050505081565b612345612819565b73ffffffffffffffffffffffffffffffffffffffff16612363611fef565b73ffffffffffffffffffffffffffffffffffffffff16146123b9576040517f08c379a00000000000000000000000000000000000000000000000000000000081526004016123b0906154ad565b60405180910390fd5b80601160016101000a81548160ff02191690831515021790555050565b6060601160039054906101000a900460ff1661247e57601480546123f9906158fe565b80601f0160208091040260200160405190810160405280929190818152602001828054612425906158fe565b80156124725780601f1061244757610100808354040283529160200191612472565b820191906000526020600020905b81548152906001019060200180831161245557829003601f168201915b505050505090506124db565b60006013805461248d906158fe565b9050116124a957604051806020016040528060008152506124d8565b60136124b483612f23565b60156040516020016124c8939291906150a6565b6040516020818303038152906040525b90505b919050565b60105481565b6000600f54905090565b6000600560008473ffffffffffffffffffffffffffffffffffffffff1673ffffffffffffffffffffffffffffffffffffffff16815260200190815260200160002060008373ffffffffffffffffffffffffffffffffffffffff1673ffffffffffffffffffffffffffffffffffffffff16815260200190815260200160002060009054906101000a900460ff16905092915050565b61258c612819565b73ffffffffffffffffffffffffffffffffffffffff166125aa611fef565b73ffffffffffffffffffffffffffffffffffffffff1614612600576040517f08c379a00000000000000000000000000000000000000000000000000000000081526004016125f7906154ad565b60405180910390fd5b600073ffffffffffffffffffffffffffffffffffffffff168173ffffffffffffffffffffffffffffffffffffffff161415612670576040517f08c379a00000000000000000000000000000000000000000000000000000000081526004016126679061530d565b60405180910390fd5b61267981612c32565b50565b600f5481565b60007f80ac58cd000000000000000000000000000000000000000000000000000000007bffffffffffffffffffffffffffffffffffffffffffffffffffffffff1916827bffffffffffffffffffffffffffffffffffffffffffffffffffffffff1916148061274d57507f5b5e139f000000000000000000000000000000000000000000000000000000007bffffffffffffffffffffffffffffffffffffffffffffffffffffffff1916827bffffffffffffffffffffffffffffffffffffffffffffffffffffffff1916145b8061275d575061275c826130d0565b5b9050919050565b6000601760008373ffffffffffffffffffffffffffffffffffffffff1673ffffffffffffffffffffffffffffffffffffffff168152602001908152602001600020549050919050565b60008073ffffffffffffffffffffffffffffffffffffffff166002600084815260200190815260200160002060009054906101000a900473ffffffffffffffffffffffffffffffffffffffff1673ffffffffffffffffffffffffffffffffffffffff1614159050919050565b600033905090565b816004600083815260200190815260200160002060006101000a81548173ffffffffffffffffffffffffffffffffffffffff021916908373ffffffffffffffffffffffffffffffffffffffff160217905550808273ffffffffffffffffffffffffffffffffffffffff1661289483611ab1565b73ffffffffffffffffffffffffffffffffffffffff167f8c5be1e5ebec7d5bd14f71427d1e84f3dd0314c0f7b2291e5b200ac8c7c3b92560405160405180910390a45050565b6128f482826040518060200160405280600081525061313a565b5050565b6000612903826127ad565b612942576040517f08c379a0000000000000000000000000000000000000000000000000000000008152600401612939906153cd565b60405180910390fd5b600061294d83611ab1565b90508073ffffffffffffffffffffffffffffffffffffffff168473ffffffffffffffffffffffffffffffffffffffff1614806129bc57508373ffffffffffffffffffffffffffffffffffffffff166129a484610cf8565b73ffffffffffffffffffffffffffffffffffffffff16145b806129cd57506129cc81856124f0565b5b91505092915050565b8273ffffffffffffffffffffffffffffffffffffffff166129f682611ab1565b73ffffffffffffffffffffffffffffffffffffffff1614612a4c576040517f08c379a0000000000000000000000000000000000000000000000000000000008152600401612a43906154cd565b60405180910390fd5b600073ffffffffffffffffffffffffffffffffffffffff168273ffffffffffffffffffffffffffffffffffffffff161415612abc576040517f08c379a0000000000000000000000000000000000000000000000000000000008152600401612ab39061536d565b60405180910390fd5b612ac7838383613195565b612ad2600082612821565b6001600360008573ffffffffffffffffffffffffffffffffffffffff1673ffffffffffffffffffffffffffffffffffffffff1681526020019081526020016000206000828254612b2291906157fd565b925050819055506001600360008473ffffffffffffffffffffffffffffffffffffffff1673ffffffffffffffffffffffffffffffffffffffff1681526020019081526020016000206000828254612b79919061571c565b92505081905550816002600083815260200190815260200160002060006101000a81548173ffffffffffffffffffffffffffffffffffffffff021916908373ffffffffffffffffffffffffffffffffffffffff160217905550808273ffffffffffffffffffffffffffffffffffffffff168473ffffffffffffffffffffffffffffffffffffffff167fddf252ad1be2c89b69c2b068fc378daa952ba7f163c4a11628f55a4df523b3ef60405160405180910390a4505050565b6000600a60009054906101000a900473ffffffffffffffffffffffffffffffffffffffff16905081600a60006101000a81548173ffffffffffffffffffffffffffffffffffffffff021916908373ffffffffffffffffffffffffffffffffffffffff1602179055508173ffffffffffffffffffffffffffffffffffffffff168173ffffffffffffffffffffffffffffffffffffffff167f8be0079c531659141344cd1fd0a4f28419497f9722a3daafe3b4186f6b6457e060405160405180910390a35050565b8173ffffffffffffffffffffffffffffffffffffffff168373ffffffffffffffffffffffffffffffffffffffff161415612d67576040517f08c379a0000000000000000000000000000000000000000000000000000000008152600401612d5e9061538d565b60405180910390fd5b80600560008573ffffffffffffffffffffffffffffffffffffffff1673ffffffffffffffffffffffffffffffffffffffff16815260200190815260200160002060008473ffffffffffffffffffffffffffffffffffffffff1673ffffffffffffffffffffffffffffffffffffffff16815260200190815260200160002060006101000a81548160ff0219169083151502179055508173ffffffffffffffffffffffffffffffffffffffff168373ffffffffffffffffffffffffffffffffffffffff167f17307eab39ab6107e8899845ad3d59bd9653f200f220920489ca2b5937696c3183604051612e5891906151ab565b60405180910390a3505050565b6000612e718251612f23565b82604051602001612e839291906150d7565b604051602081830303815290604052805190602001209050919050565b6000806000612eaf85856132a9565b91509150612ebc8161332c565b819250505092915050565b612ed28484846129d6565b612ede8484848461367d565b612f1d576040517f08c379a0000000000000000000000000000000000000000000000000000000008152600401612f14906152ed565b60405180910390fd5b50505050565b60606000821415612f6b576040518060400160405280600181526020017f300000000000000000000000000000000000000000000000000000000000000081525090506130cb565b600082905060005b60008214612f9d578080612f8690615930565b915050600a82612f969190615772565b9150612f73565b60008167ffffffffffffffff811115612fdf577f4e487b7100000000000000000000000000000000000000000000000000000000600052604160045260246000fd5b6040519080825280601f01601f1916602001820160405280156130115781602001600182028036833780820191505090505b5090505b600085146130c45760018261302a91906157fd565b9150600a856130399190615979565b6030613045919061571c565b60f81b818381518110613081577f4e487b7100000000000000000000000000000000000000000000000000000000600052603260045260246000fd5b60200101907effffffffffffffffffffffffffffffffffffffffffffffffffffffffffffff1916908160001a905350600a856130bd9190615772565b9450613015565b8093505050505b919050565b60007f01ffc9a7000000000000000000000000000000000000000000000000000000007bffffffffffffffffffffffffffffffffffffffffffffffffffffffff1916827bffffffffffffffffffffffffffffffffffffffffffffffffffffffff1916149050919050565b6131448383613814565b613151600084848461367d565b613190576040517f08c379a0000000000000000000000000000000000000000000000000000000008152600401613187906152ed565b60405180910390fd5b505050565b6131a08383836139e2565b600073ffffffffffffffffffffffffffffffffffffffff168373ffffffffffffffffffffffffffffffffffffffff1614156131e3576131de816139e7565b613222565b8173ffffffffffffffffffffffffffffffffffffffff168373ffffffffffffffffffffffffffffffffffffffff1614613221576132208382613a30565b5b5b600073ffffffffffffffffffffffffffffffffffffffff168273ffffffffffffffffffffffffffffffffffffffff1614156132655761326081613b9d565b6132a4565b8273ffffffffffffffffffffffffffffffffffffffff168273ffffffffffffffffffffffffffffffffffffffff16146132a3576132a28282613ce0565b5b5b505050565b6000806041835114156132eb5760008060006020860151925060408601519150606086015160001a90506132df87828585613d5f565b94509450505050613325565b60408351141561331c576000806020850151915060408501519050613311868383613e6c565b935093505050613325565b60006002915091505b9250929050565b60006004811115613366577f4e487b7100000000000000000000000000000000000000000000000000000000600052602160045260246000fd5b81600481111561339f577f4e487b7100000000000000000000000000000000000000000000000000000000600052602160045260246000fd5b14156133aa5761367a565b600160048111156133e4577f4e487b7100000000000000000000000000000000000000000000000000000000600052602160045260246000fd5b81600481111561341d577f4e487b7100000000000000000000000000000000000000000000000000000000600052602160045260246000fd5b141561345e576040517f08c379a00000000000000000000000000000000000000000000000000000000081526004016134559061522d565b60405180910390fd5b60026004811115613498577f4e487b7100000000000000000000000000000000000000000000000000000000600052602160045260246000fd5b8160048111156134d1577f4e487b7100000000000000000000000000000000000000000000000000000000600052602160045260246000fd5b1415613512576040517f08c379a0000000000000000000000000000000000000000000000000000000008152600401613509906152ad565b60405180910390fd5b6003600481111561354c577f4e487b7100000000000000000000000000000000000000000000000000000000600052602160045260246000fd5b816004811115613585577f4e487b7100000000000000000000000000000000000000000000000000000000600052602160045260246000fd5b14156135c6576040517f08c379a00000000000000000000000000000000000000000000000000000000081526004016135bd906153ad565b60405180910390fd5b6004808111156135ff577f4e487b7100000000000000000000000000000000000000000000000000000000600052602160045260246000fd5b816004811115613638577f4e487b7100000000000000000000000000000000000000000000000000000000600052602160045260246000fd5b1415613679576040517f08c379a00000000000000000000000000000000000000000000000000000000081526004016136709061544d565b60405180910390fd5b5b50565b600061369e8473ffffffffffffffffffffffffffffffffffffffff16613eba565b15613807578373ffffffffffffffffffffffffffffffffffffffff1663150b7a026136c7612819565b8786866040518563ffffffff1660e01b81526004016136e99493929190615136565b602060405180830381600087803b15801561370357600080fd5b505af192505050801561373457506040513d601f19601f8201168201806040525081019061373191906142ec565b60015b6137b7573d8060008114613764576040519150601f19603f3d011682016040523d82523d6000602084013e613769565b606091505b506000815114156137af576040517f08c379a00000000000000000000000000000000000000000000000000000000081526004016137a6906152ed565b60405180910390fd5b805181602001fd5b63150b7a0260e01b7bffffffffffffffffffffffffffffffffffffffffffffffffffffffff1916817bffffffffffffffffffffffffffffffffffffffffffffffffffffffff19161491505061380c565b600190505b949350505050565b600073ffffffffffffffffffffffffffffffffffffffff168273ffffffffffffffffffffffffffffffffffffffff161415613884576040517f08c379a000000000000000000000000000000000000000000000000000000000815260040161387b9061546d565b60405180910390fd5b61388d816127ad565b156138cd576040517f08c379a00000000000000000000000000000000000000000000000000000000081526004016138c49061532d565b60405180910390fd5b6138d960008383613195565b6001600360008473ffffffffffffffffffffffffffffffffffffffff1673ffffffffffffffffffffffffffffffffffffffff1681526020019081526020016000206000828254613929919061571c565b92505081905550816002600083815260200190815260200160002060006101000a81548173ffffffffffffffffffffffffffffffffffffffff021916908373ffffffffffffffffffffffffffffffffffffffff160217905550808273ffffffffffffffffffffffffffffffffffffffff16600073ffffffffffffffffffffffffffffffffffffffff167fddf252ad1be2c89b69c2b068fc378daa952ba7f163c4a11628f55a4df523b3ef60405160405180910390a45050565b505050565b6008805490506009600083815260200190815260200160002081905550600881908060018154018082558091505060019003906000526020600020016000909190919091505550565b60006001613a3d84611b63565b613a4791906157fd565b9050600060076000848152602001908152602001600020549050818114613b2c576000600660008673ffffffffffffffffffffffffffffffffffffffff1673ffffffffffffffffffffffffffffffffffffffff168152602001908152602001600020600084815260200190815260200160002054905080600660008773ffffffffffffffffffffffffffffffffffffffff1673ffffffffffffffffffffffffffffffffffffffff168152602001908152602001600020600084815260200190815260200160002081905550816007600083815260200190815260200160002081905550505b6007600084815260200190815260200160002060009055600660008573ffffffffffffffffffffffffffffffffffffffff1673ffffffffffffffffffffffffffffffffffffffff16815260200190815260200160002060008381526020019081526020016000206000905550505050565b60006001600880549050613bb191906157fd565b9050600060096000848152602001908152602001600020549050600060088381548110613c07577f4e487b7100000000000000000000000000000000000000000000000000000000600052603260045260246000fd5b906000526020600020015490508060088381548110613c4f577f4e487b7100000000000000000000000000000000000000000000000000000000600052603260045260246000fd5b906000526020600020018190555081600960008381526020019081526020016000208190555060096000858152602001908152602001600020600090556008805480613cc4577f4e487b7100000000000000000000000000000000000000000000000000000000600052603160045260246000fd5b6001900381819060005260206000200160009055905550505050565b6000613ceb83611b63565b905081600660008573ffffffffffffffffffffffffffffffffffffffff1673ffffffffffffffffffffffffffffffffffffffff168152602001908152602001600020600083815260200190815260200160002081905550806007600084815260200190815260200160002081905550505050565b6000807f7fffffffffffffffffffffffffffffff5d576e7357a4501ddfe92f46681b20a08360001c1115613d9a576000600391509150613e63565b601b8560ff1614158015613db25750601c8560ff1614155b15613dc4576000600491509150613e63565b600060018787878760405160008152602001604052604051613de994939291906151c6565b6020604051602081039080840390855afa158015613e0b573d6000803e3d6000fd5b505050602060405103519050600073ffffffffffffffffffffffffffffffffffffffff168173ffffffffffffffffffffffffffffffffffffffff161415613e5a57600060019250925050613e63565b80600092509250505b94509492505050565b6000806000807f7fffffffffffffffffffffffffffffffffffffffffffffffffffffffffffffff85169150601b8560ff1c019050613eac87828885613d5f565b935093505050935093915050565b600080823b905060008111915050919050565b828054613ed9906158fe565b90600052602060002090601f016020900481019282613efb5760008555613f42565b82601f10613f1457805160ff1916838001178555613f42565b82800160010185558215613f42579182015b82811115613f41578251825591602001919060010190613f26565b5b509050613f4f9190613f53565b5090565b5b80821115613f6c576000816000905550600101613f54565b5090565b6000613f83613f7e84615659565b615628565b905082815260208101848484011115613f9b57600080fd5b613fa68482856158bc565b509392505050565b6000613fc1613fbc84615689565b615628565b905082815260208101848484011115613fd957600080fd5b613fe48482856158bc565b509392505050565b600081359050613ffb81615a77565b92915050565b60008135905061401081615a8e565b92915050565b60008135905061402581615aa5565b92915050565b60008151905061403a81615aa5565b92915050565b60008083601f84011261405257600080fd5b8235905067ffffffffffffffff81111561406b57600080fd5b60208301915083600182028301111561408357600080fd5b9250929050565b600082601f83011261409b57600080fd5b81356140ab848260208601613f70565b91505092915050565b600082601f8301126140c557600080fd5b81356140d5848260208601613fae565b91505092915050565b6000813590506140ed81615abc565b92915050565b60006020828403121561410557600080fd5b600061411384828501613fec565b91505092915050565b6000806040838503121561412f57600080fd5b600061413d85828601613fec565b925050602061414e85828601613fec565b9150509250929050565b60008060006060848603121561416d57600080fd5b600061417b86828701613fec565b935050602061418c86828701613fec565b925050604061419d868287016140de565b9150509250925092565b600080600080608085870312156141bd57600080fd5b60006141cb87828801613fec565b94505060206141dc87828801613fec565b93505060406141ed878288016140de565b925050606085013567ffffffffffffffff81111561420a57600080fd5b6142168782880161408a565b91505092959194509250565b6000806040838503121561423557600080fd5b600061424385828601613fec565b925050602061425485828601614001565b9150509250929050565b6000806040838503121561427157600080fd5b600061427f85828601613fec565b9250506020614290858286016140de565b9150509250929050565b6000602082840312156142ac57600080fd5b60006142ba84828501614001565b91505092915050565b6000602082840312156142d557600080fd5b60006142e384828501614016565b91505092915050565b6000602082840312156142fe57600080fd5b600061430c8482850161402b565b91505092915050565b6000806020838503121561432857600080fd5b600083013567ffffffffffffffff81111561434257600080fd5b61434e85828601614040565b92509250509250929050565b60008060006040848603121561436f57600080fd5b600084013567ffffffffffffffff81111561438957600080fd5b61439586828701614040565b935093505060206143a886828701613fec565b9150509250925092565b6000602082840312156143c457600080fd5b600082013567ffffffffffffffff8111156143de57600080fd5b6143ea848285016140b4565b91505092915050565b60006020828403121561440557600080fd5b6000614413848285016140de565b91505092915050565b61442581615831565b82525050565b61443481615843565b82525050565b6144438161584f565b82525050565b6000614454826156ce565b61445e81856156e4565b935061446e8185602086016158cb565b61447781615a66565b840191505092915050565b600061448d826156ce565b61449781856156f5565b93506144a78185602086016158cb565b80840191505092915050565b60006144be826156d9565b6144c88185615700565b93506144d88185602086016158cb565b6144e181615a66565b840191505092915050565b60006144f7826156d9565b6145018185615711565b93506145118185602086016158cb565b80840191505092915050565b6000815461452a816158fe565b6145348186615711565b9450600182166000811461454f576001811461456057614593565b60ff19831686528186019350614593565b614569856156b9565b60005b8381101561458b5781548189015260018201915060208101905061456c565b838801955050505b50505092915050565b60006145a9601883615700565b91507f45434453413a20696e76616c6964207369676e617475726500000000000000006000830152602082019050919050565b60006145e9601f83615700565b91507f596f752063616e206f6e6c792072657365727665206f6e652053617069656e006000830152602082019050919050565b6000614629602183615700565b91507f53617069656e206e6565647320746f206265207265736572766564206669727360008301527f74000000000000000000000000000000000000000000000000000000000000006020830152604082019050919050565b600061468f602483615700565b91507f436f6e74726163747320617265206e6f7420616c6c6f77656420746f2072657360008301527f65727665000000000000000000000000000000000000000000000000000000006020830152604082019050919050565b60006146f5601f83615700565b91507f45434453413a20696e76616c6964207369676e6174757265206c656e677468006000830152602082019050919050565b6000614735602b83615700565b91507f455243373231456e756d657261626c653a206f776e657220696e646578206f7560008301527f74206f6620626f756e64730000000000000000000000000000000000000000006020830152604082019050919050565b600061479b603283615700565b91507f4552433732313a207472616e7366657220746f206e6f6e20455243373231526560008301527f63656976657220696d706c656d656e74657200000000000000000000000000006020830152604082019050919050565b6000614801602683615700565b91507f4f776e61626c653a206e6577206f776e657220697320746865207a65726f206160008301527f64647265737300000000000000000000000000000000000000000000000000006020830152604082019050919050565b6000614867601c83615700565b91507f4552433732313a20746f6b656e20616c7265616479206d696e746564000000006000830152602082019050919050565b60006148a7601c83615700565b91507f416c6c2053617069656e732068617665206265656e206d696e746564000000006000830152602082019050919050565b60006148e7602483615700565b91507f4552433732313a207472616e7366657220746f20746865207a65726f2061646460008301527f72657373000000000000000000000000000000000000000000000000000000006020830152604082019050919050565b600061494d601983615700565b91507f4552433732313a20617070726f766520746f2063616c6c6572000000000000006000830152602082019050919050565b600061498d602283615700565b91507f45434453413a20696e76616c6964207369676e6174757265202773272076616c60008301527f75650000000000000000000000000000000000000000000000000000000000006020830152604082019050919050565b60006149f3602c83615700565b91507f4552433732313a206f70657261746f7220717565727920666f72206e6f6e657860008301527f697374656e7420746f6b656e00000000000000000000000000000000000000006020830152604082019050919050565b6000614a59603883615700565b91507f4552433732313a20617070726f76652063616c6c6572206973206e6f74206f7760008301527f6e6572206e6f7220617070726f76656420666f7220616c6c00000000000000006020830152604082019050919050565b6000614abf602a83615700565b91507f4552433732313a2062616c616e636520717565727920666f7220746865207a6560008301527f726f2061646472657373000000000000000000000000000000000000000000006020830152604082019050919050565b6000614b25602983615700565b91507f4552433732313a206f776e657220717565727920666f72206e6f6e657869737460008301527f656e7420746f6b656e00000000000000000000000000000000000000000000006020830152604082019050919050565b6000614b8b602283615700565b91507f45434453413a20696e76616c6964207369676e6174757265202776272076616c60008301527f75650000000000000000000000000000000000000000000000000000000000006020830152604082019050919050565b6000614bf1602083615700565b91507f4552433732313a206d696e7420746f20746865207a65726f20616464726573736000830152602082019050919050565b6000614c31602c83615700565b91507f4552433732313a20617070726f76656420717565727920666f72206e6f6e657860008301527f697374656e7420746f6b656e00000000000000000000000000000000000000006020830152604082019050919050565b6000614c97602083615700565b91507f4f776e61626c653a2063616c6c6572206973206e6f7420746865206f776e65726000830152602082019050919050565b6000614cd7601a83615711565b91507f19457468657265756d205369676e6564204d6573736167653a0a0000000000006000830152601a82019050919050565b6000614d17602983615700565b91507f4552433732313a207472616e73666572206f6620746f6b656e2074686174206960008301527f73206e6f74206f776e00000000000000000000000000000000000000000000006020830152604082019050919050565b6000614d7d601b83615700565b91507f50726573616c6520737570706c7920686173206265656e206d657400000000006000830152602082019050919050565b6000614dbd601a83615700565b91507f53616c652069732063757272656e746c7920696e6163746976650000000000006000830152602082019050919050565b6000614dfd602183615700565b91507f4552433732313a20617070726f76616c20746f2063757272656e74206f776e6560008301527f72000000000000000000000000000000000000000000000000000000000000006020830152604082019050919050565b6000614e636000836156f5565b9150600082019050919050565b6000614e7d603183615700565b91507f4552433732313a207472616e736665722063616c6c6572206973206e6f74206f60008301527f776e6572206e6f7220617070726f7665640000000000000000000000000000006020830152604082019050919050565b6000614ee3601983615700565b91507f496e636f727265637420616d6f756e74206f66206574686572000000000000006000830152602082019050919050565b6000614f23602c83615700565b91507f455243373231456e756d657261626c653a20676c6f62616c20696e646578206f60008301527f7574206f6620626f756e647300000000000000000000000000000000000000006020830152604082019050919050565b6000614f89601d83615700565b91507f50726573616c652069732063757272656e746c7920696e6163746976650000006000830152602082019050919050565b6000614fc9602183615700565b91507f436f6e74726163747320617265206e6f7420616c6c6f77656420746f206d696e60008301527f74000000000000000000000000000000000000000000000000000000000000006020830152604082019050919050565b600061502f602483615700565b91507f596f752063616e6e6f74206d696e74206d6f7265207468616e206f6e6520536160008301527f7069656e000000000000000000000000000000000000000000000000000000006020830152604082019050919050565b615091816158a5565b82525050565b6150a0816158af565b82525050565b60006150b2828661451d565b91506150be82856144ec565b91506150ca828461451d565b9150819050949350505050565b60006150e282614cca565b91506150ee82856144ec565b91506150fa8284614482565b91508190509392505050565b600061511182614e56565b9150819050919050565b6000602082019050615130600083018461441c565b92915050565b600060808201905061514b600083018761441c565b615158602083018661441c565b6151656040830185615088565b81810360608301526151778184614449565b905095945050505050565b6000604082019050615197600083018561441c565b6151a46020830184615088565b9392505050565b60006020820190506151c0600083018461442b565b92915050565b60006080820190506151db600083018761443a565b6151e86020830186615097565b6151f5604083018561443a565b615202606083018461443a565b95945050505050565b6000602082019050818103600083015261522581846144b3565b905092915050565b600060208201905081810360008301526152468161459c565b9050919050565b60006020820190508181036000830152615266816145dc565b9050919050565b600060208201905081810360008301526152868161461c565b9050919050565b600060208201905081810360008301526152a681614682565b9050919050565b600060208201905081810360008301526152c6816146e8565b9050919050565b600060208201905081810360008301526152e681614728565b9050919050565b600060208201905081810360008301526153068161478e565b9050919050565b60006020820190508181036000830152615326816147f4565b9050919050565b600060208201905081810360008301526153468161485a565b9050919050565b600060208201905081810360008301526153668161489a565b9050919050565b60006020820190508181036000830152615386816148da565b9050919050565b600060208201905081810360008301526153a681614940565b9050919050565b600060208201905081810360008301526153c681614980565b9050919050565b600060208201905081810360008301526153e6816149e6565b9050919050565b6000602082019050818103600083015261540681614a4c565b9050919050565b6000602082019050818103600083015261542681614ab2565b9050919050565b6000602082019050818103600083015261544681614b18565b9050919050565b6000602082019050818103600083015261546681614b7e565b9050919050565b6000602082019050818103600083015261548681614be4565b9050919050565b600060208201905081810360008301526154a681614c24565b9050919050565b600060208201905081810360008301526154c681614c8a565b9050919050565b600060208201905081810360008301526154e681614d0a565b9050919050565b6000602082019050818103600083015261550681614d70565b9050919050565b6000602082019050818103600083015261552681614db0565b9050919050565b6000602082019050818103600083015261554681614df0565b9050919050565b6000602082019050818103600083015261556681614e70565b9050919050565b6000602082019050818103600083015261558681614ed6565b9050919050565b600060208201905081810360008301526155a681614f16565b9050919050565b600060208201905081810360008301526155c681614f7c565b9050919050565b600060208201905081810360008301526155e681614fbc565b9050919050565b6000602082019050818103600083015261560681615022565b9050919050565b60006020820190506156226000830184615088565b92915050565b6000604051905081810181811067ffffffffffffffff8211171561564f5761564e615a37565b5b8060405250919050565b600067ffffffffffffffff82111561567457615673615a37565b5b601f19601f8301169050602081019050919050565b600067ffffffffffffffff8211156156a4576156a3615a37565b5b601f19601f8301169050602081019050919050565b60008190508160005260206000209050919050565b600081519050919050565b600081519050919050565b600082825260208201905092915050565b600081905092915050565b600082825260208201905092915050565b600081905092915050565b6000615727826158a5565b9150615732836158a5565b9250827fffffffffffffffffffffffffffffffffffffffffffffffffffffffffffffffff03821115615767576157666159aa565b5b828201905092915050565b600061577d826158a5565b9150615788836158a5565b925082615798576157976159d9565b5b828204905092915050565b60006157ae826158a5565b91506157b9836158a5565b9250817fffffffffffffffffffffffffffffffffffffffffffffffffffffffffffffffff04831182151516156157f2576157f16159aa565b5b828202905092915050565b6000615808826158a5565b9150615813836158a5565b925082821015615826576158256159aa565b5b828203905092915050565b600061583c82615885565b9050919050565b60008115159050919050565b6000819050919050565b60007fffffffff0000000000000000000000000000000000000000000000000000000082169050919050565b600073ffffffffffffffffffffffffffffffffffffffff82169050919050565b6000819050919050565b600060ff82169050919050565b82818337600083830152505050565b60005b838110156158e95780820151818401526020810190506158ce565b838111156158f8576000848401525b50505050565b6000600282049050600182168061591657607f821691505b6020821081141561592a57615929615a08565b5b50919050565b600061593b826158a5565b91507fffffffffffffffffffffffffffffffffffffffffffffffffffffffffffffffff82141561596e5761596d6159aa565b5b600182019050919050565b6000615984826158a5565b915061598f836158a5565b92508261599f5761599e6159d9565b5b828206905092915050565b7f4e487b7100000000000000000000000000000000000000000000000000000000600052601160045260246000fd5b7f4e487b7100000000000000000000000000000000000000000000000000000000600052601260045260246000fd5b7f4e487b7100000000000000000000000000000000000000000000000000000000600052602260045260246000fd5b7f4e487b7100000000000000000000000000000000000000000000000000000000600052604160045260246000fd5b6000601f19601f8301169050919050565b615a8081615831565b8114615a8b57600080fd5b50565b615a9781615843565b8114615aa257600080fd5b50565b615aae81615859565b8114615ab957600080fd5b50565b615ac5816158a5565b8114615ad057600080fd5b5056fea2646970667358221220e685b2f6b933d4aead05af5ea9cd544ddd3eccea1b502fdf8b4202dc253e8e6364736f6c63430008000033697066733a2f2f516d5679315a57466867367374583756536f32586f466f706f4c714a5654377863335257526551364d5843524d562f697066733a2f2f516d576e72716b4265395a314232344835686f6f694d4d4e377a345a704b524d324e326e4e635a50506937733572",
  "linkReferences": {},
  "deployedLinkReferences": {}
}