{
  "_format": "hh-sol-artifact-1",
  "contractName": "Sapien",
  "sourceName": "contracts/Sapien.sol",
  "abi": [
    {
      "inputs": [],
      "stateMutability": "nonpayable",
      "type": "constructor"
    },
    {
      "anonymous": false,
      "inputs": [
        {
          "indexed": true,
          "internalType": "address",
          "name": "owner",
          "type": "address"
        },
        {
          "indexed": true,
          "internalType": "address",
          "name": "approved",
          "type": "address"
        },
        {
          "indexed": true,
          "internalType": "uint256",
          "name": "tokenId",
          "type": "uint256"
        }
      ],
      "name": "Approval",
      "type": "event"
    },
    {
      "anonymous": false,
      "inputs": [
        {
          "indexed": true,
          "internalType": "address",
          "name": "owner",
          "type": "address"
        },
        {
          "indexed": true,
          "internalType": "address",
          "name": "operator",
          "type": "address"
        },
        {
          "indexed": false,
          "internalType": "bool",
          "name": "approved",
          "type": "bool"
        }
      ],
      "name": "ApprovalForAll",
      "type": "event"
    },
    {
      "anonymous": false,
      "inputs": [
        {
          "indexed": true,
          "internalType": "address",
          "name": "previousOwner",
          "type": "address"
        },
        {
          "indexed": true,
          "internalType": "address",
          "name": "newOwner",
          "type": "address"
        }
      ],
      "name": "OwnershipTransferred",
      "type": "event"
    },
    {
      "anonymous": false,
      "inputs": [
        {
          "indexed": true,
          "internalType": "address",
          "name": "from",
          "type": "address"
        },
        {
          "indexed": true,
          "internalType": "address",
          "name": "to",
          "type": "address"
        },
        {
          "indexed": true,
          "internalType": "uint256",
          "name": "tokenId",
          "type": "uint256"
        }
      ],
      "name": "Transfer",
      "type": "event"
    },
    {
      "inputs": [],
      "name": "BASE_URL",
      "outputs": [
        {
          "internalType": "string",
          "name": "",
          "type": "string"
        }
      ],
      "stateMutability": "view",
      "type": "function"
    },
    {
      "inputs": [],
      "name": "EXTENSION",
      "outputs": [
        {
          "internalType": "string",
          "name": "",
          "type": "string"
        }
      ],
      "stateMutability": "view",
      "type": "function"
    },
    {
      "inputs": [],
      "name": "FSNFT_PROVENANCE",
      "outputs": [
        {
          "internalType": "string",
          "name": "",
          "type": "string"
        }
      ],
      "stateMutability": "view",
      "type": "function"
    },
    {
      "inputs": [],
      "name": "MAX_SUPPLY",
      "outputs": [
        {
          "internalType": "uint256",
          "name": "",
          "type": "uint256"
        }
      ],
      "stateMutability": "view",
      "type": "function"
    },
    {
      "inputs": [],
      "name": "PLACEHOLDER",
      "outputs": [
        {
          "internalType": "string",
          "name": "",
          "type": "string"
        }
      ],
      "stateMutability": "view",
      "type": "function"
    },
    {
      "inputs": [],
      "name": "PRESALE_SUPPLY",
      "outputs": [
        {
          "internalType": "uint256",
          "name": "",
          "type": "uint256"
        }
      ],
      "stateMutability": "view",
      "type": "function"
    },
    {
      "inputs": [],
      "name": "_tokenIds",
      "outputs": [
        {
          "internalType": "uint256",
          "name": "",
          "type": "uint256"
        }
      ],
      "stateMutability": "view",
      "type": "function"
    },
    {
      "inputs": [
        {
          "internalType": "address",
          "name": "to",
          "type": "address"
        },
        {
          "internalType": "uint256",
          "name": "tokenId",
          "type": "uint256"
        }
      ],
      "name": "approve",
      "outputs": [],
      "stateMutability": "nonpayable",
      "type": "function"
    },
    {
      "inputs": [
        {
          "internalType": "address",
          "name": "owner",
          "type": "address"
        }
      ],
      "name": "balanceOf",
      "outputs": [
        {
          "internalType": "uint256",
          "name": "",
          "type": "uint256"
        }
      ],
      "stateMutability": "view",
      "type": "function"
    },
    {
      "inputs": [
        {
          "internalType": "uint256",
          "name": "tokenId",
          "type": "uint256"
        }
      ],
      "name": "getApproved",
      "outputs": [
        {
          "internalType": "address",
          "name": "",
          "type": "address"
        }
      ],
      "stateMutability": "view",
      "type": "function"
    },
    {
      "inputs": [],
      "name": "getPresale",
      "outputs": [
        {
          "internalType": "bool",
          "name": "",
          "type": "bool"
        }
      ],
      "stateMutability": "view",
      "type": "function"
    },
    {
      "inputs": [],
      "name": "getProvenanceHash",
      "outputs": [
        {
          "internalType": "string",
          "name": "",
          "type": "string"
        }
      ],
      "stateMutability": "view",
      "type": "function"
    },
    {
      "inputs": [],
      "name": "getPublicSale",
      "outputs": [
        {
          "internalType": "bool",
          "name": "",
          "type": "bool"
        }
      ],
      "stateMutability": "view",
      "type": "function"
    },
    {
      "inputs": [],
      "name": "getStartingIdx",
      "outputs": [
        {
          "internalType": "uint256",
          "name": "",
          "type": "uint256"
        }
      ],
      "stateMutability": "view",
      "type": "function"
    },
    {
      "inputs": [
        {
          "internalType": "address",
          "name": "owner",
          "type": "address"
        },
        {
          "internalType": "address",
          "name": "operator",
          "type": "address"
        }
      ],
      "name": "isApprovedForAll",
      "outputs": [
        {
          "internalType": "bool",
          "name": "",
          "type": "bool"
        }
      ],
      "stateMutability": "view",
      "type": "function"
    },
    {
      "inputs": [
        {
          "internalType": "bytes",
          "name": "_signature",
          "type": "bytes"
        },
        {
          "internalType": "address",
          "name": "_user",
          "type": "address"
        }
      ],
      "name": "isWhitelisted",
      "outputs": [
        {
          "internalType": "bool",
          "name": "",
          "type": "bool"
        }
      ],
      "stateMutability": "view",
      "type": "function"
    },
    {
      "inputs": [],
      "name": "mint",
      "outputs": [
        {
          "internalType": "string",
          "name": "",
          "type": "string"
        }
      ],
      "stateMutability": "payable",
      "type": "function"
    },
    {
      "inputs": [],
      "name": "name",
      "outputs": [
        {
          "internalType": "string",
          "name": "",
          "type": "string"
        }
      ],
      "stateMutability": "view",
      "type": "function"
    },
    {
      "inputs": [],
      "name": "owner",
      "outputs": [
        {
          "internalType": "address",
          "name": "",
          "type": "address"
        }
      ],
      "stateMutability": "view",
      "type": "function"
    },
    {
      "inputs": [
        {
          "internalType": "uint256",
          "name": "tokenId",
          "type": "uint256"
        }
      ],
      "name": "ownerOf",
      "outputs": [
        {
          "internalType": "address",
          "name": "",
          "type": "address"
        }
      ],
      "stateMutability": "view",
      "type": "function"
    },
    {
      "inputs": [],
      "name": "paused",
      "outputs": [
        {
          "internalType": "bool",
          "name": "",
          "type": "bool"
        }
      ],
      "stateMutability": "view",
      "type": "function"
    },
    {
      "inputs": [],
      "name": "renounceOwnership",
      "outputs": [],
      "stateMutability": "nonpayable",
      "type": "function"
    },
    {
      "inputs": [
        {
          "internalType": "bytes",
          "name": "_signature",
          "type": "bytes"
        }
      ],
      "name": "reserveNFT",
      "outputs": [],
      "stateMutability": "payable",
      "type": "function"
    },
    {
      "inputs": [],
      "name": "revealed",
      "outputs": [
        {
          "internalType": "bool",
          "name": "",
          "type": "bool"
        }
      ],
      "stateMutability": "view",
      "type": "function"
    },
    {
      "inputs": [
        {
          "internalType": "address",
          "name": "from",
          "type": "address"
        },
        {
          "internalType": "address",
          "name": "to",
          "type": "address"
        },
        {
          "internalType": "uint256",
          "name": "tokenId",
          "type": "uint256"
        }
      ],
      "name": "safeTransferFrom",
      "outputs": [],
      "stateMutability": "nonpayable",
      "type": "function"
    },
    {
      "inputs": [
        {
          "internalType": "address",
          "name": "from",
          "type": "address"
        },
        {
          "internalType": "address",
          "name": "to",
          "type": "address"
        },
        {
          "internalType": "uint256",
          "name": "tokenId",
          "type": "uint256"
        },
        {
          "internalType": "bytes",
          "name": "_data",
          "type": "bytes"
        }
      ],
      "name": "safeTransferFrom",
      "outputs": [],
      "stateMutability": "nonpayable",
      "type": "function"
    },
    {
      "inputs": [
        {
          "internalType": "address",
          "name": "operator",
          "type": "address"
        },
        {
          "internalType": "bool",
          "name": "approved",
          "type": "bool"
        }
      ],
      "name": "setApprovalForAll",
      "outputs": [],
      "stateMutability": "nonpayable",
      "type": "function"
    },
    {
      "inputs": [
        {
          "internalType": "bool",
          "name": "_state",
          "type": "bool"
        }
      ],
      "name": "setPaused",
      "outputs": [],
      "stateMutability": "nonpayable",
      "type": "function"
    },
    {
      "inputs": [
        {
          "internalType": "bool",
          "name": "_active",
          "type": "bool"
        }
      ],
      "name": "setPresale",
      "outputs": [],
      "stateMutability": "nonpayable",
      "type": "function"
    },
    {
      "inputs": [
        {
          "internalType": "string",
          "name": "_provenance",
          "type": "string"
        }
      ],
      "name": "setProvenanceHash",
      "outputs": [],
      "stateMutability": "nonpayable",
      "type": "function"
    },
    {
      "inputs": [
        {
          "internalType": "bool",
          "name": "_active",
          "type": "bool"
        }
      ],
      "name": "setPublicSale",
      "outputs": [],
      "stateMutability": "nonpayable",
      "type": "function"
    },
    {
      "inputs": [
        {
          "internalType": "bool",
          "name": "_reveal",
          "type": "bool"
        }
      ],
      "name": "setReveal",
      "outputs": [],
      "stateMutability": "nonpayable",
      "type": "function"
    },
    {
      "inputs": [],
      "name": "starting_idx",
      "outputs": [
        {
          "internalType": "uint256",
          "name": "",
          "type": "uint256"
        }
      ],
      "stateMutability": "view",
      "type": "function"
    },
    {
      "inputs": [],
      "name": "starting_idx_block",
      "outputs": [
        {
          "internalType": "uint256",
          "name": "",
          "type": "uint256"
        }
      ],
      "stateMutability": "view",
      "type": "function"
    },
    {
      "inputs": [
        {
          "internalType": "bytes4",
          "name": "interfaceId",
          "type": "bytes4"
        }
      ],
      "name": "supportsInterface",
      "outputs": [
        {
          "internalType": "bool",
          "name": "",
          "type": "bool"
        }
      ],
      "stateMutability": "view",
      "type": "function"
    },
    {
      "inputs": [],
      "name": "symbol",
      "outputs": [
        {
          "internalType": "string",
          "name": "",
          "type": "string"
        }
      ],
      "stateMutability": "view",
      "type": "function"
    },
    {
      "inputs": [
        {
          "internalType": "uint256",
          "name": "index",
          "type": "uint256"
        }
      ],
      "name": "tokenByIndex",
      "outputs": [
        {
          "internalType": "uint256",
          "name": "",
          "type": "uint256"
        }
      ],
      "stateMutability": "view",
      "type": "function"
    },
    {
      "inputs": [
        {
          "internalType": "address",
          "name": "owner",
          "type": "address"
        },
        {
          "internalType": "uint256",
          "name": "index",
          "type": "uint256"
        }
      ],
      "name": "tokenOfOwnerByIndex",
      "outputs": [
        {
          "internalType": "uint256",
          "name": "",
          "type": "uint256"
        }
      ],
      "stateMutability": "view",
      "type": "function"
    },
    {
      "inputs": [
        {
          "internalType": "uint256",
          "name": "_tokenId",
          "type": "uint256"
        }
      ],
      "name": "tokenURI",
      "outputs": [
        {
          "internalType": "string",
          "name": "",
          "type": "string"
        }
      ],
      "stateMutability": "view",
      "type": "function"
    },
    {
      "inputs": [],
      "name": "totalSupply",
      "outputs": [
        {
          "internalType": "uint256",
          "name": "",
          "type": "uint256"
        }
      ],
      "stateMutability": "view",
      "type": "function"
    },
    {
      "inputs": [
        {
          "internalType": "address",
          "name": "from",
          "type": "address"
        },
        {
          "internalType": "address",
          "name": "to",
          "type": "address"
        },
        {
          "internalType": "uint256",
          "name": "tokenId",
          "type": "uint256"
        }
      ],
      "name": "transferFrom",
      "outputs": [],
      "stateMutability": "nonpayable",
      "type": "function"
    },
    {
      "inputs": [
        {
          "internalType": "address",
          "name": "newOwner",
          "type": "address"
        }
      ],
      "name": "transferOwnership",
      "outputs": [],
      "stateMutability": "nonpayable",
      "type": "function"
    },
    {
      "inputs": [],
      "name": "whitelistMint",
      "outputs": [
        {
          "internalType": "string",
          "name": "",
          "type": "string"
        }
      ],
      "stateMutability": "payable",
      "type": "function"
    },
    {
      "inputs": [],
      "name": "withdraw",
      "outputs": [],
      "stateMutability": "payable",
      "type": "function"
    }
  ],
  "bytecode": "0x6080604052600e600b556006600c5567016345785d8a0000600d556000601160006101000a81548160ff0219169083151502179055506000601160016101000a81548160ff0219169083151502179055506000601160026101000a81548160ff0219169083151502179055506000601160036101000a81548160ff0219169083151502179055506040518060200160405280600081525060129080519060200190620000ad929190620004ab565b50604051806060016040528060368152602001620060956036913960139080519060200190620000df929190620004ab565b50604051806060016040528060358152602001620060cb603591396014908051906020019062000111929190620004ab565b506040518060400160405280600581526020017f2e6a736f6e000000000000000000000000000000000000000000000000000000815250601590805190602001906200015f929190620004ab565b5073103ece5b498b9c425295f58148aa5bdac7575708601860006101000a81548173ffffffffffffffffffffffffffffffffffffffff021916908373ffffffffffffffffffffffffffffffffffffffff16021790555073ab8483f64d9c6d1ecf9b849ae677dd3315835cb2601960006101000a81548173ffffffffffffffffffffffffffffffffffffffff021916908373ffffffffffffffffffffffffffffffffffffffff160217905550734b20993bc481177ec7e8f571cecae8a9e22c02db601a60006101000a81548173ffffffffffffffffffffffffffffffffffffffff021916908373ffffffffffffffffffffffffffffffffffffffff1602179055507378731d3ca6b7e34ac0f824c42a7cc18a495cabab601b60006101000a81548173ffffffffffffffffffffffffffffffffffffffff021916908373ffffffffffffffffffffffffffffffffffffffff16021790555073617f2e2fd72fd9d5503197092ac168c91465e7f2601c60006101000a81548173ffffffffffffffffffffffffffffffffffffffff021916908373ffffffffffffffffffffffffffffffffffffffff1602179055503480156200031657600080fd5b506040518060400160405280600c81526020017f464f4d4f2053415049454e5300000000000000000000000000000000000000008152506040518060400160405280600681526020017f53415049454e000000000000000000000000000000000000000000000000000081525081600090805190602001906200039b929190620004ab565b508060019080519060200190620003b4929190620004ab565b505050620003d7620003cb620003dd60201b60201c565b620003e560201b60201c565b620005c0565b600033905090565b6000600a60009054906101000a900473ffffffffffffffffffffffffffffffffffffffff16905081600a60006101000a81548173ffffffffffffffffffffffffffffffffffffffff021916908373ffffffffffffffffffffffffffffffffffffffff1602179055508173ffffffffffffffffffffffffffffffffffffffff168173ffffffffffffffffffffffffffffffffffffffff167f8be0079c531659141344cd1fd0a4f28419497f9722a3daafe3b4186f6b6457e060405160405180910390a35050565b828054620004b9906200055b565b90600052602060002090601f016020900481019282620004dd576000855562000529565b82601f10620004f857805160ff191683800117855562000529565b8280016001018555821562000529579182015b82811115620005285782518255916020019190600101906200050b565b5b5090506200053891906200053c565b5090565b5b80821115620005575760008160009055506001016200053d565b5090565b600060028204905060018216806200057457607f821691505b602082108114156200058b576200058a62000591565b5b50919050565b7f4e487b7100000000000000000000000000000000000000000000000000000000600052602260045260246000fd5b615ac580620005d06000396000f3fe6080604052600436106102675760003560e01c80636352211e11610144578063aa46a400116100b6578063c87b56dd1161007a578063c87b56dd146108da578063c8965ee514610917578063d75dd26814610942578063e985e9c51461096d578063f2fde38b146109aa578063f41fbd5e146109d357610267565b8063aa46a40014610807578063aee99e5214610832578063b88d4fde1461085d578063bc5f3a8014610886578063c54e73e3146108b157610267565b8063804f43cd11610108578063804f43cd146107025780638da5cb5b1461072057806394b3fbc21461074b57806395d89b4114610776578063a22cb465146107a1578063a3540c10146107ca57610267565b80636352211e1461061b57806370a0823114610658578063715018a61461069557806373138e4f146106ac5780637f78636a146106d757610267565b80632f745c59116101dd57806346f13619116101a157806346f13619146105095780634bf53055146105345780634f6ccce71461055f578063518302271461059c5780635aca1bb6146105c75780635c975abb146105f057610267565b80632f745c591461044357806332cb6b0c146104805780633867f5a7146104ab5780633ccfd60b146104d657806342842e0e146104e057610267565b8063109695231161022f57806310969523146103565780631249c58b1461037f57806316c38b3c1461039d57806318160ddd146103c657806323b872dd146103f15780632a3f300c1461041a57610267565b806301ffc9a71461026c578063029af5bd146102a957806306fdde03146102c5578063081812fc146102f0578063095ea7b31461032d575b600080fd5b34801561027857600080fd5b50610293600480360381019061028e9190614235565b6109fe565b6040516102a0919061510c565b60405180910390f35b6102c360048036038101906102be9190614287565b610a78565b005b3480156102d157600080fd5b506102da610cae565b6040516102e7919061516c565b60405180910390f35b3480156102fc57600080fd5b506103176004803603810190610312919061435d565b610d40565b60405161032491906150a5565b60405180910390f35b34801561033957600080fd5b50610354600480360381019061034f91906141d0565b610dc5565b005b34801561036257600080fd5b5061037d6004803603810190610378919061431c565b610edd565b005b610387610f7a565b604051610394919061516c565b60405180910390f35b3480156103a957600080fd5b506103c460048036038101906103bf919061420c565b61122b565b005b3480156103d257600080fd5b506103db6112c4565b6040516103e8919061558e565b60405180910390f35b3480156103fd57600080fd5b50610418600480360381019061041391906140ca565b6112d1565b005b34801561042657600080fd5b50610441600480360381019061043c919061420c565b611331565b005b34801561044f57600080fd5b5061046a600480360381019061046591906141d0565b6113ca565b604051610477919061558e565b60405180910390f35b34801561048c57600080fd5b5061049561146f565b6040516104a2919061558e565b60405180910390f35b3480156104b757600080fd5b506104c0611475565b6040516104cd919061516c565b60405180910390f35b6104de611503565b005b3480156104ec57600080fd5b50610507600480360381019061050291906140ca565b6118de565b005b34801561051557600080fd5b5061051e6118fe565b60405161052b919061516c565b60405180910390f35b34801561054057600080fd5b5061054961198c565b604051610556919061510c565b60405180910390f35b34801561056b57600080fd5b506105866004803603810190610581919061435d565b6119a3565b604051610593919061558e565b60405180910390f35b3480156105a857600080fd5b506105b1611a3a565b6040516105be919061510c565b60405180910390f35b3480156105d357600080fd5b506105ee60048036038101906105e9919061420c565b611a4d565b005b3480156105fc57600080fd5b50610605611ae6565b604051610612919061510c565b60405180910390f35b34801561062757600080fd5b50610642600480360381019061063d919061435d565b611af9565b60405161064f91906150a5565b60405180910390f35b34801561066457600080fd5b5061067f600480360381019061067a9190614065565b611bab565b60405161068c919061558e565b60405180910390f35b3480156106a157600080fd5b506106aa611c63565b005b3480156106b857600080fd5b506106c1611ceb565b6040516106ce919061558e565b60405180910390f35b3480156106e357600080fd5b506106ec611cf1565b6040516106f9919061516c565b60405180910390f35b61070a611d7f565b604051610717919061516c565b60405180910390f35b34801561072c57600080fd5b50610735612037565b60405161074291906150a5565b60405180910390f35b34801561075757600080fd5b50610760612061565b60405161076d919061516c565b60405180910390f35b34801561078257600080fd5b5061078b6120f3565b604051610798919061516c565b60405180910390f35b3480156107ad57600080fd5b506107c860048036038101906107c39190614194565b612185565b005b3480156107d657600080fd5b506107f160048036038101906107ec91906142c8565b612306565b6040516107fe919061510c565b60405180910390f35b34801561081357600080fd5b5061081c612394565b604051610829919061558e565b60405180910390f35b34801561083e57600080fd5b5061084761239a565b604051610854919061510c565b60405180910390f35b34801561086957600080fd5b50610884600480360381019061087f9190614119565b6123b1565b005b34801561089257600080fd5b5061089b612413565b6040516108a8919061516c565b60405180910390f35b3480156108bd57600080fd5b506108d860048036038101906108d3919061420c565b6124a1565b005b3480156108e657600080fd5b5061090160048036038101906108fc919061435d565b61253a565b60405161090e919061516c565b60405180910390f35b34801561092357600080fd5b5061092c612644565b604051610939919061558e565b60405180910390f35b34801561094e57600080fd5b5061095761264a565b604051610964919061558e565b60405180910390f35b34801561097957600080fd5b50610994600480360381019061098f919061408e565b612654565b6040516109a1919061510c565b60405180910390f35b3480156109b657600080fd5b506109d160048036038101906109cc9190614065565b6126e8565b005b3480156109df57600080fd5b506109e86127e0565b6040516109f5919061558e565b60405180910390f35b60007f780e9d63000000000000000000000000000000000000000000000000000000007bffffffffffffffffffffffffffffffffffffffffffffffffffffffff1916827bffffffffffffffffffffffffffffffffffffffffffffffffffffffff19161480610a715750610a70826127e6565b5b9050919050565b601160029054906101000a900460ff1615610a9257600080fd5b601160019054906101000a900460ff16610ae1576040517f08c379a0000000000000000000000000000000000000000000000000000000008152600401610ad89061552e565b60405180910390fd5b3373ffffffffffffffffffffffffffffffffffffffff163273ffffffffffffffffffffffffffffffffffffffff1614610b4f576040517f08c379a0000000000000000000000000000000000000000000000000000000008152600401610b469061520e565b60405180910390fd5b610b598133612306565b610b98576040517f08c379a0000000000000000000000000000000000000000000000000000000008152600401610b8f906151ae565b60405180910390fd5b600d543414610bdc576040517f08c379a0000000000000000000000000000000000000000000000000000000008152600401610bd3906154ee565b60405180910390fd5b6000610be7336128c8565b14610c27576040517f08c379a0000000000000000000000000000000000000000000000000000000008152600401610c1e906151ce565b60405180910390fd5b6001600b54600f54600e54610c3c919061569d565b610c469190615928565b610c50919061569d565b601760003373ffffffffffffffffffffffffffffffffffffffff1673ffffffffffffffffffffffffffffffffffffffff16815260200190815260200160002081905550600e6000815480929190610ca6906158b1565b919050555050565b606060008054610cbd9061587f565b80601f0160208091040260200160405190810160405280929190818152602001828054610ce99061587f565b8015610d365780601f10610d0b57610100808354040283529160200191610d36565b820191906000526020600020905b815481529060010190602001808311610d1957829003601f168201915b5050505050905090565b6000610d4b82612911565b610d8a576040517f08c379a0000000000000000000000000000000000000000000000000000000008152600401610d819061540e565b60405180910390fd5b6004600083815260200190815260200160002060009054906101000a900473ffffffffffffffffffffffffffffffffffffffff169050919050565b6000610dd082611af9565b90508073ffffffffffffffffffffffffffffffffffffffff168373ffffffffffffffffffffffffffffffffffffffff161415610e41576040517f08c379a0000000000000000000000000000000000000000000000000000000008152600401610e38906154ae565b60405180910390fd5b8073ffffffffffffffffffffffffffffffffffffffff16610e6061297d565b73ffffffffffffffffffffffffffffffffffffffff161480610e8f5750610e8e81610e8961297d565b612654565b5b610ece576040517f08c379a0000000000000000000000000000000000000000000000000000000008152600401610ec59061536e565b60405180910390fd5b610ed88383612985565b505050565b610ee561297d565b73ffffffffffffffffffffffffffffffffffffffff16610f03612037565b73ffffffffffffffffffffffffffffffffffffffff1614610f59576040517f08c379a0000000000000000000000000000000000000000000000000000000008152600401610f509061542e565b60405180910390fd5b8060129080519060200190610f6f929190613e89565b504360108190555050565b6060601160029054906101000a900460ff1615610f9657600080fd5b601160009054906101000a900460ff16610fe5576040517f08c379a0000000000000000000000000000000000000000000000000000000008152600401610fdc9061548e565b60405180910390fd5b3373ffffffffffffffffffffffffffffffffffffffff163273ffffffffffffffffffffffffffffffffffffffff1614611053576040517f08c379a000000000000000000000000000000000000000000000000000000000815260040161104a9061554e565b60405180910390fd5b600d543414611097576040517f08c379a000000000000000000000000000000000000000000000000000000000815260040161108e906154ee565b60405180910390fd5b601660003373ffffffffffffffffffffffffffffffffffffffff1673ffffffffffffffffffffffffffffffffffffffff16815260200190815260200160002060009054906101000a900460ff1615611124576040517f08c379a000000000000000000000000000000000000000000000000000000000815260040161111b9061556e565b60405180910390fd5b600b5461112f6112c4565b1061116f576040517f08c379a0000000000000000000000000000000000000000000000000000000008152600401611166906152ce565b60405180910390fd5b60006001600b54600f54600e54611186919061569d565b6111909190615928565b61119a919061569d565b90506001601660003373ffffffffffffffffffffffffffffffffffffffff1673ffffffffffffffffffffffffffffffffffffffff16815260200190815260200160002060006101000a81548160ff0219169083151502179055506111fe3382612a3e565b60006112098261253a565b9050600e600081548092919061121e906158b1565b9190505550809250505090565b61123361297d565b73ffffffffffffffffffffffffffffffffffffffff16611251612037565b73ffffffffffffffffffffffffffffffffffffffff16146112a7576040517f08c379a000000000000000000000000000000000000000000000000000000000815260040161129e9061542e565b60405180910390fd5b80601160026101000a81548160ff02191690831515021790555050565b6000600880549050905090565b6112e26112dc61297d565b82612a5c565b611321576040517f08c379a0000000000000000000000000000000000000000000000000000000008152600401611318906154ce565b60405180910390fd5b61132c838383612b3a565b505050565b61133961297d565b73ffffffffffffffffffffffffffffffffffffffff16611357612037565b73ffffffffffffffffffffffffffffffffffffffff16146113ad576040517f08c379a00000000000000000000000000000000000000000000000000000000081526004016113a49061542e565b60405180910390fd5b80601160036101000a81548160ff02191690831515021790555050565b60006113d583611bab565b8210611416576040517f08c379a000000000000000000000000000000000000000000000000000000000815260040161140d9061524e565b60405180910390fd5b600660008473ffffffffffffffffffffffffffffffffffffffff1673ffffffffffffffffffffffffffffffffffffffff168152602001908152602001600020600083815260200190815260200160002054905092915050565b600b5481565b601480546114829061587f565b80601f01602080910402602001604051908101604052809291908181526020018280546114ae9061587f565b80156114fb5780601f106114d0576101008083540402835291602001916114fb565b820191906000526020600020905b8154815290600101906020018083116114de57829003601f168201915b505050505081565b61150b61297d565b73ffffffffffffffffffffffffffffffffffffffff16611529612037565b73ffffffffffffffffffffffffffffffffffffffff161461157f576040517f08c379a00000000000000000000000000000000000000000000000000000000081526004016115769061542e565b60405180910390fd5b6000601960009054906101000a900473ffffffffffffffffffffffffffffffffffffffff1673ffffffffffffffffffffffffffffffffffffffff166064601e476115c99190615724565b6115d391906156f3565b6040516115df90615090565b60006040518083038185875af1925050503d806000811461161c576040519150601f19603f3d011682016040523d82523d6000602084013e611621565b606091505b505090508061162f57600080fd5b6000601a60009054906101000a900473ffffffffffffffffffffffffffffffffffffffff1673ffffffffffffffffffffffffffffffffffffffff1660646021476116799190615724565b61168391906156f3565b60405161168f90615090565b60006040518083038185875af1925050503d80600081146116cc576040519150601f19603f3d011682016040523d82523d6000602084013e6116d1565b606091505b50509050806116df57600080fd5b6000601b60009054906101000a900473ffffffffffffffffffffffffffffffffffffffff1673ffffffffffffffffffffffffffffffffffffffff1660646021476117299190615724565b61173391906156f3565b60405161173f90615090565b60006040518083038185875af1925050503d806000811461177c576040519150601f19603f3d011682016040523d82523d6000602084013e611781565b606091505b505090508061178f57600080fd5b6000601c60009054906101000a900473ffffffffffffffffffffffffffffffffffffffff1673ffffffffffffffffffffffffffffffffffffffff1660646021476117d99190615724565b6117e391906156f3565b6040516117ef90615090565b60006040518083038185875af1925050503d806000811461182c576040519150601f19603f3d011682016040523d82523d6000602084013e611831565b606091505b505090508061183f57600080fd5b6000601960009054906101000a900473ffffffffffffffffffffffffffffffffffffffff1673ffffffffffffffffffffffffffffffffffffffff164760405161188790615090565b60006040518083038185875af1925050503d80600081146118c4576040519150601f19603f3d011682016040523d82523d6000602084013e6118c9565b606091505b50509050806118d757600080fd5b5050505050565b6118f9838383604051806020016040528060008152506123b1565b505050565b6015805461190b9061587f565b80601f01602080910402602001604051908101604052809291908181526020018280546119379061587f565b80156119845780601f1061195957610100808354040283529160200191611984565b820191906000526020600020905b81548152906001019060200180831161196757829003601f168201915b505050505081565b6000601160009054906101000a900460ff16905090565b60006119ad6112c4565b82106119ee576040517f08c379a00000000000000000000000000000000000000000000000000000000081526004016119e59061550e565b60405180910390fd5b60088281548110611a28577f4e487b7100000000000000000000000000000000000000000000000000000000600052603260045260246000fd5b90600052602060002001549050919050565b601160039054906101000a900460ff1681565b611a5561297d565b73ffffffffffffffffffffffffffffffffffffffff16611a73612037565b73ffffffffffffffffffffffffffffffffffffffff1614611ac9576040517f08c379a0000000000000000000000000000000000000000000000000000000008152600401611ac09061542e565b60405180910390fd5b80601160006101000a81548160ff02191690831515021790555050565b601160029054906101000a900460ff1681565b6000806002600084815260200190815260200160002060009054906101000a900473ffffffffffffffffffffffffffffffffffffffff169050600073ffffffffffffffffffffffffffffffffffffffff168173ffffffffffffffffffffffffffffffffffffffff161415611ba2576040517f08c379a0000000000000000000000000000000000000000000000000000000008152600401611b99906153ae565b60405180910390fd5b80915050919050565b60008073ffffffffffffffffffffffffffffffffffffffff168273ffffffffffffffffffffffffffffffffffffffff161415611c1c576040517f08c379a0000000000000000000000000000000000000000000000000000000008152600401611c139061538e565b60405180910390fd5b600360008373ffffffffffffffffffffffffffffffffffffffff1673ffffffffffffffffffffffffffffffffffffffff168152602001908152602001600020549050919050565b611c6b61297d565b73ffffffffffffffffffffffffffffffffffffffff16611c89612037565b73ffffffffffffffffffffffffffffffffffffffff1614611cdf576040517f08c379a0000000000000000000000000000000000000000000000000000000008152600401611cd69061542e565b60405180910390fd5b611ce96000612d96565b565b600c5481565b60138054611cfe9061587f565b80601f0160208091040260200160405190810160405280929190818152602001828054611d2a9061587f565b8015611d775780601f10611d4c57610100808354040283529160200191611d77565b820191906000526020600020905b815481529060010190602001808311611d5a57829003601f168201915b505050505081565b6060601160029054906101000a900460ff1615611d9b57600080fd5b601160019054906101000a900460ff16611dea576040517f08c379a0000000000000000000000000000000000000000000000000000000008152600401611de19061548e565b60405180910390fd5b3373ffffffffffffffffffffffffffffffffffffffff163273ffffffffffffffffffffffffffffffffffffffff1614611e58576040517f08c379a0000000000000000000000000000000000000000000000000000000008152600401611e4f9061554e565b60405180910390fd5b601660003373ffffffffffffffffffffffffffffffffffffffff1673ffffffffffffffffffffffffffffffffffffffff16815260200190815260200160002060009054906101000a900460ff1615611ee5576040517f08c379a0000000000000000000000000000000000000000000000000000000008152600401611edc9061556e565b60405180910390fd5b6000611ef0336128c8565b1415611f31576040517f08c379a0000000000000000000000000000000000000000000000000000000008152600401611f28906151ee565b60405180910390fd5b600c54611f3c6112c4565b10611f7c576040517f08c379a0000000000000000000000000000000000000000000000000000000008152600401611f739061546e565b60405180910390fd5b6000601760003373ffffffffffffffffffffffffffffffffffffffff1673ffffffffffffffffffffffffffffffffffffffff1681526020019081526020016000205490506001601660003373ffffffffffffffffffffffffffffffffffffffff1673ffffffffffffffffffffffffffffffffffffffff16815260200190815260200160002060006101000a81548160ff0219169083151502179055506120223382612a3e565b600061202d8261253a565b9050809250505090565b6000600a60009054906101000a900473ffffffffffffffffffffffffffffffffffffffff16905090565b6060601280546120709061587f565b80601f016020809104026020016040519081016040528092919081815260200182805461209c9061587f565b80156120e95780601f106120be576101008083540402835291602001916120e9565b820191906000526020600020905b8154815290600101906020018083116120cc57829003601f168201915b5050505050905090565b6060600180546121029061587f565b80601f016020809104026020016040519081016040528092919081815260200182805461212e9061587f565b801561217b5780601f106121505761010080835404028352916020019161217b565b820191906000526020600020905b81548152906001019060200180831161215e57829003601f168201915b5050505050905090565b61218d61297d565b73ffffffffffffffffffffffffffffffffffffffff168273ffffffffffffffffffffffffffffffffffffffff1614156121fb576040517f08c379a00000000000000000000000000000000000000000000000000000000081526004016121f29061530e565b60405180910390fd5b806005600061220861297d565b73ffffffffffffffffffffffffffffffffffffffff1673ffffffffffffffffffffffffffffffffffffffff16815260200190815260200160002060008473ffffffffffffffffffffffffffffffffffffffff1673ffffffffffffffffffffffffffffffffffffffff16815260200190815260200160002060006101000a81548160ff0219169083151502179055508173ffffffffffffffffffffffffffffffffffffffff166122b561297d565b73ffffffffffffffffffffffffffffffffffffffff167f17307eab39ab6107e8899845ad3d59bd9653f200f220920489ca2b5937696c31836040516122fa919061510c565b60405180910390a35050565b6000601860009054906101000a900473ffffffffffffffffffffffffffffffffffffffff1673ffffffffffffffffffffffffffffffffffffffff1661237583600b54604051602001612359929190615033565b6040516020818303038152906040528051906020012085612e5c565b73ffffffffffffffffffffffffffffffffffffffff1614905092915050565b600e5481565b6000601160019054906101000a900460ff16905090565b6123c26123bc61297d565b83612a5c565b612401576040517f08c379a00000000000000000000000000000000000000000000000000000000081526004016123f8906154ce565b60405180910390fd5b61240d84848484612e83565b50505050565b601280546124209061587f565b80601f016020809104026020016040519081016040528092919081815260200182805461244c9061587f565b80156124995780601f1061246e57610100808354040283529160200191612499565b820191906000526020600020905b81548152906001019060200180831161247c57829003601f168201915b505050505081565b6124a961297d565b73ffffffffffffffffffffffffffffffffffffffff166124c7612037565b73ffffffffffffffffffffffffffffffffffffffff161461251d576040517f08c379a00000000000000000000000000000000000000000000000000000000081526004016125149061542e565b60405180910390fd5b80601160016101000a81548160ff02191690831515021790555050565b6060601160039054906101000a900460ff166125e2576014805461255d9061587f565b80601f01602080910402602001604051908101604052809291908181526020018280546125899061587f565b80156125d65780601f106125ab576101008083540402835291602001916125d6565b820191906000526020600020905b8154815290600101906020018083116125b957829003601f168201915b5050505050905061263f565b6000601380546125f19061587f565b90501161260d576040518060200160405280600081525061263c565b601361261883612edf565b601560405160200161262c9392919061505f565b6040516020818303038152906040525b90505b919050565b60105481565b6000600f54905090565b6000600560008473ffffffffffffffffffffffffffffffffffffffff1673ffffffffffffffffffffffffffffffffffffffff16815260200190815260200160002060008373ffffffffffffffffffffffffffffffffffffffff1673ffffffffffffffffffffffffffffffffffffffff16815260200190815260200160002060009054906101000a900460ff16905092915050565b6126f061297d565b73ffffffffffffffffffffffffffffffffffffffff1661270e612037565b73ffffffffffffffffffffffffffffffffffffffff1614612764576040517f08c379a000000000000000000000000000000000000000000000000000000000815260040161275b9061542e565b60405180910390fd5b600073ffffffffffffffffffffffffffffffffffffffff168173ffffffffffffffffffffffffffffffffffffffff1614156127d4576040517f08c379a00000000000000000000000000000000000000000000000000000000081526004016127cb9061528e565b60405180910390fd5b6127dd81612d96565b50565b600f5481565b60007f80ac58cd000000000000000000000000000000000000000000000000000000007bffffffffffffffffffffffffffffffffffffffffffffffffffffffff1916827bffffffffffffffffffffffffffffffffffffffffffffffffffffffff191614806128b157507f5b5e139f000000000000000000000000000000000000000000000000000000007bffffffffffffffffffffffffffffffffffffffffffffffffffffffff1916827bffffffffffffffffffffffffffffffffffffffffffffffffffffffff1916145b806128c157506128c08261308c565b5b9050919050565b6000601760008373ffffffffffffffffffffffffffffffffffffffff1673ffffffffffffffffffffffffffffffffffffffff168152602001908152602001600020549050919050565b60008073ffffffffffffffffffffffffffffffffffffffff166002600084815260200190815260200160002060009054906101000a900473ffffffffffffffffffffffffffffffffffffffff1673ffffffffffffffffffffffffffffffffffffffff1614159050919050565b600033905090565b816004600083815260200190815260200160002060006101000a81548173ffffffffffffffffffffffffffffffffffffffff021916908373ffffffffffffffffffffffffffffffffffffffff160217905550808273ffffffffffffffffffffffffffffffffffffffff166129f883611af9565b73ffffffffffffffffffffffffffffffffffffffff167f8c5be1e5ebec7d5bd14f71427d1e84f3dd0314c0f7b2291e5b200ac8c7c3b92560405160405180910390a45050565b612a588282604051806020016040528060008152506130f6565b5050565b6000612a6782612911565b612aa6576040517f08c379a0000000000000000000000000000000000000000000000000000000008152600401612a9d9061534e565b60405180910390fd5b6000612ab183611af9565b90508073ffffffffffffffffffffffffffffffffffffffff168473ffffffffffffffffffffffffffffffffffffffff161480612b2057508373ffffffffffffffffffffffffffffffffffffffff16612b0884610d40565b73ffffffffffffffffffffffffffffffffffffffff16145b80612b315750612b308185612654565b5b91505092915050565b8273ffffffffffffffffffffffffffffffffffffffff16612b5a82611af9565b73ffffffffffffffffffffffffffffffffffffffff1614612bb0576040517f08c379a0000000000000000000000000000000000000000000000000000000008152600401612ba79061544e565b60405180910390fd5b600073ffffffffffffffffffffffffffffffffffffffff168273ffffffffffffffffffffffffffffffffffffffff161415612c20576040517f08c379a0000000000000000000000000000000000000000000000000000000008152600401612c17906152ee565b60405180910390fd5b612c2b838383613151565b612c36600082612985565b6001600360008573ffffffffffffffffffffffffffffffffffffffff1673ffffffffffffffffffffffffffffffffffffffff1681526020019081526020016000206000828254612c86919061577e565b925050819055506001600360008473ffffffffffffffffffffffffffffffffffffffff1673ffffffffffffffffffffffffffffffffffffffff1681526020019081526020016000206000828254612cdd919061569d565b92505081905550816002600083815260200190815260200160002060006101000a81548173ffffffffffffffffffffffffffffffffffffffff021916908373ffffffffffffffffffffffffffffffffffffffff160217905550808273ffffffffffffffffffffffffffffffffffffffff168473ffffffffffffffffffffffffffffffffffffffff167fddf252ad1be2c89b69c2b068fc378daa952ba7f163c4a11628f55a4df523b3ef60405160405180910390a4505050565b6000600a60009054906101000a900473ffffffffffffffffffffffffffffffffffffffff16905081600a60006101000a81548173ffffffffffffffffffffffffffffffffffffffff021916908373ffffffffffffffffffffffffffffffffffffffff1602179055508173ffffffffffffffffffffffffffffffffffffffff168173ffffffffffffffffffffffffffffffffffffffff167f8be0079c531659141344cd1fd0a4f28419497f9722a3daafe3b4186f6b6457e060405160405180910390a35050565b6000806000612e6b8585613265565b91509150612e78816132e8565b819250505092915050565b612e8e848484612b3a565b612e9a84848484613639565b612ed9576040517f08c379a0000000000000000000000000000000000000000000000000000000008152600401612ed09061526e565b60405180910390fd5b50505050565b60606000821415612f27576040518060400160405280600181526020017f30000000000000000000000000000000000000000000000000000000000000008152509050613087565b600082905060005b60008214612f59578080612f42906158b1565b915050600a82612f5291906156f3565b9150612f2f565b60008167ffffffffffffffff811115612f9b577f4e487b7100000000000000000000000000000000000000000000000000000000600052604160045260246000fd5b6040519080825280601f01601f191660200182016040528015612fcd5781602001600182028036833780820191505090505b5090505b6000851461308057600182612fe6919061577e565b9150600a85612ff59190615928565b6030613001919061569d565b60f81b81838151811061303d577f4e487b7100000000000000000000000000000000000000000000000000000000600052603260045260246000fd5b60200101907effffffffffffffffffffffffffffffffffffffffffffffffffffffffffffff1916908160001a905350600a8561307991906156f3565b9450612fd1565b8093505050505b919050565b60007f01ffc9a7000000000000000000000000000000000000000000000000000000007bffffffffffffffffffffffffffffffffffffffffffffffffffffffff1916827bffffffffffffffffffffffffffffffffffffffffffffffffffffffff1916149050919050565b61310083836137d0565b61310d6000848484613639565b61314c576040517f08c379a00000000000000000000000000000000000000000000000000000000081526004016131439061526e565b60405180910390fd5b505050565b61315c83838361399e565b600073ffffffffffffffffffffffffffffffffffffffff168373ffffffffffffffffffffffffffffffffffffffff16141561319f5761319a816139a3565b6131de565b8173ffffffffffffffffffffffffffffffffffffffff168373ffffffffffffffffffffffffffffffffffffffff16146131dd576131dc83826139ec565b5b5b600073ffffffffffffffffffffffffffffffffffffffff168273ffffffffffffffffffffffffffffffffffffffff1614156132215761321c81613b59565b613260565b8273ffffffffffffffffffffffffffffffffffffffff168273ffffffffffffffffffffffffffffffffffffffff161461325f5761325e8282613c9c565b5b5b505050565b6000806041835114156132a75760008060006020860151925060408601519150606086015160001a905061329b87828585613d1b565b945094505050506132e1565b6040835114156132d85760008060208501519150604085015190506132cd868383613e28565b9350935050506132e1565b60006002915091505b9250929050565b60006004811115613322577f4e487b7100000000000000000000000000000000000000000000000000000000600052602160045260246000fd5b81600481111561335b577f4e487b7100000000000000000000000000000000000000000000000000000000600052602160045260246000fd5b141561336657613636565b600160048111156133a0577f4e487b7100000000000000000000000000000000000000000000000000000000600052602160045260246000fd5b8160048111156133d9577f4e487b7100000000000000000000000000000000000000000000000000000000600052602160045260246000fd5b141561341a576040517f08c379a00000000000000000000000000000000000000000000000000000000081526004016134119061518e565b60405180910390fd5b60026004811115613454577f4e487b7100000000000000000000000000000000000000000000000000000000600052602160045260246000fd5b81600481111561348d577f4e487b7100000000000000000000000000000000000000000000000000000000600052602160045260246000fd5b14156134ce576040517f08c379a00000000000000000000000000000000000000000000000000000000081526004016134c59061522e565b60405180910390fd5b60036004811115613508577f4e487b7100000000000000000000000000000000000000000000000000000000600052602160045260246000fd5b816004811115613541577f4e487b7100000000000000000000000000000000000000000000000000000000600052602160045260246000fd5b1415613582576040517f08c379a00000000000000000000000000000000000000000000000000000000081526004016135799061532e565b60405180910390fd5b6004808111156135bb577f4e487b7100000000000000000000000000000000000000000000000000000000600052602160045260246000fd5b8160048111156135f4577f4e487b7100000000000000000000000000000000000000000000000000000000600052602160045260246000fd5b1415613635576040517f08c379a000000000000000000000000000000000000000000000000000000000815260040161362c906153ce565b60405180910390fd5b5b50565b600061365a8473ffffffffffffffffffffffffffffffffffffffff16613e76565b156137c3578373ffffffffffffffffffffffffffffffffffffffff1663150b7a0261368361297d565b8786866040518563ffffffff1660e01b81526004016136a594939291906150c0565b602060405180830381600087803b1580156136bf57600080fd5b505af19250505080156136f057506040513d601f19601f820116820180604052508101906136ed919061425e565b60015b613773573d8060008114613720576040519150601f19603f3d011682016040523d82523d6000602084013e613725565b606091505b5060008151141561376b576040517f08c379a00000000000000000000000000000000000000000000000000000000081526004016137629061526e565b60405180910390fd5b805181602001fd5b63150b7a0260e01b7bffffffffffffffffffffffffffffffffffffffffffffffffffffffff1916817bffffffffffffffffffffffffffffffffffffffffffffffffffffffff1916149150506137c8565b600190505b949350505050565b600073ffffffffffffffffffffffffffffffffffffffff168273ffffffffffffffffffffffffffffffffffffffff161415613840576040517f08c379a0000000000000000000000000000000000000000000000000000000008152600401613837906153ee565b60405180910390fd5b61384981612911565b15613889576040517f08c379a0000000000000000000000000000000000000000000000000000000008152600401613880906152ae565b60405180910390fd5b61389560008383613151565b6001600360008473ffffffffffffffffffffffffffffffffffffffff1673ffffffffffffffffffffffffffffffffffffffff16815260200190815260200160002060008282546138e5919061569d565b92505081905550816002600083815260200190815260200160002060006101000a81548173ffffffffffffffffffffffffffffffffffffffff021916908373ffffffffffffffffffffffffffffffffffffffff160217905550808273ffffffffffffffffffffffffffffffffffffffff16600073ffffffffffffffffffffffffffffffffffffffff167fddf252ad1be2c89b69c2b068fc378daa952ba7f163c4a11628f55a4df523b3ef60405160405180910390a45050565b505050565b6008805490506009600083815260200190815260200160002081905550600881908060018154018082558091505060019003906000526020600020016000909190919091505550565b600060016139f984611bab565b613a03919061577e565b9050600060076000848152602001908152602001600020549050818114613ae8576000600660008673ffffffffffffffffffffffffffffffffffffffff1673ffffffffffffffffffffffffffffffffffffffff168152602001908152602001600020600084815260200190815260200160002054905080600660008773ffffffffffffffffffffffffffffffffffffffff1673ffffffffffffffffffffffffffffffffffffffff168152602001908152602001600020600084815260200190815260200160002081905550816007600083815260200190815260200160002081905550505b6007600084815260200190815260200160002060009055600660008573ffffffffffffffffffffffffffffffffffffffff1673ffffffffffffffffffffffffffffffffffffffff16815260200190815260200160002060008381526020019081526020016000206000905550505050565b60006001600880549050613b6d919061577e565b9050600060096000848152602001908152602001600020549050600060088381548110613bc3577f4e487b7100000000000000000000000000000000000000000000000000000000600052603260045260246000fd5b906000526020600020015490508060088381548110613c0b577f4e487b7100000000000000000000000000000000000000000000000000000000600052603260045260246000fd5b906000526020600020018190555081600960008381526020019081526020016000208190555060096000858152602001908152602001600020600090556008805480613c80577f4e487b7100000000000000000000000000000000000000000000000000000000600052603160045260246000fd5b6001900381819060005260206000200160009055905550505050565b6000613ca783611bab565b905081600660008573ffffffffffffffffffffffffffffffffffffffff1673ffffffffffffffffffffffffffffffffffffffff168152602001908152602001600020600083815260200190815260200160002081905550806007600084815260200190815260200160002081905550505050565b6000807f7fffffffffffffffffffffffffffffff5d576e7357a4501ddfe92f46681b20a08360001c1115613d56576000600391509150613e1f565b601b8560ff1614158015613d6e5750601c8560ff1614155b15613d80576000600491509150613e1f565b600060018787878760405160008152602001604052604051613da59493929190615127565b6020604051602081039080840390855afa158015613dc7573d6000803e3d6000fd5b505050602060405103519050600073ffffffffffffffffffffffffffffffffffffffff168173ffffffffffffffffffffffffffffffffffffffff161415613e1657600060019250925050613e1f565b80600092509250505b94509492505050565b6000806000807f7fffffffffffffffffffffffffffffffffffffffffffffffffffffffffffffff85169150601b8560ff1c019050613e6887828885613d1b565b935093505050935093915050565b600080823b905060008111915050919050565b828054613e959061587f565b90600052602060002090601f016020900481019282613eb75760008555613efe565b82601f10613ed057805160ff1916838001178555613efe565b82800160010185558215613efe579182015b82811115613efd578251825591602001919060010190613ee2565b5b509050613f0b9190613f0f565b5090565b5b80821115613f28576000816000905550600101613f10565b5090565b6000613f3f613f3a846155da565b6155a9565b905082815260208101848484011115613f5757600080fd5b613f6284828561583d565b509392505050565b6000613f7d613f788461560a565b6155a9565b905082815260208101848484011115613f9557600080fd5b613fa084828561583d565b509392505050565b600081359050613fb781615a33565b92915050565b600081359050613fcc81615a4a565b92915050565b600081359050613fe181615a61565b92915050565b600081519050613ff681615a61565b92915050565b600082601f83011261400d57600080fd5b813561401d848260208601613f2c565b91505092915050565b600082601f83011261403757600080fd5b8135614047848260208601613f6a565b91505092915050565b60008135905061405f81615a78565b92915050565b60006020828403121561407757600080fd5b600061408584828501613fa8565b91505092915050565b600080604083850312156140a157600080fd5b60006140af85828601613fa8565b92505060206140c085828601613fa8565b9150509250929050565b6000806000606084860312156140df57600080fd5b60006140ed86828701613fa8565b93505060206140fe86828701613fa8565b925050604061410f86828701614050565b9150509250925092565b6000806000806080858703121561412f57600080fd5b600061413d87828801613fa8565b945050602061414e87828801613fa8565b935050604061415f87828801614050565b925050606085013567ffffffffffffffff81111561417c57600080fd5b61418887828801613ffc565b91505092959194509250565b600080604083850312156141a757600080fd5b60006141b585828601613fa8565b92505060206141c685828601613fbd565b9150509250929050565b600080604083850312156141e357600080fd5b60006141f185828601613fa8565b925050602061420285828601614050565b9150509250929050565b60006020828403121561421e57600080fd5b600061422c84828501613fbd565b91505092915050565b60006020828403121561424757600080fd5b600061425584828501613fd2565b91505092915050565b60006020828403121561427057600080fd5b600061427e84828501613fe7565b91505092915050565b60006020828403121561429957600080fd5b600082013567ffffffffffffffff8111156142b357600080fd5b6142bf84828501613ffc565b91505092915050565b600080604083850312156142db57600080fd5b600083013567ffffffffffffffff8111156142f557600080fd5b61430185828601613ffc565b925050602061431285828601613fa8565b9150509250929050565b60006020828403121561432e57600080fd5b600082013567ffffffffffffffff81111561434857600080fd5b61435484828501614026565b91505092915050565b60006020828403121561436f57600080fd5b600061437d84828501614050565b91505092915050565b61438f816157b2565b82525050565b6143a66143a1826157b2565b6158fa565b82525050565b6143b5816157c4565b82525050565b6143c4816157d0565b82525050565b60006143d58261564f565b6143df8185615665565b93506143ef81856020860161584c565b6143f881615a15565b840191505092915050565b600061440e8261565a565b6144188185615681565b935061442881856020860161584c565b61443181615a15565b840191505092915050565b60006144478261565a565b6144518185615692565b935061446181856020860161584c565b80840191505092915050565b6000815461447a8161587f565b6144848186615692565b9450600182166000811461449f57600181146144b0576144e3565b60ff198316865281860193506144e3565b6144b98561563a565b60005b838110156144db578154818901526001820191506020810190506144bc565b838801955050505b50505092915050565b60006144f9601883615681565b91507f45434453413a20696e76616c6964207369676e617475726500000000000000006000830152602082019050919050565b6000614539602883615681565b91507f4d757374206265206f6e2077686974656c69737420746f20726573657276652060008301527f612073617069656e0000000000000000000000000000000000000000000000006020830152604082019050919050565b600061459f601f83615681565b91507f596f752063616e206f6e6c792072657365727665206f6e652053617069656e006000830152602082019050919050565b60006145df602183615681565b91507f53617069656e206e6565647320746f206265207265736572766564206669727360008301527f74000000000000000000000000000000000000000000000000000000000000006020830152604082019050919050565b6000614645602483615681565b91507f436f6e74726163747320617265206e6f7420616c6c6f77656420746f2072657360008301527f65727665000000000000000000000000000000000000000000000000000000006020830152604082019050919050565b60006146ab601f83615681565b91507f45434453413a20696e76616c6964207369676e6174757265206c656e677468006000830152602082019050919050565b60006146eb602b83615681565b91507f455243373231456e756d657261626c653a206f776e657220696e646578206f7560008301527f74206f6620626f756e64730000000000000000000000000000000000000000006020830152604082019050919050565b6000614751603283615681565b91507f4552433732313a207472616e7366657220746f206e6f6e20455243373231526560008301527f63656976657220696d706c656d656e74657200000000000000000000000000006020830152604082019050919050565b60006147b7602683615681565b91507f4f776e61626c653a206e6577206f776e657220697320746865207a65726f206160008301527f64647265737300000000000000000000000000000000000000000000000000006020830152604082019050919050565b600061481d601c83615681565b91507f4552433732313a20746f6b656e20616c7265616479206d696e746564000000006000830152602082019050919050565b600061485d601c83615681565b91507f416c6c2053617069656e732068617665206265656e206d696e746564000000006000830152602082019050919050565b600061489d602483615681565b91507f4552433732313a207472616e7366657220746f20746865207a65726f2061646460008301527f72657373000000000000000000000000000000000000000000000000000000006020830152604082019050919050565b6000614903601983615681565b91507f4552433732313a20617070726f766520746f2063616c6c6572000000000000006000830152602082019050919050565b6000614943602283615681565b91507f45434453413a20696e76616c6964207369676e6174757265202773272076616c60008301527f75650000000000000000000000000000000000000000000000000000000000006020830152604082019050919050565b60006149a9602c83615681565b91507f4552433732313a206f70657261746f7220717565727920666f72206e6f6e657860008301527f697374656e7420746f6b656e00000000000000000000000000000000000000006020830152604082019050919050565b6000614a0f603883615681565b91507f4552433732313a20617070726f76652063616c6c6572206973206e6f74206f7760008301527f6e6572206e6f7220617070726f76656420666f7220616c6c00000000000000006020830152604082019050919050565b6000614a75602a83615681565b91507f4552433732313a2062616c616e636520717565727920666f7220746865207a6560008301527f726f2061646472657373000000000000000000000000000000000000000000006020830152604082019050919050565b6000614adb602983615681565b91507f4552433732313a206f776e657220717565727920666f72206e6f6e657869737460008301527f656e7420746f6b656e00000000000000000000000000000000000000000000006020830152604082019050919050565b6000614b41602283615681565b91507f45434453413a20696e76616c6964207369676e6174757265202776272076616c60008301527f75650000000000000000000000000000000000000000000000000000000000006020830152604082019050919050565b6000614ba7602083615681565b91507f4552433732313a206d696e7420746f20746865207a65726f20616464726573736000830152602082019050919050565b6000614be7602c83615681565b91507f4552433732313a20617070726f76656420717565727920666f72206e6f6e657860008301527f697374656e7420746f6b656e00000000000000000000000000000000000000006020830152604082019050919050565b6000614c4d602083615681565b91507f4f776e61626c653a2063616c6c6572206973206e6f7420746865206f776e65726000830152602082019050919050565b6000614c8d602983615681565b91507f4552433732313a207472616e73666572206f6620746f6b656e2074686174206960008301527f73206e6f74206f776e00000000000000000000000000000000000000000000006020830152604082019050919050565b6000614cf3601b83615681565b91507f50726573616c6520737570706c7920686173206265656e206d657400000000006000830152602082019050919050565b6000614d33601a83615681565b91507f53616c652069732063757272656e746c7920696e6163746976650000000000006000830152602082019050919050565b6000614d73602183615681565b91507f4552433732313a20617070726f76616c20746f2063757272656e74206f776e6560008301527f72000000000000000000000000000000000000000000000000000000000000006020830152604082019050919050565b6000614dd9600083615676565b9150600082019050919050565b6000614df3603183615681565b91507f4552433732313a207472616e736665722063616c6c6572206973206e6f74206f60008301527f776e6572206e6f7220617070726f7665640000000000000000000000000000006020830152604082019050919050565b6000614e59601983615681565b91507f496e636f727265637420616d6f756e74206f66206574686572000000000000006000830152602082019050919050565b6000614e99602c83615681565b91507f455243373231456e756d657261626c653a20676c6f62616c20696e646578206f60008301527f7574206f6620626f756e647300000000000000000000000000000000000000006020830152604082019050919050565b6000614eff601d83615681565b91507f50726573616c652069732063757272656e746c7920696e6163746976650000006000830152602082019050919050565b6000614f3f602183615681565b91507f436f6e74726163747320617265206e6f7420616c6c6f77656420746f206d696e60008301527f74000000000000000000000000000000000000000000000000000000000000006020830152604082019050919050565b6000614fa5602483615681565b91507f596f752063616e6e6f74206d696e74206d6f7265207468616e206f6e6520536160008301527f7069656e000000000000000000000000000000000000000000000000000000006020830152604082019050919050565b61500781615826565b82525050565b61501e61501982615826565b61591e565b82525050565b61502d81615830565b82525050565b600061503f8285614395565b60148201915061504f828461500d565b6020820191508190509392505050565b600061506b828661446d565b9150615077828561443c565b9150615083828461446d565b9150819050949350505050565b600061509b82614dcc565b9150819050919050565b60006020820190506150ba6000830184614386565b92915050565b60006080820190506150d56000830187614386565b6150e26020830186614386565b6150ef6040830185614ffe565b818103606083015261510181846143ca565b905095945050505050565b600060208201905061512160008301846143ac565b92915050565b600060808201905061513c60008301876143bb565b6151496020830186615024565b61515660408301856143bb565b61516360608301846143bb565b95945050505050565b600060208201905081810360008301526151868184614403565b905092915050565b600060208201905081810360008301526151a7816144ec565b9050919050565b600060208201905081810360008301526151c78161452c565b9050919050565b600060208201905081810360008301526151e781614592565b9050919050565b60006020820190508181036000830152615207816145d2565b9050919050565b6000602082019050818103600083015261522781614638565b9050919050565b600060208201905081810360008301526152478161469e565b9050919050565b60006020820190508181036000830152615267816146de565b9050919050565b6000602082019050818103600083015261528781614744565b9050919050565b600060208201905081810360008301526152a7816147aa565b9050919050565b600060208201905081810360008301526152c781614810565b9050919050565b600060208201905081810360008301526152e781614850565b9050919050565b6000602082019050818103600083015261530781614890565b9050919050565b60006020820190508181036000830152615327816148f6565b9050919050565b6000602082019050818103600083015261534781614936565b9050919050565b600060208201905081810360008301526153678161499c565b9050919050565b6000602082019050818103600083015261538781614a02565b9050919050565b600060208201905081810360008301526153a781614a68565b9050919050565b600060208201905081810360008301526153c781614ace565b9050919050565b600060208201905081810360008301526153e781614b34565b9050919050565b6000602082019050818103600083015261540781614b9a565b9050919050565b6000602082019050818103600083015261542781614bda565b9050919050565b6000602082019050818103600083015261544781614c40565b9050919050565b6000602082019050818103600083015261546781614c80565b9050919050565b6000602082019050818103600083015261548781614ce6565b9050919050565b600060208201905081810360008301526154a781614d26565b9050919050565b600060208201905081810360008301526154c781614d66565b9050919050565b600060208201905081810360008301526154e781614de6565b9050919050565b6000602082019050818103600083015261550781614e4c565b9050919050565b6000602082019050818103600083015261552781614e8c565b9050919050565b6000602082019050818103600083015261554781614ef2565b9050919050565b6000602082019050818103600083015261556781614f32565b9050919050565b6000602082019050818103600083015261558781614f98565b9050919050565b60006020820190506155a36000830184614ffe565b92915050565b6000604051905081810181811067ffffffffffffffff821117156155d0576155cf6159e6565b5b8060405250919050565b600067ffffffffffffffff8211156155f5576155f46159e6565b5b601f19601f8301169050602081019050919050565b600067ffffffffffffffff821115615625576156246159e6565b5b601f19601f8301169050602081019050919050565b60008190508160005260206000209050919050565b600081519050919050565b600081519050919050565b600082825260208201905092915050565b600081905092915050565b600082825260208201905092915050565b600081905092915050565b60006156a882615826565b91506156b383615826565b9250827fffffffffffffffffffffffffffffffffffffffffffffffffffffffffffffffff038211156156e8576156e7615959565b5b828201905092915050565b60006156fe82615826565b915061570983615826565b92508261571957615718615988565b5b828204905092915050565b600061572f82615826565b915061573a83615826565b9250817fffffffffffffffffffffffffffffffffffffffffffffffffffffffffffffffff048311821515161561577357615772615959565b5b828202905092915050565b600061578982615826565b915061579483615826565b9250828210156157a7576157a6615959565b5b828203905092915050565b60006157bd82615806565b9050919050565b60008115159050919050565b6000819050919050565b60007fffffffff0000000000000000000000000000000000000000000000000000000082169050919050565b600073ffffffffffffffffffffffffffffffffffffffff82169050919050565b6000819050919050565b600060ff82169050919050565b82818337600083830152505050565b60005b8381101561586a57808201518184015260208101905061584f565b83811115615879576000848401525b50505050565b6000600282049050600182168061589757607f821691505b602082108114156158ab576158aa6159b7565b5b50919050565b60006158bc82615826565b91507fffffffffffffffffffffffffffffffffffffffffffffffffffffffffffffffff8214156158ef576158ee615959565b5b600182019050919050565b60006159058261590c565b9050919050565b600061591782615a26565b9050919050565b6000819050919050565b600061593382615826565b915061593e83615826565b92508261594e5761594d615988565b5b828206905092915050565b7f4e487b7100000000000000000000000000000000000000000000000000000000600052601160045260246000fd5b7f4e487b7100000000000000000000000000000000000000000000000000000000600052601260045260246000fd5b7f4e487b7100000000000000000000000000000000000000000000000000000000600052602260045260246000fd5b7f4e487b7100000000000000000000000000000000000000000000000000000000600052604160045260246000fd5b6000601f19601f8301169050919050565b60008160601b9050919050565b615a3c816157b2565b8114615a4757600080fd5b50565b615a53816157c4565b8114615a5e57600080fd5b50565b615a6a816157da565b8114615a7557600080fd5b50565b615a8181615826565b8114615a8c57600080fd5b5056fea2646970667358221220caeecc75b13936f0f4a0b08079a5bdba2971aa9591b3fc0f7660f7cd02bbb56764736f6c63430008000033697066733a2f2f516d5679315a57466867367374583756536f32586f466f706f4c714a5654377863335257526551364d5843524d562f697066733a2f2f516d576e72716b4265395a314232344835686f6f694d4d4e377a345a704b524d324e326e4e635a50506937733572",
  "linkReferences": {},
  "deployedLinkReferences": {}
}